{"contracts/TokenConversionManagerV3.sol":{"TokenConversionManagerV3":{"abi":[{"inputs":[{"internalType":"address","name":"token","type":"address"}],"stateMutability":"nonpayable","type":"constructor"},{"inputs":[],"name":"InsufficientConverterBalance","type":"error"},{"inputs":[],"name":"InsufficientLiquidityBalance","type":"error"},{"inputs":[],"name":"InvalidRequestOrSignature","type":"error"},{"inputs":[],"name":"InvalidUpdateConfigurations","type":"error"},{"inputs":[],"name":"UsedSignature","type":"error"},{"inputs":[],"name":"ViolationOfTxAmountLimits","type":"error"},{"inputs":[],"name":"WithdrawExceedsDeposit","type":"error"},{"inputs":[],"name":"ZeroAddress","type":"error"},{"anonymous":false,"inputs":[{"indexed":true,"internalType":"address","name":"tokenHolder","type":"address"},{"indexed":false,"internalType":"bytes32","name":"conversionId","type":"bytes32"},{"indexed":false,"internalType":"uint256","name":"amount","type":"uint256"}],"name":"ConversionIn","type":"event"},{"anonymous":false,"inputs":[{"indexed":true,"internalType":"address","name":"tokenHolder","type":"address"},{"indexed":false,"internalType":"bytes32","name":"conversionId","type":"bytes32"},{"indexed":false,"internalType":"uint256","name":"amount","type":"uint256"}],"name":"ConversionOut","type":"event"},{"anonymous":false,"inputs":[{"indexed":false,"internalType":"uint256","name":"removed","type":"uint256"},{"indexed":false,"internalType":"uint256","name":"totalLiquidity","type":"uint256"}],"name":"DecreaseLiquidity","type":"event"},{"anonymous":false,"inputs":[{"indexed":false,"internalType":"uint256","name":"added","type":"uint256"},{"indexed":false,"internalType":"uint256","name":"totalLiquidity","type":"uint256"}],"name":"IncreaseLiquidity","type":"event"},{"anonymous":false,"inputs":[{"indexed":false,"internalType":"address","name":"conversionAuthorizer","type":"address"}],"name":"NewAuthorizer","type":"event"},{"anonymous":false,"inputs":[{"indexed":true,"internalType":"address","name":"previousOwner","type":"address"},{"indexed":true,"internalType":"address","name":"newOwner","type":"address"}],"name":"OwnershipTransferStarted","type":"event"},{"anonymous":false,"inputs":[{"indexed":true,"internalType":"address","name":"previousOwner","type":"address"},{"indexed":true,"internalType":"address","name":"newOwner","type":"address"}],"name":"OwnershipTransferred","type":"event"},{"anonymous":false,"inputs":[{"indexed":false,"internalType":"uint256","name":"perTxnMinAmount","type":"uint256"},{"indexed":false,"internalType":"uint256","name":"perTxnMaxAmount","type":"uint256"}],"name":"UpdateConfiguration","type":"event"},{"inputs":[],"name":"acceptOwnership","outputs":[],"stateMutability":"nonpayable","type":"function"},{"inputs":[{"internalType":"address","name":"to","type":"address"},{"internalType":"uint256","name":"amount","type":"uint256"},{"internalType":"bytes32","name":"conversionId","type":"bytes32"},{"internalType":"uint8","name":"v","type":"uint8"},{"internalType":"bytes32","name":"r","type":"bytes32"},{"internalType":"bytes32","name":"s","type":"bytes32"}],"name":"conversionIn","outputs":[],"stateMutability":"payable","type":"function"},{"inputs":[{"internalType":"uint256","name":"amount","type":"uint256"},{"internalType":"bytes32","name":"conversionId","type":"bytes32"},{"internalType":"uint8","name":"v","type":"uint8"},{"internalType":"bytes32","name":"r","type":"bytes32"},{"internalType":"bytes32","name":"s","type":"bytes32"}],"name":"conversionOut","outputs":[],"stateMutability":"payable","type":"function"},{"inputs":[{"internalType":"uint256","name":"amount","type":"uint256"}],"name":"decreaseConverterLiquidity","outputs":[],"stateMutability":"nonpayable","type":"function"},{"inputs":[],"name":"getConversionAuthorizer","outputs":[{"internalType":"address","name":"","type":"address"}],"stateMutability":"view","type":"function"},{"inputs":[],"name":"getConversionConfigurations","outputs":[{"internalType":"uint256","name":"","type":"uint256"},{"internalType":"uint256","name":"","type":"uint256"}],"stateMutability":"view","type":"function"},{"inputs":[],"name":"getConverterBalance","outputs":[{"internalType":"uint256","name":"","type":"uint256"}],"stateMutability":"view","type":"function"},{"inputs":[{"internalType":"uint256","name":"amount","type":"uint256"}],"name":"increaseConverterLiquidity","outputs":[],"stateMutability":"nonpayable","type":"function"},{"inputs":[],"name":"owner","outputs":[{"internalType":"address","name":"","type":"address"}],"stateMutability":"view","type":"function"},{"inputs":[],"name":"pendingOwner","outputs":[{"internalType":"address","name":"","type":"address"}],"stateMutability":"view","type":"function"},{"inputs":[],"name":"renounceOwnership","outputs":[],"stateMutability":"nonpayable","type":"function"},{"inputs":[{"internalType":"address","name":"newOwner","type":"address"}],"name":"transferOwnership","outputs":[],"stateMutability":"nonpayable","type":"function"},{"inputs":[{"internalType":"address","name":"newAuthorizer","type":"address"}],"name":"updateAuthorizer","outputs":[],"stateMutability":"nonpayable","type":"function"},{"inputs":[{"internalType":"uint256","name":"perTxnMinAmount","type":"uint256"},{"internalType":"uint256","name":"perTxnMaxAmount","type":"uint256"}],"name":"updateConfigurations","outputs":[],"stateMutability":"nonpayable","type":"function"}],"evm":{"bytecode":{"linkReferences":{},"object":"60a060405234801561001057600080fd5b50604051612a87380380612a8783398181016040528101906100329190610295565b61004e61004361012c60201b60201c565b61013460201b60201c565b6001600281905550610070678b29c836ed8b92eb60c01b61016b60201b60201c565b61008a672041afa7b5bbe70d60c01b61016b60201b60201c565b8073ffffffffffffffffffffffffffffffffffffffff1660808173ffffffffffffffffffffffffffffffffffffffff16815250506100d86731c3c663b496a0d060c01b61016b60201b60201c565b6100e661012c60201b60201c565b600360006101000a81548173ffffffffffffffffffffffffffffffffffffffff021916908373ffffffffffffffffffffffffffffffffffffffff160217905550506102c2565b600033905090565b600160006101000a81549073ffffffffffffffffffffffffffffffffffffffff02191690556101688161016e60201b60201c565b50565b50565b60008060009054906101000a900473ffffffffffffffffffffffffffffffffffffffff169050816000806101000a81548173ffffffffffffffffffffffffffffffffffffffff021916908373ffffffffffffffffffffffffffffffffffffffff1602179055508173ffffffffffffffffffffffffffffffffffffffff168173ffffffffffffffffffffffffffffffffffffffff167f8be0079c531659141344cd1fd0a4f28419497f9722a3daafe3b4186f6b6457e060405160405180910390a35050565b600080fd5b600073ffffffffffffffffffffffffffffffffffffffff82169050919050565b600061026282610237565b9050919050565b61027281610257565b811461027d57600080fd5b50565b60008151905061028f81610269565b92915050565b6000602082840312156102ab576102aa610232565b5b60006102b984828501610280565b91505092915050565b60805161278e6102f96000396000818161032d0152818161060e015281816107b301528181610ebf01526116b1015261278e6000f3fe6080604052600436106100dd5760003560e01c80638da5cb5b1161007f578063e0a6657811610059578063e0a6657814610244578063e30c39781461026d578063f2fde38b14610298578063feea1529146102c1576100dd565b80638da5cb5b146101d25780639f23c9e2146101fd578063c72304ac14610219576100dd565b80636a02fcc4116100bb5780636a02fcc41461015f578063715018a61461017b57806376f0a62f1461019257806379ba5097146101bb576100dd565b80632a34e861146100e25780634d9f22651461010d578063637eaa4d14610136575b600080fd5b3480156100ee57600080fd5b506100f76102ed565b6040516101049190611ded565b60405180910390f35b34801561011957600080fd5b50610134600480360381019061012f9190611e39565b6103ca565b005b34801561014257600080fd5b5061015d60048036038101906101589190611e39565b610718565b005b61017960048036038101906101749190611f33565b6108bf565b005b34801561018757600080fd5b50610190610fe7565b005b34801561019e57600080fd5b506101b960048036038101906101b49190611fc0565b610ffb565b005b3480156101c757600080fd5b506101d06111bc565b005b3480156101de57600080fd5b506101e7611249565b6040516101f4919061200f565b60405180910390f35b6102176004803603810190610212919061202a565b611272565b005b34801561022557600080fd5b5061022e6117e7565b60405161023b919061200f565b60405180910390f35b34801561025057600080fd5b5061026b600480360381019061026691906120a5565b61184d565b005b34801561027957600080fd5b50610282611a64565b60405161028f919061200f565b60405180910390f35b3480156102a457600080fd5b506102bf60048036038101906102ba91906120a5565b611a8e565b005b3480156102cd57600080fd5b506102d6611b3b565b6040516102e49291906120d2565b60405180910390f35b600061030367387bdb4dcbd3101b60c01b611b88565b6103176756333ecac371fbe060c01b611b88565b61032b6784d56176b39e3fe560c01b611b88565b7f000000000000000000000000000000000000000000000000000000000000000073ffffffffffffffffffffffffffffffffffffffff166370a08231306040518263ffffffff1660e01b8152600401610384919061200f565b602060405180830381865afa1580156103a1573d6000803e3d6000fd5b505050506040513d601f19601f820116820180604052508101906103c59190612110565b905090565b6103de67f8f80933642b76e160c01b611b88565b6103e6611b8b565b6103fa6732cd6641bdfd7feb60c01b611b88565b61040e679297ef4da6e8701b60c01b611b88565b61042267c1358d3f4fc672ff60c01b611b88565b6104366756f6e19c02ce6d3960c01b611b88565b600060075403610486576104546776bdae363555f51860c01b611b88565b6040517f98e7913600000000000000000000000000000000000000000000000000000000815260040160405180910390fd5b61049a678ae91ec2d5c946ec60c01b611b88565b6104ae67986a25875d26464560c01b611b88565b6104c26781d350d7746d058660c01b611b88565b600754811115610512576104e0678ad0f8e51216366360c01b611b88565b6040517f31a581eb00000000000000000000000000000000000000000000000000000000815260040160405180910390fd5b610526675a61e0a94b97513a60c01b611b88565b61053a67dafebd2c6db3882a60c01b611b88565b61054e6722153f4a0730f7ee60c01b611b88565b6105566102ed565b8111156105a3576105716709f4f9cf63e4729a60c01b611b88565b6040517f3b4930bd00000000000000000000000000000000000000000000000000000000815260040160405180910390fd5b6105b7679fd00ed2c2e40e8e60c01b611b88565b6105cb6705e4f1329f73e02760c01b611b88565b80600760008282546105dd919061216c565b925050819055506105f8677aca07f5fb328d0b60c01b611b88565b61060c677a17d6f07660914360c01b611b88565b7f000000000000000000000000000000000000000000000000000000000000000073ffffffffffffffffffffffffffffffffffffffff1663a9059cbb610650611c09565b836040518363ffffffff1660e01b815260040161066e9291906121a0565b6020604051808303816000875af115801561068d573d6000803e3d6000fd5b505050506040513d601f19601f820116820180604052508101906106b19190612201565b506106c66792edf9a96864349660c01b611b88565b6106da67e1e6339d97cc44ec60c01b611b88565b7fdef4f5c5c7516369cb5aaa162fdf3f2c750a1c81c0fe3dfd9a47a97393cdafcf8160075460405161070d9291906120d2565b60405180910390a150565b61072c67dcc1d16dd86ebe1a60c01b611b88565b610734611b8b565b61074867a365bf572174baea60c01b611b88565b61075c6715066ffcd7034e9460c01b611b88565b610770673f5308b0fb1e001a60c01b611b88565b8060076000828254610782919061222e565b9250508190555061079d67e1c9c72fc2f7788060c01b611b88565b6107b167c9ce10e5f213850660c01b611b88565b7f000000000000000000000000000000000000000000000000000000000000000073ffffffffffffffffffffffffffffffffffffffff166323b872dd6107f5611c09565b30846040518463ffffffff1660e01b815260040161081593929190612262565b6020604051808303816000875af1158015610834573d6000803e3d6000fd5b505050506040513d601f19601f820116820180604052508101906108589190612201565b5061086d672e99b11b6bd9bb6860c01b611b88565b610881676f626c1c1ea18f9860c01b611b88565b7faf0e92ed9a06daf8b906385b588b940a355de1516517e37e03bcb3bacf9b9664816007546040516108b49291906120d2565b60405180910390a150565b6108d367342f281411b81b1660c01b611b88565b846108e8678d8c5f4f37193b1160c01b611b88565b6108fc676ef58d53a293cbf060c01b611b88565b610910677ac20ea05957c73f60c01b611b88565b60055481108015610931575061093067d95e5dc7531ebe1660c01b611c11565b5b80610959575060065481118015610958575061095767c6dc04666329084060c01b611c11565b5b5b156109b8576109726729a7bc0df4137d7e60c01b611b88565b61098667beb65d4fe5f140d860c01b611b88565b6040517f17dfb4ac00000000000000000000000000000000000000000000000000000000815260040160405180910390fd5b6109cc672716065b63b961b660c01b611b88565b6109e0674350322be668cf6460c01b611b88565b6109f467904ff7823275eba660c01b611b88565b610a08675c267929e4ff849660c01b611b88565b610a10611c1c565b610a24671d68075058ae921160c01b611b88565b610a3867fa944a308b214d3b60c01b611b88565b86610a4d673fa8fb39c9f9ecdd60c01b611b88565b610a6167ab071cab6100f2a060c01b611b88565b610a75678563a6370bf28c6860c01b611b88565b600073ffffffffffffffffffffffffffffffffffffffff168173ffffffffffffffffffffffffffffffffffffffff1603610b0357610abd67a41e696eee73413a60c01b611b88565b610ad1676baebb29bf50ac4660c01b611b88565b6040517fd92e233d00000000000000000000000000000000000000000000000000000000815260040160405180910390fd5b610b1767debb73e10f7a416360c01b611b88565b610b2b674e0d1ae2655af5f060c01b611b88565b610b3f6742c0709a020e000c60c01b611b88565b610b53674f51f0701166a23b60c01b611b88565b610b6767964c11e00ff53b9a60c01b611b88565b610b7b67e0523154dd56e62a60c01b611b88565b6000610bb988610b89611c09565b8930604051602001610b9e94939291906123e1565b60405160208183030381529060405280519060200120611c69565b9050610bcf677a548c1e8df4480d60c01b611b88565b610be367ba3bce57f524bbf960c01b611b88565b600360009054906101000a900473ffffffffffffffffffffffffffffffffffffffff1673ffffffffffffffffffffffffffffffffffffffff1660018288888860405160008152602001604052604051610c3f9493929190612458565b6020604051602081039080840390855afa158015610c61573d6000803e3d6000fd5b5050506020604051035173ffffffffffffffffffffffffffffffffffffffff1614610ce057610c9a675da8290840423f4b60c01b611b88565b610cae67d6ef44319481e49060c01b611b88565b6040517fa7a059bc00000000000000000000000000000000000000000000000000000000815260040160405180910390fd5b610cf467ad6f3ceae42b0c8960c01b611b88565b610d086779972ec682858c4860c01b611b88565b610d1c6738a44cf9b626ba1a60c01b611b88565b6004600082815260200190815260200160002060009054906101000a900460ff1615610d9c57610d56676ce7d62bb28b579260c01b611b88565b610d6a67d0c9b18690c3fbdb60c01b611b88565b6040517fcce9a82400000000000000000000000000000000000000000000000000000000815260040160405180910390fd5b610db0677461c61c4ad0a85060c01b611b88565b610dc467905f74a8a113933f60c01b611b88565b60016004600083815260200190815260200160002060006101000a81548160ff021916908315150217905550610e046796170f4e7595922260c01b611b88565b610e1867e89a4254bce8069660c01b611b88565b87610e216102ed565b1015610e8157610e3b671c95dcf529eb0a9f60c01b611b88565b610e4f6717d58ec77b573d5b60c01b611b88565b6040517f3b4930bd00000000000000000000000000000000000000000000000000000000815260040160405180910390fd5b610e9567725a3e16029e804560c01b611b88565b610ea96716561048dba2edf960c01b611b88565b610ebd6788a065cf914982c860c01b611b88565b7f000000000000000000000000000000000000000000000000000000000000000073ffffffffffffffffffffffffffffffffffffffff1663a9059cbb8a8a6040518363ffffffff1660e01b8152600401610f189291906121a0565b6020604051808303816000875af1158015610f37573d6000803e3d6000fd5b505050506040513d601f19601f82011682018060405250810190610f5b9190612201565b50610f70679c95ac088e583dc160c01b611b88565b610f8467be48a6dc839aaf1660c01b611b88565b8873ffffffffffffffffffffffffffffffffffffffff167f62a9b3e6446ab559d6b82c4f02cc923cd3b4e47444ef86446dab81a4d781c5af888a604051610fcc92919061249d565b60405180910390a25050610fde611cd5565b50505050505050565b610fef611b8b565b610ff96000611cdf565b565b61100f67533c01d2caa8b90c60c01b611b88565b611017611b8b565b61102b67733a4c1fe5607eb660c01b611b88565b61103f67030f2a254946942f60c01b611b88565b61105367aa30b104615a6eeb60c01b611b88565b611067679cc52eb187e4b93060c01b611b88565b6000821480156110875750611086679a1354d69bcaa21460c01b611c11565b5b806110ae57508181111580156110ad57506110ac670829e47cec8945a860c01b611c11565b5b5b1561110d576110c767689740d3fe35990e60c01b611b88565b6110db674dc83af2601ceabe60c01b611b88565b6040517f0eca686c00000000000000000000000000000000000000000000000000000000815260040160405180910390fd5b6111216728c0b9da131d401360c01b611b88565b61113567e81a4427f153a82660c01b611b88565b8160058190555061115067c28bf475f393098460c01b611b88565b8060068190555061116b672eff0ba6c92560bd60c01b611b88565b61117f67d15d82d37cd56b0460c01b611b88565b7f8485c7727cd53e56857497fd34c583b8a210322e0d093953b1ddb9f417db12cf82826040516111b09291906120d2565b60405180910390a15050565b60006111c6611c09565b90508073ffffffffffffffffffffffffffffffffffffffff166111e7611a64565b73ffffffffffffffffffffffffffffffffffffffff161461123d576040517f08c379a000000000000000000000000000000000000000000000000000000000815260040161123490612549565b60405180910390fd5b61124681611cdf565b50565b60008060009054906101000a900473ffffffffffffffffffffffffffffffffffffffff16905090565b61128667c1fa85c3dc3143f760c01b611b88565b8461129b678d8c5f4f37193b1160c01b611b88565b6112af676ef58d53a293cbf060c01b611b88565b6112c3677ac20ea05957c73f60c01b611b88565b600554811080156112e457506112e367d95e5dc7531ebe1660c01b611c11565b5b8061130c57506006548111801561130b575061130a67c6dc04666329084060c01b611c11565b5b5b1561136b576113256729a7bc0df4137d7e60c01b611b88565b61133967beb65d4fe5f140d860c01b611b88565b6040517f17dfb4ac00000000000000000000000000000000000000000000000000000000815260040160405180910390fd5b61137f672716065b63b961b660c01b611b88565b611393674350322be668cf6460c01b611b88565b6113a666fb53ce27111d5160c01b611b88565b6113ba67d5eda63a93eb620060c01b611b88565b6113c2611c1c565b6113d667b6c3e93a3aa17f0960c01b611b88565b6113ea67cd37d7a87b2bae4e60c01b611b88565b6113fe67de5b8df035e239e860c01b611b88565b611412673c22eeea3036a35d60c01b611b88565b600061145087611420611c09565b883060405160200161143594939291906125b5565b60405160208183030381529060405280519060200120611c69565b905061146667c25e4a2e6496a7f060c01b611b88565b61147a6703ee8e2a117f9d8860c01b611b88565b600360009054906101000a900473ffffffffffffffffffffffffffffffffffffffff1673ffffffffffffffffffffffffffffffffffffffff16600182878787604051600081526020016040526040516114d69493929190612458565b6020604051602081039080840390855afa1580156114f8573d6000803e3d6000fd5b5050506020604051035173ffffffffffffffffffffffffffffffffffffffff1614611577576115316734045640955dc11060c01b611b88565b611545671adbfad42bb18ccd60c01b611b88565b6040517fa7a059bc00000000000000000000000000000000000000000000000000000000815260040160405180910390fd5b61158b67d596a0a16f3b232d60c01b611b88565b61159f67383889ee63a36d5060c01b611b88565b6115b367a97016437fd20e3560c01b611b88565b6004600082815260200190815260200160002060009054906101000a900460ff1615611633576115ed67dd201fb03df2792e60c01b611b88565b611601674d8d8790f95efce660c01b611b88565b6040517fcce9a82400000000000000000000000000000000000000000000000000000000815260040160405180910390fd5b611647677b5337b7da1fd58b60c01b611b88565b61165b670818c03a7ecaf9c660c01b611b88565b60016004600083815260200190815260200160002060006101000a81548160ff02191690831515021790555061169b67c9b836ac2d7c002460c01b611b88565b6116af671826f7acb372a09360c01b611b88565b7f000000000000000000000000000000000000000000000000000000000000000073ffffffffffffffffffffffffffffffffffffffff166323b872dd6116f3611c09565b308a6040518463ffffffff1660e01b815260040161171393929190612262565b6020604051808303816000875af1158015611732573d6000803e3d6000fd5b505050506040513d601f19601f820116820180604052508101906117569190612201565b5061176b67d924a6984c3c3c5560c01b611b88565b61177f67e88cc4db5df35e8160c01b611b88565b611787611c09565b73ffffffffffffffffffffffffffffffffffffffff167fb999b06746a947f1958636b9b9377ae814fe578413dfffd4d3a7a96196fe02fc87896040516117ce92919061249d565b60405180910390a2506117df611cd5565b505050505050565b60006117fd67b8855885b80e0f6160c01b611b88565b611811673d6959c2af9db39460c01b611b88565b611825674da53d9a173419c760c01b611b88565b600360009054906101000a900473ffffffffffffffffffffffffffffffffffffffff16905090565b6118616757d66f17f460f14460c01b611b88565b80611876673fa8fb39c9f9ecdd60c01b611b88565b61188a67ab071cab6100f2a060c01b611b88565b61189e678563a6370bf28c6860c01b611b88565b600073ffffffffffffffffffffffffffffffffffffffff168173ffffffffffffffffffffffffffffffffffffffff160361192c576118e667a41e696eee73413a60c01b611b88565b6118fa676baebb29bf50ac4660c01b611b88565b6040517fd92e233d00000000000000000000000000000000000000000000000000000000815260040160405180910390fd5b61194067debb73e10f7a416360c01b611b88565b611954674e0d1ae2655af5f060c01b611b88565b61196867801f41bdb044acbe60c01b611b88565b61197c67dfb6977ab99fdcdb60c01b611b88565b611984611b8b565b61199867aed3158488ef2edb60c01b611b88565b6119ac675dd3a4f3c4382ae860c01b611b88565b6119c0679e87578a1345043360c01b611b88565b81600360006101000a81548173ffffffffffffffffffffffffffffffffffffffff021916908373ffffffffffffffffffffffffffffffffffffffff160217905550611a156759a44e567c1896a260c01b611b88565b611a296781f87000a57a226560c01b611b88565b7f08f53e6a9fbc3949bc0b9266bbe1927f0b282a34d92876ccbe188c24d17c6cbb82604051611a58919061200f565b60405180910390a15050565b6000600160009054906101000a900473ffffffffffffffffffffffffffffffffffffffff16905090565b611a96611b8b565b80600160006101000a81548173ffffffffffffffffffffffffffffffffffffffff021916908373ffffffffffffffffffffffffffffffffffffffff1602179055508073ffffffffffffffffffffffffffffffffffffffff16611af6611249565b73ffffffffffffffffffffffffffffffffffffffff167f38d16b8cac22d99fc7c124b9cd0de2d3fa1faef420bfe791d8c362d765e2270060405160405180910390a350565b600080611b5267a605d4a1a860fcb860c01b611b88565b611b6667d0bc918c21c5854760c01b611b88565b611b7a677ed5387fe48850ae60c01b611b88565b600554600654915091509091565b50565b611b93611c09565b73ffffffffffffffffffffffffffffffffffffffff16611bb1611249565b73ffffffffffffffffffffffffffffffffffffffff1614611c07576040517f08c379a0000000000000000000000000000000000000000000000000000000008152600401611bfe9061265a565b60405180910390fd5b565b600033905090565b600060019050919050565b6002805403611c60576040517f08c379a0000000000000000000000000000000000000000000000000000000008152600401611c57906126c6565b60405180910390fd5b60028081905550565b6000611c7f67c56f540cd146da0f60c01b611b88565b611c93674087d2c01f5665cc60c01b611b88565b611ca7675928fa1109fac6f760c01b611b88565b81604051602001611cb89190612732565b604051602081830303815290604052805190602001209050919050565b6001600281905550565b600160006101000a81549073ffffffffffffffffffffffffffffffffffffffff0219169055611d0d81611d10565b50565b60008060009054906101000a900473ffffffffffffffffffffffffffffffffffffffff169050816000806101000a81548173ffffffffffffffffffffffffffffffffffffffff021916908373ffffffffffffffffffffffffffffffffffffffff1602179055508173ffffffffffffffffffffffffffffffffffffffff168173ffffffffffffffffffffffffffffffffffffffff167f8be0079c531659141344cd1fd0a4f28419497f9722a3daafe3b4186f6b6457e060405160405180910390a35050565b6000819050919050565b611de781611dd4565b82525050565b6000602082019050611e026000830184611dde565b92915050565b600080fd5b611e1681611dd4565b8114611e2157600080fd5b50565b600081359050611e3381611e0d565b92915050565b600060208284031215611e4f57611e4e611e08565b5b6000611e5d84828501611e24565b91505092915050565b600073ffffffffffffffffffffffffffffffffffffffff82169050919050565b6000611e9182611e66565b9050919050565b611ea181611e86565b8114611eac57600080fd5b50565b600081359050611ebe81611e98565b92915050565b6000819050919050565b611ed781611ec4565b8114611ee257600080fd5b50565b600081359050611ef481611ece565b92915050565b600060ff82169050919050565b611f1081611efa565b8114611f1b57600080fd5b50565b600081359050611f2d81611f07565b92915050565b60008060008060008060c08789031215611f5057611f4f611e08565b5b6000611f5e89828a01611eaf565b9650506020611f6f89828a01611e24565b9550506040611f8089828a01611ee5565b9450506060611f9189828a01611f1e565b9350506080611fa289828a01611ee5565b92505060a0611fb389828a01611ee5565b9150509295509295509295565b60008060408385031215611fd757611fd6611e08565b5b6000611fe585828601611e24565b9250506020611ff685828601611e24565b9150509250929050565b61200981611e86565b82525050565b60006020820190506120246000830184612000565b92915050565b600080600080600060a0868803121561204657612045611e08565b5b600061205488828901611e24565b955050602061206588828901611ee5565b945050604061207688828901611f1e565b935050606061208788828901611ee5565b925050608061209888828901611ee5565b9150509295509295909350565b6000602082840312156120bb576120ba611e08565b5b60006120c984828501611eaf565b91505092915050565b60006040820190506120e76000830185611dde565b6120f46020830184611dde565b9392505050565b60008151905061210a81611e0d565b92915050565b60006020828403121561212657612125611e08565b5b6000612134848285016120fb565b91505092915050565b7f4e487b7100000000000000000000000000000000000000000000000000000000600052601160045260246000fd5b600061217782611dd4565b915061218283611dd4565b925082820390508181111561219a5761219961213d565b5b92915050565b60006040820190506121b56000830185612000565b6121c26020830184611dde565b9392505050565b60008115159050919050565b6121de816121c9565b81146121e957600080fd5b50565b6000815190506121fb816121d5565b92915050565b60006020828403121561221757612216611e08565b5b6000612225848285016121ec565b91505092915050565b600061223982611dd4565b915061224483611dd4565b925082820190508082111561225c5761225b61213d565b5b92915050565b60006060820190506122776000830186612000565b6122846020830185612000565b6122916040830184611dde565b949350505050565b600081905092915050565b7f5f5f636f6e76657273696f6e496e000000000000000000000000000000000000600082015250565b60006122da600e83612299565b91506122e5826122a4565b600e82019050919050565b6000819050919050565b61230b61230682611dd4565b6122f0565b82525050565b60008160601b9050919050565b600061232982612311565b9050919050565b600061233b8261231e565b9050919050565b61235361234e82611e86565b612330565b82525050565b6000819050919050565b61237461236f82611ec4565b612359565b82525050565b6000819050919050565b600061239f61239a61239584611e66565b61237a565b611e66565b9050919050565b60006123b182612384565b9050919050565b60006123c3826123a6565b9050919050565b6123db6123d6826123b8565b612330565b82525050565b60006123ec826122cd565b91506123f882876122fa565b6020820191506124088286612342565b6014820191506124188285612363565b60208201915061242882846123ca565b60148201915081905095945050505050565b61244381611ec4565b82525050565b61245281611efa565b82525050565b600060808201905061246d600083018761243a565b61247a6020830186612449565b612487604083018561243a565b612494606083018461243a565b95945050505050565b60006040820190506124b2600083018561243a565b6124bf6020830184611dde565b9392505050565b600082825260208201905092915050565b7f4f776e61626c6532537465703a2063616c6c6572206973206e6f74207468652060008201527f6e6577206f776e65720000000000000000000000000000000000000000000000602082015250565b60006125336029836124c6565b915061253e826124d7565b604082019050919050565b6000602082019050818103600083015261256281612526565b9050919050565b7f5f5f636f6e76657273696f6e4f75740000000000000000000000000000000000600082015250565b600061259f600f83612299565b91506125aa82612569565b600f82019050919050565b60006125c082612592565b91506125cc82876122fa565b6020820191506125dc8286612342565b6014820191506125ec8285612363565b6020820191506125fc82846123ca565b60148201915081905095945050505050565b7f4f776e61626c653a2063616c6c6572206973206e6f7420746865206f776e6572600082015250565b60006126446020836124c6565b915061264f8261260e565b602082019050919050565b6000602082019050818103600083015261267381612637565b9050919050565b7f5265656e7472616e637947756172643a207265656e7472616e742063616c6c00600082015250565b60006126b0601f836124c6565b91506126bb8261267a565b602082019050919050565b600060208201905081810360008301526126df816126a3565b9050919050565b7f19457468657265756d205369676e6564204d6573736167653a0a333200000000600082015250565b600061271c601c83612299565b9150612727826126e6565b601c82019050919050565b600061273d8261270f565b91506127498284612363565b6020820191508190509291505056fea264697066735822122016b3f78a68ba238d49a7effdcce6ba1986825e706cc1c1ac3621383c36ac56e264736f6c634300081a0033","opcodes":"PUSH1 0xA0 PUSH1 0x40 MSTORE CALLVALUE DUP1 ISZERO PUSH2 0x10 JUMPI PUSH1 0x0 DUP1 REVERT JUMPDEST POP PUSH1 0x40 MLOAD PUSH2 0x2A87 CODESIZE SUB DUP1 PUSH2 0x2A87 DUP4 CODECOPY DUP2 DUP2 ADD PUSH1 0x40 MSTORE DUP2 ADD SWAP1 PUSH2 0x32 SWAP2 SWAP1 PUSH2 0x295 JUMP JUMPDEST PUSH2 0x4E PUSH2 0x43 PUSH2 0x12C PUSH1 0x20 SHL PUSH1 0x20 SHR JUMP JUMPDEST PUSH2 0x134 PUSH1 0x20 SHL PUSH1 0x20 SHR JUMP JUMPDEST PUSH1 0x1 PUSH1 0x2 DUP2 SWAP1 SSTORE POP PUSH2 0x70 PUSH8 0x8B29C836ED8B92EB PUSH1 0xC0 SHL PUSH2 0x16B PUSH1 0x20 SHL PUSH1 0x20 SHR JUMP JUMPDEST PUSH2 0x8A PUSH8 0x2041AFA7B5BBE70D PUSH1 0xC0 SHL PUSH2 0x16B PUSH1 0x20 SHL PUSH1 0x20 SHR JUMP JUMPDEST DUP1 PUSH20 0xFFFFFFFFFFFFFFFFFFFFFFFFFFFFFFFFFFFFFFFF AND PUSH1 0x80 DUP2 PUSH20 0xFFFFFFFFFFFFFFFFFFFFFFFFFFFFFFFFFFFFFFFF AND DUP2 MSTORE POP POP PUSH2 0xD8 PUSH8 0x31C3C663B496A0D0 PUSH1 0xC0 SHL PUSH2 0x16B PUSH1 0x20 SHL PUSH1 0x20 SHR JUMP JUMPDEST PUSH2 0xE6 PUSH2 0x12C PUSH1 0x20 SHL PUSH1 0x20 SHR JUMP JUMPDEST PUSH1 0x3 PUSH1 0x0 PUSH2 0x100 EXP DUP2 SLOAD DUP2 PUSH20 0xFFFFFFFFFFFFFFFFFFFFFFFFFFFFFFFFFFFFFFFF MUL NOT AND SWAP1 DUP4 PUSH20 0xFFFFFFFFFFFFFFFFFFFFFFFFFFFFFFFFFFFFFFFF AND MUL OR SWAP1 SSTORE POP POP PUSH2 0x2C2 JUMP JUMPDEST PUSH1 0x0 CALLER SWAP1 POP SWAP1 JUMP JUMPDEST PUSH1 0x1 PUSH1 0x0 PUSH2 0x100 EXP DUP2 SLOAD SWAP1 PUSH20 0xFFFFFFFFFFFFFFFFFFFFFFFFFFFFFFFFFFFFFFFF MUL NOT AND SWAP1 SSTORE PUSH2 0x168 DUP2 PUSH2 0x16E PUSH1 0x20 SHL PUSH1 0x20 SHR JUMP JUMPDEST POP JUMP JUMPDEST POP JUMP JUMPDEST PUSH1 0x0 DUP1 PUSH1 0x0 SWAP1 SLOAD SWAP1 PUSH2 0x100 EXP SWAP1 DIV PUSH20 0xFFFFFFFFFFFFFFFFFFFFFFFFFFFFFFFFFFFFFFFF AND SWAP1 POP DUP2 PUSH1 0x0 DUP1 PUSH2 0x100 EXP DUP2 SLOAD DUP2 PUSH20 0xFFFFFFFFFFFFFFFFFFFFFFFFFFFFFFFFFFFFFFFF MUL NOT AND SWAP1 DUP4 PUSH20 0xFFFFFFFFFFFFFFFFFFFFFFFFFFFFFFFFFFFFFFFF AND MUL OR SWAP1 SSTORE POP DUP2 PUSH20 0xFFFFFFFFFFFFFFFFFFFFFFFFFFFFFFFFFFFFFFFF AND DUP2 PUSH20 0xFFFFFFFFFFFFFFFFFFFFFFFFFFFFFFFFFFFFFFFF AND PUSH32 0x8BE0079C531659141344CD1FD0A4F28419497F9722A3DAAFE3B4186F6B6457E0 PUSH1 0x40 MLOAD PUSH1 0x40 MLOAD DUP1 SWAP2 SUB SWAP1 LOG3 POP POP JUMP JUMPDEST PUSH1 0x0 DUP1 REVERT JUMPDEST PUSH1 0x0 PUSH20 0xFFFFFFFFFFFFFFFFFFFFFFFFFFFFFFFFFFFFFFFF DUP3 AND SWAP1 POP SWAP2 SWAP1 POP JUMP JUMPDEST PUSH1 0x0 PUSH2 0x262 DUP3 PUSH2 0x237 JUMP JUMPDEST SWAP1 POP SWAP2 SWAP1 POP JUMP JUMPDEST PUSH2 0x272 DUP2 PUSH2 0x257 JUMP JUMPDEST DUP2 EQ PUSH2 0x27D JUMPI PUSH1 0x0 DUP1 REVERT JUMPDEST POP JUMP JUMPDEST PUSH1 0x0 DUP2 MLOAD SWAP1 POP PUSH2 0x28F DUP2 PUSH2 0x269 JUMP JUMPDEST SWAP3 SWAP2 POP POP JUMP JUMPDEST PUSH1 0x0 PUSH1 0x20 DUP3 DUP5 SUB SLT ISZERO PUSH2 0x2AB JUMPI PUSH2 0x2AA PUSH2 0x232 JUMP JUMPDEST JUMPDEST PUSH1 0x0 PUSH2 0x2B9 DUP5 DUP3 DUP6 ADD PUSH2 0x280 JUMP JUMPDEST SWAP2 POP POP SWAP3 SWAP2 POP POP JUMP JUMPDEST PUSH1 0x80 MLOAD PUSH2 0x278E PUSH2 0x2F9 PUSH1 0x0 CODECOPY PUSH1 0x0 DUP2 DUP2 PUSH2 0x32D ADD MSTORE DUP2 DUP2 PUSH2 0x60E ADD MSTORE DUP2 DUP2 PUSH2 0x7B3 ADD MSTORE DUP2 DUP2 PUSH2 0xEBF ADD MSTORE PUSH2 0x16B1 ADD MSTORE PUSH2 0x278E PUSH1 0x0 RETURN INVALID PUSH1 0x80 PUSH1 0x40 MSTORE PUSH1 0x4 CALLDATASIZE LT PUSH2 0xDD JUMPI PUSH1 0x0 CALLDATALOAD PUSH1 0xE0 SHR DUP1 PUSH4 0x8DA5CB5B GT PUSH2 0x7F JUMPI DUP1 PUSH4 0xE0A66578 GT PUSH2 0x59 JUMPI DUP1 PUSH4 0xE0A66578 EQ PUSH2 0x244 JUMPI DUP1 PUSH4 0xE30C3978 EQ PUSH2 0x26D JUMPI DUP1 PUSH4 0xF2FDE38B EQ PUSH2 0x298 JUMPI DUP1 PUSH4 0xFEEA1529 EQ PUSH2 0x2C1 JUMPI PUSH2 0xDD JUMP JUMPDEST DUP1 PUSH4 0x8DA5CB5B EQ PUSH2 0x1D2 JUMPI DUP1 PUSH4 0x9F23C9E2 EQ PUSH2 0x1FD JUMPI DUP1 PUSH4 0xC72304AC EQ PUSH2 0x219 JUMPI PUSH2 0xDD JUMP JUMPDEST DUP1 PUSH4 0x6A02FCC4 GT PUSH2 0xBB JUMPI DUP1 PUSH4 0x6A02FCC4 EQ PUSH2 0x15F JUMPI DUP1 PUSH4 0x715018A6 EQ PUSH2 0x17B JUMPI DUP1 PUSH4 0x76F0A62F EQ PUSH2 0x192 JUMPI DUP1 PUSH4 0x79BA5097 EQ PUSH2 0x1BB JUMPI PUSH2 0xDD JUMP JUMPDEST DUP1 PUSH4 0x2A34E861 EQ PUSH2 0xE2 JUMPI DUP1 PUSH4 0x4D9F2265 EQ PUSH2 0x10D JUMPI DUP1 PUSH4 0x637EAA4D EQ PUSH2 0x136 JUMPI JUMPDEST PUSH1 0x0 DUP1 REVERT JUMPDEST CALLVALUE DUP1 ISZERO PUSH2 0xEE JUMPI PUSH1 0x0 DUP1 REVERT JUMPDEST POP PUSH2 0xF7 PUSH2 0x2ED JUMP JUMPDEST PUSH1 0x40 MLOAD PUSH2 0x104 SWAP2 SWAP1 PUSH2 0x1DED JUMP JUMPDEST PUSH1 0x40 MLOAD DUP1 SWAP2 SUB SWAP1 RETURN JUMPDEST CALLVALUE DUP1 ISZERO PUSH2 0x119 JUMPI PUSH1 0x0 DUP1 REVERT JUMPDEST POP PUSH2 0x134 PUSH1 0x4 DUP1 CALLDATASIZE SUB DUP2 ADD SWAP1 PUSH2 0x12F SWAP2 SWAP1 PUSH2 0x1E39 JUMP JUMPDEST PUSH2 0x3CA JUMP JUMPDEST STOP JUMPDEST CALLVALUE DUP1 ISZERO PUSH2 0x142 JUMPI PUSH1 0x0 DUP1 REVERT JUMPDEST POP PUSH2 0x15D PUSH1 0x4 DUP1 CALLDATASIZE SUB DUP2 ADD SWAP1 PUSH2 0x158 SWAP2 SWAP1 PUSH2 0x1E39 JUMP JUMPDEST PUSH2 0x718 JUMP JUMPDEST STOP JUMPDEST PUSH2 0x179 PUSH1 0x4 DUP1 CALLDATASIZE SUB DUP2 ADD SWAP1 PUSH2 0x174 SWAP2 SWAP1 PUSH2 0x1F33 JUMP JUMPDEST PUSH2 0x8BF JUMP JUMPDEST STOP JUMPDEST CALLVALUE DUP1 ISZERO PUSH2 0x187 JUMPI PUSH1 0x0 DUP1 REVERT JUMPDEST POP PUSH2 0x190 PUSH2 0xFE7 JUMP JUMPDEST STOP JUMPDEST CALLVALUE DUP1 ISZERO PUSH2 0x19E JUMPI PUSH1 0x0 DUP1 REVERT JUMPDEST POP PUSH2 0x1B9 PUSH1 0x4 DUP1 CALLDATASIZE SUB DUP2 ADD SWAP1 PUSH2 0x1B4 SWAP2 SWAP1 PUSH2 0x1FC0 JUMP JUMPDEST PUSH2 0xFFB JUMP JUMPDEST STOP JUMPDEST CALLVALUE DUP1 ISZERO PUSH2 0x1C7 JUMPI PUSH1 0x0 DUP1 REVERT JUMPDEST POP PUSH2 0x1D0 PUSH2 0x11BC JUMP JUMPDEST STOP JUMPDEST CALLVALUE DUP1 ISZERO PUSH2 0x1DE JUMPI PUSH1 0x0 DUP1 REVERT JUMPDEST POP PUSH2 0x1E7 PUSH2 0x1249 JUMP JUMPDEST PUSH1 0x40 MLOAD PUSH2 0x1F4 SWAP2 SWAP1 PUSH2 0x200F JUMP JUMPDEST PUSH1 0x40 MLOAD DUP1 SWAP2 SUB SWAP1 RETURN JUMPDEST PUSH2 0x217 PUSH1 0x4 DUP1 CALLDATASIZE SUB DUP2 ADD SWAP1 PUSH2 0x212 SWAP2 SWAP1 PUSH2 0x202A JUMP JUMPDEST PUSH2 0x1272 JUMP JUMPDEST STOP JUMPDEST CALLVALUE DUP1 ISZERO PUSH2 0x225 JUMPI PUSH1 0x0 DUP1 REVERT JUMPDEST POP PUSH2 0x22E PUSH2 0x17E7 JUMP JUMPDEST PUSH1 0x40 MLOAD PUSH2 0x23B SWAP2 SWAP1 PUSH2 0x200F JUMP JUMPDEST PUSH1 0x40 MLOAD DUP1 SWAP2 SUB SWAP1 RETURN JUMPDEST CALLVALUE DUP1 ISZERO PUSH2 0x250 JUMPI PUSH1 0x0 DUP1 REVERT JUMPDEST POP PUSH2 0x26B PUSH1 0x4 DUP1 CALLDATASIZE SUB DUP2 ADD SWAP1 PUSH2 0x266 SWAP2 SWAP1 PUSH2 0x20A5 JUMP JUMPDEST PUSH2 0x184D JUMP JUMPDEST STOP JUMPDEST CALLVALUE DUP1 ISZERO PUSH2 0x279 JUMPI PUSH1 0x0 DUP1 REVERT JUMPDEST POP PUSH2 0x282 PUSH2 0x1A64 JUMP JUMPDEST PUSH1 0x40 MLOAD PUSH2 0x28F SWAP2 SWAP1 PUSH2 0x200F JUMP JUMPDEST PUSH1 0x40 MLOAD DUP1 SWAP2 SUB SWAP1 RETURN JUMPDEST CALLVALUE DUP1 ISZERO PUSH2 0x2A4 JUMPI PUSH1 0x0 DUP1 REVERT JUMPDEST POP PUSH2 0x2BF PUSH1 0x4 DUP1 CALLDATASIZE SUB DUP2 ADD SWAP1 PUSH2 0x2BA SWAP2 SWAP1 PUSH2 0x20A5 JUMP JUMPDEST PUSH2 0x1A8E JUMP JUMPDEST STOP JUMPDEST CALLVALUE DUP1 ISZERO PUSH2 0x2CD JUMPI PUSH1 0x0 DUP1 REVERT JUMPDEST POP PUSH2 0x2D6 PUSH2 0x1B3B JUMP JUMPDEST PUSH1 0x40 MLOAD PUSH2 0x2E4 SWAP3 SWAP2 SWAP1 PUSH2 0x20D2 JUMP JUMPDEST PUSH1 0x40 MLOAD DUP1 SWAP2 SUB SWAP1 RETURN JUMPDEST PUSH1 0x0 PUSH2 0x303 PUSH8 0x387BDB4DCBD3101B PUSH1 0xC0 SHL PUSH2 0x1B88 JUMP JUMPDEST PUSH2 0x317 PUSH8 0x56333ECAC371FBE0 PUSH1 0xC0 SHL PUSH2 0x1B88 JUMP JUMPDEST PUSH2 0x32B PUSH8 0x84D56176B39E3FE5 PUSH1 0xC0 SHL PUSH2 0x1B88 JUMP JUMPDEST PUSH32 0x0 PUSH20 0xFFFFFFFFFFFFFFFFFFFFFFFFFFFFFFFFFFFFFFFF AND PUSH4 0x70A08231 ADDRESS PUSH1 0x40 MLOAD DUP3 PUSH4 0xFFFFFFFF AND PUSH1 0xE0 SHL DUP2 MSTORE PUSH1 0x4 ADD PUSH2 0x384 SWAP2 SWAP1 PUSH2 0x200F JUMP JUMPDEST PUSH1 0x20 PUSH1 0x40 MLOAD DUP1 DUP4 SUB DUP2 DUP7 GAS STATICCALL ISZERO DUP1 ISZERO PUSH2 0x3A1 JUMPI RETURNDATASIZE PUSH1 0x0 DUP1 RETURNDATACOPY RETURNDATASIZE PUSH1 0x0 REVERT JUMPDEST POP POP POP POP PUSH1 0x40 MLOAD RETURNDATASIZE PUSH1 0x1F NOT PUSH1 0x1F DUP3 ADD AND DUP3 ADD DUP1 PUSH1 0x40 MSTORE POP DUP2 ADD SWAP1 PUSH2 0x3C5 SWAP2 SWAP1 PUSH2 0x2110 JUMP JUMPDEST SWAP1 POP SWAP1 JUMP JUMPDEST PUSH2 0x3DE PUSH8 0xF8F80933642B76E1 PUSH1 0xC0 SHL PUSH2 0x1B88 JUMP JUMPDEST PUSH2 0x3E6 PUSH2 0x1B8B JUMP JUMPDEST PUSH2 0x3FA PUSH8 0x32CD6641BDFD7FEB PUSH1 0xC0 SHL PUSH2 0x1B88 JUMP JUMPDEST PUSH2 0x40E PUSH8 0x9297EF4DA6E8701B PUSH1 0xC0 SHL PUSH2 0x1B88 JUMP JUMPDEST PUSH2 0x422 PUSH8 0xC1358D3F4FC672FF PUSH1 0xC0 SHL PUSH2 0x1B88 JUMP JUMPDEST PUSH2 0x436 PUSH8 0x56F6E19C02CE6D39 PUSH1 0xC0 SHL PUSH2 0x1B88 JUMP JUMPDEST PUSH1 0x0 PUSH1 0x7 SLOAD SUB PUSH2 0x486 JUMPI PUSH2 0x454 PUSH8 0x76BDAE363555F518 PUSH1 0xC0 SHL PUSH2 0x1B88 JUMP JUMPDEST PUSH1 0x40 MLOAD PUSH32 0x98E7913600000000000000000000000000000000000000000000000000000000 DUP2 MSTORE PUSH1 0x4 ADD PUSH1 0x40 MLOAD DUP1 SWAP2 SUB SWAP1 REVERT JUMPDEST PUSH2 0x49A PUSH8 0x8AE91EC2D5C946EC PUSH1 0xC0 SHL PUSH2 0x1B88 JUMP JUMPDEST PUSH2 0x4AE PUSH8 0x986A25875D264645 PUSH1 0xC0 SHL PUSH2 0x1B88 JUMP JUMPDEST PUSH2 0x4C2 PUSH8 0x81D350D7746D0586 PUSH1 0xC0 SHL PUSH2 0x1B88 JUMP JUMPDEST PUSH1 0x7 SLOAD DUP2 GT ISZERO PUSH2 0x512 JUMPI PUSH2 0x4E0 PUSH8 0x8AD0F8E512163663 PUSH1 0xC0 SHL PUSH2 0x1B88 JUMP JUMPDEST PUSH1 0x40 MLOAD PUSH32 0x31A581EB00000000000000000000000000000000000000000000000000000000 DUP2 MSTORE PUSH1 0x4 ADD PUSH1 0x40 MLOAD DUP1 SWAP2 SUB SWAP1 REVERT JUMPDEST PUSH2 0x526 PUSH8 0x5A61E0A94B97513A PUSH1 0xC0 SHL PUSH2 0x1B88 JUMP JUMPDEST PUSH2 0x53A PUSH8 0xDAFEBD2C6DB3882A PUSH1 0xC0 SHL PUSH2 0x1B88 JUMP JUMPDEST PUSH2 0x54E PUSH8 0x22153F4A0730F7EE PUSH1 0xC0 SHL PUSH2 0x1B88 JUMP JUMPDEST PUSH2 0x556 PUSH2 0x2ED JUMP JUMPDEST DUP2 GT ISZERO PUSH2 0x5A3 JUMPI PUSH2 0x571 PUSH8 0x9F4F9CF63E4729A PUSH1 0xC0 SHL PUSH2 0x1B88 JUMP JUMPDEST PUSH1 0x40 MLOAD PUSH32 0x3B4930BD00000000000000000000000000000000000000000000000000000000 DUP2 MSTORE PUSH1 0x4 ADD PUSH1 0x40 MLOAD DUP1 SWAP2 SUB SWAP1 REVERT JUMPDEST PUSH2 0x5B7 PUSH8 0x9FD00ED2C2E40E8E PUSH1 0xC0 SHL PUSH2 0x1B88 JUMP JUMPDEST PUSH2 0x5CB PUSH8 0x5E4F1329F73E027 PUSH1 0xC0 SHL PUSH2 0x1B88 JUMP JUMPDEST DUP1 PUSH1 0x7 PUSH1 0x0 DUP3 DUP3 SLOAD PUSH2 0x5DD SWAP2 SWAP1 PUSH2 0x216C JUMP JUMPDEST SWAP3 POP POP DUP2 SWAP1 SSTORE POP PUSH2 0x5F8 PUSH8 0x7ACA07F5FB328D0B PUSH1 0xC0 SHL PUSH2 0x1B88 JUMP JUMPDEST PUSH2 0x60C PUSH8 0x7A17D6F076609143 PUSH1 0xC0 SHL PUSH2 0x1B88 JUMP JUMPDEST PUSH32 0x0 PUSH20 0xFFFFFFFFFFFFFFFFFFFFFFFFFFFFFFFFFFFFFFFF AND PUSH4 0xA9059CBB PUSH2 0x650 PUSH2 0x1C09 JUMP JUMPDEST DUP4 PUSH1 0x40 MLOAD DUP4 PUSH4 0xFFFFFFFF AND PUSH1 0xE0 SHL DUP2 MSTORE PUSH1 0x4 ADD PUSH2 0x66E SWAP3 SWAP2 SWAP1 PUSH2 0x21A0 JUMP JUMPDEST PUSH1 0x20 PUSH1 0x40 MLOAD DUP1 DUP4 SUB DUP2 PUSH1 0x0 DUP8 GAS CALL ISZERO DUP1 ISZERO PUSH2 0x68D JUMPI RETURNDATASIZE PUSH1 0x0 DUP1 RETURNDATACOPY RETURNDATASIZE PUSH1 0x0 REVERT JUMPDEST POP POP POP POP PUSH1 0x40 MLOAD RETURNDATASIZE PUSH1 0x1F NOT PUSH1 0x1F DUP3 ADD AND DUP3 ADD DUP1 PUSH1 0x40 MSTORE POP DUP2 ADD SWAP1 PUSH2 0x6B1 SWAP2 SWAP1 PUSH2 0x2201 JUMP JUMPDEST POP PUSH2 0x6C6 PUSH8 0x92EDF9A968643496 PUSH1 0xC0 SHL PUSH2 0x1B88 JUMP JUMPDEST PUSH2 0x6DA PUSH8 0xE1E6339D97CC44EC PUSH1 0xC0 SHL PUSH2 0x1B88 JUMP JUMPDEST PUSH32 0xDEF4F5C5C7516369CB5AAA162FDF3F2C750A1C81C0FE3DFD9A47A97393CDAFCF DUP2 PUSH1 0x7 SLOAD PUSH1 0x40 MLOAD PUSH2 0x70D SWAP3 SWAP2 SWAP1 PUSH2 0x20D2 JUMP JUMPDEST PUSH1 0x40 MLOAD DUP1 SWAP2 SUB SWAP1 LOG1 POP JUMP JUMPDEST PUSH2 0x72C PUSH8 0xDCC1D16DD86EBE1A PUSH1 0xC0 SHL PUSH2 0x1B88 JUMP JUMPDEST PUSH2 0x734 PUSH2 0x1B8B JUMP JUMPDEST PUSH2 0x748 PUSH8 0xA365BF572174BAEA PUSH1 0xC0 SHL PUSH2 0x1B88 JUMP JUMPDEST PUSH2 0x75C PUSH8 0x15066FFCD7034E94 PUSH1 0xC0 SHL PUSH2 0x1B88 JUMP JUMPDEST PUSH2 0x770 PUSH8 0x3F5308B0FB1E001A PUSH1 0xC0 SHL PUSH2 0x1B88 JUMP JUMPDEST DUP1 PUSH1 0x7 PUSH1 0x0 DUP3 DUP3 SLOAD PUSH2 0x782 SWAP2 SWAP1 PUSH2 0x222E JUMP JUMPDEST SWAP3 POP POP DUP2 SWAP1 SSTORE POP PUSH2 0x79D PUSH8 0xE1C9C72FC2F77880 PUSH1 0xC0 SHL PUSH2 0x1B88 JUMP JUMPDEST PUSH2 0x7B1 PUSH8 0xC9CE10E5F2138506 PUSH1 0xC0 SHL PUSH2 0x1B88 JUMP JUMPDEST PUSH32 0x0 PUSH20 0xFFFFFFFFFFFFFFFFFFFFFFFFFFFFFFFFFFFFFFFF AND PUSH4 0x23B872DD PUSH2 0x7F5 PUSH2 0x1C09 JUMP JUMPDEST ADDRESS DUP5 PUSH1 0x40 MLOAD DUP5 PUSH4 0xFFFFFFFF AND PUSH1 0xE0 SHL DUP2 MSTORE PUSH1 0x4 ADD PUSH2 0x815 SWAP4 SWAP3 SWAP2 SWAP1 PUSH2 0x2262 JUMP JUMPDEST PUSH1 0x20 PUSH1 0x40 MLOAD DUP1 DUP4 SUB DUP2 PUSH1 0x0 DUP8 GAS CALL ISZERO DUP1 ISZERO PUSH2 0x834 JUMPI RETURNDATASIZE PUSH1 0x0 DUP1 RETURNDATACOPY RETURNDATASIZE PUSH1 0x0 REVERT JUMPDEST POP POP POP POP PUSH1 0x40 MLOAD RETURNDATASIZE PUSH1 0x1F NOT PUSH1 0x1F DUP3 ADD AND DUP3 ADD DUP1 PUSH1 0x40 MSTORE POP DUP2 ADD SWAP1 PUSH2 0x858 SWAP2 SWAP1 PUSH2 0x2201 JUMP JUMPDEST POP PUSH2 0x86D PUSH8 0x2E99B11B6BD9BB68 PUSH1 0xC0 SHL PUSH2 0x1B88 JUMP JUMPDEST PUSH2 0x881 PUSH8 0x6F626C1C1EA18F98 PUSH1 0xC0 SHL PUSH2 0x1B88 JUMP JUMPDEST PUSH32 0xAF0E92ED9A06DAF8B906385B588B940A355DE1516517E37E03BCB3BACF9B9664 DUP2 PUSH1 0x7 SLOAD PUSH1 0x40 MLOAD PUSH2 0x8B4 SWAP3 SWAP2 SWAP1 PUSH2 0x20D2 JUMP JUMPDEST PUSH1 0x40 MLOAD DUP1 SWAP2 SUB SWAP1 LOG1 POP JUMP JUMPDEST PUSH2 0x8D3 PUSH8 0x342F281411B81B16 PUSH1 0xC0 SHL PUSH2 0x1B88 JUMP JUMPDEST DUP5 PUSH2 0x8E8 PUSH8 0x8D8C5F4F37193B11 PUSH1 0xC0 SHL PUSH2 0x1B88 JUMP JUMPDEST PUSH2 0x8FC PUSH8 0x6EF58D53A293CBF0 PUSH1 0xC0 SHL PUSH2 0x1B88 JUMP JUMPDEST PUSH2 0x910 PUSH8 0x7AC20EA05957C73F PUSH1 0xC0 SHL PUSH2 0x1B88 JUMP JUMPDEST PUSH1 0x5 SLOAD DUP2 LT DUP1 ISZERO PUSH2 0x931 JUMPI POP PUSH2 0x930 PUSH8 0xD95E5DC7531EBE16 PUSH1 0xC0 SHL PUSH2 0x1C11 JUMP JUMPDEST JUMPDEST DUP1 PUSH2 0x959 JUMPI POP PUSH1 0x6 SLOAD DUP2 GT DUP1 ISZERO PUSH2 0x958 JUMPI POP PUSH2 0x957 PUSH8 0xC6DC046663290840 PUSH1 0xC0 SHL PUSH2 0x1C11 JUMP JUMPDEST JUMPDEST JUMPDEST ISZERO PUSH2 0x9B8 JUMPI PUSH2 0x972 PUSH8 0x29A7BC0DF4137D7E PUSH1 0xC0 SHL PUSH2 0x1B88 JUMP JUMPDEST PUSH2 0x986 PUSH8 0xBEB65D4FE5F140D8 PUSH1 0xC0 SHL PUSH2 0x1B88 JUMP JUMPDEST PUSH1 0x40 MLOAD PUSH32 0x17DFB4AC00000000000000000000000000000000000000000000000000000000 DUP2 MSTORE PUSH1 0x4 ADD PUSH1 0x40 MLOAD DUP1 SWAP2 SUB SWAP1 REVERT JUMPDEST PUSH2 0x9CC PUSH8 0x2716065B63B961B6 PUSH1 0xC0 SHL PUSH2 0x1B88 JUMP JUMPDEST PUSH2 0x9E0 PUSH8 0x4350322BE668CF64 PUSH1 0xC0 SHL PUSH2 0x1B88 JUMP JUMPDEST PUSH2 0x9F4 PUSH8 0x904FF7823275EBA6 PUSH1 0xC0 SHL PUSH2 0x1B88 JUMP JUMPDEST PUSH2 0xA08 PUSH8 0x5C267929E4FF8496 PUSH1 0xC0 SHL PUSH2 0x1B88 JUMP JUMPDEST PUSH2 0xA10 PUSH2 0x1C1C JUMP JUMPDEST PUSH2 0xA24 PUSH8 0x1D68075058AE9211 PUSH1 0xC0 SHL PUSH2 0x1B88 JUMP JUMPDEST PUSH2 0xA38 PUSH8 0xFA944A308B214D3B PUSH1 0xC0 SHL PUSH2 0x1B88 JUMP JUMPDEST DUP7 PUSH2 0xA4D PUSH8 0x3FA8FB39C9F9ECDD PUSH1 0xC0 SHL PUSH2 0x1B88 JUMP JUMPDEST PUSH2 0xA61 PUSH8 0xAB071CAB6100F2A0 PUSH1 0xC0 SHL PUSH2 0x1B88 JUMP JUMPDEST PUSH2 0xA75 PUSH8 0x8563A6370BF28C68 PUSH1 0xC0 SHL PUSH2 0x1B88 JUMP JUMPDEST PUSH1 0x0 PUSH20 0xFFFFFFFFFFFFFFFFFFFFFFFFFFFFFFFFFFFFFFFF AND DUP2 PUSH20 0xFFFFFFFFFFFFFFFFFFFFFFFFFFFFFFFFFFFFFFFF AND SUB PUSH2 0xB03 JUMPI PUSH2 0xABD PUSH8 0xA41E696EEE73413A PUSH1 0xC0 SHL PUSH2 0x1B88 JUMP JUMPDEST PUSH2 0xAD1 PUSH8 0x6BAEBB29BF50AC46 PUSH1 0xC0 SHL PUSH2 0x1B88 JUMP JUMPDEST PUSH1 0x40 MLOAD PUSH32 0xD92E233D00000000000000000000000000000000000000000000000000000000 DUP2 MSTORE PUSH1 0x4 ADD PUSH1 0x40 MLOAD DUP1 SWAP2 SUB SWAP1 REVERT JUMPDEST PUSH2 0xB17 PUSH8 0xDEBB73E10F7A4163 PUSH1 0xC0 SHL PUSH2 0x1B88 JUMP JUMPDEST PUSH2 0xB2B PUSH8 0x4E0D1AE2655AF5F0 PUSH1 0xC0 SHL PUSH2 0x1B88 JUMP JUMPDEST PUSH2 0xB3F PUSH8 0x42C0709A020E000C PUSH1 0xC0 SHL PUSH2 0x1B88 JUMP JUMPDEST PUSH2 0xB53 PUSH8 0x4F51F0701166A23B PUSH1 0xC0 SHL PUSH2 0x1B88 JUMP JUMPDEST PUSH2 0xB67 PUSH8 0x964C11E00FF53B9A PUSH1 0xC0 SHL PUSH2 0x1B88 JUMP JUMPDEST PUSH2 0xB7B PUSH8 0xE0523154DD56E62A PUSH1 0xC0 SHL PUSH2 0x1B88 JUMP JUMPDEST PUSH1 0x0 PUSH2 0xBB9 DUP9 PUSH2 0xB89 PUSH2 0x1C09 JUMP JUMPDEST DUP10 ADDRESS PUSH1 0x40 MLOAD PUSH1 0x20 ADD PUSH2 0xB9E SWAP5 SWAP4 SWAP3 SWAP2 SWAP1 PUSH2 0x23E1 JUMP JUMPDEST PUSH1 0x40 MLOAD PUSH1 0x20 DUP2 DUP4 SUB SUB DUP2 MSTORE SWAP1 PUSH1 0x40 MSTORE DUP1 MLOAD SWAP1 PUSH1 0x20 ADD KECCAK256 PUSH2 0x1C69 JUMP JUMPDEST SWAP1 POP PUSH2 0xBCF PUSH8 0x7A548C1E8DF4480D PUSH1 0xC0 SHL PUSH2 0x1B88 JUMP JUMPDEST PUSH2 0xBE3 PUSH8 0xBA3BCE57F524BBF9 PUSH1 0xC0 SHL PUSH2 0x1B88 JUMP JUMPDEST PUSH1 0x3 PUSH1 0x0 SWAP1 SLOAD SWAP1 PUSH2 0x100 EXP SWAP1 DIV PUSH20 0xFFFFFFFFFFFFFFFFFFFFFFFFFFFFFFFFFFFFFFFF AND PUSH20 0xFFFFFFFFFFFFFFFFFFFFFFFFFFFFFFFFFFFFFFFF AND PUSH1 0x1 DUP3 DUP9 DUP9 DUP9 PUSH1 0x40 MLOAD PUSH1 0x0 DUP2 MSTORE PUSH1 0x20 ADD PUSH1 0x40 MSTORE PUSH1 0x40 MLOAD PUSH2 0xC3F SWAP5 SWAP4 SWAP3 SWAP2 SWAP1 PUSH2 0x2458 JUMP JUMPDEST PUSH1 0x20 PUSH1 0x40 MLOAD PUSH1 0x20 DUP2 SUB SWAP1 DUP1 DUP5 SUB SWAP1 DUP6 GAS STATICCALL ISZERO DUP1 ISZERO PUSH2 0xC61 JUMPI RETURNDATASIZE PUSH1 0x0 DUP1 RETURNDATACOPY RETURNDATASIZE PUSH1 0x0 REVERT JUMPDEST POP POP POP PUSH1 0x20 PUSH1 0x40 MLOAD SUB MLOAD PUSH20 0xFFFFFFFFFFFFFFFFFFFFFFFFFFFFFFFFFFFFFFFF AND EQ PUSH2 0xCE0 JUMPI PUSH2 0xC9A PUSH8 0x5DA8290840423F4B PUSH1 0xC0 SHL PUSH2 0x1B88 JUMP JUMPDEST PUSH2 0xCAE PUSH8 0xD6EF44319481E490 PUSH1 0xC0 SHL PUSH2 0x1B88 JUMP JUMPDEST PUSH1 0x40 MLOAD PUSH32 0xA7A059BC00000000000000000000000000000000000000000000000000000000 DUP2 MSTORE PUSH1 0x4 ADD PUSH1 0x40 MLOAD DUP1 SWAP2 SUB SWAP1 REVERT JUMPDEST PUSH2 0xCF4 PUSH8 0xAD6F3CEAE42B0C89 PUSH1 0xC0 SHL PUSH2 0x1B88 JUMP JUMPDEST PUSH2 0xD08 PUSH8 0x79972EC682858C48 PUSH1 0xC0 SHL PUSH2 0x1B88 JUMP JUMPDEST PUSH2 0xD1C PUSH8 0x38A44CF9B626BA1A PUSH1 0xC0 SHL PUSH2 0x1B88 JUMP JUMPDEST PUSH1 0x4 PUSH1 0x0 DUP3 DUP2 MSTORE PUSH1 0x20 ADD SWAP1 DUP2 MSTORE PUSH1 0x20 ADD PUSH1 0x0 KECCAK256 PUSH1 0x0 SWAP1 SLOAD SWAP1 PUSH2 0x100 EXP SWAP1 DIV PUSH1 0xFF AND ISZERO PUSH2 0xD9C JUMPI PUSH2 0xD56 PUSH8 0x6CE7D62BB28B5792 PUSH1 0xC0 SHL PUSH2 0x1B88 JUMP JUMPDEST PUSH2 0xD6A PUSH8 0xD0C9B18690C3FBDB PUSH1 0xC0 SHL PUSH2 0x1B88 JUMP JUMPDEST PUSH1 0x40 MLOAD PUSH32 0xCCE9A82400000000000000000000000000000000000000000000000000000000 DUP2 MSTORE PUSH1 0x4 ADD PUSH1 0x40 MLOAD DUP1 SWAP2 SUB SWAP1 REVERT JUMPDEST PUSH2 0xDB0 PUSH8 0x7461C61C4AD0A850 PUSH1 0xC0 SHL PUSH2 0x1B88 JUMP JUMPDEST PUSH2 0xDC4 PUSH8 0x905F74A8A113933F PUSH1 0xC0 SHL PUSH2 0x1B88 JUMP JUMPDEST PUSH1 0x1 PUSH1 0x4 PUSH1 0x0 DUP4 DUP2 MSTORE PUSH1 0x20 ADD SWAP1 DUP2 MSTORE PUSH1 0x20 ADD PUSH1 0x0 KECCAK256 PUSH1 0x0 PUSH2 0x100 EXP DUP2 SLOAD DUP2 PUSH1 0xFF MUL NOT AND SWAP1 DUP4 ISZERO ISZERO MUL OR SWAP1 SSTORE POP PUSH2 0xE04 PUSH8 0x96170F4E75959222 PUSH1 0xC0 SHL PUSH2 0x1B88 JUMP JUMPDEST PUSH2 0xE18 PUSH8 0xE89A4254BCE80696 PUSH1 0xC0 SHL PUSH2 0x1B88 JUMP JUMPDEST DUP8 PUSH2 0xE21 PUSH2 0x2ED JUMP JUMPDEST LT ISZERO PUSH2 0xE81 JUMPI PUSH2 0xE3B PUSH8 0x1C95DCF529EB0A9F PUSH1 0xC0 SHL PUSH2 0x1B88 JUMP JUMPDEST PUSH2 0xE4F PUSH8 0x17D58EC77B573D5B PUSH1 0xC0 SHL PUSH2 0x1B88 JUMP JUMPDEST PUSH1 0x40 MLOAD PUSH32 0x3B4930BD00000000000000000000000000000000000000000000000000000000 DUP2 MSTORE PUSH1 0x4 ADD PUSH1 0x40 MLOAD DUP1 SWAP2 SUB SWAP1 REVERT JUMPDEST PUSH2 0xE95 PUSH8 0x725A3E16029E8045 PUSH1 0xC0 SHL PUSH2 0x1B88 JUMP JUMPDEST PUSH2 0xEA9 PUSH8 0x16561048DBA2EDF9 PUSH1 0xC0 SHL PUSH2 0x1B88 JUMP JUMPDEST PUSH2 0xEBD PUSH8 0x88A065CF914982C8 PUSH1 0xC0 SHL PUSH2 0x1B88 JUMP JUMPDEST PUSH32 0x0 PUSH20 0xFFFFFFFFFFFFFFFFFFFFFFFFFFFFFFFFFFFFFFFF AND PUSH4 0xA9059CBB DUP11 DUP11 PUSH1 0x40 MLOAD DUP4 PUSH4 0xFFFFFFFF AND PUSH1 0xE0 SHL DUP2 MSTORE PUSH1 0x4 ADD PUSH2 0xF18 SWAP3 SWAP2 SWAP1 PUSH2 0x21A0 JUMP JUMPDEST PUSH1 0x20 PUSH1 0x40 MLOAD DUP1 DUP4 SUB DUP2 PUSH1 0x0 DUP8 GAS CALL ISZERO DUP1 ISZERO PUSH2 0xF37 JUMPI RETURNDATASIZE PUSH1 0x0 DUP1 RETURNDATACOPY RETURNDATASIZE PUSH1 0x0 REVERT JUMPDEST POP POP POP POP PUSH1 0x40 MLOAD RETURNDATASIZE PUSH1 0x1F NOT PUSH1 0x1F DUP3 ADD AND DUP3 ADD DUP1 PUSH1 0x40 MSTORE POP DUP2 ADD SWAP1 PUSH2 0xF5B SWAP2 SWAP1 PUSH2 0x2201 JUMP JUMPDEST POP PUSH2 0xF70 PUSH8 0x9C95AC088E583DC1 PUSH1 0xC0 SHL PUSH2 0x1B88 JUMP JUMPDEST PUSH2 0xF84 PUSH8 0xBE48A6DC839AAF16 PUSH1 0xC0 SHL PUSH2 0x1B88 JUMP JUMPDEST DUP9 PUSH20 0xFFFFFFFFFFFFFFFFFFFFFFFFFFFFFFFFFFFFFFFF AND PUSH32 0x62A9B3E6446AB559D6B82C4F02CC923CD3B4E47444EF86446DAB81A4D781C5AF DUP9 DUP11 PUSH1 0x40 MLOAD PUSH2 0xFCC SWAP3 SWAP2 SWAP1 PUSH2 0x249D JUMP JUMPDEST PUSH1 0x40 MLOAD DUP1 SWAP2 SUB SWAP1 LOG2 POP POP PUSH2 0xFDE PUSH2 0x1CD5 JUMP JUMPDEST POP POP POP POP POP POP POP JUMP JUMPDEST PUSH2 0xFEF PUSH2 0x1B8B JUMP JUMPDEST PUSH2 0xFF9 PUSH1 0x0 PUSH2 0x1CDF JUMP JUMPDEST JUMP JUMPDEST PUSH2 0x100F PUSH8 0x533C01D2CAA8B90C PUSH1 0xC0 SHL PUSH2 0x1B88 JUMP JUMPDEST PUSH2 0x1017 PUSH2 0x1B8B JUMP JUMPDEST PUSH2 0x102B PUSH8 0x733A4C1FE5607EB6 PUSH1 0xC0 SHL PUSH2 0x1B88 JUMP JUMPDEST PUSH2 0x103F PUSH8 0x30F2A254946942F PUSH1 0xC0 SHL PUSH2 0x1B88 JUMP JUMPDEST PUSH2 0x1053 PUSH8 0xAA30B104615A6EEB PUSH1 0xC0 SHL PUSH2 0x1B88 JUMP JUMPDEST PUSH2 0x1067 PUSH8 0x9CC52EB187E4B930 PUSH1 0xC0 SHL PUSH2 0x1B88 JUMP JUMPDEST PUSH1 0x0 DUP3 EQ DUP1 ISZERO PUSH2 0x1087 JUMPI POP PUSH2 0x1086 PUSH8 0x9A1354D69BCAA214 PUSH1 0xC0 SHL PUSH2 0x1C11 JUMP JUMPDEST JUMPDEST DUP1 PUSH2 0x10AE JUMPI POP DUP2 DUP2 GT ISZERO DUP1 ISZERO PUSH2 0x10AD JUMPI POP PUSH2 0x10AC PUSH8 0x829E47CEC8945A8 PUSH1 0xC0 SHL PUSH2 0x1C11 JUMP JUMPDEST JUMPDEST JUMPDEST ISZERO PUSH2 0x110D JUMPI PUSH2 0x10C7 PUSH8 0x689740D3FE35990E PUSH1 0xC0 SHL PUSH2 0x1B88 JUMP JUMPDEST PUSH2 0x10DB PUSH8 0x4DC83AF2601CEABE PUSH1 0xC0 SHL PUSH2 0x1B88 JUMP JUMPDEST PUSH1 0x40 MLOAD PUSH32 0xECA686C00000000000000000000000000000000000000000000000000000000 DUP2 MSTORE PUSH1 0x4 ADD PUSH1 0x40 MLOAD DUP1 SWAP2 SUB SWAP1 REVERT JUMPDEST PUSH2 0x1121 PUSH8 0x28C0B9DA131D4013 PUSH1 0xC0 SHL PUSH2 0x1B88 JUMP JUMPDEST PUSH2 0x1135 PUSH8 0xE81A4427F153A826 PUSH1 0xC0 SHL PUSH2 0x1B88 JUMP JUMPDEST DUP2 PUSH1 0x5 DUP2 SWAP1 SSTORE POP PUSH2 0x1150 PUSH8 0xC28BF475F3930984 PUSH1 0xC0 SHL PUSH2 0x1B88 JUMP JUMPDEST DUP1 PUSH1 0x6 DUP2 SWAP1 SSTORE POP PUSH2 0x116B PUSH8 0x2EFF0BA6C92560BD PUSH1 0xC0 SHL PUSH2 0x1B88 JUMP JUMPDEST PUSH2 0x117F PUSH8 0xD15D82D37CD56B04 PUSH1 0xC0 SHL PUSH2 0x1B88 JUMP JUMPDEST PUSH32 0x8485C7727CD53E56857497FD34C583B8A210322E0D093953B1DDB9F417DB12CF DUP3 DUP3 PUSH1 0x40 MLOAD PUSH2 0x11B0 SWAP3 SWAP2 SWAP1 PUSH2 0x20D2 JUMP JUMPDEST PUSH1 0x40 MLOAD DUP1 SWAP2 SUB SWAP1 LOG1 POP POP JUMP JUMPDEST PUSH1 0x0 PUSH2 0x11C6 PUSH2 0x1C09 JUMP JUMPDEST SWAP1 POP DUP1 PUSH20 0xFFFFFFFFFFFFFFFFFFFFFFFFFFFFFFFFFFFFFFFF AND PUSH2 0x11E7 PUSH2 0x1A64 JUMP JUMPDEST PUSH20 0xFFFFFFFFFFFFFFFFFFFFFFFFFFFFFFFFFFFFFFFF AND EQ PUSH2 0x123D JUMPI PUSH1 0x40 MLOAD PUSH32 0x8C379A000000000000000000000000000000000000000000000000000000000 DUP2 MSTORE PUSH1 0x4 ADD PUSH2 0x1234 SWAP1 PUSH2 0x2549 JUMP JUMPDEST PUSH1 0x40 MLOAD DUP1 SWAP2 SUB SWAP1 REVERT JUMPDEST PUSH2 0x1246 DUP2 PUSH2 0x1CDF JUMP JUMPDEST POP JUMP JUMPDEST PUSH1 0x0 DUP1 PUSH1 0x0 SWAP1 SLOAD SWAP1 PUSH2 0x100 EXP SWAP1 DIV PUSH20 0xFFFFFFFFFFFFFFFFFFFFFFFFFFFFFFFFFFFFFFFF AND SWAP1 POP SWAP1 JUMP JUMPDEST PUSH2 0x1286 PUSH8 0xC1FA85C3DC3143F7 PUSH1 0xC0 SHL PUSH2 0x1B88 JUMP JUMPDEST DUP5 PUSH2 0x129B PUSH8 0x8D8C5F4F37193B11 PUSH1 0xC0 SHL PUSH2 0x1B88 JUMP JUMPDEST PUSH2 0x12AF PUSH8 0x6EF58D53A293CBF0 PUSH1 0xC0 SHL PUSH2 0x1B88 JUMP JUMPDEST PUSH2 0x12C3 PUSH8 0x7AC20EA05957C73F PUSH1 0xC0 SHL PUSH2 0x1B88 JUMP JUMPDEST PUSH1 0x5 SLOAD DUP2 LT DUP1 ISZERO PUSH2 0x12E4 JUMPI POP PUSH2 0x12E3 PUSH8 0xD95E5DC7531EBE16 PUSH1 0xC0 SHL PUSH2 0x1C11 JUMP JUMPDEST JUMPDEST DUP1 PUSH2 0x130C JUMPI POP PUSH1 0x6 SLOAD DUP2 GT DUP1 ISZERO PUSH2 0x130B JUMPI POP PUSH2 0x130A PUSH8 0xC6DC046663290840 PUSH1 0xC0 SHL PUSH2 0x1C11 JUMP JUMPDEST JUMPDEST JUMPDEST ISZERO PUSH2 0x136B JUMPI PUSH2 0x1325 PUSH8 0x29A7BC0DF4137D7E PUSH1 0xC0 SHL PUSH2 0x1B88 JUMP JUMPDEST PUSH2 0x1339 PUSH8 0xBEB65D4FE5F140D8 PUSH1 0xC0 SHL PUSH2 0x1B88 JUMP JUMPDEST PUSH1 0x40 MLOAD PUSH32 0x17DFB4AC00000000000000000000000000000000000000000000000000000000 DUP2 MSTORE PUSH1 0x4 ADD PUSH1 0x40 MLOAD DUP1 SWAP2 SUB SWAP1 REVERT JUMPDEST PUSH2 0x137F PUSH8 0x2716065B63B961B6 PUSH1 0xC0 SHL PUSH2 0x1B88 JUMP JUMPDEST PUSH2 0x1393 PUSH8 0x4350322BE668CF64 PUSH1 0xC0 SHL PUSH2 0x1B88 JUMP JUMPDEST PUSH2 0x13A6 PUSH7 0xFB53CE27111D51 PUSH1 0xC0 SHL PUSH2 0x1B88 JUMP JUMPDEST PUSH2 0x13BA PUSH8 0xD5EDA63A93EB6200 PUSH1 0xC0 SHL PUSH2 0x1B88 JUMP JUMPDEST PUSH2 0x13C2 PUSH2 0x1C1C JUMP JUMPDEST PUSH2 0x13D6 PUSH8 0xB6C3E93A3AA17F09 PUSH1 0xC0 SHL PUSH2 0x1B88 JUMP JUMPDEST PUSH2 0x13EA PUSH8 0xCD37D7A87B2BAE4E PUSH1 0xC0 SHL PUSH2 0x1B88 JUMP JUMPDEST PUSH2 0x13FE PUSH8 0xDE5B8DF035E239E8 PUSH1 0xC0 SHL PUSH2 0x1B88 JUMP JUMPDEST PUSH2 0x1412 PUSH8 0x3C22EEEA3036A35D PUSH1 0xC0 SHL PUSH2 0x1B88 JUMP JUMPDEST PUSH1 0x0 PUSH2 0x1450 DUP8 PUSH2 0x1420 PUSH2 0x1C09 JUMP JUMPDEST DUP9 ADDRESS PUSH1 0x40 MLOAD PUSH1 0x20 ADD PUSH2 0x1435 SWAP5 SWAP4 SWAP3 SWAP2 SWAP1 PUSH2 0x25B5 JUMP JUMPDEST PUSH1 0x40 MLOAD PUSH1 0x20 DUP2 DUP4 SUB SUB DUP2 MSTORE SWAP1 PUSH1 0x40 MSTORE DUP1 MLOAD SWAP1 PUSH1 0x20 ADD KECCAK256 PUSH2 0x1C69 JUMP JUMPDEST SWAP1 POP PUSH2 0x1466 PUSH8 0xC25E4A2E6496A7F0 PUSH1 0xC0 SHL PUSH2 0x1B88 JUMP JUMPDEST PUSH2 0x147A PUSH8 0x3EE8E2A117F9D88 PUSH1 0xC0 SHL PUSH2 0x1B88 JUMP JUMPDEST PUSH1 0x3 PUSH1 0x0 SWAP1 SLOAD SWAP1 PUSH2 0x100 EXP SWAP1 DIV PUSH20 0xFFFFFFFFFFFFFFFFFFFFFFFFFFFFFFFFFFFFFFFF AND PUSH20 0xFFFFFFFFFFFFFFFFFFFFFFFFFFFFFFFFFFFFFFFF AND PUSH1 0x1 DUP3 DUP8 DUP8 DUP8 PUSH1 0x40 MLOAD PUSH1 0x0 DUP2 MSTORE PUSH1 0x20 ADD PUSH1 0x40 MSTORE PUSH1 0x40 MLOAD PUSH2 0x14D6 SWAP5 SWAP4 SWAP3 SWAP2 SWAP1 PUSH2 0x2458 JUMP JUMPDEST PUSH1 0x20 PUSH1 0x40 MLOAD PUSH1 0x20 DUP2 SUB SWAP1 DUP1 DUP5 SUB SWAP1 DUP6 GAS STATICCALL ISZERO DUP1 ISZERO PUSH2 0x14F8 JUMPI RETURNDATASIZE PUSH1 0x0 DUP1 RETURNDATACOPY RETURNDATASIZE PUSH1 0x0 REVERT JUMPDEST POP POP POP PUSH1 0x20 PUSH1 0x40 MLOAD SUB MLOAD PUSH20 0xFFFFFFFFFFFFFFFFFFFFFFFFFFFFFFFFFFFFFFFF AND EQ PUSH2 0x1577 JUMPI PUSH2 0x1531 PUSH8 0x34045640955DC110 PUSH1 0xC0 SHL PUSH2 0x1B88 JUMP JUMPDEST PUSH2 0x1545 PUSH8 0x1ADBFAD42BB18CCD PUSH1 0xC0 SHL PUSH2 0x1B88 JUMP JUMPDEST PUSH1 0x40 MLOAD PUSH32 0xA7A059BC00000000000000000000000000000000000000000000000000000000 DUP2 MSTORE PUSH1 0x4 ADD PUSH1 0x40 MLOAD DUP1 SWAP2 SUB SWAP1 REVERT JUMPDEST PUSH2 0x158B PUSH8 0xD596A0A16F3B232D PUSH1 0xC0 SHL PUSH2 0x1B88 JUMP JUMPDEST PUSH2 0x159F PUSH8 0x383889EE63A36D50 PUSH1 0xC0 SHL PUSH2 0x1B88 JUMP JUMPDEST PUSH2 0x15B3 PUSH8 0xA97016437FD20E35 PUSH1 0xC0 SHL PUSH2 0x1B88 JUMP JUMPDEST PUSH1 0x4 PUSH1 0x0 DUP3 DUP2 MSTORE PUSH1 0x20 ADD SWAP1 DUP2 MSTORE PUSH1 0x20 ADD PUSH1 0x0 KECCAK256 PUSH1 0x0 SWAP1 SLOAD SWAP1 PUSH2 0x100 EXP SWAP1 DIV PUSH1 0xFF AND ISZERO PUSH2 0x1633 JUMPI PUSH2 0x15ED PUSH8 0xDD201FB03DF2792E PUSH1 0xC0 SHL PUSH2 0x1B88 JUMP JUMPDEST PUSH2 0x1601 PUSH8 0x4D8D8790F95EFCE6 PUSH1 0xC0 SHL PUSH2 0x1B88 JUMP JUMPDEST PUSH1 0x40 MLOAD PUSH32 0xCCE9A82400000000000000000000000000000000000000000000000000000000 DUP2 MSTORE PUSH1 0x4 ADD PUSH1 0x40 MLOAD DUP1 SWAP2 SUB SWAP1 REVERT JUMPDEST PUSH2 0x1647 PUSH8 0x7B5337B7DA1FD58B PUSH1 0xC0 SHL PUSH2 0x1B88 JUMP JUMPDEST PUSH2 0x165B PUSH8 0x818C03A7ECAF9C6 PUSH1 0xC0 SHL PUSH2 0x1B88 JUMP JUMPDEST PUSH1 0x1 PUSH1 0x4 PUSH1 0x0 DUP4 DUP2 MSTORE PUSH1 0x20 ADD SWAP1 DUP2 MSTORE PUSH1 0x20 ADD PUSH1 0x0 KECCAK256 PUSH1 0x0 PUSH2 0x100 EXP DUP2 SLOAD DUP2 PUSH1 0xFF MUL NOT AND SWAP1 DUP4 ISZERO ISZERO MUL OR SWAP1 SSTORE POP PUSH2 0x169B PUSH8 0xC9B836AC2D7C0024 PUSH1 0xC0 SHL PUSH2 0x1B88 JUMP JUMPDEST PUSH2 0x16AF PUSH8 0x1826F7ACB372A093 PUSH1 0xC0 SHL PUSH2 0x1B88 JUMP JUMPDEST PUSH32 0x0 PUSH20 0xFFFFFFFFFFFFFFFFFFFFFFFFFFFFFFFFFFFFFFFF AND PUSH4 0x23B872DD PUSH2 0x16F3 PUSH2 0x1C09 JUMP JUMPDEST ADDRESS DUP11 PUSH1 0x40 MLOAD DUP5 PUSH4 0xFFFFFFFF AND PUSH1 0xE0 SHL DUP2 MSTORE PUSH1 0x4 ADD PUSH2 0x1713 SWAP4 SWAP3 SWAP2 SWAP1 PUSH2 0x2262 JUMP JUMPDEST PUSH1 0x20 PUSH1 0x40 MLOAD DUP1 DUP4 SUB DUP2 PUSH1 0x0 DUP8 GAS CALL ISZERO DUP1 ISZERO PUSH2 0x1732 JUMPI RETURNDATASIZE PUSH1 0x0 DUP1 RETURNDATACOPY RETURNDATASIZE PUSH1 0x0 REVERT JUMPDEST POP POP POP POP PUSH1 0x40 MLOAD RETURNDATASIZE PUSH1 0x1F NOT PUSH1 0x1F DUP3 ADD AND DUP3 ADD DUP1 PUSH1 0x40 MSTORE POP DUP2 ADD SWAP1 PUSH2 0x1756 SWAP2 SWAP1 PUSH2 0x2201 JUMP JUMPDEST POP PUSH2 0x176B PUSH8 0xD924A6984C3C3C55 PUSH1 0xC0 SHL PUSH2 0x1B88 JUMP JUMPDEST PUSH2 0x177F PUSH8 0xE88CC4DB5DF35E81 PUSH1 0xC0 SHL PUSH2 0x1B88 JUMP JUMPDEST PUSH2 0x1787 PUSH2 0x1C09 JUMP JUMPDEST PUSH20 0xFFFFFFFFFFFFFFFFFFFFFFFFFFFFFFFFFFFFFFFF AND PUSH32 0xB999B06746A947F1958636B9B9377AE814FE578413DFFFD4D3A7A96196FE02FC DUP8 DUP10 PUSH1 0x40 MLOAD PUSH2 0x17CE SWAP3 SWAP2 SWAP1 PUSH2 0x249D JUMP JUMPDEST PUSH1 0x40 MLOAD DUP1 SWAP2 SUB SWAP1 LOG2 POP PUSH2 0x17DF PUSH2 0x1CD5 JUMP JUMPDEST POP POP POP POP POP POP JUMP JUMPDEST PUSH1 0x0 PUSH2 0x17FD PUSH8 0xB8855885B80E0F61 PUSH1 0xC0 SHL PUSH2 0x1B88 JUMP JUMPDEST PUSH2 0x1811 PUSH8 0x3D6959C2AF9DB394 PUSH1 0xC0 SHL PUSH2 0x1B88 JUMP JUMPDEST PUSH2 0x1825 PUSH8 0x4DA53D9A173419C7 PUSH1 0xC0 SHL PUSH2 0x1B88 JUMP JUMPDEST PUSH1 0x3 PUSH1 0x0 SWAP1 SLOAD SWAP1 PUSH2 0x100 EXP SWAP1 DIV PUSH20 0xFFFFFFFFFFFFFFFFFFFFFFFFFFFFFFFFFFFFFFFF AND SWAP1 POP SWAP1 JUMP JUMPDEST PUSH2 0x1861 PUSH8 0x57D66F17F460F144 PUSH1 0xC0 SHL PUSH2 0x1B88 JUMP JUMPDEST DUP1 PUSH2 0x1876 PUSH8 0x3FA8FB39C9F9ECDD PUSH1 0xC0 SHL PUSH2 0x1B88 JUMP JUMPDEST PUSH2 0x188A PUSH8 0xAB071CAB6100F2A0 PUSH1 0xC0 SHL PUSH2 0x1B88 JUMP JUMPDEST PUSH2 0x189E PUSH8 0x8563A6370BF28C68 PUSH1 0xC0 SHL PUSH2 0x1B88 JUMP JUMPDEST PUSH1 0x0 PUSH20 0xFFFFFFFFFFFFFFFFFFFFFFFFFFFFFFFFFFFFFFFF AND DUP2 PUSH20 0xFFFFFFFFFFFFFFFFFFFFFFFFFFFFFFFFFFFFFFFF AND SUB PUSH2 0x192C JUMPI PUSH2 0x18E6 PUSH8 0xA41E696EEE73413A PUSH1 0xC0 SHL PUSH2 0x1B88 JUMP JUMPDEST PUSH2 0x18FA PUSH8 0x6BAEBB29BF50AC46 PUSH1 0xC0 SHL PUSH2 0x1B88 JUMP JUMPDEST PUSH1 0x40 MLOAD PUSH32 0xD92E233D00000000000000000000000000000000000000000000000000000000 DUP2 MSTORE PUSH1 0x4 ADD PUSH1 0x40 MLOAD DUP1 SWAP2 SUB SWAP1 REVERT JUMPDEST PUSH2 0x1940 PUSH8 0xDEBB73E10F7A4163 PUSH1 0xC0 SHL PUSH2 0x1B88 JUMP JUMPDEST PUSH2 0x1954 PUSH8 0x4E0D1AE2655AF5F0 PUSH1 0xC0 SHL PUSH2 0x1B88 JUMP JUMPDEST PUSH2 0x1968 PUSH8 0x801F41BDB044ACBE PUSH1 0xC0 SHL PUSH2 0x1B88 JUMP JUMPDEST PUSH2 0x197C PUSH8 0xDFB6977AB99FDCDB PUSH1 0xC0 SHL PUSH2 0x1B88 JUMP JUMPDEST PUSH2 0x1984 PUSH2 0x1B8B JUMP JUMPDEST PUSH2 0x1998 PUSH8 0xAED3158488EF2EDB PUSH1 0xC0 SHL PUSH2 0x1B88 JUMP JUMPDEST PUSH2 0x19AC PUSH8 0x5DD3A4F3C4382AE8 PUSH1 0xC0 SHL PUSH2 0x1B88 JUMP JUMPDEST PUSH2 0x19C0 PUSH8 0x9E87578A13450433 PUSH1 0xC0 SHL PUSH2 0x1B88 JUMP JUMPDEST DUP2 PUSH1 0x3 PUSH1 0x0 PUSH2 0x100 EXP DUP2 SLOAD DUP2 PUSH20 0xFFFFFFFFFFFFFFFFFFFFFFFFFFFFFFFFFFFFFFFF MUL NOT AND SWAP1 DUP4 PUSH20 0xFFFFFFFFFFFFFFFFFFFFFFFFFFFFFFFFFFFFFFFF AND MUL OR SWAP1 SSTORE POP PUSH2 0x1A15 PUSH8 0x59A44E567C1896A2 PUSH1 0xC0 SHL PUSH2 0x1B88 JUMP JUMPDEST PUSH2 0x1A29 PUSH8 0x81F87000A57A2265 PUSH1 0xC0 SHL PUSH2 0x1B88 JUMP JUMPDEST PUSH32 0x8F53E6A9FBC3949BC0B9266BBE1927F0B282A34D92876CCBE188C24D17C6CBB DUP3 PUSH1 0x40 MLOAD PUSH2 0x1A58 SWAP2 SWAP1 PUSH2 0x200F JUMP JUMPDEST PUSH1 0x40 MLOAD DUP1 SWAP2 SUB SWAP1 LOG1 POP POP JUMP JUMPDEST PUSH1 0x0 PUSH1 0x1 PUSH1 0x0 SWAP1 SLOAD SWAP1 PUSH2 0x100 EXP SWAP1 DIV PUSH20 0xFFFFFFFFFFFFFFFFFFFFFFFFFFFFFFFFFFFFFFFF AND SWAP1 POP SWAP1 JUMP JUMPDEST PUSH2 0x1A96 PUSH2 0x1B8B JUMP JUMPDEST DUP1 PUSH1 0x1 PUSH1 0x0 PUSH2 0x100 EXP DUP2 SLOAD DUP2 PUSH20 0xFFFFFFFFFFFFFFFFFFFFFFFFFFFFFFFFFFFFFFFF MUL NOT AND SWAP1 DUP4 PUSH20 0xFFFFFFFFFFFFFFFFFFFFFFFFFFFFFFFFFFFFFFFF AND MUL OR SWAP1 SSTORE POP DUP1 PUSH20 0xFFFFFFFFFFFFFFFFFFFFFFFFFFFFFFFFFFFFFFFF AND PUSH2 0x1AF6 PUSH2 0x1249 JUMP JUMPDEST PUSH20 0xFFFFFFFFFFFFFFFFFFFFFFFFFFFFFFFFFFFFFFFF AND PUSH32 0x38D16B8CAC22D99FC7C124B9CD0DE2D3FA1FAEF420BFE791D8C362D765E22700 PUSH1 0x40 MLOAD PUSH1 0x40 MLOAD DUP1 SWAP2 SUB SWAP1 LOG3 POP JUMP JUMPDEST PUSH1 0x0 DUP1 PUSH2 0x1B52 PUSH8 0xA605D4A1A860FCB8 PUSH1 0xC0 SHL PUSH2 0x1B88 JUMP JUMPDEST PUSH2 0x1B66 PUSH8 0xD0BC918C21C58547 PUSH1 0xC0 SHL PUSH2 0x1B88 JUMP JUMPDEST PUSH2 0x1B7A PUSH8 0x7ED5387FE48850AE PUSH1 0xC0 SHL PUSH2 0x1B88 JUMP JUMPDEST PUSH1 0x5 SLOAD PUSH1 0x6 SLOAD SWAP2 POP SWAP2 POP SWAP1 SWAP2 JUMP JUMPDEST POP JUMP JUMPDEST PUSH2 0x1B93 PUSH2 0x1C09 JUMP JUMPDEST PUSH20 0xFFFFFFFFFFFFFFFFFFFFFFFFFFFFFFFFFFFFFFFF AND PUSH2 0x1BB1 PUSH2 0x1249 JUMP JUMPDEST PUSH20 0xFFFFFFFFFFFFFFFFFFFFFFFFFFFFFFFFFFFFFFFF AND EQ PUSH2 0x1C07 JUMPI PUSH1 0x40 MLOAD PUSH32 0x8C379A000000000000000000000000000000000000000000000000000000000 DUP2 MSTORE PUSH1 0x4 ADD PUSH2 0x1BFE SWAP1 PUSH2 0x265A JUMP JUMPDEST PUSH1 0x40 MLOAD DUP1 SWAP2 SUB SWAP1 REVERT JUMPDEST JUMP JUMPDEST PUSH1 0x0 CALLER SWAP1 POP SWAP1 JUMP JUMPDEST PUSH1 0x0 PUSH1 0x1 SWAP1 POP SWAP2 SWAP1 POP JUMP JUMPDEST PUSH1 0x2 DUP1 SLOAD SUB PUSH2 0x1C60 JUMPI PUSH1 0x40 MLOAD PUSH32 0x8C379A000000000000000000000000000000000000000000000000000000000 DUP2 MSTORE PUSH1 0x4 ADD PUSH2 0x1C57 SWAP1 PUSH2 0x26C6 JUMP JUMPDEST PUSH1 0x40 MLOAD DUP1 SWAP2 SUB SWAP1 REVERT JUMPDEST PUSH1 0x2 DUP1 DUP2 SWAP1 SSTORE POP JUMP JUMPDEST PUSH1 0x0 PUSH2 0x1C7F PUSH8 0xC56F540CD146DA0F PUSH1 0xC0 SHL PUSH2 0x1B88 JUMP JUMPDEST PUSH2 0x1C93 PUSH8 0x4087D2C01F5665CC PUSH1 0xC0 SHL PUSH2 0x1B88 JUMP JUMPDEST PUSH2 0x1CA7 PUSH8 0x5928FA1109FAC6F7 PUSH1 0xC0 SHL PUSH2 0x1B88 JUMP JUMPDEST DUP2 PUSH1 0x40 MLOAD PUSH1 0x20 ADD PUSH2 0x1CB8 SWAP2 SWAP1 PUSH2 0x2732 JUMP JUMPDEST PUSH1 0x40 MLOAD PUSH1 0x20 DUP2 DUP4 SUB SUB DUP2 MSTORE SWAP1 PUSH1 0x40 MSTORE DUP1 MLOAD SWAP1 PUSH1 0x20 ADD KECCAK256 SWAP1 POP SWAP2 SWAP1 POP JUMP JUMPDEST PUSH1 0x1 PUSH1 0x2 DUP2 SWAP1 SSTORE POP JUMP JUMPDEST PUSH1 0x1 PUSH1 0x0 PUSH2 0x100 EXP DUP2 SLOAD SWAP1 PUSH20 0xFFFFFFFFFFFFFFFFFFFFFFFFFFFFFFFFFFFFFFFF MUL NOT AND SWAP1 SSTORE PUSH2 0x1D0D DUP2 PUSH2 0x1D10 JUMP JUMPDEST POP JUMP JUMPDEST PUSH1 0x0 DUP1 PUSH1 0x0 SWAP1 SLOAD SWAP1 PUSH2 0x100 EXP SWAP1 DIV PUSH20 0xFFFFFFFFFFFFFFFFFFFFFFFFFFFFFFFFFFFFFFFF AND SWAP1 POP DUP2 PUSH1 0x0 DUP1 PUSH2 0x100 EXP DUP2 SLOAD DUP2 PUSH20 0xFFFFFFFFFFFFFFFFFFFFFFFFFFFFFFFFFFFFFFFF MUL NOT AND SWAP1 DUP4 PUSH20 0xFFFFFFFFFFFFFFFFFFFFFFFFFFFFFFFFFFFFFFFF AND MUL OR SWAP1 SSTORE POP DUP2 PUSH20 0xFFFFFFFFFFFFFFFFFFFFFFFFFFFFFFFFFFFFFFFF AND DUP2 PUSH20 0xFFFFFFFFFFFFFFFFFFFFFFFFFFFFFFFFFFFFFFFF AND PUSH32 0x8BE0079C531659141344CD1FD0A4F28419497F9722A3DAAFE3B4186F6B6457E0 PUSH1 0x40 MLOAD PUSH1 0x40 MLOAD DUP1 SWAP2 SUB SWAP1 LOG3 POP POP JUMP JUMPDEST PUSH1 0x0 DUP2 SWAP1 POP SWAP2 SWAP1 POP JUMP JUMPDEST PUSH2 0x1DE7 DUP2 PUSH2 0x1DD4 JUMP JUMPDEST DUP3 MSTORE POP POP JUMP JUMPDEST PUSH1 0x0 PUSH1 0x20 DUP3 ADD SWAP1 POP PUSH2 0x1E02 PUSH1 0x0 DUP4 ADD DUP5 PUSH2 0x1DDE JUMP JUMPDEST SWAP3 SWAP2 POP POP JUMP JUMPDEST PUSH1 0x0 DUP1 REVERT JUMPDEST PUSH2 0x1E16 DUP2 PUSH2 0x1DD4 JUMP JUMPDEST DUP2 EQ PUSH2 0x1E21 JUMPI PUSH1 0x0 DUP1 REVERT JUMPDEST POP JUMP JUMPDEST PUSH1 0x0 DUP2 CALLDATALOAD SWAP1 POP PUSH2 0x1E33 DUP2 PUSH2 0x1E0D JUMP JUMPDEST SWAP3 SWAP2 POP POP JUMP JUMPDEST PUSH1 0x0 PUSH1 0x20 DUP3 DUP5 SUB SLT ISZERO PUSH2 0x1E4F JUMPI PUSH2 0x1E4E PUSH2 0x1E08 JUMP JUMPDEST JUMPDEST PUSH1 0x0 PUSH2 0x1E5D DUP5 DUP3 DUP6 ADD PUSH2 0x1E24 JUMP JUMPDEST SWAP2 POP POP SWAP3 SWAP2 POP POP JUMP JUMPDEST PUSH1 0x0 PUSH20 0xFFFFFFFFFFFFFFFFFFFFFFFFFFFFFFFFFFFFFFFF DUP3 AND SWAP1 POP SWAP2 SWAP1 POP JUMP JUMPDEST PUSH1 0x0 PUSH2 0x1E91 DUP3 PUSH2 0x1E66 JUMP JUMPDEST SWAP1 POP SWAP2 SWAP1 POP JUMP JUMPDEST PUSH2 0x1EA1 DUP2 PUSH2 0x1E86 JUMP JUMPDEST DUP2 EQ PUSH2 0x1EAC JUMPI PUSH1 0x0 DUP1 REVERT JUMPDEST POP JUMP JUMPDEST PUSH1 0x0 DUP2 CALLDATALOAD SWAP1 POP PUSH2 0x1EBE DUP2 PUSH2 0x1E98 JUMP JUMPDEST SWAP3 SWAP2 POP POP JUMP JUMPDEST PUSH1 0x0 DUP2 SWAP1 POP SWAP2 SWAP1 POP JUMP JUMPDEST PUSH2 0x1ED7 DUP2 PUSH2 0x1EC4 JUMP JUMPDEST DUP2 EQ PUSH2 0x1EE2 JUMPI PUSH1 0x0 DUP1 REVERT JUMPDEST POP JUMP JUMPDEST PUSH1 0x0 DUP2 CALLDATALOAD SWAP1 POP PUSH2 0x1EF4 DUP2 PUSH2 0x1ECE JUMP JUMPDEST SWAP3 SWAP2 POP POP JUMP JUMPDEST PUSH1 0x0 PUSH1 0xFF DUP3 AND SWAP1 POP SWAP2 SWAP1 POP JUMP JUMPDEST PUSH2 0x1F10 DUP2 PUSH2 0x1EFA JUMP JUMPDEST DUP2 EQ PUSH2 0x1F1B JUMPI PUSH1 0x0 DUP1 REVERT JUMPDEST POP JUMP JUMPDEST PUSH1 0x0 DUP2 CALLDATALOAD SWAP1 POP PUSH2 0x1F2D DUP2 PUSH2 0x1F07 JUMP JUMPDEST SWAP3 SWAP2 POP POP JUMP JUMPDEST PUSH1 0x0 DUP1 PUSH1 0x0 DUP1 PUSH1 0x0 DUP1 PUSH1 0xC0 DUP8 DUP10 SUB SLT ISZERO PUSH2 0x1F50 JUMPI PUSH2 0x1F4F PUSH2 0x1E08 JUMP JUMPDEST JUMPDEST PUSH1 0x0 PUSH2 0x1F5E DUP10 DUP3 DUP11 ADD PUSH2 0x1EAF JUMP JUMPDEST SWAP7 POP POP PUSH1 0x20 PUSH2 0x1F6F DUP10 DUP3 DUP11 ADD PUSH2 0x1E24 JUMP JUMPDEST SWAP6 POP POP PUSH1 0x40 PUSH2 0x1F80 DUP10 DUP3 DUP11 ADD PUSH2 0x1EE5 JUMP JUMPDEST SWAP5 POP POP PUSH1 0x60 PUSH2 0x1F91 DUP10 DUP3 DUP11 ADD PUSH2 0x1F1E JUMP JUMPDEST SWAP4 POP POP PUSH1 0x80 PUSH2 0x1FA2 DUP10 DUP3 DUP11 ADD PUSH2 0x1EE5 JUMP JUMPDEST SWAP3 POP POP PUSH1 0xA0 PUSH2 0x1FB3 DUP10 DUP3 DUP11 ADD PUSH2 0x1EE5 JUMP JUMPDEST SWAP2 POP POP SWAP3 SWAP6 POP SWAP3 SWAP6 POP SWAP3 SWAP6 JUMP JUMPDEST PUSH1 0x0 DUP1 PUSH1 0x40 DUP4 DUP6 SUB SLT ISZERO PUSH2 0x1FD7 JUMPI PUSH2 0x1FD6 PUSH2 0x1E08 JUMP JUMPDEST JUMPDEST PUSH1 0x0 PUSH2 0x1FE5 DUP6 DUP3 DUP7 ADD PUSH2 0x1E24 JUMP JUMPDEST SWAP3 POP POP PUSH1 0x20 PUSH2 0x1FF6 DUP6 DUP3 DUP7 ADD PUSH2 0x1E24 JUMP JUMPDEST SWAP2 POP POP SWAP3 POP SWAP3 SWAP1 POP JUMP JUMPDEST PUSH2 0x2009 DUP2 PUSH2 0x1E86 JUMP JUMPDEST DUP3 MSTORE POP POP JUMP JUMPDEST PUSH1 0x0 PUSH1 0x20 DUP3 ADD SWAP1 POP PUSH2 0x2024 PUSH1 0x0 DUP4 ADD DUP5 PUSH2 0x2000 JUMP JUMPDEST SWAP3 SWAP2 POP POP JUMP JUMPDEST PUSH1 0x0 DUP1 PUSH1 0x0 DUP1 PUSH1 0x0 PUSH1 0xA0 DUP7 DUP9 SUB SLT ISZERO PUSH2 0x2046 JUMPI PUSH2 0x2045 PUSH2 0x1E08 JUMP JUMPDEST JUMPDEST PUSH1 0x0 PUSH2 0x2054 DUP9 DUP3 DUP10 ADD PUSH2 0x1E24 JUMP JUMPDEST SWAP6 POP POP PUSH1 0x20 PUSH2 0x2065 DUP9 DUP3 DUP10 ADD PUSH2 0x1EE5 JUMP JUMPDEST SWAP5 POP POP PUSH1 0x40 PUSH2 0x2076 DUP9 DUP3 DUP10 ADD PUSH2 0x1F1E JUMP JUMPDEST SWAP4 POP POP PUSH1 0x60 PUSH2 0x2087 DUP9 DUP3 DUP10 ADD PUSH2 0x1EE5 JUMP JUMPDEST SWAP3 POP POP PUSH1 0x80 PUSH2 0x2098 DUP9 DUP3 DUP10 ADD PUSH2 0x1EE5 JUMP JUMPDEST SWAP2 POP POP SWAP3 SWAP6 POP SWAP3 SWAP6 SWAP1 SWAP4 POP JUMP JUMPDEST PUSH1 0x0 PUSH1 0x20 DUP3 DUP5 SUB SLT ISZERO PUSH2 0x20BB JUMPI PUSH2 0x20BA PUSH2 0x1E08 JUMP JUMPDEST JUMPDEST PUSH1 0x0 PUSH2 0x20C9 DUP5 DUP3 DUP6 ADD PUSH2 0x1EAF JUMP JUMPDEST SWAP2 POP POP SWAP3 SWAP2 POP POP JUMP JUMPDEST PUSH1 0x0 PUSH1 0x40 DUP3 ADD SWAP1 POP PUSH2 0x20E7 PUSH1 0x0 DUP4 ADD DUP6 PUSH2 0x1DDE JUMP JUMPDEST PUSH2 0x20F4 PUSH1 0x20 DUP4 ADD DUP5 PUSH2 0x1DDE JUMP JUMPDEST SWAP4 SWAP3 POP POP POP JUMP JUMPDEST PUSH1 0x0 DUP2 MLOAD SWAP1 POP PUSH2 0x210A DUP2 PUSH2 0x1E0D JUMP JUMPDEST SWAP3 SWAP2 POP POP JUMP JUMPDEST PUSH1 0x0 PUSH1 0x20 DUP3 DUP5 SUB SLT ISZERO PUSH2 0x2126 JUMPI PUSH2 0x2125 PUSH2 0x1E08 JUMP JUMPDEST JUMPDEST PUSH1 0x0 PUSH2 0x2134 DUP5 DUP3 DUP6 ADD PUSH2 0x20FB JUMP JUMPDEST SWAP2 POP POP SWAP3 SWAP2 POP POP JUMP JUMPDEST PUSH32 0x4E487B7100000000000000000000000000000000000000000000000000000000 PUSH1 0x0 MSTORE PUSH1 0x11 PUSH1 0x4 MSTORE PUSH1 0x24 PUSH1 0x0 REVERT JUMPDEST PUSH1 0x0 PUSH2 0x2177 DUP3 PUSH2 0x1DD4 JUMP JUMPDEST SWAP2 POP PUSH2 0x2182 DUP4 PUSH2 0x1DD4 JUMP JUMPDEST SWAP3 POP DUP3 DUP3 SUB SWAP1 POP DUP2 DUP2 GT ISZERO PUSH2 0x219A JUMPI PUSH2 0x2199 PUSH2 0x213D JUMP JUMPDEST JUMPDEST SWAP3 SWAP2 POP POP JUMP JUMPDEST PUSH1 0x0 PUSH1 0x40 DUP3 ADD SWAP1 POP PUSH2 0x21B5 PUSH1 0x0 DUP4 ADD DUP6 PUSH2 0x2000 JUMP JUMPDEST PUSH2 0x21C2 PUSH1 0x20 DUP4 ADD DUP5 PUSH2 0x1DDE JUMP JUMPDEST SWAP4 SWAP3 POP POP POP JUMP JUMPDEST PUSH1 0x0 DUP2 ISZERO ISZERO SWAP1 POP SWAP2 SWAP1 POP JUMP JUMPDEST PUSH2 0x21DE DUP2 PUSH2 0x21C9 JUMP JUMPDEST DUP2 EQ PUSH2 0x21E9 JUMPI PUSH1 0x0 DUP1 REVERT JUMPDEST POP JUMP JUMPDEST PUSH1 0x0 DUP2 MLOAD SWAP1 POP PUSH2 0x21FB DUP2 PUSH2 0x21D5 JUMP JUMPDEST SWAP3 SWAP2 POP POP JUMP JUMPDEST PUSH1 0x0 PUSH1 0x20 DUP3 DUP5 SUB SLT ISZERO PUSH2 0x2217 JUMPI PUSH2 0x2216 PUSH2 0x1E08 JUMP JUMPDEST JUMPDEST PUSH1 0x0 PUSH2 0x2225 DUP5 DUP3 DUP6 ADD PUSH2 0x21EC JUMP JUMPDEST SWAP2 POP POP SWAP3 SWAP2 POP POP JUMP JUMPDEST PUSH1 0x0 PUSH2 0x2239 DUP3 PUSH2 0x1DD4 JUMP JUMPDEST SWAP2 POP PUSH2 0x2244 DUP4 PUSH2 0x1DD4 JUMP JUMPDEST SWAP3 POP DUP3 DUP3 ADD SWAP1 POP DUP1 DUP3 GT ISZERO PUSH2 0x225C JUMPI PUSH2 0x225B PUSH2 0x213D JUMP JUMPDEST JUMPDEST SWAP3 SWAP2 POP POP JUMP JUMPDEST PUSH1 0x0 PUSH1 0x60 DUP3 ADD SWAP1 POP PUSH2 0x2277 PUSH1 0x0 DUP4 ADD DUP7 PUSH2 0x2000 JUMP JUMPDEST PUSH2 0x2284 PUSH1 0x20 DUP4 ADD DUP6 PUSH2 0x2000 JUMP JUMPDEST PUSH2 0x2291 PUSH1 0x40 DUP4 ADD DUP5 PUSH2 0x1DDE JUMP JUMPDEST SWAP5 SWAP4 POP POP POP POP JUMP JUMPDEST PUSH1 0x0 DUP2 SWAP1 POP SWAP3 SWAP2 POP POP JUMP JUMPDEST PUSH32 0x5F5F636F6E76657273696F6E496E000000000000000000000000000000000000 PUSH1 0x0 DUP3 ADD MSTORE POP JUMP JUMPDEST PUSH1 0x0 PUSH2 0x22DA PUSH1 0xE DUP4 PUSH2 0x2299 JUMP JUMPDEST SWAP2 POP PUSH2 0x22E5 DUP3 PUSH2 0x22A4 JUMP JUMPDEST PUSH1 0xE DUP3 ADD SWAP1 POP SWAP2 SWAP1 POP JUMP JUMPDEST PUSH1 0x0 DUP2 SWAP1 POP SWAP2 SWAP1 POP JUMP JUMPDEST PUSH2 0x230B PUSH2 0x2306 DUP3 PUSH2 0x1DD4 JUMP JUMPDEST PUSH2 0x22F0 JUMP JUMPDEST DUP3 MSTORE POP POP JUMP JUMPDEST PUSH1 0x0 DUP2 PUSH1 0x60 SHL SWAP1 POP SWAP2 SWAP1 POP JUMP JUMPDEST PUSH1 0x0 PUSH2 0x2329 DUP3 PUSH2 0x2311 JUMP JUMPDEST SWAP1 POP SWAP2 SWAP1 POP JUMP JUMPDEST PUSH1 0x0 PUSH2 0x233B DUP3 PUSH2 0x231E JUMP JUMPDEST SWAP1 POP SWAP2 SWAP1 POP JUMP JUMPDEST PUSH2 0x2353 PUSH2 0x234E DUP3 PUSH2 0x1E86 JUMP JUMPDEST PUSH2 0x2330 JUMP JUMPDEST DUP3 MSTORE POP POP JUMP JUMPDEST PUSH1 0x0 DUP2 SWAP1 POP SWAP2 SWAP1 POP JUMP JUMPDEST PUSH2 0x2374 PUSH2 0x236F DUP3 PUSH2 0x1EC4 JUMP JUMPDEST PUSH2 0x2359 JUMP JUMPDEST DUP3 MSTORE POP POP JUMP JUMPDEST PUSH1 0x0 DUP2 SWAP1 POP SWAP2 SWAP1 POP JUMP JUMPDEST PUSH1 0x0 PUSH2 0x239F PUSH2 0x239A PUSH2 0x2395 DUP5 PUSH2 0x1E66 JUMP JUMPDEST PUSH2 0x237A JUMP JUMPDEST PUSH2 0x1E66 JUMP JUMPDEST SWAP1 POP SWAP2 SWAP1 POP JUMP JUMPDEST PUSH1 0x0 PUSH2 0x23B1 DUP3 PUSH2 0x2384 JUMP JUMPDEST SWAP1 POP SWAP2 SWAP1 POP JUMP JUMPDEST PUSH1 0x0 PUSH2 0x23C3 DUP3 PUSH2 0x23A6 JUMP JUMPDEST SWAP1 POP SWAP2 SWAP1 POP JUMP JUMPDEST PUSH2 0x23DB PUSH2 0x23D6 DUP3 PUSH2 0x23B8 JUMP JUMPDEST PUSH2 0x2330 JUMP JUMPDEST DUP3 MSTORE POP POP JUMP JUMPDEST PUSH1 0x0 PUSH2 0x23EC DUP3 PUSH2 0x22CD JUMP JUMPDEST SWAP2 POP PUSH2 0x23F8 DUP3 DUP8 PUSH2 0x22FA JUMP JUMPDEST PUSH1 0x20 DUP3 ADD SWAP2 POP PUSH2 0x2408 DUP3 DUP7 PUSH2 0x2342 JUMP JUMPDEST PUSH1 0x14 DUP3 ADD SWAP2 POP PUSH2 0x2418 DUP3 DUP6 PUSH2 0x2363 JUMP JUMPDEST PUSH1 0x20 DUP3 ADD SWAP2 POP PUSH2 0x2428 DUP3 DUP5 PUSH2 0x23CA JUMP JUMPDEST PUSH1 0x14 DUP3 ADD SWAP2 POP DUP2 SWAP1 POP SWAP6 SWAP5 POP POP POP POP POP JUMP JUMPDEST PUSH2 0x2443 DUP2 PUSH2 0x1EC4 JUMP JUMPDEST DUP3 MSTORE POP POP JUMP JUMPDEST PUSH2 0x2452 DUP2 PUSH2 0x1EFA JUMP JUMPDEST DUP3 MSTORE POP POP JUMP JUMPDEST PUSH1 0x0 PUSH1 0x80 DUP3 ADD SWAP1 POP PUSH2 0x246D PUSH1 0x0 DUP4 ADD DUP8 PUSH2 0x243A JUMP JUMPDEST PUSH2 0x247A PUSH1 0x20 DUP4 ADD DUP7 PUSH2 0x2449 JUMP JUMPDEST PUSH2 0x2487 PUSH1 0x40 DUP4 ADD DUP6 PUSH2 0x243A JUMP JUMPDEST PUSH2 0x2494 PUSH1 0x60 DUP4 ADD DUP5 PUSH2 0x243A JUMP JUMPDEST SWAP6 SWAP5 POP POP POP POP POP JUMP JUMPDEST PUSH1 0x0 PUSH1 0x40 DUP3 ADD SWAP1 POP PUSH2 0x24B2 PUSH1 0x0 DUP4 ADD DUP6 PUSH2 0x243A JUMP JUMPDEST PUSH2 0x24BF PUSH1 0x20 DUP4 ADD DUP5 PUSH2 0x1DDE JUMP JUMPDEST SWAP4 SWAP3 POP POP POP JUMP JUMPDEST PUSH1 0x0 DUP3 DUP3 MSTORE PUSH1 0x20 DUP3 ADD SWAP1 POP SWAP3 SWAP2 POP POP JUMP JUMPDEST PUSH32 0x4F776E61626C6532537465703A2063616C6C6572206973206E6F742074686520 PUSH1 0x0 DUP3 ADD MSTORE PUSH32 0x6E6577206F776E65720000000000000000000000000000000000000000000000 PUSH1 0x20 DUP3 ADD MSTORE POP JUMP JUMPDEST PUSH1 0x0 PUSH2 0x2533 PUSH1 0x29 DUP4 PUSH2 0x24C6 JUMP JUMPDEST SWAP2 POP PUSH2 0x253E DUP3 PUSH2 0x24D7 JUMP JUMPDEST PUSH1 0x40 DUP3 ADD SWAP1 POP SWAP2 SWAP1 POP JUMP JUMPDEST PUSH1 0x0 PUSH1 0x20 DUP3 ADD SWAP1 POP DUP2 DUP2 SUB PUSH1 0x0 DUP4 ADD MSTORE PUSH2 0x2562 DUP2 PUSH2 0x2526 JUMP JUMPDEST SWAP1 POP SWAP2 SWAP1 POP JUMP JUMPDEST PUSH32 0x5F5F636F6E76657273696F6E4F75740000000000000000000000000000000000 PUSH1 0x0 DUP3 ADD MSTORE POP JUMP JUMPDEST PUSH1 0x0 PUSH2 0x259F PUSH1 0xF DUP4 PUSH2 0x2299 JUMP JUMPDEST SWAP2 POP PUSH2 0x25AA DUP3 PUSH2 0x2569 JUMP JUMPDEST PUSH1 0xF DUP3 ADD SWAP1 POP SWAP2 SWAP1 POP JUMP JUMPDEST PUSH1 0x0 PUSH2 0x25C0 DUP3 PUSH2 0x2592 JUMP JUMPDEST SWAP2 POP PUSH2 0x25CC DUP3 DUP8 PUSH2 0x22FA JUMP JUMPDEST PUSH1 0x20 DUP3 ADD SWAP2 POP PUSH2 0x25DC DUP3 DUP7 PUSH2 0x2342 JUMP JUMPDEST PUSH1 0x14 DUP3 ADD SWAP2 POP PUSH2 0x25EC DUP3 DUP6 PUSH2 0x2363 JUMP JUMPDEST PUSH1 0x20 DUP3 ADD SWAP2 POP PUSH2 0x25FC DUP3 DUP5 PUSH2 0x23CA JUMP JUMPDEST PUSH1 0x14 DUP3 ADD SWAP2 POP DUP2 SWAP1 POP SWAP6 SWAP5 POP POP POP POP POP JUMP JUMPDEST PUSH32 0x4F776E61626C653A2063616C6C6572206973206E6F7420746865206F776E6572 PUSH1 0x0 DUP3 ADD MSTORE POP JUMP JUMPDEST PUSH1 0x0 PUSH2 0x2644 PUSH1 0x20 DUP4 PUSH2 0x24C6 JUMP JUMPDEST SWAP2 POP PUSH2 0x264F DUP3 PUSH2 0x260E JUMP JUMPDEST PUSH1 0x20 DUP3 ADD SWAP1 POP SWAP2 SWAP1 POP JUMP JUMPDEST PUSH1 0x0 PUSH1 0x20 DUP3 ADD SWAP1 POP DUP2 DUP2 SUB PUSH1 0x0 DUP4 ADD MSTORE PUSH2 0x2673 DUP2 PUSH2 0x2637 JUMP JUMPDEST SWAP1 POP SWAP2 SWAP1 POP JUMP JUMPDEST PUSH32 0x5265656E7472616E637947756172643A207265656E7472616E742063616C6C00 PUSH1 0x0 DUP3 ADD MSTORE POP JUMP JUMPDEST PUSH1 0x0 PUSH2 0x26B0 PUSH1 0x1F DUP4 PUSH2 0x24C6 JUMP JUMPDEST SWAP2 POP PUSH2 0x26BB DUP3 PUSH2 0x267A JUMP JUMPDEST PUSH1 0x20 DUP3 ADD SWAP1 POP SWAP2 SWAP1 POP JUMP JUMPDEST PUSH1 0x0 PUSH1 0x20 DUP3 ADD SWAP1 POP DUP2 DUP2 SUB PUSH1 0x0 DUP4 ADD MSTORE PUSH2 0x26DF DUP2 PUSH2 0x26A3 JUMP JUMPDEST SWAP1 POP SWAP2 SWAP1 POP JUMP JUMPDEST PUSH32 0x19457468657265756D205369676E6564204D6573736167653A0A333200000000 PUSH1 0x0 DUP3 ADD MSTORE POP JUMP JUMPDEST PUSH1 0x0 PUSH2 0x271C PUSH1 0x1C DUP4 PUSH2 0x2299 JUMP JUMPDEST SWAP2 POP PUSH2 0x2727 DUP3 PUSH2 0x26E6 JUMP JUMPDEST PUSH1 0x1C DUP3 ADD SWAP1 POP SWAP2 SWAP1 POP JUMP JUMPDEST PUSH1 0x0 PUSH2 0x273D DUP3 PUSH2 0x270F JUMP JUMPDEST SWAP2 POP PUSH2 0x2749 DUP3 DUP5 PUSH2 0x2363 JUMP JUMPDEST PUSH1 0x20 DUP3 ADD SWAP2 POP DUP2 SWAP1 POP SWAP3 SWAP2 POP POP JUMP INVALID LOG2 PUSH5 0x6970667358 0x22 SLT KECCAK256 AND 0xB3 0xF7 DUP11 PUSH9 0xBA238D49A7EFFDCCE6 0xBA NOT DUP7 DUP3 MCOPY PUSH17 0x6CC1C1AC3621383C36AC56E264736F6C63 NUMBER STOP ADDMOD BYTE STOP CALLER "},"methodIdentifiers":{"acceptOwnership()":"79ba5097","conversionIn(address,uint256,bytes32,uint8,bytes32,bytes32)":"6a02fcc4","conversionOut(uint256,bytes32,uint8,bytes32,bytes32)":"9f23c9e2","decreaseConverterLiquidity(uint256)":"4d9f2265","getConversionAuthorizer()":"c72304ac","getConversionConfigurations()":"feea1529","getConverterBalance()":"2a34e861","increaseConverterLiquidity(uint256)":"637eaa4d","owner()":"8da5cb5b","pendingOwner()":"e30c3978","renounceOwnership()":"715018a6","transferOwnership(address)":"f2fde38b","updateAuthorizer(address)":"e0a66578","updateConfigurations(uint256,uint256)":"76f0a62f"}}}}}