{"contracts/TokenConversionManagerV3.sol":{"TokenConversionManagerV3":{"abi":[{"inputs":[{"internalType":"address","name":"token","type":"address"}],"stateMutability":"nonpayable","type":"constructor"},{"inputs":[],"name":"InsufficientConverterBalance","type":"error"},{"inputs":[],"name":"InsufficientLiquidityBalance","type":"error"},{"inputs":[],"name":"InvalidRequestOrSignature","type":"error"},{"inputs":[],"name":"InvalidUpdateConfigurations","type":"error"},{"inputs":[],"name":"UsedSignature","type":"error"},{"inputs":[],"name":"ViolationOfTxAmountLimits","type":"error"},{"inputs":[],"name":"WithdrawExceedsDeposit","type":"error"},{"inputs":[],"name":"ZeroAddress","type":"error"},{"anonymous":false,"inputs":[{"indexed":true,"internalType":"address","name":"tokenHolder","type":"address"},{"indexed":false,"internalType":"bytes32","name":"conversionId","type":"bytes32"},{"indexed":false,"internalType":"uint256","name":"amount","type":"uint256"}],"name":"ConversionIn","type":"event"},{"anonymous":false,"inputs":[{"indexed":true,"internalType":"address","name":"tokenHolder","type":"address"},{"indexed":false,"internalType":"bytes32","name":"conversionId","type":"bytes32"},{"indexed":false,"internalType":"uint256","name":"amount","type":"uint256"}],"name":"ConversionOut","type":"event"},{"anonymous":false,"inputs":[{"indexed":false,"internalType":"uint256","name":"removed","type":"uint256"},{"indexed":false,"internalType":"uint256","name":"totalLiquidity","type":"uint256"}],"name":"DecreaseLiquidity","type":"event"},{"anonymous":false,"inputs":[{"indexed":false,"internalType":"uint256","name":"added","type":"uint256"},{"indexed":false,"internalType":"uint256","name":"totalLiquidity","type":"uint256"}],"name":"IncreaseLiquidity","type":"event"},{"anonymous":false,"inputs":[{"indexed":false,"internalType":"address","name":"conversionAuthorizer","type":"address"}],"name":"NewAuthorizer","type":"event"},{"anonymous":false,"inputs":[{"indexed":true,"internalType":"address","name":"previousOwner","type":"address"},{"indexed":true,"internalType":"address","name":"newOwner","type":"address"}],"name":"OwnershipTransferStarted","type":"event"},{"anonymous":false,"inputs":[{"indexed":true,"internalType":"address","name":"previousOwner","type":"address"},{"indexed":true,"internalType":"address","name":"newOwner","type":"address"}],"name":"OwnershipTransferred","type":"event"},{"anonymous":false,"inputs":[{"indexed":false,"internalType":"uint256","name":"perTxnMinAmount","type":"uint256"},{"indexed":false,"internalType":"uint256","name":"perTxnMaxAmount","type":"uint256"},{"indexed":false,"internalType":"uint256","name":"maxSupply","type":"uint256"}],"name":"UpdateConfiguration","type":"event"},{"inputs":[],"name":"acceptOwnership","outputs":[],"stateMutability":"nonpayable","type":"function"},{"inputs":[{"internalType":"address","name":"to","type":"address"},{"internalType":"uint256","name":"amount","type":"uint256"},{"internalType":"bytes32","name":"conversionId","type":"bytes32"},{"internalType":"uint8","name":"v","type":"uint8"},{"internalType":"bytes32","name":"r","type":"bytes32"},{"internalType":"bytes32","name":"s","type":"bytes32"}],"name":"conversionIn","outputs":[],"stateMutability":"payable","type":"function"},{"inputs":[{"internalType":"uint256","name":"amount","type":"uint256"},{"internalType":"bytes32","name":"conversionId","type":"bytes32"},{"internalType":"uint8","name":"v","type":"uint8"},{"internalType":"bytes32","name":"r","type":"bytes32"},{"internalType":"bytes32","name":"s","type":"bytes32"}],"name":"conversionOut","outputs":[],"stateMutability":"payable","type":"function"},{"inputs":[{"internalType":"uint256","name":"amount","type":"uint256"}],"name":"decreaseConverterLiquidity","outputs":[],"stateMutability":"nonpayable","type":"function"},{"inputs":[],"name":"getConversionAuthorizer","outputs":[{"internalType":"address","name":"","type":"address"}],"stateMutability":"view","type":"function"},{"inputs":[],"name":"getConversionConfigurations","outputs":[{"internalType":"uint256","name":"","type":"uint256"},{"internalType":"uint256","name":"","type":"uint256"},{"internalType":"uint256","name":"","type":"uint256"}],"stateMutability":"view","type":"function"},{"inputs":[],"name":"getConverterBalance","outputs":[{"internalType":"uint256","name":"","type":"uint256"}],"stateMutability":"view","type":"function"},{"inputs":[{"internalType":"uint256","name":"amount","type":"uint256"}],"name":"increaseConverterLiquidity","outputs":[],"stateMutability":"nonpayable","type":"function"},{"inputs":[],"name":"owner","outputs":[{"internalType":"address","name":"","type":"address"}],"stateMutability":"view","type":"function"},{"inputs":[],"name":"pendingOwner","outputs":[{"internalType":"address","name":"","type":"address"}],"stateMutability":"view","type":"function"},{"inputs":[],"name":"renounceOwnership","outputs":[],"stateMutability":"nonpayable","type":"function"},{"inputs":[{"internalType":"address","name":"newOwner","type":"address"}],"name":"transferOwnership","outputs":[],"stateMutability":"nonpayable","type":"function"},{"inputs":[{"internalType":"address","name":"newAuthorizer","type":"address"}],"name":"updateAuthorizer","outputs":[],"stateMutability":"nonpayable","type":"function"},{"inputs":[{"internalType":"uint256","name":"perTxnMinAmount","type":"uint256"},{"internalType":"uint256","name":"perTxnMaxAmount","type":"uint256"},{"internalType":"uint256","name":"maxSupply","type":"uint256"}],"name":"updateConfigurations","outputs":[],"stateMutability":"nonpayable","type":"function"}],"evm":{"bytecode":{"linkReferences":{},"object":"60a060405234801561001057600080fd5b50604051612b3c380380612b3c83398181016040528101906100329190610295565b61004e61004361012c60201b60201c565b61013460201b60201c565b600160028190555061007067cbe73da9d81dfb4560c01b61016b60201b60201c565b61008a6792c5588f30bfade460c01b61016b60201b60201c565b8073ffffffffffffffffffffffffffffffffffffffff1660808173ffffffffffffffffffffffffffffffffffffffff16815250506100d867019a784bb580d3dd60c01b61016b60201b60201c565b6100e661012c60201b60201c565b600360006101000a81548173ffffffffffffffffffffffffffffffffffffffff021916908373ffffffffffffffffffffffffffffffffffffffff160217905550506102c2565b600033905090565b600160006101000a81549073ffffffffffffffffffffffffffffffffffffffff02191690556101688161016e60201b60201c565b50565b50565b60008060009054906101000a900473ffffffffffffffffffffffffffffffffffffffff169050816000806101000a81548173ffffffffffffffffffffffffffffffffffffffff021916908373ffffffffffffffffffffffffffffffffffffffff1602179055508173ffffffffffffffffffffffffffffffffffffffff168173ffffffffffffffffffffffffffffffffffffffff167f8be0079c531659141344cd1fd0a4f28419497f9722a3daafe3b4186f6b6457e060405160405180910390a35050565b600080fd5b600073ffffffffffffffffffffffffffffffffffffffff82169050919050565b600061026282610237565b9050919050565b61027281610257565b811461027d57600080fd5b50565b60008151905061028f81610269565b92915050565b6000602082840312156102ab576102aa610232565b5b60006102b984828501610280565b91505092915050565b6080516128436102f96000396000818161032e0152818161060f015281816109d6015281816110e2015261171401526128436000f3fe6080604052600436106100dd5760003560e01c80638da5cb5b1161007f578063e0a6657811610059578063e0a6657814610244578063e30c39781461026d578063f2fde38b14610298578063feea1529146102c1576100dd565b80638da5cb5b146101d25780639f23c9e2146101fd578063c72304ac14610219576100dd565b8063637eaa4d116100bb578063637eaa4d1461015f5780636a02fcc414610188578063715018a6146101a457806379ba5097146101bb576100dd565b80632a34e861146100e25780634d9f22651461010d578063529c097014610136575b600080fd5b3480156100ee57600080fd5b506100f76102ee565b6040516101049190611e58565b60405180910390f35b34801561011957600080fd5b50610134600480360381019061012f9190611ea4565b6103cb565b005b34801561014257600080fd5b5061015d60048036038101906101589190611ed1565b610719565b005b34801561016b57600080fd5b5061018660048036038101906101819190611ea4565b61093b565b005b6101a2600480360381019061019d9190611ff1565b610ae2565b005b3480156101b057600080fd5b506101b961120a565b005b3480156101c757600080fd5b506101d061121e565b005b3480156101de57600080fd5b506101e76112ab565b6040516101f4919061208d565b60405180910390f35b610217600480360381019061021291906120a8565b6112d4565b005b34801561022557600080fd5b5061022e61184a565b60405161023b919061208d565b60405180910390f35b34801561025057600080fd5b5061026b60048036038101906102669190612123565b6118b0565b005b34801561027957600080fd5b50610282611ac7565b60405161028f919061208d565b60405180910390f35b3480156102a457600080fd5b506102bf60048036038101906102ba9190612123565b611af1565b005b3480156102cd57600080fd5b506102d6611b9e565b6040516102e593929190612150565b60405180910390f35b600061030467879ef82e6623efd460c01b611bf3565b61031867a856256b4e5c8f2c60c01b611bf3565b61032c67d47f98278e04e6bf60c01b611bf3565b7f000000000000000000000000000000000000000000000000000000000000000073ffffffffffffffffffffffffffffffffffffffff166370a08231306040518263ffffffff1660e01b8152600401610385919061208d565b602060405180830381865afa1580156103a2573d6000803e3d6000fd5b505050506040513d601f19601f820116820180604052508101906103c6919061219c565b905090565b6103df6716d15743e44280eb60c01b611bf3565b6103e7611bf6565b6103fb677619c9dee272356860c01b611bf3565b61040f67b2b647f5db35ae1460c01b611bf3565b6104236733dbce3bba67373c60c01b611bf3565b6104376756482b4a76c4064b60c01b611bf3565b600060085403610487576104556709d0fbac16afac7a60c01b611bf3565b6040517f98e7913600000000000000000000000000000000000000000000000000000000815260040160405180910390fd5b61049b671857427bce26f40760c01b611bf3565b6104af6775aaf7ece7a0c94760c01b611bf3565b6104c36703388fabeea3065460c01b611bf3565b600854811115610513576104e167b857a614184e1ffb60c01b611bf3565b6040517f31a581eb00000000000000000000000000000000000000000000000000000000815260040160405180910390fd5b61052767b57525c104c82ab260c01b611bf3565b61053b676dd960a14d6882cf60c01b611bf3565b61054f674463fc1cba69614060c01b611bf3565b6105576102ee565b8111156105a45761057267ee4a7d7ec341372b60c01b611bf3565b6040517f3b4930bd00000000000000000000000000000000000000000000000000000000815260040160405180910390fd5b6105b8672c78632a1b343c2b60c01b611bf3565b6105cc6773a55467976bf55b60c01b611bf3565b80600860008282546105de91906121f8565b925050819055506105f967f6898e85e1d7ec9160c01b611bf3565b61060d67f14474333db25bbc60c01b611bf3565b7f000000000000000000000000000000000000000000000000000000000000000073ffffffffffffffffffffffffffffffffffffffff1663a9059cbb610651611c74565b836040518363ffffffff1660e01b815260040161066f92919061222c565b6020604051808303816000875af115801561068e573d6000803e3d6000fd5b505050506040513d601f19601f820116820180604052508101906106b2919061228d565b506106c76799af81869fd5958660c01b611bf3565b6106db67038bdd862364315560c01b611bf3565b7fdef4f5c5c7516369cb5aaa162fdf3f2c750a1c81c0fe3dfd9a47a97393cdafcf8160085460405161070e9291906122ba565b60405180910390a150565b61072d670dfcec0fa66ee2c360c01b611bf3565b610735611bf6565b6107496742d7352b5676384660c01b611bf3565b61075d67941973dcd0d1055060c01b611bf3565b61077167aa728fe232c5d83260c01b611bf3565b610785672b5a1175e6a2f13460c01b611bf3565b6000831480156107a557506107a467071c4d9e4b387cbd60c01b611c7c565b5b806107e857508282111580156107cb57506107ca67d3f3b183e1e382a960c01b611c7c565b5b80156107e757506107e66734f3428acd7ff4b560c01b611c7c565b5b5b8061080f575060008114801561080e575061080d67780a49291a296fa860c01b611c7c565b5b5b1561086e57610828672996f9a5eab5f7c260c01b611bf3565b61083c6740d9831c5fb7bbd660c01b611bf3565b6040517f0eca686c00000000000000000000000000000000000000000000000000000000815260040160405180910390fd5b61088267a0b507cdb06a9b7360c01b611bf3565b610896677ee227776ad8ec3d60c01b611bf3565b826005819055506108b16702e2bc32ff97734e60c01b611bf3565b816006819055506108cc674b89e7605331075960c01b611bf3565b806007819055506108e767db737fc131ace76860c01b611bf3565b6108fb67a9edc6909479552560c01b611bf3565b7fb2efb0aa6e279553a1e5567ebb495d322192aa43c5fc3073cba4601d52009ab483838360405161092e93929190612150565b60405180910390a1505050565b61094f67f48586446e7a8ddd60c01b611bf3565b610957611bf6565b61096b67216cf8fde59c40b560c01b611bf3565b61097f6757974d36044b487c60c01b611bf3565b610993678b680c05aae14d0560c01b611bf3565b80600860008282546109a591906122e3565b925050819055506109c067116d793393ed71e660c01b611bf3565b6109d4673db2e173b18dc33a60c01b611bf3565b7f000000000000000000000000000000000000000000000000000000000000000073ffffffffffffffffffffffffffffffffffffffff166323b872dd610a18611c74565b30846040518463ffffffff1660e01b8152600401610a3893929190612317565b6020604051808303816000875af1158015610a57573d6000803e3d6000fd5b505050506040513d601f19601f82011682018060405250810190610a7b919061228d565b50610a9067c246a071d3969baa60c01b611bf3565b610aa467770336d98c9c935260c01b611bf3565b7faf0e92ed9a06daf8b906385b588b940a355de1516517e37e03bcb3bacf9b966481600854604051610ad79291906122ba565b60405180910390a150565b610af667f1bb0a557003c01660c01b611bf3565b84610b0b67926754f1be6ed9a060c01b611bf3565b610b1f67eee796dd9d91dfae60c01b611bf3565b610b3367766e4fa2e4d02bf860c01b611bf3565b60055481108015610b545750610b5367b3269582add7f1f560c01b611c7c565b5b80610b7c575060065481118015610b7b5750610b7a67a28c6a9acde7284760c01b611c7c565b5b5b15610bdb57610b9567dcd7698afb82bf1b60c01b611bf3565b610ba967efa4a6c2b624e81760c01b611bf3565b6040517f17dfb4ac00000000000000000000000000000000000000000000000000000000815260040160405180910390fd5b610bef671814a2f066df63b660c01b611bf3565b610c0367d15010841beb0b6c60c01b611bf3565b610c1767a3675027ffd4afe160c01b611bf3565b610c2b67102c48eec19bfb0a60c01b611bf3565b610c33611c87565b610c4767fd8d1d04b829fe6260c01b611bf3565b610c5b674b5187a19aa0941c60c01b611bf3565b86610c706720308f24fb5625f360c01b611bf3565b610c84674cfa2c045a36b5dc60c01b611bf3565b610c9867a612c69e3bffa58e60c01b611bf3565b600073ffffffffffffffffffffffffffffffffffffffff168173ffffffffffffffffffffffffffffffffffffffff1603610d2657610ce067e9a88d3ffbff7ba660c01b611bf3565b610cf467714eead27b26e42160c01b611bf3565b6040517fd92e233d00000000000000000000000000000000000000000000000000000000815260040160405180910390fd5b610d3a673307c6329d43afc360c01b611bf3565b610d4e67ba28eb22e0d76afa60c01b611bf3565b610d6267035ff07676b73b4060c01b611bf3565b610d766731ea12e1b3d880e660c01b611bf3565b610d8a67f8bbef7226d80b7160c01b611bf3565b610d9e678001f7433bc271ab60c01b611bf3565b6000610ddc88610dac611c74565b8930604051602001610dc19493929190612496565b60405160208183030381529060405280519060200120611cd4565b9050610df2679bb08710f1508c5960c01b611bf3565b610e0667db97e00c222f5dbf60c01b611bf3565b600360009054906101000a900473ffffffffffffffffffffffffffffffffffffffff1673ffffffffffffffffffffffffffffffffffffffff1660018288888860405160008152602001604052604051610e62949392919061250d565b6020604051602081039080840390855afa158015610e84573d6000803e3d6000fd5b5050506020604051035173ffffffffffffffffffffffffffffffffffffffff1614610f0357610ebd67a361d7659f65ce8a60c01b611bf3565b610ed167f642c06139d0340860c01b611bf3565b6040517fa7a059bc00000000000000000000000000000000000000000000000000000000815260040160405180910390fd5b610f1767461e2b29a4c0d9ea60c01b611bf3565b610f2b67e7fee7253f76a3fe60c01b611bf3565b610f3f676fb0580abe4c6a2860c01b611bf3565b6004600082815260200190815260200160002060009054906101000a900460ff1615610fbf57610f7967116b48704bd197bb60c01b611bf3565b610f8d670e839da6ed76ec6960c01b611bf3565b6040517fcce9a82400000000000000000000000000000000000000000000000000000000815260040160405180910390fd5b610fd3674c491ec0b4941d6260c01b611bf3565b610fe767e822ee17420cef6e60c01b611bf3565b60016004600083815260200190815260200160002060006101000a81548160ff0219169083151502179055506110276785fcbe342895491060c01b611bf3565b61103b67e11a31819220ffa560c01b611bf3565b876110446102ee565b10156110a45761105e67fde2b37d41ffb64560c01b611bf3565b611072675c422095daa7f4ed60c01b611bf3565b6040517f3b4930bd00000000000000000000000000000000000000000000000000000000815260040160405180910390fd5b6110b8674529cb224d76d8e660c01b611bf3565b6110cc67b49b623bd379bb6860c01b611bf3565b6110e067cc70fd01756f1d2260c01b611bf3565b7f000000000000000000000000000000000000000000000000000000000000000073ffffffffffffffffffffffffffffffffffffffff1663a9059cbb8a8a6040518363ffffffff1660e01b815260040161113b92919061222c565b6020604051808303816000875af115801561115a573d6000803e3d6000fd5b505050506040513d601f19601f8201168201806040525081019061117e919061228d565b506111936713b524c21120063c60c01b611bf3565b6111a7673db6474f8d3d4fc960c01b611bf3565b8873ffffffffffffffffffffffffffffffffffffffff167f62a9b3e6446ab559d6b82c4f02cc923cd3b4e47444ef86446dab81a4d781c5af888a6040516111ef929190612552565b60405180910390a25050611201611d40565b50505050505050565b611212611bf6565b61121c6000611d4a565b565b6000611228611c74565b90508073ffffffffffffffffffffffffffffffffffffffff16611249611ac7565b73ffffffffffffffffffffffffffffffffffffffff161461129f576040517f08c379a0000000000000000000000000000000000000000000000000000000008152600401611296906125fe565b60405180910390fd5b6112a881611d4a565b50565b60008060009054906101000a900473ffffffffffffffffffffffffffffffffffffffff16905090565b6112e8672d7a692ee3552f0960c01b611bf3565b846112fd67926754f1be6ed9a060c01b611bf3565b61131167eee796dd9d91dfae60c01b611bf3565b61132567766e4fa2e4d02bf860c01b611bf3565b60055481108015611346575061134567b3269582add7f1f560c01b611c7c565b5b8061136e57506006548111801561136d575061136c67a28c6a9acde7284760c01b611c7c565b5b5b156113cd5761138767dcd7698afb82bf1b60c01b611bf3565b61139b67efa4a6c2b624e81760c01b611bf3565b6040517f17dfb4ac00000000000000000000000000000000000000000000000000000000815260040160405180910390fd5b6113e1671814a2f066df63b660c01b611bf3565b6113f567d15010841beb0b6c60c01b611bf3565b61140967fd92ba3d705a6f0460c01b611bf3565b61141d673fdcd201603df77960c01b611bf3565b611425611c87565b6114396716e21e69588ac8e860c01b611bf3565b61144d67dc8087200e432d3e60c01b611bf3565b611461676ec5062834af54b660c01b611bf3565b611475678f9133a34cdd633260c01b611bf3565b60006114b387611483611c74565b8830604051602001611498949392919061266a565b60405160208183030381529060405280519060200120611cd4565b90506114c967d326bb399345394760c01b611bf3565b6114dd67246bc442871360f760c01b611bf3565b600360009054906101000a900473ffffffffffffffffffffffffffffffffffffffff1673ffffffffffffffffffffffffffffffffffffffff1660018287878760405160008152602001604052604051611539949392919061250d565b6020604051602081039080840390855afa15801561155b573d6000803e3d6000fd5b5050506020604051035173ffffffffffffffffffffffffffffffffffffffff16146115da5761159467b8345dcaeb95d24b60c01b611bf3565b6115a867b824c935dfcc3cd360c01b611bf3565b6040517fa7a059bc00000000000000000000000000000000000000000000000000000000815260040160405180910390fd5b6115ee671e0978d476641cf360c01b611bf3565b61160267fccf13de060e065960c01b611bf3565b61161667886ea1d7eace49e060c01b611bf3565b6004600082815260200190815260200160002060009054906101000a900460ff16156116965761165067d6939d42ce14d2ae60c01b611bf3565b611664670af79098fce4633860c01b611bf3565b6040517fcce9a82400000000000000000000000000000000000000000000000000000000815260040160405180910390fd5b6116aa67407988507d55c35f60c01b611bf3565b6116be67b8dae3378c7b2a0360c01b611bf3565b60016004600083815260200190815260200160002060006101000a81548160ff0219169083151502179055506116fe6771997ff803a3dd7c60c01b611bf3565b61171267a54fc4e3e44e591c60c01b611bf3565b7f000000000000000000000000000000000000000000000000000000000000000073ffffffffffffffffffffffffffffffffffffffff166323b872dd611756611c74565b308a6040518463ffffffff1660e01b815260040161177693929190612317565b6020604051808303816000875af1158015611795573d6000803e3d6000fd5b505050506040513d601f19601f820116820180604052508101906117b9919061228d565b506117ce67fe3ac47befed819160c01b611bf3565b6117e267f7ac0541e70ed83160c01b611bf3565b6117ea611c74565b73ffffffffffffffffffffffffffffffffffffffff167fb999b06746a947f1958636b9b9377ae814fe578413dfffd4d3a7a96196fe02fc8789604051611831929190612552565b60405180910390a250611842611d40565b505050505050565b600061186067953635740a0b08ec60c01b611bf3565b61187467572c89665a41a0ac60c01b611bf3565b611888673046d86316fcf5f260c01b611bf3565b600360009054906101000a900473ffffffffffffffffffffffffffffffffffffffff16905090565b6118c4675077310bb5ea3a4060c01b611bf3565b806118d96720308f24fb5625f360c01b611bf3565b6118ed674cfa2c045a36b5dc60c01b611bf3565b61190167a612c69e3bffa58e60c01b611bf3565b600073ffffffffffffffffffffffffffffffffffffffff168173ffffffffffffffffffffffffffffffffffffffff160361198f5761194967e9a88d3ffbff7ba660c01b611bf3565b61195d67714eead27b26e42160c01b611bf3565b6040517fd92e233d00000000000000000000000000000000000000000000000000000000815260040160405180910390fd5b6119a3673307c6329d43afc360c01b611bf3565b6119b767ba28eb22e0d76afa60c01b611bf3565b6119cb675101c810e1a57a8f60c01b611bf3565b6119df67bd77c84c9c071fb560c01b611bf3565b6119e7611bf6565b6119fb67bc22978f93e16a8a60c01b611bf3565b611a0f673eff8acdf81156b360c01b611bf3565b611a23673066d00256fe602360c01b611bf3565b81600360006101000a81548173ffffffffffffffffffffffffffffffffffffffff021916908373ffffffffffffffffffffffffffffffffffffffff160217905550611a78675127e2e4e3e4cb3860c01b611bf3565b611a8c672a245f1a2498a53560c01b611bf3565b7f08f53e6a9fbc3949bc0b9266bbe1927f0b282a34d92876ccbe188c24d17c6cbb82604051611abb919061208d565b60405180910390a15050565b6000600160009054906101000a900473ffffffffffffffffffffffffffffffffffffffff16905090565b611af9611bf6565b80600160006101000a81548173ffffffffffffffffffffffffffffffffffffffff021916908373ffffffffffffffffffffffffffffffffffffffff1602179055508073ffffffffffffffffffffffffffffffffffffffff16611b596112ab565b73ffffffffffffffffffffffffffffffffffffffff167f38d16b8cac22d99fc7c124b9cd0de2d3fa1faef420bfe791d8c362d765e2270060405160405180910390a350565b6000806000611bb767aa738fc6fbf9fdf060c01b611bf3565b611bcb67334df6de82979a4b60c01b611bf3565b611bdf67b809d28eee6c76de60c01b611bf3565b600554600654600754925092509250909192565b50565b611bfe611c74565b73ffffffffffffffffffffffffffffffffffffffff16611c1c6112ab565b73ffffffffffffffffffffffffffffffffffffffff1614611c72576040517f08c379a0000000000000000000000000000000000000000000000000000000008152600401611c699061270f565b60405180910390fd5b565b600033905090565b600060019050919050565b6002805403611ccb576040517f08c379a0000000000000000000000000000000000000000000000000000000008152600401611cc29061277b565b60405180910390fd5b60028081905550565b6000611cea6706ef79cd31afef6a60c01b611bf3565b611cfe67b5aed6ae87f8fa1a60c01b611bf3565b611d1267f46768a1a82bfd9260c01b611bf3565b81604051602001611d2391906127e7565b604051602081830303815290604052805190602001209050919050565b6001600281905550565b600160006101000a81549073ffffffffffffffffffffffffffffffffffffffff0219169055611d7881611d7b565b50565b60008060009054906101000a900473ffffffffffffffffffffffffffffffffffffffff169050816000806101000a81548173ffffffffffffffffffffffffffffffffffffffff021916908373ffffffffffffffffffffffffffffffffffffffff1602179055508173ffffffffffffffffffffffffffffffffffffffff168173ffffffffffffffffffffffffffffffffffffffff167f8be0079c531659141344cd1fd0a4f28419497f9722a3daafe3b4186f6b6457e060405160405180910390a35050565b6000819050919050565b611e5281611e3f565b82525050565b6000602082019050611e6d6000830184611e49565b92915050565b600080fd5b611e8181611e3f565b8114611e8c57600080fd5b50565b600081359050611e9e81611e78565b92915050565b600060208284031215611eba57611eb9611e73565b5b6000611ec884828501611e8f565b91505092915050565b600080600060608486031215611eea57611ee9611e73565b5b6000611ef886828701611e8f565b9350506020611f0986828701611e8f565b9250506040611f1a86828701611e8f565b9150509250925092565b600073ffffffffffffffffffffffffffffffffffffffff82169050919050565b6000611f4f82611f24565b9050919050565b611f5f81611f44565b8114611f6a57600080fd5b50565b600081359050611f7c81611f56565b92915050565b6000819050919050565b611f9581611f82565b8114611fa057600080fd5b50565b600081359050611fb281611f8c565b92915050565b600060ff82169050919050565b611fce81611fb8565b8114611fd957600080fd5b50565b600081359050611feb81611fc5565b92915050565b60008060008060008060c0878903121561200e5761200d611e73565b5b600061201c89828a01611f6d565b965050602061202d89828a01611e8f565b955050604061203e89828a01611fa3565b945050606061204f89828a01611fdc565b935050608061206089828a01611fa3565b92505060a061207189828a01611fa3565b9150509295509295509295565b61208781611f44565b82525050565b60006020820190506120a2600083018461207e565b92915050565b600080600080600060a086880312156120c4576120c3611e73565b5b60006120d288828901611e8f565b95505060206120e388828901611fa3565b94505060406120f488828901611fdc565b935050606061210588828901611fa3565b925050608061211688828901611fa3565b9150509295509295909350565b60006020828403121561213957612138611e73565b5b600061214784828501611f6d565b91505092915050565b60006060820190506121656000830186611e49565b6121726020830185611e49565b61217f6040830184611e49565b949350505050565b60008151905061219681611e78565b92915050565b6000602082840312156121b2576121b1611e73565b5b60006121c084828501612187565b91505092915050565b7f4e487b7100000000000000000000000000000000000000000000000000000000600052601160045260246000fd5b600061220382611e3f565b915061220e83611e3f565b9250828203905081811115612226576122256121c9565b5b92915050565b6000604082019050612241600083018561207e565b61224e6020830184611e49565b9392505050565b60008115159050919050565b61226a81612255565b811461227557600080fd5b50565b60008151905061228781612261565b92915050565b6000602082840312156122a3576122a2611e73565b5b60006122b184828501612278565b91505092915050565b60006040820190506122cf6000830185611e49565b6122dc6020830184611e49565b9392505050565b60006122ee82611e3f565b91506122f983611e3f565b9250828201905080821115612311576123106121c9565b5b92915050565b600060608201905061232c600083018661207e565b612339602083018561207e565b6123466040830184611e49565b949350505050565b600081905092915050565b7f5f5f636f6e76657273696f6e496e000000000000000000000000000000000000600082015250565b600061238f600e8361234e565b915061239a82612359565b600e82019050919050565b6000819050919050565b6123c06123bb82611e3f565b6123a5565b82525050565b60008160601b9050919050565b60006123de826123c6565b9050919050565b60006123f0826123d3565b9050919050565b61240861240382611f44565b6123e5565b82525050565b6000819050919050565b61242961242482611f82565b61240e565b82525050565b6000819050919050565b600061245461244f61244a84611f24565b61242f565b611f24565b9050919050565b600061246682612439565b9050919050565b60006124788261245b565b9050919050565b61249061248b8261246d565b6123e5565b82525050565b60006124a182612382565b91506124ad82876123af565b6020820191506124bd82866123f7565b6014820191506124cd8285612418565b6020820191506124dd828461247f565b60148201915081905095945050505050565b6124f881611f82565b82525050565b61250781611fb8565b82525050565b600060808201905061252260008301876124ef565b61252f60208301866124fe565b61253c60408301856124ef565b61254960608301846124ef565b95945050505050565b600060408201905061256760008301856124ef565b6125746020830184611e49565b9392505050565b600082825260208201905092915050565b7f4f776e61626c6532537465703a2063616c6c6572206973206e6f74207468652060008201527f6e6577206f776e65720000000000000000000000000000000000000000000000602082015250565b60006125e860298361257b565b91506125f38261258c565b604082019050919050565b60006020820190508181036000830152612617816125db565b9050919050565b7f5f5f636f6e76657273696f6e4f75740000000000000000000000000000000000600082015250565b6000612654600f8361234e565b915061265f8261261e565b600f82019050919050565b600061267582612647565b915061268182876123af565b60208201915061269182866123f7565b6014820191506126a18285612418565b6020820191506126b1828461247f565b60148201915081905095945050505050565b7f4f776e61626c653a2063616c6c6572206973206e6f7420746865206f776e6572600082015250565b60006126f960208361257b565b9150612704826126c3565b602082019050919050565b60006020820190508181036000830152612728816126ec565b9050919050565b7f5265656e7472616e637947756172643a207265656e7472616e742063616c6c00600082015250565b6000612765601f8361257b565b91506127708261272f565b602082019050919050565b6000602082019050818103600083015261279481612758565b9050919050565b7f19457468657265756d205369676e6564204d6573736167653a0a333200000000600082015250565b60006127d1601c8361234e565b91506127dc8261279b565b601c82019050919050565b60006127f2826127c4565b91506127fe8284612418565b6020820191508190509291505056fea26469706673582212207f955d665d39290ee82192e65d21d952f082894411bcf28e8bdaf5f7d71c716d64736f6c634300081a0033","opcodes":"PUSH1 0xA0 PUSH1 0x40 MSTORE CALLVALUE DUP1 ISZERO PUSH2 0x10 JUMPI PUSH1 0x0 DUP1 REVERT JUMPDEST POP PUSH1 0x40 MLOAD PUSH2 0x2B3C CODESIZE SUB DUP1 PUSH2 0x2B3C DUP4 CODECOPY DUP2 DUP2 ADD PUSH1 0x40 MSTORE DUP2 ADD SWAP1 PUSH2 0x32 SWAP2 SWAP1 PUSH2 0x295 JUMP JUMPDEST PUSH2 0x4E PUSH2 0x43 PUSH2 0x12C PUSH1 0x20 SHL PUSH1 0x20 SHR JUMP JUMPDEST PUSH2 0x134 PUSH1 0x20 SHL PUSH1 0x20 SHR JUMP JUMPDEST PUSH1 0x1 PUSH1 0x2 DUP2 SWAP1 SSTORE POP PUSH2 0x70 PUSH8 0xCBE73DA9D81DFB45 PUSH1 0xC0 SHL PUSH2 0x16B PUSH1 0x20 SHL PUSH1 0x20 SHR JUMP JUMPDEST PUSH2 0x8A PUSH8 0x92C5588F30BFADE4 PUSH1 0xC0 SHL PUSH2 0x16B PUSH1 0x20 SHL PUSH1 0x20 SHR JUMP JUMPDEST DUP1 PUSH20 0xFFFFFFFFFFFFFFFFFFFFFFFFFFFFFFFFFFFFFFFF AND PUSH1 0x80 DUP2 PUSH20 0xFFFFFFFFFFFFFFFFFFFFFFFFFFFFFFFFFFFFFFFF AND DUP2 MSTORE POP POP PUSH2 0xD8 PUSH8 0x19A784BB580D3DD PUSH1 0xC0 SHL PUSH2 0x16B PUSH1 0x20 SHL PUSH1 0x20 SHR JUMP JUMPDEST PUSH2 0xE6 PUSH2 0x12C PUSH1 0x20 SHL PUSH1 0x20 SHR JUMP JUMPDEST PUSH1 0x3 PUSH1 0x0 PUSH2 0x100 EXP DUP2 SLOAD DUP2 PUSH20 0xFFFFFFFFFFFFFFFFFFFFFFFFFFFFFFFFFFFFFFFF MUL NOT AND SWAP1 DUP4 PUSH20 0xFFFFFFFFFFFFFFFFFFFFFFFFFFFFFFFFFFFFFFFF AND MUL OR SWAP1 SSTORE POP POP PUSH2 0x2C2 JUMP JUMPDEST PUSH1 0x0 CALLER SWAP1 POP SWAP1 JUMP JUMPDEST PUSH1 0x1 PUSH1 0x0 PUSH2 0x100 EXP DUP2 SLOAD SWAP1 PUSH20 0xFFFFFFFFFFFFFFFFFFFFFFFFFFFFFFFFFFFFFFFF MUL NOT AND SWAP1 SSTORE PUSH2 0x168 DUP2 PUSH2 0x16E PUSH1 0x20 SHL PUSH1 0x20 SHR JUMP JUMPDEST POP JUMP JUMPDEST POP JUMP JUMPDEST PUSH1 0x0 DUP1 PUSH1 0x0 SWAP1 SLOAD SWAP1 PUSH2 0x100 EXP SWAP1 DIV PUSH20 0xFFFFFFFFFFFFFFFFFFFFFFFFFFFFFFFFFFFFFFFF AND SWAP1 POP DUP2 PUSH1 0x0 DUP1 PUSH2 0x100 EXP DUP2 SLOAD DUP2 PUSH20 0xFFFFFFFFFFFFFFFFFFFFFFFFFFFFFFFFFFFFFFFF MUL NOT AND SWAP1 DUP4 PUSH20 0xFFFFFFFFFFFFFFFFFFFFFFFFFFFFFFFFFFFFFFFF AND MUL OR SWAP1 SSTORE POP DUP2 PUSH20 0xFFFFFFFFFFFFFFFFFFFFFFFFFFFFFFFFFFFFFFFF AND DUP2 PUSH20 0xFFFFFFFFFFFFFFFFFFFFFFFFFFFFFFFFFFFFFFFF AND PUSH32 0x8BE0079C531659141344CD1FD0A4F28419497F9722A3DAAFE3B4186F6B6457E0 PUSH1 0x40 MLOAD PUSH1 0x40 MLOAD DUP1 SWAP2 SUB SWAP1 LOG3 POP POP JUMP JUMPDEST PUSH1 0x0 DUP1 REVERT JUMPDEST PUSH1 0x0 PUSH20 0xFFFFFFFFFFFFFFFFFFFFFFFFFFFFFFFFFFFFFFFF DUP3 AND SWAP1 POP SWAP2 SWAP1 POP JUMP JUMPDEST PUSH1 0x0 PUSH2 0x262 DUP3 PUSH2 0x237 JUMP JUMPDEST SWAP1 POP SWAP2 SWAP1 POP JUMP JUMPDEST PUSH2 0x272 DUP2 PUSH2 0x257 JUMP JUMPDEST DUP2 EQ PUSH2 0x27D JUMPI PUSH1 0x0 DUP1 REVERT JUMPDEST POP JUMP JUMPDEST PUSH1 0x0 DUP2 MLOAD SWAP1 POP PUSH2 0x28F DUP2 PUSH2 0x269 JUMP JUMPDEST SWAP3 SWAP2 POP POP JUMP JUMPDEST PUSH1 0x0 PUSH1 0x20 DUP3 DUP5 SUB SLT ISZERO PUSH2 0x2AB JUMPI PUSH2 0x2AA PUSH2 0x232 JUMP JUMPDEST JUMPDEST PUSH1 0x0 PUSH2 0x2B9 DUP5 DUP3 DUP6 ADD PUSH2 0x280 JUMP JUMPDEST SWAP2 POP POP SWAP3 SWAP2 POP POP JUMP JUMPDEST PUSH1 0x80 MLOAD PUSH2 0x2843 PUSH2 0x2F9 PUSH1 0x0 CODECOPY PUSH1 0x0 DUP2 DUP2 PUSH2 0x32E ADD MSTORE DUP2 DUP2 PUSH2 0x60F ADD MSTORE DUP2 DUP2 PUSH2 0x9D6 ADD MSTORE DUP2 DUP2 PUSH2 0x10E2 ADD MSTORE PUSH2 0x1714 ADD MSTORE PUSH2 0x2843 PUSH1 0x0 RETURN INVALID PUSH1 0x80 PUSH1 0x40 MSTORE PUSH1 0x4 CALLDATASIZE LT PUSH2 0xDD JUMPI PUSH1 0x0 CALLDATALOAD PUSH1 0xE0 SHR DUP1 PUSH4 0x8DA5CB5B GT PUSH2 0x7F JUMPI DUP1 PUSH4 0xE0A66578 GT PUSH2 0x59 JUMPI DUP1 PUSH4 0xE0A66578 EQ PUSH2 0x244 JUMPI DUP1 PUSH4 0xE30C3978 EQ PUSH2 0x26D JUMPI DUP1 PUSH4 0xF2FDE38B EQ PUSH2 0x298 JUMPI DUP1 PUSH4 0xFEEA1529 EQ PUSH2 0x2C1 JUMPI PUSH2 0xDD JUMP JUMPDEST DUP1 PUSH4 0x8DA5CB5B EQ PUSH2 0x1D2 JUMPI DUP1 PUSH4 0x9F23C9E2 EQ PUSH2 0x1FD JUMPI DUP1 PUSH4 0xC72304AC EQ PUSH2 0x219 JUMPI PUSH2 0xDD JUMP JUMPDEST DUP1 PUSH4 0x637EAA4D GT PUSH2 0xBB JUMPI DUP1 PUSH4 0x637EAA4D EQ PUSH2 0x15F JUMPI DUP1 PUSH4 0x6A02FCC4 EQ PUSH2 0x188 JUMPI DUP1 PUSH4 0x715018A6 EQ PUSH2 0x1A4 JUMPI DUP1 PUSH4 0x79BA5097 EQ PUSH2 0x1BB JUMPI PUSH2 0xDD JUMP JUMPDEST DUP1 PUSH4 0x2A34E861 EQ PUSH2 0xE2 JUMPI DUP1 PUSH4 0x4D9F2265 EQ PUSH2 0x10D JUMPI DUP1 PUSH4 0x529C0970 EQ PUSH2 0x136 JUMPI JUMPDEST PUSH1 0x0 DUP1 REVERT JUMPDEST CALLVALUE DUP1 ISZERO PUSH2 0xEE JUMPI PUSH1 0x0 DUP1 REVERT JUMPDEST POP PUSH2 0xF7 PUSH2 0x2EE JUMP JUMPDEST PUSH1 0x40 MLOAD PUSH2 0x104 SWAP2 SWAP1 PUSH2 0x1E58 JUMP JUMPDEST PUSH1 0x40 MLOAD DUP1 SWAP2 SUB SWAP1 RETURN JUMPDEST CALLVALUE DUP1 ISZERO PUSH2 0x119 JUMPI PUSH1 0x0 DUP1 REVERT JUMPDEST POP PUSH2 0x134 PUSH1 0x4 DUP1 CALLDATASIZE SUB DUP2 ADD SWAP1 PUSH2 0x12F SWAP2 SWAP1 PUSH2 0x1EA4 JUMP JUMPDEST PUSH2 0x3CB JUMP JUMPDEST STOP JUMPDEST CALLVALUE DUP1 ISZERO PUSH2 0x142 JUMPI PUSH1 0x0 DUP1 REVERT JUMPDEST POP PUSH2 0x15D PUSH1 0x4 DUP1 CALLDATASIZE SUB DUP2 ADD SWAP1 PUSH2 0x158 SWAP2 SWAP1 PUSH2 0x1ED1 JUMP JUMPDEST PUSH2 0x719 JUMP JUMPDEST STOP JUMPDEST CALLVALUE DUP1 ISZERO PUSH2 0x16B JUMPI PUSH1 0x0 DUP1 REVERT JUMPDEST POP PUSH2 0x186 PUSH1 0x4 DUP1 CALLDATASIZE SUB DUP2 ADD SWAP1 PUSH2 0x181 SWAP2 SWAP1 PUSH2 0x1EA4 JUMP JUMPDEST PUSH2 0x93B JUMP JUMPDEST STOP JUMPDEST PUSH2 0x1A2 PUSH1 0x4 DUP1 CALLDATASIZE SUB DUP2 ADD SWAP1 PUSH2 0x19D SWAP2 SWAP1 PUSH2 0x1FF1 JUMP JUMPDEST PUSH2 0xAE2 JUMP JUMPDEST STOP JUMPDEST CALLVALUE DUP1 ISZERO PUSH2 0x1B0 JUMPI PUSH1 0x0 DUP1 REVERT JUMPDEST POP PUSH2 0x1B9 PUSH2 0x120A JUMP JUMPDEST STOP JUMPDEST CALLVALUE DUP1 ISZERO PUSH2 0x1C7 JUMPI PUSH1 0x0 DUP1 REVERT JUMPDEST POP PUSH2 0x1D0 PUSH2 0x121E JUMP JUMPDEST STOP JUMPDEST CALLVALUE DUP1 ISZERO PUSH2 0x1DE JUMPI PUSH1 0x0 DUP1 REVERT JUMPDEST POP PUSH2 0x1E7 PUSH2 0x12AB JUMP JUMPDEST PUSH1 0x40 MLOAD PUSH2 0x1F4 SWAP2 SWAP1 PUSH2 0x208D JUMP JUMPDEST PUSH1 0x40 MLOAD DUP1 SWAP2 SUB SWAP1 RETURN JUMPDEST PUSH2 0x217 PUSH1 0x4 DUP1 CALLDATASIZE SUB DUP2 ADD SWAP1 PUSH2 0x212 SWAP2 SWAP1 PUSH2 0x20A8 JUMP JUMPDEST PUSH2 0x12D4 JUMP JUMPDEST STOP JUMPDEST CALLVALUE DUP1 ISZERO PUSH2 0x225 JUMPI PUSH1 0x0 DUP1 REVERT JUMPDEST POP PUSH2 0x22E PUSH2 0x184A JUMP JUMPDEST PUSH1 0x40 MLOAD PUSH2 0x23B SWAP2 SWAP1 PUSH2 0x208D JUMP JUMPDEST PUSH1 0x40 MLOAD DUP1 SWAP2 SUB SWAP1 RETURN JUMPDEST CALLVALUE DUP1 ISZERO PUSH2 0x250 JUMPI PUSH1 0x0 DUP1 REVERT JUMPDEST POP PUSH2 0x26B PUSH1 0x4 DUP1 CALLDATASIZE SUB DUP2 ADD SWAP1 PUSH2 0x266 SWAP2 SWAP1 PUSH2 0x2123 JUMP JUMPDEST PUSH2 0x18B0 JUMP JUMPDEST STOP JUMPDEST CALLVALUE DUP1 ISZERO PUSH2 0x279 JUMPI PUSH1 0x0 DUP1 REVERT JUMPDEST POP PUSH2 0x282 PUSH2 0x1AC7 JUMP JUMPDEST PUSH1 0x40 MLOAD PUSH2 0x28F SWAP2 SWAP1 PUSH2 0x208D JUMP JUMPDEST PUSH1 0x40 MLOAD DUP1 SWAP2 SUB SWAP1 RETURN JUMPDEST CALLVALUE DUP1 ISZERO PUSH2 0x2A4 JUMPI PUSH1 0x0 DUP1 REVERT JUMPDEST POP PUSH2 0x2BF PUSH1 0x4 DUP1 CALLDATASIZE SUB DUP2 ADD SWAP1 PUSH2 0x2BA SWAP2 SWAP1 PUSH2 0x2123 JUMP JUMPDEST PUSH2 0x1AF1 JUMP JUMPDEST STOP JUMPDEST CALLVALUE DUP1 ISZERO PUSH2 0x2CD JUMPI PUSH1 0x0 DUP1 REVERT JUMPDEST POP PUSH2 0x2D6 PUSH2 0x1B9E JUMP JUMPDEST PUSH1 0x40 MLOAD PUSH2 0x2E5 SWAP4 SWAP3 SWAP2 SWAP1 PUSH2 0x2150 JUMP JUMPDEST PUSH1 0x40 MLOAD DUP1 SWAP2 SUB SWAP1 RETURN JUMPDEST PUSH1 0x0 PUSH2 0x304 PUSH8 0x879EF82E6623EFD4 PUSH1 0xC0 SHL PUSH2 0x1BF3 JUMP JUMPDEST PUSH2 0x318 PUSH8 0xA856256B4E5C8F2C PUSH1 0xC0 SHL PUSH2 0x1BF3 JUMP JUMPDEST PUSH2 0x32C PUSH8 0xD47F98278E04E6BF PUSH1 0xC0 SHL PUSH2 0x1BF3 JUMP JUMPDEST PUSH32 0x0 PUSH20 0xFFFFFFFFFFFFFFFFFFFFFFFFFFFFFFFFFFFFFFFF AND PUSH4 0x70A08231 ADDRESS PUSH1 0x40 MLOAD DUP3 PUSH4 0xFFFFFFFF AND PUSH1 0xE0 SHL DUP2 MSTORE PUSH1 0x4 ADD PUSH2 0x385 SWAP2 SWAP1 PUSH2 0x208D JUMP JUMPDEST PUSH1 0x20 PUSH1 0x40 MLOAD DUP1 DUP4 SUB DUP2 DUP7 GAS STATICCALL ISZERO DUP1 ISZERO PUSH2 0x3A2 JUMPI RETURNDATASIZE PUSH1 0x0 DUP1 RETURNDATACOPY RETURNDATASIZE PUSH1 0x0 REVERT JUMPDEST POP POP POP POP PUSH1 0x40 MLOAD RETURNDATASIZE PUSH1 0x1F NOT PUSH1 0x1F DUP3 ADD AND DUP3 ADD DUP1 PUSH1 0x40 MSTORE POP DUP2 ADD SWAP1 PUSH2 0x3C6 SWAP2 SWAP1 PUSH2 0x219C JUMP JUMPDEST SWAP1 POP SWAP1 JUMP JUMPDEST PUSH2 0x3DF PUSH8 0x16D15743E44280EB PUSH1 0xC0 SHL PUSH2 0x1BF3 JUMP JUMPDEST PUSH2 0x3E7 PUSH2 0x1BF6 JUMP JUMPDEST PUSH2 0x3FB PUSH8 0x7619C9DEE2723568 PUSH1 0xC0 SHL PUSH2 0x1BF3 JUMP JUMPDEST PUSH2 0x40F PUSH8 0xB2B647F5DB35AE14 PUSH1 0xC0 SHL PUSH2 0x1BF3 JUMP JUMPDEST PUSH2 0x423 PUSH8 0x33DBCE3BBA67373C PUSH1 0xC0 SHL PUSH2 0x1BF3 JUMP JUMPDEST PUSH2 0x437 PUSH8 0x56482B4A76C4064B PUSH1 0xC0 SHL PUSH2 0x1BF3 JUMP JUMPDEST PUSH1 0x0 PUSH1 0x8 SLOAD SUB PUSH2 0x487 JUMPI PUSH2 0x455 PUSH8 0x9D0FBAC16AFAC7A PUSH1 0xC0 SHL PUSH2 0x1BF3 JUMP JUMPDEST PUSH1 0x40 MLOAD PUSH32 0x98E7913600000000000000000000000000000000000000000000000000000000 DUP2 MSTORE PUSH1 0x4 ADD PUSH1 0x40 MLOAD DUP1 SWAP2 SUB SWAP1 REVERT JUMPDEST PUSH2 0x49B PUSH8 0x1857427BCE26F407 PUSH1 0xC0 SHL PUSH2 0x1BF3 JUMP JUMPDEST PUSH2 0x4AF PUSH8 0x75AAF7ECE7A0C947 PUSH1 0xC0 SHL PUSH2 0x1BF3 JUMP JUMPDEST PUSH2 0x4C3 PUSH8 0x3388FABEEA30654 PUSH1 0xC0 SHL PUSH2 0x1BF3 JUMP JUMPDEST PUSH1 0x8 SLOAD DUP2 GT ISZERO PUSH2 0x513 JUMPI PUSH2 0x4E1 PUSH8 0xB857A614184E1FFB PUSH1 0xC0 SHL PUSH2 0x1BF3 JUMP JUMPDEST PUSH1 0x40 MLOAD PUSH32 0x31A581EB00000000000000000000000000000000000000000000000000000000 DUP2 MSTORE PUSH1 0x4 ADD PUSH1 0x40 MLOAD DUP1 SWAP2 SUB SWAP1 REVERT JUMPDEST PUSH2 0x527 PUSH8 0xB57525C104C82AB2 PUSH1 0xC0 SHL PUSH2 0x1BF3 JUMP JUMPDEST PUSH2 0x53B PUSH8 0x6DD960A14D6882CF PUSH1 0xC0 SHL PUSH2 0x1BF3 JUMP JUMPDEST PUSH2 0x54F PUSH8 0x4463FC1CBA696140 PUSH1 0xC0 SHL PUSH2 0x1BF3 JUMP JUMPDEST PUSH2 0x557 PUSH2 0x2EE JUMP JUMPDEST DUP2 GT ISZERO PUSH2 0x5A4 JUMPI PUSH2 0x572 PUSH8 0xEE4A7D7EC341372B PUSH1 0xC0 SHL PUSH2 0x1BF3 JUMP JUMPDEST PUSH1 0x40 MLOAD PUSH32 0x3B4930BD00000000000000000000000000000000000000000000000000000000 DUP2 MSTORE PUSH1 0x4 ADD PUSH1 0x40 MLOAD DUP1 SWAP2 SUB SWAP1 REVERT JUMPDEST PUSH2 0x5B8 PUSH8 0x2C78632A1B343C2B PUSH1 0xC0 SHL PUSH2 0x1BF3 JUMP JUMPDEST PUSH2 0x5CC PUSH8 0x73A55467976BF55B PUSH1 0xC0 SHL PUSH2 0x1BF3 JUMP JUMPDEST DUP1 PUSH1 0x8 PUSH1 0x0 DUP3 DUP3 SLOAD PUSH2 0x5DE SWAP2 SWAP1 PUSH2 0x21F8 JUMP JUMPDEST SWAP3 POP POP DUP2 SWAP1 SSTORE POP PUSH2 0x5F9 PUSH8 0xF6898E85E1D7EC91 PUSH1 0xC0 SHL PUSH2 0x1BF3 JUMP JUMPDEST PUSH2 0x60D PUSH8 0xF14474333DB25BBC PUSH1 0xC0 SHL PUSH2 0x1BF3 JUMP JUMPDEST PUSH32 0x0 PUSH20 0xFFFFFFFFFFFFFFFFFFFFFFFFFFFFFFFFFFFFFFFF AND PUSH4 0xA9059CBB PUSH2 0x651 PUSH2 0x1C74 JUMP JUMPDEST DUP4 PUSH1 0x40 MLOAD DUP4 PUSH4 0xFFFFFFFF AND PUSH1 0xE0 SHL DUP2 MSTORE PUSH1 0x4 ADD PUSH2 0x66F SWAP3 SWAP2 SWAP1 PUSH2 0x222C JUMP JUMPDEST PUSH1 0x20 PUSH1 0x40 MLOAD DUP1 DUP4 SUB DUP2 PUSH1 0x0 DUP8 GAS CALL ISZERO DUP1 ISZERO PUSH2 0x68E JUMPI RETURNDATASIZE PUSH1 0x0 DUP1 RETURNDATACOPY RETURNDATASIZE PUSH1 0x0 REVERT JUMPDEST POP POP POP POP PUSH1 0x40 MLOAD RETURNDATASIZE PUSH1 0x1F NOT PUSH1 0x1F DUP3 ADD AND DUP3 ADD DUP1 PUSH1 0x40 MSTORE POP DUP2 ADD SWAP1 PUSH2 0x6B2 SWAP2 SWAP1 PUSH2 0x228D JUMP JUMPDEST POP PUSH2 0x6C7 PUSH8 0x99AF81869FD59586 PUSH1 0xC0 SHL PUSH2 0x1BF3 JUMP JUMPDEST PUSH2 0x6DB PUSH8 0x38BDD8623643155 PUSH1 0xC0 SHL PUSH2 0x1BF3 JUMP JUMPDEST PUSH32 0xDEF4F5C5C7516369CB5AAA162FDF3F2C750A1C81C0FE3DFD9A47A97393CDAFCF DUP2 PUSH1 0x8 SLOAD PUSH1 0x40 MLOAD PUSH2 0x70E SWAP3 SWAP2 SWAP1 PUSH2 0x22BA JUMP JUMPDEST PUSH1 0x40 MLOAD DUP1 SWAP2 SUB SWAP1 LOG1 POP JUMP JUMPDEST PUSH2 0x72D PUSH8 0xDFCEC0FA66EE2C3 PUSH1 0xC0 SHL PUSH2 0x1BF3 JUMP JUMPDEST PUSH2 0x735 PUSH2 0x1BF6 JUMP JUMPDEST PUSH2 0x749 PUSH8 0x42D7352B56763846 PUSH1 0xC0 SHL PUSH2 0x1BF3 JUMP JUMPDEST PUSH2 0x75D PUSH8 0x941973DCD0D10550 PUSH1 0xC0 SHL PUSH2 0x1BF3 JUMP JUMPDEST PUSH2 0x771 PUSH8 0xAA728FE232C5D832 PUSH1 0xC0 SHL PUSH2 0x1BF3 JUMP JUMPDEST PUSH2 0x785 PUSH8 0x2B5A1175E6A2F134 PUSH1 0xC0 SHL PUSH2 0x1BF3 JUMP JUMPDEST PUSH1 0x0 DUP4 EQ DUP1 ISZERO PUSH2 0x7A5 JUMPI POP PUSH2 0x7A4 PUSH8 0x71C4D9E4B387CBD PUSH1 0xC0 SHL PUSH2 0x1C7C JUMP JUMPDEST JUMPDEST DUP1 PUSH2 0x7E8 JUMPI POP DUP3 DUP3 GT ISZERO DUP1 ISZERO PUSH2 0x7CB JUMPI POP PUSH2 0x7CA PUSH8 0xD3F3B183E1E382A9 PUSH1 0xC0 SHL PUSH2 0x1C7C JUMP JUMPDEST JUMPDEST DUP1 ISZERO PUSH2 0x7E7 JUMPI POP PUSH2 0x7E6 PUSH8 0x34F3428ACD7FF4B5 PUSH1 0xC0 SHL PUSH2 0x1C7C JUMP JUMPDEST JUMPDEST JUMPDEST DUP1 PUSH2 0x80F JUMPI POP PUSH1 0x0 DUP2 EQ DUP1 ISZERO PUSH2 0x80E JUMPI POP PUSH2 0x80D PUSH8 0x780A49291A296FA8 PUSH1 0xC0 SHL PUSH2 0x1C7C JUMP JUMPDEST JUMPDEST JUMPDEST ISZERO PUSH2 0x86E JUMPI PUSH2 0x828 PUSH8 0x2996F9A5EAB5F7C2 PUSH1 0xC0 SHL PUSH2 0x1BF3 JUMP JUMPDEST PUSH2 0x83C PUSH8 0x40D9831C5FB7BBD6 PUSH1 0xC0 SHL PUSH2 0x1BF3 JUMP JUMPDEST PUSH1 0x40 MLOAD PUSH32 0xECA686C00000000000000000000000000000000000000000000000000000000 DUP2 MSTORE PUSH1 0x4 ADD PUSH1 0x40 MLOAD DUP1 SWAP2 SUB SWAP1 REVERT JUMPDEST PUSH2 0x882 PUSH8 0xA0B507CDB06A9B73 PUSH1 0xC0 SHL PUSH2 0x1BF3 JUMP JUMPDEST PUSH2 0x896 PUSH8 0x7EE227776AD8EC3D PUSH1 0xC0 SHL PUSH2 0x1BF3 JUMP JUMPDEST DUP3 PUSH1 0x5 DUP2 SWAP1 SSTORE POP PUSH2 0x8B1 PUSH8 0x2E2BC32FF97734E PUSH1 0xC0 SHL PUSH2 0x1BF3 JUMP JUMPDEST DUP2 PUSH1 0x6 DUP2 SWAP1 SSTORE POP PUSH2 0x8CC PUSH8 0x4B89E76053310759 PUSH1 0xC0 SHL PUSH2 0x1BF3 JUMP JUMPDEST DUP1 PUSH1 0x7 DUP2 SWAP1 SSTORE POP PUSH2 0x8E7 PUSH8 0xDB737FC131ACE768 PUSH1 0xC0 SHL PUSH2 0x1BF3 JUMP JUMPDEST PUSH2 0x8FB PUSH8 0xA9EDC69094795525 PUSH1 0xC0 SHL PUSH2 0x1BF3 JUMP JUMPDEST PUSH32 0xB2EFB0AA6E279553A1E5567EBB495D322192AA43C5FC3073CBA4601D52009AB4 DUP4 DUP4 DUP4 PUSH1 0x40 MLOAD PUSH2 0x92E SWAP4 SWAP3 SWAP2 SWAP1 PUSH2 0x2150 JUMP JUMPDEST PUSH1 0x40 MLOAD DUP1 SWAP2 SUB SWAP1 LOG1 POP POP POP JUMP JUMPDEST PUSH2 0x94F PUSH8 0xF48586446E7A8DDD PUSH1 0xC0 SHL PUSH2 0x1BF3 JUMP JUMPDEST PUSH2 0x957 PUSH2 0x1BF6 JUMP JUMPDEST PUSH2 0x96B PUSH8 0x216CF8FDE59C40B5 PUSH1 0xC0 SHL PUSH2 0x1BF3 JUMP JUMPDEST PUSH2 0x97F PUSH8 0x57974D36044B487C PUSH1 0xC0 SHL PUSH2 0x1BF3 JUMP JUMPDEST PUSH2 0x993 PUSH8 0x8B680C05AAE14D05 PUSH1 0xC0 SHL PUSH2 0x1BF3 JUMP JUMPDEST DUP1 PUSH1 0x8 PUSH1 0x0 DUP3 DUP3 SLOAD PUSH2 0x9A5 SWAP2 SWAP1 PUSH2 0x22E3 JUMP JUMPDEST SWAP3 POP POP DUP2 SWAP1 SSTORE POP PUSH2 0x9C0 PUSH8 0x116D793393ED71E6 PUSH1 0xC0 SHL PUSH2 0x1BF3 JUMP JUMPDEST PUSH2 0x9D4 PUSH8 0x3DB2E173B18DC33A PUSH1 0xC0 SHL PUSH2 0x1BF3 JUMP JUMPDEST PUSH32 0x0 PUSH20 0xFFFFFFFFFFFFFFFFFFFFFFFFFFFFFFFFFFFFFFFF AND PUSH4 0x23B872DD PUSH2 0xA18 PUSH2 0x1C74 JUMP JUMPDEST ADDRESS DUP5 PUSH1 0x40 MLOAD DUP5 PUSH4 0xFFFFFFFF AND PUSH1 0xE0 SHL DUP2 MSTORE PUSH1 0x4 ADD PUSH2 0xA38 SWAP4 SWAP3 SWAP2 SWAP1 PUSH2 0x2317 JUMP JUMPDEST PUSH1 0x20 PUSH1 0x40 MLOAD DUP1 DUP4 SUB DUP2 PUSH1 0x0 DUP8 GAS CALL ISZERO DUP1 ISZERO PUSH2 0xA57 JUMPI RETURNDATASIZE PUSH1 0x0 DUP1 RETURNDATACOPY RETURNDATASIZE PUSH1 0x0 REVERT JUMPDEST POP POP POP POP PUSH1 0x40 MLOAD RETURNDATASIZE PUSH1 0x1F NOT PUSH1 0x1F DUP3 ADD AND DUP3 ADD DUP1 PUSH1 0x40 MSTORE POP DUP2 ADD SWAP1 PUSH2 0xA7B SWAP2 SWAP1 PUSH2 0x228D JUMP JUMPDEST POP PUSH2 0xA90 PUSH8 0xC246A071D3969BAA PUSH1 0xC0 SHL PUSH2 0x1BF3 JUMP JUMPDEST PUSH2 0xAA4 PUSH8 0x770336D98C9C9352 PUSH1 0xC0 SHL PUSH2 0x1BF3 JUMP JUMPDEST PUSH32 0xAF0E92ED9A06DAF8B906385B588B940A355DE1516517E37E03BCB3BACF9B9664 DUP2 PUSH1 0x8 SLOAD PUSH1 0x40 MLOAD PUSH2 0xAD7 SWAP3 SWAP2 SWAP1 PUSH2 0x22BA JUMP JUMPDEST PUSH1 0x40 MLOAD DUP1 SWAP2 SUB SWAP1 LOG1 POP JUMP JUMPDEST PUSH2 0xAF6 PUSH8 0xF1BB0A557003C016 PUSH1 0xC0 SHL PUSH2 0x1BF3 JUMP JUMPDEST DUP5 PUSH2 0xB0B PUSH8 0x926754F1BE6ED9A0 PUSH1 0xC0 SHL PUSH2 0x1BF3 JUMP JUMPDEST PUSH2 0xB1F PUSH8 0xEEE796DD9D91DFAE PUSH1 0xC0 SHL PUSH2 0x1BF3 JUMP JUMPDEST PUSH2 0xB33 PUSH8 0x766E4FA2E4D02BF8 PUSH1 0xC0 SHL PUSH2 0x1BF3 JUMP JUMPDEST PUSH1 0x5 SLOAD DUP2 LT DUP1 ISZERO PUSH2 0xB54 JUMPI POP PUSH2 0xB53 PUSH8 0xB3269582ADD7F1F5 PUSH1 0xC0 SHL PUSH2 0x1C7C JUMP JUMPDEST JUMPDEST DUP1 PUSH2 0xB7C JUMPI POP PUSH1 0x6 SLOAD DUP2 GT DUP1 ISZERO PUSH2 0xB7B JUMPI POP PUSH2 0xB7A PUSH8 0xA28C6A9ACDE72847 PUSH1 0xC0 SHL PUSH2 0x1C7C JUMP JUMPDEST JUMPDEST JUMPDEST ISZERO PUSH2 0xBDB JUMPI PUSH2 0xB95 PUSH8 0xDCD7698AFB82BF1B PUSH1 0xC0 SHL PUSH2 0x1BF3 JUMP JUMPDEST PUSH2 0xBA9 PUSH8 0xEFA4A6C2B624E817 PUSH1 0xC0 SHL PUSH2 0x1BF3 JUMP JUMPDEST PUSH1 0x40 MLOAD PUSH32 0x17DFB4AC00000000000000000000000000000000000000000000000000000000 DUP2 MSTORE PUSH1 0x4 ADD PUSH1 0x40 MLOAD DUP1 SWAP2 SUB SWAP1 REVERT JUMPDEST PUSH2 0xBEF PUSH8 0x1814A2F066DF63B6 PUSH1 0xC0 SHL PUSH2 0x1BF3 JUMP JUMPDEST PUSH2 0xC03 PUSH8 0xD15010841BEB0B6C PUSH1 0xC0 SHL PUSH2 0x1BF3 JUMP JUMPDEST PUSH2 0xC17 PUSH8 0xA3675027FFD4AFE1 PUSH1 0xC0 SHL PUSH2 0x1BF3 JUMP JUMPDEST PUSH2 0xC2B PUSH8 0x102C48EEC19BFB0A PUSH1 0xC0 SHL PUSH2 0x1BF3 JUMP JUMPDEST PUSH2 0xC33 PUSH2 0x1C87 JUMP JUMPDEST PUSH2 0xC47 PUSH8 0xFD8D1D04B829FE62 PUSH1 0xC0 SHL PUSH2 0x1BF3 JUMP JUMPDEST PUSH2 0xC5B PUSH8 0x4B5187A19AA0941C PUSH1 0xC0 SHL PUSH2 0x1BF3 JUMP JUMPDEST DUP7 PUSH2 0xC70 PUSH8 0x20308F24FB5625F3 PUSH1 0xC0 SHL PUSH2 0x1BF3 JUMP JUMPDEST PUSH2 0xC84 PUSH8 0x4CFA2C045A36B5DC PUSH1 0xC0 SHL PUSH2 0x1BF3 JUMP JUMPDEST PUSH2 0xC98 PUSH8 0xA612C69E3BFFA58E PUSH1 0xC0 SHL PUSH2 0x1BF3 JUMP JUMPDEST PUSH1 0x0 PUSH20 0xFFFFFFFFFFFFFFFFFFFFFFFFFFFFFFFFFFFFFFFF AND DUP2 PUSH20 0xFFFFFFFFFFFFFFFFFFFFFFFFFFFFFFFFFFFFFFFF AND SUB PUSH2 0xD26 JUMPI PUSH2 0xCE0 PUSH8 0xE9A88D3FFBFF7BA6 PUSH1 0xC0 SHL PUSH2 0x1BF3 JUMP JUMPDEST PUSH2 0xCF4 PUSH8 0x714EEAD27B26E421 PUSH1 0xC0 SHL PUSH2 0x1BF3 JUMP JUMPDEST PUSH1 0x40 MLOAD PUSH32 0xD92E233D00000000000000000000000000000000000000000000000000000000 DUP2 MSTORE PUSH1 0x4 ADD PUSH1 0x40 MLOAD DUP1 SWAP2 SUB SWAP1 REVERT JUMPDEST PUSH2 0xD3A PUSH8 0x3307C6329D43AFC3 PUSH1 0xC0 SHL PUSH2 0x1BF3 JUMP JUMPDEST PUSH2 0xD4E PUSH8 0xBA28EB22E0D76AFA PUSH1 0xC0 SHL PUSH2 0x1BF3 JUMP JUMPDEST PUSH2 0xD62 PUSH8 0x35FF07676B73B40 PUSH1 0xC0 SHL PUSH2 0x1BF3 JUMP JUMPDEST PUSH2 0xD76 PUSH8 0x31EA12E1B3D880E6 PUSH1 0xC0 SHL PUSH2 0x1BF3 JUMP JUMPDEST PUSH2 0xD8A PUSH8 0xF8BBEF7226D80B71 PUSH1 0xC0 SHL PUSH2 0x1BF3 JUMP JUMPDEST PUSH2 0xD9E PUSH8 0x8001F7433BC271AB PUSH1 0xC0 SHL PUSH2 0x1BF3 JUMP JUMPDEST PUSH1 0x0 PUSH2 0xDDC DUP9 PUSH2 0xDAC PUSH2 0x1C74 JUMP JUMPDEST DUP10 ADDRESS PUSH1 0x40 MLOAD PUSH1 0x20 ADD PUSH2 0xDC1 SWAP5 SWAP4 SWAP3 SWAP2 SWAP1 PUSH2 0x2496 JUMP JUMPDEST PUSH1 0x40 MLOAD PUSH1 0x20 DUP2 DUP4 SUB SUB DUP2 MSTORE SWAP1 PUSH1 0x40 MSTORE DUP1 MLOAD SWAP1 PUSH1 0x20 ADD KECCAK256 PUSH2 0x1CD4 JUMP JUMPDEST SWAP1 POP PUSH2 0xDF2 PUSH8 0x9BB08710F1508C59 PUSH1 0xC0 SHL PUSH2 0x1BF3 JUMP JUMPDEST PUSH2 0xE06 PUSH8 0xDB97E00C222F5DBF PUSH1 0xC0 SHL PUSH2 0x1BF3 JUMP JUMPDEST PUSH1 0x3 PUSH1 0x0 SWAP1 SLOAD SWAP1 PUSH2 0x100 EXP SWAP1 DIV PUSH20 0xFFFFFFFFFFFFFFFFFFFFFFFFFFFFFFFFFFFFFFFF AND PUSH20 0xFFFFFFFFFFFFFFFFFFFFFFFFFFFFFFFFFFFFFFFF AND PUSH1 0x1 DUP3 DUP9 DUP9 DUP9 PUSH1 0x40 MLOAD PUSH1 0x0 DUP2 MSTORE PUSH1 0x20 ADD PUSH1 0x40 MSTORE PUSH1 0x40 MLOAD PUSH2 0xE62 SWAP5 SWAP4 SWAP3 SWAP2 SWAP1 PUSH2 0x250D JUMP JUMPDEST PUSH1 0x20 PUSH1 0x40 MLOAD PUSH1 0x20 DUP2 SUB SWAP1 DUP1 DUP5 SUB SWAP1 DUP6 GAS STATICCALL ISZERO DUP1 ISZERO PUSH2 0xE84 JUMPI RETURNDATASIZE PUSH1 0x0 DUP1 RETURNDATACOPY RETURNDATASIZE PUSH1 0x0 REVERT JUMPDEST POP POP POP PUSH1 0x20 PUSH1 0x40 MLOAD SUB MLOAD PUSH20 0xFFFFFFFFFFFFFFFFFFFFFFFFFFFFFFFFFFFFFFFF AND EQ PUSH2 0xF03 JUMPI PUSH2 0xEBD PUSH8 0xA361D7659F65CE8A PUSH1 0xC0 SHL PUSH2 0x1BF3 JUMP JUMPDEST PUSH2 0xED1 PUSH8 0xF642C06139D03408 PUSH1 0xC0 SHL PUSH2 0x1BF3 JUMP JUMPDEST PUSH1 0x40 MLOAD PUSH32 0xA7A059BC00000000000000000000000000000000000000000000000000000000 DUP2 MSTORE PUSH1 0x4 ADD PUSH1 0x40 MLOAD DUP1 SWAP2 SUB SWAP1 REVERT JUMPDEST PUSH2 0xF17 PUSH8 0x461E2B29A4C0D9EA PUSH1 0xC0 SHL PUSH2 0x1BF3 JUMP JUMPDEST PUSH2 0xF2B PUSH8 0xE7FEE7253F76A3FE PUSH1 0xC0 SHL PUSH2 0x1BF3 JUMP JUMPDEST PUSH2 0xF3F PUSH8 0x6FB0580ABE4C6A28 PUSH1 0xC0 SHL PUSH2 0x1BF3 JUMP JUMPDEST PUSH1 0x4 PUSH1 0x0 DUP3 DUP2 MSTORE PUSH1 0x20 ADD SWAP1 DUP2 MSTORE PUSH1 0x20 ADD PUSH1 0x0 KECCAK256 PUSH1 0x0 SWAP1 SLOAD SWAP1 PUSH2 0x100 EXP SWAP1 DIV PUSH1 0xFF AND ISZERO PUSH2 0xFBF JUMPI PUSH2 0xF79 PUSH8 0x116B48704BD197BB PUSH1 0xC0 SHL PUSH2 0x1BF3 JUMP JUMPDEST PUSH2 0xF8D PUSH8 0xE839DA6ED76EC69 PUSH1 0xC0 SHL PUSH2 0x1BF3 JUMP JUMPDEST PUSH1 0x40 MLOAD PUSH32 0xCCE9A82400000000000000000000000000000000000000000000000000000000 DUP2 MSTORE PUSH1 0x4 ADD PUSH1 0x40 MLOAD DUP1 SWAP2 SUB SWAP1 REVERT JUMPDEST PUSH2 0xFD3 PUSH8 0x4C491EC0B4941D62 PUSH1 0xC0 SHL PUSH2 0x1BF3 JUMP JUMPDEST PUSH2 0xFE7 PUSH8 0xE822EE17420CEF6E PUSH1 0xC0 SHL PUSH2 0x1BF3 JUMP JUMPDEST PUSH1 0x1 PUSH1 0x4 PUSH1 0x0 DUP4 DUP2 MSTORE PUSH1 0x20 ADD SWAP1 DUP2 MSTORE PUSH1 0x20 ADD PUSH1 0x0 KECCAK256 PUSH1 0x0 PUSH2 0x100 EXP DUP2 SLOAD DUP2 PUSH1 0xFF MUL NOT AND SWAP1 DUP4 ISZERO ISZERO MUL OR SWAP1 SSTORE POP PUSH2 0x1027 PUSH8 0x85FCBE3428954910 PUSH1 0xC0 SHL PUSH2 0x1BF3 JUMP JUMPDEST PUSH2 0x103B PUSH8 0xE11A31819220FFA5 PUSH1 0xC0 SHL PUSH2 0x1BF3 JUMP JUMPDEST DUP8 PUSH2 0x1044 PUSH2 0x2EE JUMP JUMPDEST LT ISZERO PUSH2 0x10A4 JUMPI PUSH2 0x105E PUSH8 0xFDE2B37D41FFB645 PUSH1 0xC0 SHL PUSH2 0x1BF3 JUMP JUMPDEST PUSH2 0x1072 PUSH8 0x5C422095DAA7F4ED PUSH1 0xC0 SHL PUSH2 0x1BF3 JUMP JUMPDEST PUSH1 0x40 MLOAD PUSH32 0x3B4930BD00000000000000000000000000000000000000000000000000000000 DUP2 MSTORE PUSH1 0x4 ADD PUSH1 0x40 MLOAD DUP1 SWAP2 SUB SWAP1 REVERT JUMPDEST PUSH2 0x10B8 PUSH8 0x4529CB224D76D8E6 PUSH1 0xC0 SHL PUSH2 0x1BF3 JUMP JUMPDEST PUSH2 0x10CC PUSH8 0xB49B623BD379BB68 PUSH1 0xC0 SHL PUSH2 0x1BF3 JUMP JUMPDEST PUSH2 0x10E0 PUSH8 0xCC70FD01756F1D22 PUSH1 0xC0 SHL PUSH2 0x1BF3 JUMP JUMPDEST PUSH32 0x0 PUSH20 0xFFFFFFFFFFFFFFFFFFFFFFFFFFFFFFFFFFFFFFFF AND PUSH4 0xA9059CBB DUP11 DUP11 PUSH1 0x40 MLOAD DUP4 PUSH4 0xFFFFFFFF AND PUSH1 0xE0 SHL DUP2 MSTORE PUSH1 0x4 ADD PUSH2 0x113B SWAP3 SWAP2 SWAP1 PUSH2 0x222C JUMP JUMPDEST PUSH1 0x20 PUSH1 0x40 MLOAD DUP1 DUP4 SUB DUP2 PUSH1 0x0 DUP8 GAS CALL ISZERO DUP1 ISZERO PUSH2 0x115A JUMPI RETURNDATASIZE PUSH1 0x0 DUP1 RETURNDATACOPY RETURNDATASIZE PUSH1 0x0 REVERT JUMPDEST POP POP POP POP PUSH1 0x40 MLOAD RETURNDATASIZE PUSH1 0x1F NOT PUSH1 0x1F DUP3 ADD AND DUP3 ADD DUP1 PUSH1 0x40 MSTORE POP DUP2 ADD SWAP1 PUSH2 0x117E SWAP2 SWAP1 PUSH2 0x228D JUMP JUMPDEST POP PUSH2 0x1193 PUSH8 0x13B524C21120063C PUSH1 0xC0 SHL PUSH2 0x1BF3 JUMP JUMPDEST PUSH2 0x11A7 PUSH8 0x3DB6474F8D3D4FC9 PUSH1 0xC0 SHL PUSH2 0x1BF3 JUMP JUMPDEST DUP9 PUSH20 0xFFFFFFFFFFFFFFFFFFFFFFFFFFFFFFFFFFFFFFFF AND PUSH32 0x62A9B3E6446AB559D6B82C4F02CC923CD3B4E47444EF86446DAB81A4D781C5AF DUP9 DUP11 PUSH1 0x40 MLOAD PUSH2 0x11EF SWAP3 SWAP2 SWAP1 PUSH2 0x2552 JUMP JUMPDEST PUSH1 0x40 MLOAD DUP1 SWAP2 SUB SWAP1 LOG2 POP POP PUSH2 0x1201 PUSH2 0x1D40 JUMP JUMPDEST POP POP POP POP POP POP POP JUMP JUMPDEST PUSH2 0x1212 PUSH2 0x1BF6 JUMP JUMPDEST PUSH2 0x121C PUSH1 0x0 PUSH2 0x1D4A JUMP JUMPDEST JUMP JUMPDEST PUSH1 0x0 PUSH2 0x1228 PUSH2 0x1C74 JUMP JUMPDEST SWAP1 POP DUP1 PUSH20 0xFFFFFFFFFFFFFFFFFFFFFFFFFFFFFFFFFFFFFFFF AND PUSH2 0x1249 PUSH2 0x1AC7 JUMP JUMPDEST PUSH20 0xFFFFFFFFFFFFFFFFFFFFFFFFFFFFFFFFFFFFFFFF AND EQ PUSH2 0x129F JUMPI PUSH1 0x40 MLOAD PUSH32 0x8C379A000000000000000000000000000000000000000000000000000000000 DUP2 MSTORE PUSH1 0x4 ADD PUSH2 0x1296 SWAP1 PUSH2 0x25FE JUMP JUMPDEST PUSH1 0x40 MLOAD DUP1 SWAP2 SUB SWAP1 REVERT JUMPDEST PUSH2 0x12A8 DUP2 PUSH2 0x1D4A JUMP JUMPDEST POP JUMP JUMPDEST PUSH1 0x0 DUP1 PUSH1 0x0 SWAP1 SLOAD SWAP1 PUSH2 0x100 EXP SWAP1 DIV PUSH20 0xFFFFFFFFFFFFFFFFFFFFFFFFFFFFFFFFFFFFFFFF AND SWAP1 POP SWAP1 JUMP JUMPDEST PUSH2 0x12E8 PUSH8 0x2D7A692EE3552F09 PUSH1 0xC0 SHL PUSH2 0x1BF3 JUMP JUMPDEST DUP5 PUSH2 0x12FD PUSH8 0x926754F1BE6ED9A0 PUSH1 0xC0 SHL PUSH2 0x1BF3 JUMP JUMPDEST PUSH2 0x1311 PUSH8 0xEEE796DD9D91DFAE PUSH1 0xC0 SHL PUSH2 0x1BF3 JUMP JUMPDEST PUSH2 0x1325 PUSH8 0x766E4FA2E4D02BF8 PUSH1 0xC0 SHL PUSH2 0x1BF3 JUMP JUMPDEST PUSH1 0x5 SLOAD DUP2 LT DUP1 ISZERO PUSH2 0x1346 JUMPI POP PUSH2 0x1345 PUSH8 0xB3269582ADD7F1F5 PUSH1 0xC0 SHL PUSH2 0x1C7C JUMP JUMPDEST JUMPDEST DUP1 PUSH2 0x136E JUMPI POP PUSH1 0x6 SLOAD DUP2 GT DUP1 ISZERO PUSH2 0x136D JUMPI POP PUSH2 0x136C PUSH8 0xA28C6A9ACDE72847 PUSH1 0xC0 SHL PUSH2 0x1C7C JUMP JUMPDEST JUMPDEST JUMPDEST ISZERO PUSH2 0x13CD JUMPI PUSH2 0x1387 PUSH8 0xDCD7698AFB82BF1B PUSH1 0xC0 SHL PUSH2 0x1BF3 JUMP JUMPDEST PUSH2 0x139B PUSH8 0xEFA4A6C2B624E817 PUSH1 0xC0 SHL PUSH2 0x1BF3 JUMP JUMPDEST PUSH1 0x40 MLOAD PUSH32 0x17DFB4AC00000000000000000000000000000000000000000000000000000000 DUP2 MSTORE PUSH1 0x4 ADD PUSH1 0x40 MLOAD DUP1 SWAP2 SUB SWAP1 REVERT JUMPDEST PUSH2 0x13E1 PUSH8 0x1814A2F066DF63B6 PUSH1 0xC0 SHL PUSH2 0x1BF3 JUMP JUMPDEST PUSH2 0x13F5 PUSH8 0xD15010841BEB0B6C PUSH1 0xC0 SHL PUSH2 0x1BF3 JUMP JUMPDEST PUSH2 0x1409 PUSH8 0xFD92BA3D705A6F04 PUSH1 0xC0 SHL PUSH2 0x1BF3 JUMP JUMPDEST PUSH2 0x141D PUSH8 0x3FDCD201603DF779 PUSH1 0xC0 SHL PUSH2 0x1BF3 JUMP JUMPDEST PUSH2 0x1425 PUSH2 0x1C87 JUMP JUMPDEST PUSH2 0x1439 PUSH8 0x16E21E69588AC8E8 PUSH1 0xC0 SHL PUSH2 0x1BF3 JUMP JUMPDEST PUSH2 0x144D PUSH8 0xDC8087200E432D3E PUSH1 0xC0 SHL PUSH2 0x1BF3 JUMP JUMPDEST PUSH2 0x1461 PUSH8 0x6EC5062834AF54B6 PUSH1 0xC0 SHL PUSH2 0x1BF3 JUMP JUMPDEST PUSH2 0x1475 PUSH8 0x8F9133A34CDD6332 PUSH1 0xC0 SHL PUSH2 0x1BF3 JUMP JUMPDEST PUSH1 0x0 PUSH2 0x14B3 DUP8 PUSH2 0x1483 PUSH2 0x1C74 JUMP JUMPDEST DUP9 ADDRESS PUSH1 0x40 MLOAD PUSH1 0x20 ADD PUSH2 0x1498 SWAP5 SWAP4 SWAP3 SWAP2 SWAP1 PUSH2 0x266A JUMP JUMPDEST PUSH1 0x40 MLOAD PUSH1 0x20 DUP2 DUP4 SUB SUB DUP2 MSTORE SWAP1 PUSH1 0x40 MSTORE DUP1 MLOAD SWAP1 PUSH1 0x20 ADD KECCAK256 PUSH2 0x1CD4 JUMP JUMPDEST SWAP1 POP PUSH2 0x14C9 PUSH8 0xD326BB3993453947 PUSH1 0xC0 SHL PUSH2 0x1BF3 JUMP JUMPDEST PUSH2 0x14DD PUSH8 0x246BC442871360F7 PUSH1 0xC0 SHL PUSH2 0x1BF3 JUMP JUMPDEST PUSH1 0x3 PUSH1 0x0 SWAP1 SLOAD SWAP1 PUSH2 0x100 EXP SWAP1 DIV PUSH20 0xFFFFFFFFFFFFFFFFFFFFFFFFFFFFFFFFFFFFFFFF AND PUSH20 0xFFFFFFFFFFFFFFFFFFFFFFFFFFFFFFFFFFFFFFFF AND PUSH1 0x1 DUP3 DUP8 DUP8 DUP8 PUSH1 0x40 MLOAD PUSH1 0x0 DUP2 MSTORE PUSH1 0x20 ADD PUSH1 0x40 MSTORE PUSH1 0x40 MLOAD PUSH2 0x1539 SWAP5 SWAP4 SWAP3 SWAP2 SWAP1 PUSH2 0x250D JUMP JUMPDEST PUSH1 0x20 PUSH1 0x40 MLOAD PUSH1 0x20 DUP2 SUB SWAP1 DUP1 DUP5 SUB SWAP1 DUP6 GAS STATICCALL ISZERO DUP1 ISZERO PUSH2 0x155B JUMPI RETURNDATASIZE PUSH1 0x0 DUP1 RETURNDATACOPY RETURNDATASIZE PUSH1 0x0 REVERT JUMPDEST POP POP POP PUSH1 0x20 PUSH1 0x40 MLOAD SUB MLOAD PUSH20 0xFFFFFFFFFFFFFFFFFFFFFFFFFFFFFFFFFFFFFFFF AND EQ PUSH2 0x15DA JUMPI PUSH2 0x1594 PUSH8 0xB8345DCAEB95D24B PUSH1 0xC0 SHL PUSH2 0x1BF3 JUMP JUMPDEST PUSH2 0x15A8 PUSH8 0xB824C935DFCC3CD3 PUSH1 0xC0 SHL PUSH2 0x1BF3 JUMP JUMPDEST PUSH1 0x40 MLOAD PUSH32 0xA7A059BC00000000000000000000000000000000000000000000000000000000 DUP2 MSTORE PUSH1 0x4 ADD PUSH1 0x40 MLOAD DUP1 SWAP2 SUB SWAP1 REVERT JUMPDEST PUSH2 0x15EE PUSH8 0x1E0978D476641CF3 PUSH1 0xC0 SHL PUSH2 0x1BF3 JUMP JUMPDEST PUSH2 0x1602 PUSH8 0xFCCF13DE060E0659 PUSH1 0xC0 SHL PUSH2 0x1BF3 JUMP JUMPDEST PUSH2 0x1616 PUSH8 0x886EA1D7EACE49E0 PUSH1 0xC0 SHL PUSH2 0x1BF3 JUMP JUMPDEST PUSH1 0x4 PUSH1 0x0 DUP3 DUP2 MSTORE PUSH1 0x20 ADD SWAP1 DUP2 MSTORE PUSH1 0x20 ADD PUSH1 0x0 KECCAK256 PUSH1 0x0 SWAP1 SLOAD SWAP1 PUSH2 0x100 EXP SWAP1 DIV PUSH1 0xFF AND ISZERO PUSH2 0x1696 JUMPI PUSH2 0x1650 PUSH8 0xD6939D42CE14D2AE PUSH1 0xC0 SHL PUSH2 0x1BF3 JUMP JUMPDEST PUSH2 0x1664 PUSH8 0xAF79098FCE46338 PUSH1 0xC0 SHL PUSH2 0x1BF3 JUMP JUMPDEST PUSH1 0x40 MLOAD PUSH32 0xCCE9A82400000000000000000000000000000000000000000000000000000000 DUP2 MSTORE PUSH1 0x4 ADD PUSH1 0x40 MLOAD DUP1 SWAP2 SUB SWAP1 REVERT JUMPDEST PUSH2 0x16AA PUSH8 0x407988507D55C35F PUSH1 0xC0 SHL PUSH2 0x1BF3 JUMP JUMPDEST PUSH2 0x16BE PUSH8 0xB8DAE3378C7B2A03 PUSH1 0xC0 SHL PUSH2 0x1BF3 JUMP JUMPDEST PUSH1 0x1 PUSH1 0x4 PUSH1 0x0 DUP4 DUP2 MSTORE PUSH1 0x20 ADD SWAP1 DUP2 MSTORE PUSH1 0x20 ADD PUSH1 0x0 KECCAK256 PUSH1 0x0 PUSH2 0x100 EXP DUP2 SLOAD DUP2 PUSH1 0xFF MUL NOT AND SWAP1 DUP4 ISZERO ISZERO MUL OR SWAP1 SSTORE POP PUSH2 0x16FE PUSH8 0x71997FF803A3DD7C PUSH1 0xC0 SHL PUSH2 0x1BF3 JUMP JUMPDEST PUSH2 0x1712 PUSH8 0xA54FC4E3E44E591C PUSH1 0xC0 SHL PUSH2 0x1BF3 JUMP JUMPDEST PUSH32 0x0 PUSH20 0xFFFFFFFFFFFFFFFFFFFFFFFFFFFFFFFFFFFFFFFF AND PUSH4 0x23B872DD PUSH2 0x1756 PUSH2 0x1C74 JUMP JUMPDEST ADDRESS DUP11 PUSH1 0x40 MLOAD DUP5 PUSH4 0xFFFFFFFF AND PUSH1 0xE0 SHL DUP2 MSTORE PUSH1 0x4 ADD PUSH2 0x1776 SWAP4 SWAP3 SWAP2 SWAP1 PUSH2 0x2317 JUMP JUMPDEST PUSH1 0x20 PUSH1 0x40 MLOAD DUP1 DUP4 SUB DUP2 PUSH1 0x0 DUP8 GAS CALL ISZERO DUP1 ISZERO PUSH2 0x1795 JUMPI RETURNDATASIZE PUSH1 0x0 DUP1 RETURNDATACOPY RETURNDATASIZE PUSH1 0x0 REVERT JUMPDEST POP POP POP POP PUSH1 0x40 MLOAD RETURNDATASIZE PUSH1 0x1F NOT PUSH1 0x1F DUP3 ADD AND DUP3 ADD DUP1 PUSH1 0x40 MSTORE POP DUP2 ADD SWAP1 PUSH2 0x17B9 SWAP2 SWAP1 PUSH2 0x228D JUMP JUMPDEST POP PUSH2 0x17CE PUSH8 0xFE3AC47BEFED8191 PUSH1 0xC0 SHL PUSH2 0x1BF3 JUMP JUMPDEST PUSH2 0x17E2 PUSH8 0xF7AC0541E70ED831 PUSH1 0xC0 SHL PUSH2 0x1BF3 JUMP JUMPDEST PUSH2 0x17EA PUSH2 0x1C74 JUMP JUMPDEST PUSH20 0xFFFFFFFFFFFFFFFFFFFFFFFFFFFFFFFFFFFFFFFF AND PUSH32 0xB999B06746A947F1958636B9B9377AE814FE578413DFFFD4D3A7A96196FE02FC DUP8 DUP10 PUSH1 0x40 MLOAD PUSH2 0x1831 SWAP3 SWAP2 SWAP1 PUSH2 0x2552 JUMP JUMPDEST PUSH1 0x40 MLOAD DUP1 SWAP2 SUB SWAP1 LOG2 POP PUSH2 0x1842 PUSH2 0x1D40 JUMP JUMPDEST POP POP POP POP POP POP JUMP JUMPDEST PUSH1 0x0 PUSH2 0x1860 PUSH8 0x953635740A0B08EC PUSH1 0xC0 SHL PUSH2 0x1BF3 JUMP JUMPDEST PUSH2 0x1874 PUSH8 0x572C89665A41A0AC PUSH1 0xC0 SHL PUSH2 0x1BF3 JUMP JUMPDEST PUSH2 0x1888 PUSH8 0x3046D86316FCF5F2 PUSH1 0xC0 SHL PUSH2 0x1BF3 JUMP JUMPDEST PUSH1 0x3 PUSH1 0x0 SWAP1 SLOAD SWAP1 PUSH2 0x100 EXP SWAP1 DIV PUSH20 0xFFFFFFFFFFFFFFFFFFFFFFFFFFFFFFFFFFFFFFFF AND SWAP1 POP SWAP1 JUMP JUMPDEST PUSH2 0x18C4 PUSH8 0x5077310BB5EA3A40 PUSH1 0xC0 SHL PUSH2 0x1BF3 JUMP JUMPDEST DUP1 PUSH2 0x18D9 PUSH8 0x20308F24FB5625F3 PUSH1 0xC0 SHL PUSH2 0x1BF3 JUMP JUMPDEST PUSH2 0x18ED PUSH8 0x4CFA2C045A36B5DC PUSH1 0xC0 SHL PUSH2 0x1BF3 JUMP JUMPDEST PUSH2 0x1901 PUSH8 0xA612C69E3BFFA58E PUSH1 0xC0 SHL PUSH2 0x1BF3 JUMP JUMPDEST PUSH1 0x0 PUSH20 0xFFFFFFFFFFFFFFFFFFFFFFFFFFFFFFFFFFFFFFFF AND DUP2 PUSH20 0xFFFFFFFFFFFFFFFFFFFFFFFFFFFFFFFFFFFFFFFF AND SUB PUSH2 0x198F JUMPI PUSH2 0x1949 PUSH8 0xE9A88D3FFBFF7BA6 PUSH1 0xC0 SHL PUSH2 0x1BF3 JUMP JUMPDEST PUSH2 0x195D PUSH8 0x714EEAD27B26E421 PUSH1 0xC0 SHL PUSH2 0x1BF3 JUMP JUMPDEST PUSH1 0x40 MLOAD PUSH32 0xD92E233D00000000000000000000000000000000000000000000000000000000 DUP2 MSTORE PUSH1 0x4 ADD PUSH1 0x40 MLOAD DUP1 SWAP2 SUB SWAP1 REVERT JUMPDEST PUSH2 0x19A3 PUSH8 0x3307C6329D43AFC3 PUSH1 0xC0 SHL PUSH2 0x1BF3 JUMP JUMPDEST PUSH2 0x19B7 PUSH8 0xBA28EB22E0D76AFA PUSH1 0xC0 SHL PUSH2 0x1BF3 JUMP JUMPDEST PUSH2 0x19CB PUSH8 0x5101C810E1A57A8F PUSH1 0xC0 SHL PUSH2 0x1BF3 JUMP JUMPDEST PUSH2 0x19DF PUSH8 0xBD77C84C9C071FB5 PUSH1 0xC0 SHL PUSH2 0x1BF3 JUMP JUMPDEST PUSH2 0x19E7 PUSH2 0x1BF6 JUMP JUMPDEST PUSH2 0x19FB PUSH8 0xBC22978F93E16A8A PUSH1 0xC0 SHL PUSH2 0x1BF3 JUMP JUMPDEST PUSH2 0x1A0F PUSH8 0x3EFF8ACDF81156B3 PUSH1 0xC0 SHL PUSH2 0x1BF3 JUMP JUMPDEST PUSH2 0x1A23 PUSH8 0x3066D00256FE6023 PUSH1 0xC0 SHL PUSH2 0x1BF3 JUMP JUMPDEST DUP2 PUSH1 0x3 PUSH1 0x0 PUSH2 0x100 EXP DUP2 SLOAD DUP2 PUSH20 0xFFFFFFFFFFFFFFFFFFFFFFFFFFFFFFFFFFFFFFFF MUL NOT AND SWAP1 DUP4 PUSH20 0xFFFFFFFFFFFFFFFFFFFFFFFFFFFFFFFFFFFFFFFF AND MUL OR SWAP1 SSTORE POP PUSH2 0x1A78 PUSH8 0x5127E2E4E3E4CB38 PUSH1 0xC0 SHL PUSH2 0x1BF3 JUMP JUMPDEST PUSH2 0x1A8C PUSH8 0x2A245F1A2498A535 PUSH1 0xC0 SHL PUSH2 0x1BF3 JUMP JUMPDEST PUSH32 0x8F53E6A9FBC3949BC0B9266BBE1927F0B282A34D92876CCBE188C24D17C6CBB DUP3 PUSH1 0x40 MLOAD PUSH2 0x1ABB SWAP2 SWAP1 PUSH2 0x208D JUMP JUMPDEST PUSH1 0x40 MLOAD DUP1 SWAP2 SUB SWAP1 LOG1 POP POP JUMP JUMPDEST PUSH1 0x0 PUSH1 0x1 PUSH1 0x0 SWAP1 SLOAD SWAP1 PUSH2 0x100 EXP SWAP1 DIV PUSH20 0xFFFFFFFFFFFFFFFFFFFFFFFFFFFFFFFFFFFFFFFF AND SWAP1 POP SWAP1 JUMP JUMPDEST PUSH2 0x1AF9 PUSH2 0x1BF6 JUMP JUMPDEST DUP1 PUSH1 0x1 PUSH1 0x0 PUSH2 0x100 EXP DUP2 SLOAD DUP2 PUSH20 0xFFFFFFFFFFFFFFFFFFFFFFFFFFFFFFFFFFFFFFFF MUL NOT AND SWAP1 DUP4 PUSH20 0xFFFFFFFFFFFFFFFFFFFFFFFFFFFFFFFFFFFFFFFF AND MUL OR SWAP1 SSTORE POP DUP1 PUSH20 0xFFFFFFFFFFFFFFFFFFFFFFFFFFFFFFFFFFFFFFFF AND PUSH2 0x1B59 PUSH2 0x12AB JUMP JUMPDEST PUSH20 0xFFFFFFFFFFFFFFFFFFFFFFFFFFFFFFFFFFFFFFFF AND PUSH32 0x38D16B8CAC22D99FC7C124B9CD0DE2D3FA1FAEF420BFE791D8C362D765E22700 PUSH1 0x40 MLOAD PUSH1 0x40 MLOAD DUP1 SWAP2 SUB SWAP1 LOG3 POP JUMP JUMPDEST PUSH1 0x0 DUP1 PUSH1 0x0 PUSH2 0x1BB7 PUSH8 0xAA738FC6FBF9FDF0 PUSH1 0xC0 SHL PUSH2 0x1BF3 JUMP JUMPDEST PUSH2 0x1BCB PUSH8 0x334DF6DE82979A4B PUSH1 0xC0 SHL PUSH2 0x1BF3 JUMP JUMPDEST PUSH2 0x1BDF PUSH8 0xB809D28EEE6C76DE PUSH1 0xC0 SHL PUSH2 0x1BF3 JUMP JUMPDEST PUSH1 0x5 SLOAD PUSH1 0x6 SLOAD PUSH1 0x7 SLOAD SWAP3 POP SWAP3 POP SWAP3 POP SWAP1 SWAP2 SWAP3 JUMP JUMPDEST POP JUMP JUMPDEST PUSH2 0x1BFE PUSH2 0x1C74 JUMP JUMPDEST PUSH20 0xFFFFFFFFFFFFFFFFFFFFFFFFFFFFFFFFFFFFFFFF AND PUSH2 0x1C1C PUSH2 0x12AB JUMP JUMPDEST PUSH20 0xFFFFFFFFFFFFFFFFFFFFFFFFFFFFFFFFFFFFFFFF AND EQ PUSH2 0x1C72 JUMPI PUSH1 0x40 MLOAD PUSH32 0x8C379A000000000000000000000000000000000000000000000000000000000 DUP2 MSTORE PUSH1 0x4 ADD PUSH2 0x1C69 SWAP1 PUSH2 0x270F JUMP JUMPDEST PUSH1 0x40 MLOAD DUP1 SWAP2 SUB SWAP1 REVERT JUMPDEST JUMP JUMPDEST PUSH1 0x0 CALLER SWAP1 POP SWAP1 JUMP JUMPDEST PUSH1 0x0 PUSH1 0x1 SWAP1 POP SWAP2 SWAP1 POP JUMP JUMPDEST PUSH1 0x2 DUP1 SLOAD SUB PUSH2 0x1CCB JUMPI PUSH1 0x40 MLOAD PUSH32 0x8C379A000000000000000000000000000000000000000000000000000000000 DUP2 MSTORE PUSH1 0x4 ADD PUSH2 0x1CC2 SWAP1 PUSH2 0x277B JUMP JUMPDEST PUSH1 0x40 MLOAD DUP1 SWAP2 SUB SWAP1 REVERT JUMPDEST PUSH1 0x2 DUP1 DUP2 SWAP1 SSTORE POP JUMP JUMPDEST PUSH1 0x0 PUSH2 0x1CEA PUSH8 0x6EF79CD31AFEF6A PUSH1 0xC0 SHL PUSH2 0x1BF3 JUMP JUMPDEST PUSH2 0x1CFE PUSH8 0xB5AED6AE87F8FA1A PUSH1 0xC0 SHL PUSH2 0x1BF3 JUMP JUMPDEST PUSH2 0x1D12 PUSH8 0xF46768A1A82BFD92 PUSH1 0xC0 SHL PUSH2 0x1BF3 JUMP JUMPDEST DUP2 PUSH1 0x40 MLOAD PUSH1 0x20 ADD PUSH2 0x1D23 SWAP2 SWAP1 PUSH2 0x27E7 JUMP JUMPDEST PUSH1 0x40 MLOAD PUSH1 0x20 DUP2 DUP4 SUB SUB DUP2 MSTORE SWAP1 PUSH1 0x40 MSTORE DUP1 MLOAD SWAP1 PUSH1 0x20 ADD KECCAK256 SWAP1 POP SWAP2 SWAP1 POP JUMP JUMPDEST PUSH1 0x1 PUSH1 0x2 DUP2 SWAP1 SSTORE POP JUMP JUMPDEST PUSH1 0x1 PUSH1 0x0 PUSH2 0x100 EXP DUP2 SLOAD SWAP1 PUSH20 0xFFFFFFFFFFFFFFFFFFFFFFFFFFFFFFFFFFFFFFFF MUL NOT AND SWAP1 SSTORE PUSH2 0x1D78 DUP2 PUSH2 0x1D7B JUMP JUMPDEST POP JUMP JUMPDEST PUSH1 0x0 DUP1 PUSH1 0x0 SWAP1 SLOAD SWAP1 PUSH2 0x100 EXP SWAP1 DIV PUSH20 0xFFFFFFFFFFFFFFFFFFFFFFFFFFFFFFFFFFFFFFFF AND SWAP1 POP DUP2 PUSH1 0x0 DUP1 PUSH2 0x100 EXP DUP2 SLOAD DUP2 PUSH20 0xFFFFFFFFFFFFFFFFFFFFFFFFFFFFFFFFFFFFFFFF MUL NOT AND SWAP1 DUP4 PUSH20 0xFFFFFFFFFFFFFFFFFFFFFFFFFFFFFFFFFFFFFFFF AND MUL OR SWAP1 SSTORE POP DUP2 PUSH20 0xFFFFFFFFFFFFFFFFFFFFFFFFFFFFFFFFFFFFFFFF AND DUP2 PUSH20 0xFFFFFFFFFFFFFFFFFFFFFFFFFFFFFFFFFFFFFFFF AND PUSH32 0x8BE0079C531659141344CD1FD0A4F28419497F9722A3DAAFE3B4186F6B6457E0 PUSH1 0x40 MLOAD PUSH1 0x40 MLOAD DUP1 SWAP2 SUB SWAP1 LOG3 POP POP JUMP JUMPDEST PUSH1 0x0 DUP2 SWAP1 POP SWAP2 SWAP1 POP JUMP JUMPDEST PUSH2 0x1E52 DUP2 PUSH2 0x1E3F JUMP JUMPDEST DUP3 MSTORE POP POP JUMP JUMPDEST PUSH1 0x0 PUSH1 0x20 DUP3 ADD SWAP1 POP PUSH2 0x1E6D PUSH1 0x0 DUP4 ADD DUP5 PUSH2 0x1E49 JUMP JUMPDEST SWAP3 SWAP2 POP POP JUMP JUMPDEST PUSH1 0x0 DUP1 REVERT JUMPDEST PUSH2 0x1E81 DUP2 PUSH2 0x1E3F JUMP JUMPDEST DUP2 EQ PUSH2 0x1E8C JUMPI PUSH1 0x0 DUP1 REVERT JUMPDEST POP JUMP JUMPDEST PUSH1 0x0 DUP2 CALLDATALOAD SWAP1 POP PUSH2 0x1E9E DUP2 PUSH2 0x1E78 JUMP JUMPDEST SWAP3 SWAP2 POP POP JUMP JUMPDEST PUSH1 0x0 PUSH1 0x20 DUP3 DUP5 SUB SLT ISZERO PUSH2 0x1EBA JUMPI PUSH2 0x1EB9 PUSH2 0x1E73 JUMP JUMPDEST JUMPDEST PUSH1 0x0 PUSH2 0x1EC8 DUP5 DUP3 DUP6 ADD PUSH2 0x1E8F JUMP JUMPDEST SWAP2 POP POP SWAP3 SWAP2 POP POP JUMP JUMPDEST PUSH1 0x0 DUP1 PUSH1 0x0 PUSH1 0x60 DUP5 DUP7 SUB SLT ISZERO PUSH2 0x1EEA JUMPI PUSH2 0x1EE9 PUSH2 0x1E73 JUMP JUMPDEST JUMPDEST PUSH1 0x0 PUSH2 0x1EF8 DUP7 DUP3 DUP8 ADD PUSH2 0x1E8F JUMP JUMPDEST SWAP4 POP POP PUSH1 0x20 PUSH2 0x1F09 DUP7 DUP3 DUP8 ADD PUSH2 0x1E8F JUMP JUMPDEST SWAP3 POP POP PUSH1 0x40 PUSH2 0x1F1A DUP7 DUP3 DUP8 ADD PUSH2 0x1E8F JUMP JUMPDEST SWAP2 POP POP SWAP3 POP SWAP3 POP SWAP3 JUMP JUMPDEST PUSH1 0x0 PUSH20 0xFFFFFFFFFFFFFFFFFFFFFFFFFFFFFFFFFFFFFFFF DUP3 AND SWAP1 POP SWAP2 SWAP1 POP JUMP JUMPDEST PUSH1 0x0 PUSH2 0x1F4F DUP3 PUSH2 0x1F24 JUMP JUMPDEST SWAP1 POP SWAP2 SWAP1 POP JUMP JUMPDEST PUSH2 0x1F5F DUP2 PUSH2 0x1F44 JUMP JUMPDEST DUP2 EQ PUSH2 0x1F6A JUMPI PUSH1 0x0 DUP1 REVERT JUMPDEST POP JUMP JUMPDEST PUSH1 0x0 DUP2 CALLDATALOAD SWAP1 POP PUSH2 0x1F7C DUP2 PUSH2 0x1F56 JUMP JUMPDEST SWAP3 SWAP2 POP POP JUMP JUMPDEST PUSH1 0x0 DUP2 SWAP1 POP SWAP2 SWAP1 POP JUMP JUMPDEST PUSH2 0x1F95 DUP2 PUSH2 0x1F82 JUMP JUMPDEST DUP2 EQ PUSH2 0x1FA0 JUMPI PUSH1 0x0 DUP1 REVERT JUMPDEST POP JUMP JUMPDEST PUSH1 0x0 DUP2 CALLDATALOAD SWAP1 POP PUSH2 0x1FB2 DUP2 PUSH2 0x1F8C JUMP JUMPDEST SWAP3 SWAP2 POP POP JUMP JUMPDEST PUSH1 0x0 PUSH1 0xFF DUP3 AND SWAP1 POP SWAP2 SWAP1 POP JUMP JUMPDEST PUSH2 0x1FCE DUP2 PUSH2 0x1FB8 JUMP JUMPDEST DUP2 EQ PUSH2 0x1FD9 JUMPI PUSH1 0x0 DUP1 REVERT JUMPDEST POP JUMP JUMPDEST PUSH1 0x0 DUP2 CALLDATALOAD SWAP1 POP PUSH2 0x1FEB DUP2 PUSH2 0x1FC5 JUMP JUMPDEST SWAP3 SWAP2 POP POP JUMP JUMPDEST PUSH1 0x0 DUP1 PUSH1 0x0 DUP1 PUSH1 0x0 DUP1 PUSH1 0xC0 DUP8 DUP10 SUB SLT ISZERO PUSH2 0x200E JUMPI PUSH2 0x200D PUSH2 0x1E73 JUMP JUMPDEST JUMPDEST PUSH1 0x0 PUSH2 0x201C DUP10 DUP3 DUP11 ADD PUSH2 0x1F6D JUMP JUMPDEST SWAP7 POP POP PUSH1 0x20 PUSH2 0x202D DUP10 DUP3 DUP11 ADD PUSH2 0x1E8F JUMP JUMPDEST SWAP6 POP POP PUSH1 0x40 PUSH2 0x203E DUP10 DUP3 DUP11 ADD PUSH2 0x1FA3 JUMP JUMPDEST SWAP5 POP POP PUSH1 0x60 PUSH2 0x204F DUP10 DUP3 DUP11 ADD PUSH2 0x1FDC JUMP JUMPDEST SWAP4 POP POP PUSH1 0x80 PUSH2 0x2060 DUP10 DUP3 DUP11 ADD PUSH2 0x1FA3 JUMP JUMPDEST SWAP3 POP POP PUSH1 0xA0 PUSH2 0x2071 DUP10 DUP3 DUP11 ADD PUSH2 0x1FA3 JUMP JUMPDEST SWAP2 POP POP SWAP3 SWAP6 POP SWAP3 SWAP6 POP SWAP3 SWAP6 JUMP JUMPDEST PUSH2 0x2087 DUP2 PUSH2 0x1F44 JUMP JUMPDEST DUP3 MSTORE POP POP JUMP JUMPDEST PUSH1 0x0 PUSH1 0x20 DUP3 ADD SWAP1 POP PUSH2 0x20A2 PUSH1 0x0 DUP4 ADD DUP5 PUSH2 0x207E JUMP JUMPDEST SWAP3 SWAP2 POP POP JUMP JUMPDEST PUSH1 0x0 DUP1 PUSH1 0x0 DUP1 PUSH1 0x0 PUSH1 0xA0 DUP7 DUP9 SUB SLT ISZERO PUSH2 0x20C4 JUMPI PUSH2 0x20C3 PUSH2 0x1E73 JUMP JUMPDEST JUMPDEST PUSH1 0x0 PUSH2 0x20D2 DUP9 DUP3 DUP10 ADD PUSH2 0x1E8F JUMP JUMPDEST SWAP6 POP POP PUSH1 0x20 PUSH2 0x20E3 DUP9 DUP3 DUP10 ADD PUSH2 0x1FA3 JUMP JUMPDEST SWAP5 POP POP PUSH1 0x40 PUSH2 0x20F4 DUP9 DUP3 DUP10 ADD PUSH2 0x1FDC JUMP JUMPDEST SWAP4 POP POP PUSH1 0x60 PUSH2 0x2105 DUP9 DUP3 DUP10 ADD PUSH2 0x1FA3 JUMP JUMPDEST SWAP3 POP POP PUSH1 0x80 PUSH2 0x2116 DUP9 DUP3 DUP10 ADD PUSH2 0x1FA3 JUMP JUMPDEST SWAP2 POP POP SWAP3 SWAP6 POP SWAP3 SWAP6 SWAP1 SWAP4 POP JUMP JUMPDEST PUSH1 0x0 PUSH1 0x20 DUP3 DUP5 SUB SLT ISZERO PUSH2 0x2139 JUMPI PUSH2 0x2138 PUSH2 0x1E73 JUMP JUMPDEST JUMPDEST PUSH1 0x0 PUSH2 0x2147 DUP5 DUP3 DUP6 ADD PUSH2 0x1F6D JUMP JUMPDEST SWAP2 POP POP SWAP3 SWAP2 POP POP JUMP JUMPDEST PUSH1 0x0 PUSH1 0x60 DUP3 ADD SWAP1 POP PUSH2 0x2165 PUSH1 0x0 DUP4 ADD DUP7 PUSH2 0x1E49 JUMP JUMPDEST PUSH2 0x2172 PUSH1 0x20 DUP4 ADD DUP6 PUSH2 0x1E49 JUMP JUMPDEST PUSH2 0x217F PUSH1 0x40 DUP4 ADD DUP5 PUSH2 0x1E49 JUMP JUMPDEST SWAP5 SWAP4 POP POP POP POP JUMP JUMPDEST PUSH1 0x0 DUP2 MLOAD SWAP1 POP PUSH2 0x2196 DUP2 PUSH2 0x1E78 JUMP JUMPDEST SWAP3 SWAP2 POP POP JUMP JUMPDEST PUSH1 0x0 PUSH1 0x20 DUP3 DUP5 SUB SLT ISZERO PUSH2 0x21B2 JUMPI PUSH2 0x21B1 PUSH2 0x1E73 JUMP JUMPDEST JUMPDEST PUSH1 0x0 PUSH2 0x21C0 DUP5 DUP3 DUP6 ADD PUSH2 0x2187 JUMP JUMPDEST SWAP2 POP POP SWAP3 SWAP2 POP POP JUMP JUMPDEST PUSH32 0x4E487B7100000000000000000000000000000000000000000000000000000000 PUSH1 0x0 MSTORE PUSH1 0x11 PUSH1 0x4 MSTORE PUSH1 0x24 PUSH1 0x0 REVERT JUMPDEST PUSH1 0x0 PUSH2 0x2203 DUP3 PUSH2 0x1E3F JUMP JUMPDEST SWAP2 POP PUSH2 0x220E DUP4 PUSH2 0x1E3F JUMP JUMPDEST SWAP3 POP DUP3 DUP3 SUB SWAP1 POP DUP2 DUP2 GT ISZERO PUSH2 0x2226 JUMPI PUSH2 0x2225 PUSH2 0x21C9 JUMP JUMPDEST JUMPDEST SWAP3 SWAP2 POP POP JUMP JUMPDEST PUSH1 0x0 PUSH1 0x40 DUP3 ADD SWAP1 POP PUSH2 0x2241 PUSH1 0x0 DUP4 ADD DUP6 PUSH2 0x207E JUMP JUMPDEST PUSH2 0x224E PUSH1 0x20 DUP4 ADD DUP5 PUSH2 0x1E49 JUMP JUMPDEST SWAP4 SWAP3 POP POP POP JUMP JUMPDEST PUSH1 0x0 DUP2 ISZERO ISZERO SWAP1 POP SWAP2 SWAP1 POP JUMP JUMPDEST PUSH2 0x226A DUP2 PUSH2 0x2255 JUMP JUMPDEST DUP2 EQ PUSH2 0x2275 JUMPI PUSH1 0x0 DUP1 REVERT JUMPDEST POP JUMP JUMPDEST PUSH1 0x0 DUP2 MLOAD SWAP1 POP PUSH2 0x2287 DUP2 PUSH2 0x2261 JUMP JUMPDEST SWAP3 SWAP2 POP POP JUMP JUMPDEST PUSH1 0x0 PUSH1 0x20 DUP3 DUP5 SUB SLT ISZERO PUSH2 0x22A3 JUMPI PUSH2 0x22A2 PUSH2 0x1E73 JUMP JUMPDEST JUMPDEST PUSH1 0x0 PUSH2 0x22B1 DUP5 DUP3 DUP6 ADD PUSH2 0x2278 JUMP JUMPDEST SWAP2 POP POP SWAP3 SWAP2 POP POP JUMP JUMPDEST PUSH1 0x0 PUSH1 0x40 DUP3 ADD SWAP1 POP PUSH2 0x22CF PUSH1 0x0 DUP4 ADD DUP6 PUSH2 0x1E49 JUMP JUMPDEST PUSH2 0x22DC PUSH1 0x20 DUP4 ADD DUP5 PUSH2 0x1E49 JUMP JUMPDEST SWAP4 SWAP3 POP POP POP JUMP JUMPDEST PUSH1 0x0 PUSH2 0x22EE DUP3 PUSH2 0x1E3F JUMP JUMPDEST SWAP2 POP PUSH2 0x22F9 DUP4 PUSH2 0x1E3F JUMP JUMPDEST SWAP3 POP DUP3 DUP3 ADD SWAP1 POP DUP1 DUP3 GT ISZERO PUSH2 0x2311 JUMPI PUSH2 0x2310 PUSH2 0x21C9 JUMP JUMPDEST JUMPDEST SWAP3 SWAP2 POP POP JUMP JUMPDEST PUSH1 0x0 PUSH1 0x60 DUP3 ADD SWAP1 POP PUSH2 0x232C PUSH1 0x0 DUP4 ADD DUP7 PUSH2 0x207E JUMP JUMPDEST PUSH2 0x2339 PUSH1 0x20 DUP4 ADD DUP6 PUSH2 0x207E JUMP JUMPDEST PUSH2 0x2346 PUSH1 0x40 DUP4 ADD DUP5 PUSH2 0x1E49 JUMP JUMPDEST SWAP5 SWAP4 POP POP POP POP JUMP JUMPDEST PUSH1 0x0 DUP2 SWAP1 POP SWAP3 SWAP2 POP POP JUMP JUMPDEST PUSH32 0x5F5F636F6E76657273696F6E496E000000000000000000000000000000000000 PUSH1 0x0 DUP3 ADD MSTORE POP JUMP JUMPDEST PUSH1 0x0 PUSH2 0x238F PUSH1 0xE DUP4 PUSH2 0x234E JUMP JUMPDEST SWAP2 POP PUSH2 0x239A DUP3 PUSH2 0x2359 JUMP JUMPDEST PUSH1 0xE DUP3 ADD SWAP1 POP SWAP2 SWAP1 POP JUMP JUMPDEST PUSH1 0x0 DUP2 SWAP1 POP SWAP2 SWAP1 POP JUMP JUMPDEST PUSH2 0x23C0 PUSH2 0x23BB DUP3 PUSH2 0x1E3F JUMP JUMPDEST PUSH2 0x23A5 JUMP JUMPDEST DUP3 MSTORE POP POP JUMP JUMPDEST PUSH1 0x0 DUP2 PUSH1 0x60 SHL SWAP1 POP SWAP2 SWAP1 POP JUMP JUMPDEST PUSH1 0x0 PUSH2 0x23DE DUP3 PUSH2 0x23C6 JUMP JUMPDEST SWAP1 POP SWAP2 SWAP1 POP JUMP JUMPDEST PUSH1 0x0 PUSH2 0x23F0 DUP3 PUSH2 0x23D3 JUMP JUMPDEST SWAP1 POP SWAP2 SWAP1 POP JUMP JUMPDEST PUSH2 0x2408 PUSH2 0x2403 DUP3 PUSH2 0x1F44 JUMP JUMPDEST PUSH2 0x23E5 JUMP JUMPDEST DUP3 MSTORE POP POP JUMP JUMPDEST PUSH1 0x0 DUP2 SWAP1 POP SWAP2 SWAP1 POP JUMP JUMPDEST PUSH2 0x2429 PUSH2 0x2424 DUP3 PUSH2 0x1F82 JUMP JUMPDEST PUSH2 0x240E JUMP JUMPDEST DUP3 MSTORE POP POP JUMP JUMPDEST PUSH1 0x0 DUP2 SWAP1 POP SWAP2 SWAP1 POP JUMP JUMPDEST PUSH1 0x0 PUSH2 0x2454 PUSH2 0x244F PUSH2 0x244A DUP5 PUSH2 0x1F24 JUMP JUMPDEST PUSH2 0x242F JUMP JUMPDEST PUSH2 0x1F24 JUMP JUMPDEST SWAP1 POP SWAP2 SWAP1 POP JUMP JUMPDEST PUSH1 0x0 PUSH2 0x2466 DUP3 PUSH2 0x2439 JUMP JUMPDEST SWAP1 POP SWAP2 SWAP1 POP JUMP JUMPDEST PUSH1 0x0 PUSH2 0x2478 DUP3 PUSH2 0x245B JUMP JUMPDEST SWAP1 POP SWAP2 SWAP1 POP JUMP JUMPDEST PUSH2 0x2490 PUSH2 0x248B DUP3 PUSH2 0x246D JUMP JUMPDEST PUSH2 0x23E5 JUMP JUMPDEST DUP3 MSTORE POP POP JUMP JUMPDEST PUSH1 0x0 PUSH2 0x24A1 DUP3 PUSH2 0x2382 JUMP JUMPDEST SWAP2 POP PUSH2 0x24AD DUP3 DUP8 PUSH2 0x23AF JUMP JUMPDEST PUSH1 0x20 DUP3 ADD SWAP2 POP PUSH2 0x24BD DUP3 DUP7 PUSH2 0x23F7 JUMP JUMPDEST PUSH1 0x14 DUP3 ADD SWAP2 POP PUSH2 0x24CD DUP3 DUP6 PUSH2 0x2418 JUMP JUMPDEST PUSH1 0x20 DUP3 ADD SWAP2 POP PUSH2 0x24DD DUP3 DUP5 PUSH2 0x247F JUMP JUMPDEST PUSH1 0x14 DUP3 ADD SWAP2 POP DUP2 SWAP1 POP SWAP6 SWAP5 POP POP POP POP POP JUMP JUMPDEST PUSH2 0x24F8 DUP2 PUSH2 0x1F82 JUMP JUMPDEST DUP3 MSTORE POP POP JUMP JUMPDEST PUSH2 0x2507 DUP2 PUSH2 0x1FB8 JUMP JUMPDEST DUP3 MSTORE POP POP JUMP JUMPDEST PUSH1 0x0 PUSH1 0x80 DUP3 ADD SWAP1 POP PUSH2 0x2522 PUSH1 0x0 DUP4 ADD DUP8 PUSH2 0x24EF JUMP JUMPDEST PUSH2 0x252F PUSH1 0x20 DUP4 ADD DUP7 PUSH2 0x24FE JUMP JUMPDEST PUSH2 0x253C PUSH1 0x40 DUP4 ADD DUP6 PUSH2 0x24EF JUMP JUMPDEST PUSH2 0x2549 PUSH1 0x60 DUP4 ADD DUP5 PUSH2 0x24EF JUMP JUMPDEST SWAP6 SWAP5 POP POP POP POP POP JUMP JUMPDEST PUSH1 0x0 PUSH1 0x40 DUP3 ADD SWAP1 POP PUSH2 0x2567 PUSH1 0x0 DUP4 ADD DUP6 PUSH2 0x24EF JUMP JUMPDEST PUSH2 0x2574 PUSH1 0x20 DUP4 ADD DUP5 PUSH2 0x1E49 JUMP JUMPDEST SWAP4 SWAP3 POP POP POP JUMP JUMPDEST PUSH1 0x0 DUP3 DUP3 MSTORE PUSH1 0x20 DUP3 ADD SWAP1 POP SWAP3 SWAP2 POP POP JUMP JUMPDEST PUSH32 0x4F776E61626C6532537465703A2063616C6C6572206973206E6F742074686520 PUSH1 0x0 DUP3 ADD MSTORE PUSH32 0x6E6577206F776E65720000000000000000000000000000000000000000000000 PUSH1 0x20 DUP3 ADD MSTORE POP JUMP JUMPDEST PUSH1 0x0 PUSH2 0x25E8 PUSH1 0x29 DUP4 PUSH2 0x257B JUMP JUMPDEST SWAP2 POP PUSH2 0x25F3 DUP3 PUSH2 0x258C JUMP JUMPDEST PUSH1 0x40 DUP3 ADD SWAP1 POP SWAP2 SWAP1 POP JUMP JUMPDEST PUSH1 0x0 PUSH1 0x20 DUP3 ADD SWAP1 POP DUP2 DUP2 SUB PUSH1 0x0 DUP4 ADD MSTORE PUSH2 0x2617 DUP2 PUSH2 0x25DB JUMP JUMPDEST SWAP1 POP SWAP2 SWAP1 POP JUMP JUMPDEST PUSH32 0x5F5F636F6E76657273696F6E4F75740000000000000000000000000000000000 PUSH1 0x0 DUP3 ADD MSTORE POP JUMP JUMPDEST PUSH1 0x0 PUSH2 0x2654 PUSH1 0xF DUP4 PUSH2 0x234E JUMP JUMPDEST SWAP2 POP PUSH2 0x265F DUP3 PUSH2 0x261E JUMP JUMPDEST PUSH1 0xF DUP3 ADD SWAP1 POP SWAP2 SWAP1 POP JUMP JUMPDEST PUSH1 0x0 PUSH2 0x2675 DUP3 PUSH2 0x2647 JUMP JUMPDEST SWAP2 POP PUSH2 0x2681 DUP3 DUP8 PUSH2 0x23AF JUMP JUMPDEST PUSH1 0x20 DUP3 ADD SWAP2 POP PUSH2 0x2691 DUP3 DUP7 PUSH2 0x23F7 JUMP JUMPDEST PUSH1 0x14 DUP3 ADD SWAP2 POP PUSH2 0x26A1 DUP3 DUP6 PUSH2 0x2418 JUMP JUMPDEST PUSH1 0x20 DUP3 ADD SWAP2 POP PUSH2 0x26B1 DUP3 DUP5 PUSH2 0x247F JUMP JUMPDEST PUSH1 0x14 DUP3 ADD SWAP2 POP DUP2 SWAP1 POP SWAP6 SWAP5 POP POP POP POP POP JUMP JUMPDEST PUSH32 0x4F776E61626C653A2063616C6C6572206973206E6F7420746865206F776E6572 PUSH1 0x0 DUP3 ADD MSTORE POP JUMP JUMPDEST PUSH1 0x0 PUSH2 0x26F9 PUSH1 0x20 DUP4 PUSH2 0x257B JUMP JUMPDEST SWAP2 POP PUSH2 0x2704 DUP3 PUSH2 0x26C3 JUMP JUMPDEST PUSH1 0x20 DUP3 ADD SWAP1 POP SWAP2 SWAP1 POP JUMP JUMPDEST PUSH1 0x0 PUSH1 0x20 DUP3 ADD SWAP1 POP DUP2 DUP2 SUB PUSH1 0x0 DUP4 ADD MSTORE PUSH2 0x2728 DUP2 PUSH2 0x26EC JUMP JUMPDEST SWAP1 POP SWAP2 SWAP1 POP JUMP JUMPDEST PUSH32 0x5265656E7472616E637947756172643A207265656E7472616E742063616C6C00 PUSH1 0x0 DUP3 ADD MSTORE POP JUMP JUMPDEST PUSH1 0x0 PUSH2 0x2765 PUSH1 0x1F DUP4 PUSH2 0x257B JUMP JUMPDEST SWAP2 POP PUSH2 0x2770 DUP3 PUSH2 0x272F JUMP JUMPDEST PUSH1 0x20 DUP3 ADD SWAP1 POP SWAP2 SWAP1 POP JUMP JUMPDEST PUSH1 0x0 PUSH1 0x20 DUP3 ADD SWAP1 POP DUP2 DUP2 SUB PUSH1 0x0 DUP4 ADD MSTORE PUSH2 0x2794 DUP2 PUSH2 0x2758 JUMP JUMPDEST SWAP1 POP SWAP2 SWAP1 POP JUMP JUMPDEST PUSH32 0x19457468657265756D205369676E6564204D6573736167653A0A333200000000 PUSH1 0x0 DUP3 ADD MSTORE POP JUMP JUMPDEST PUSH1 0x0 PUSH2 0x27D1 PUSH1 0x1C DUP4 PUSH2 0x234E JUMP JUMPDEST SWAP2 POP PUSH2 0x27DC DUP3 PUSH2 0x279B JUMP JUMPDEST PUSH1 0x1C DUP3 ADD SWAP1 POP SWAP2 SWAP1 POP JUMP JUMPDEST PUSH1 0x0 PUSH2 0x27F2 DUP3 PUSH2 0x27C4 JUMP JUMPDEST SWAP2 POP PUSH2 0x27FE DUP3 DUP5 PUSH2 0x2418 JUMP JUMPDEST PUSH1 0x20 DUP3 ADD SWAP2 POP DUP2 SWAP1 POP SWAP3 SWAP2 POP POP JUMP INVALID LOG2 PUSH5 0x6970667358 0x22 SLT KECCAK256 PUSH32 0x955D665D39290EE82192E65D21D952F082894411BCF28E8BDAF5F7D71C716D64 PUSH20 0x6F6C634300081A00330000000000000000000000 "},"methodIdentifiers":{"acceptOwnership()":"79ba5097","conversionIn(address,uint256,bytes32,uint8,bytes32,bytes32)":"6a02fcc4","conversionOut(uint256,bytes32,uint8,bytes32,bytes32)":"9f23c9e2","decreaseConverterLiquidity(uint256)":"4d9f2265","getConversionAuthorizer()":"c72304ac","getConversionConfigurations()":"feea1529","getConverterBalance()":"2a34e861","increaseConverterLiquidity(uint256)":"637eaa4d","owner()":"8da5cb5b","pendingOwner()":"e30c3978","renounceOwnership()":"715018a6","transferOwnership(address)":"f2fde38b","updateAuthorizer(address)":"e0a66578","updateConfigurations(uint256,uint256,uint256)":"529c0970"}}}}}