{"contracts/TokenConversionManagerV3.sol":{"TokenConversionManagerV3":{"abi":[{"inputs":[{"internalType":"address","name":"token","type":"address"}],"stateMutability":"nonpayable","type":"constructor"},{"inputs":[],"name":"InsufficientConverterBalance","type":"error"},{"inputs":[],"name":"InsufficientLiquidityBalance","type":"error"},{"inputs":[],"name":"InvalidRequestOrSignature","type":"error"},{"inputs":[],"name":"InvalidUpdateConfigurations","type":"error"},{"inputs":[],"name":"UsedSignature","type":"error"},{"inputs":[],"name":"ViolationOfTxAmountLimits","type":"error"},{"inputs":[],"name":"WithdrawExceedsDeposit","type":"error"},{"inputs":[],"name":"ZeroAddress","type":"error"},{"anonymous":false,"inputs":[{"indexed":true,"internalType":"address","name":"tokenHolder","type":"address"},{"indexed":false,"internalType":"bytes32","name":"conversionId","type":"bytes32"},{"indexed":false,"internalType":"uint256","name":"amount","type":"uint256"}],"name":"ConversionIn","type":"event"},{"anonymous":false,"inputs":[{"indexed":true,"internalType":"address","name":"tokenHolder","type":"address"},{"indexed":false,"internalType":"bytes32","name":"conversionId","type":"bytes32"},{"indexed":false,"internalType":"uint256","name":"amount","type":"uint256"}],"name":"ConversionOut","type":"event"},{"anonymous":false,"inputs":[{"indexed":false,"internalType":"uint256","name":"removed","type":"uint256"},{"indexed":false,"internalType":"uint256","name":"totalLiquidity","type":"uint256"}],"name":"DecreaseLiquidity","type":"event"},{"anonymous":false,"inputs":[{"indexed":false,"internalType":"uint256","name":"added","type":"uint256"},{"indexed":false,"internalType":"uint256","name":"totalLiquidity","type":"uint256"}],"name":"IncreaseLiquidity","type":"event"},{"anonymous":false,"inputs":[{"indexed":false,"internalType":"address","name":"conversionAuthorizer","type":"address"}],"name":"NewAuthorizer","type":"event"},{"anonymous":false,"inputs":[{"indexed":true,"internalType":"address","name":"previousOwner","type":"address"},{"indexed":true,"internalType":"address","name":"newOwner","type":"address"}],"name":"OwnershipTransferStarted","type":"event"},{"anonymous":false,"inputs":[{"indexed":true,"internalType":"address","name":"previousOwner","type":"address"},{"indexed":true,"internalType":"address","name":"newOwner","type":"address"}],"name":"OwnershipTransferred","type":"event"},{"anonymous":false,"inputs":[{"indexed":false,"internalType":"uint256","name":"perTxnMinAmount","type":"uint256"},{"indexed":false,"internalType":"uint256","name":"perTxnMaxAmount","type":"uint256"}],"name":"UpdateConfiguration","type":"event"},{"inputs":[],"name":"acceptOwnership","outputs":[],"stateMutability":"nonpayable","type":"function"},{"inputs":[{"internalType":"address","name":"to","type":"address"},{"internalType":"uint256","name":"amount","type":"uint256"},{"internalType":"bytes32","name":"conversionId","type":"bytes32"},{"internalType":"uint8","name":"v","type":"uint8"},{"internalType":"bytes32","name":"r","type":"bytes32"},{"internalType":"bytes32","name":"s","type":"bytes32"}],"name":"conversionIn","outputs":[],"stateMutability":"nonpayable","type":"function"},{"inputs":[{"internalType":"uint256","name":"amount","type":"uint256"},{"internalType":"bytes32","name":"conversionId","type":"bytes32"},{"internalType":"uint8","name":"v","type":"uint8"},{"internalType":"bytes32","name":"r","type":"bytes32"},{"internalType":"bytes32","name":"s","type":"bytes32"}],"name":"conversionOut","outputs":[],"stateMutability":"nonpayable","type":"function"},{"inputs":[{"internalType":"uint256","name":"amount","type":"uint256"}],"name":"decreaseConverterLiquidity","outputs":[],"stateMutability":"nonpayable","type":"function"},{"inputs":[],"name":"getConversionAuthorizer","outputs":[{"internalType":"address","name":"","type":"address"}],"stateMutability":"view","type":"function"},{"inputs":[],"name":"getConversionConfigurations","outputs":[{"internalType":"uint256","name":"","type":"uint256"},{"internalType":"uint256","name":"","type":"uint256"}],"stateMutability":"view","type":"function"},{"inputs":[],"name":"getConverterBalance","outputs":[{"internalType":"uint256","name":"","type":"uint256"}],"stateMutability":"view","type":"function"},{"inputs":[{"internalType":"uint256","name":"amount","type":"uint256"}],"name":"increaseConverterLiquidity","outputs":[],"stateMutability":"nonpayable","type":"function"},{"inputs":[],"name":"owner","outputs":[{"internalType":"address","name":"","type":"address"}],"stateMutability":"view","type":"function"},{"inputs":[],"name":"pendingOwner","outputs":[{"internalType":"address","name":"","type":"address"}],"stateMutability":"view","type":"function"},{"inputs":[],"name":"renounceOwnership","outputs":[],"stateMutability":"nonpayable","type":"function"},{"inputs":[{"internalType":"address","name":"newOwner","type":"address"}],"name":"transferOwnership","outputs":[],"stateMutability":"nonpayable","type":"function"},{"inputs":[{"internalType":"address","name":"newAuthorizer","type":"address"}],"name":"updateAuthorizer","outputs":[],"stateMutability":"nonpayable","type":"function"},{"inputs":[{"internalType":"uint256","name":"perTxnMinAmount","type":"uint256"},{"internalType":"uint256","name":"perTxnMaxAmount","type":"uint256"}],"name":"updateConfigurations","outputs":[],"stateMutability":"nonpayable","type":"function"}],"evm":{"bytecode":{"linkReferences":{},"object":"60a060405234801561001057600080fd5b506040516127873803806127878339818101604052810190610032919061028d565b61004e61004361012460201b60201c565b61012c60201b60201c565b610068672a6483d922e9393260c01b61016360201b60201c565b610082675dd3a4f3c4382ae860c01b61016360201b60201c565b8073ffffffffffffffffffffffffffffffffffffffff1660808173ffffffffffffffffffffffffffffffffffffffff16815250506100d0679e87578a1345043360c01b61016360201b60201c565b6100de61012460201b60201c565b600260006101000a81548173ffffffffffffffffffffffffffffffffffffffff021916908373ffffffffffffffffffffffffffffffffffffffff160217905550506102ba565b600033905090565b600160006101000a81549073ffffffffffffffffffffffffffffffffffffffff02191690556101608161016660201b60201c565b50565b50565b60008060009054906101000a900473ffffffffffffffffffffffffffffffffffffffff169050816000806101000a81548173ffffffffffffffffffffffffffffffffffffffff021916908373ffffffffffffffffffffffffffffffffffffffff1602179055508173ffffffffffffffffffffffffffffffffffffffff168173ffffffffffffffffffffffffffffffffffffffff167f8be0079c531659141344cd1fd0a4f28419497f9722a3daafe3b4186f6b6457e060405160405180910390a35050565b600080fd5b600073ffffffffffffffffffffffffffffffffffffffff82169050919050565b600061025a8261022f565b9050919050565b61026a8161024f565b811461027557600080fd5b50565b60008151905061028781610261565b92915050565b6000602082840312156102a3576102a261022a565b5b60006102b184828501610278565b91505092915050565b6080516124966102f16000396000818161029e0152818161057f0152818161072301528181610cca015261148401526124966000f3fe608060405234801561001057600080fd5b50600436106100ea5760003560e01c80638da5cb5b1161008c578063e0a6657811610066578063e0a66578146101e9578063e30c397814610205578063f2fde38b14610223578063feea15291461023f576100ea565b80638da5cb5b146101915780639f23c9e2146101af578063c72304ac146101cb576100ea565b80636a02fcc4116100c85780636a02fcc414610145578063715018a61461016157806376f0a62f1461016b57806379ba509714610187576100ea565b80632a34e861146100ef5780634d9f22651461010d578063637eaa4d14610129575b600080fd5b6100f761025e565b6040516101049190611b61565b60405180910390f35b61012760048036038101906101229190611bad565b61033b565b005b610143600480360381019061013e9190611bad565b610689565b005b61015f600480360381019061015a9190611ca7565b61082f565b005b610169610de9565b005b61018560048036038101906101809190611d34565b610dfd565b005b61018f610fbe565b005b61019961104b565b6040516101a69190611d83565b60405180910390f35b6101c960048036038101906101c49190611d9e565b611074565b005b6101d36115b2565b6040516101e09190611d83565b60405180910390f35b61020360048036038101906101fe9190611e19565b611618565b005b61020d61182f565b60405161021a9190611d83565b60405180910390f35b61023d60048036038101906102389190611e19565b611859565b005b610247611906565b604051610255929190611e46565b60405180910390f35b600061027467387bdb4dcbd3101b60c01b611953565b6102886756333ecac371fbe060c01b611953565b61029c6784d56176b39e3fe560c01b611953565b7f000000000000000000000000000000000000000000000000000000000000000073ffffffffffffffffffffffffffffffffffffffff166370a08231306040518263ffffffff1660e01b81526004016102f59190611d83565b602060405180830381865afa158015610312573d6000803e3d6000fd5b505050506040513d601f19601f820116820180604052508101906103369190611e84565b905090565b61034f67667821b56693dbc160c01b611953565b610357611956565b61036b678ee979cd8db8dd9560c01b611953565b61037f679297ef4da6e8701b60c01b611953565b61039367c1358d3f4fc672ff60c01b611953565b6103a76756f6e19c02ce6d3960c01b611953565b6000600654036103f7576103c56776bdae363555f51860c01b611953565b6040517f98e7913600000000000000000000000000000000000000000000000000000000815260040160405180910390fd5b61040b678ae91ec2d5c946ec60c01b611953565b61041f67986a25875d26464560c01b611953565b6104336781d350d7746d058660c01b611953565b60065481111561048357610451678ad0f8e51216366360c01b611953565b6040517f31a581eb00000000000000000000000000000000000000000000000000000000815260040160405180910390fd5b610497675a61e0a94b97513a60c01b611953565b6104ab67dafebd2c6db3882a60c01b611953565b6104bf6722153f4a0730f7ee60c01b611953565b6104c761025e565b811115610514576104e26709f4f9cf63e4729a60c01b611953565b6040517f3b4930bd00000000000000000000000000000000000000000000000000000000815260040160405180910390fd5b610528679fd00ed2c2e40e8e60c01b611953565b61053c6705e4f1329f73e02760c01b611953565b806006600082825461054e9190611ee0565b92505081905550610569677aca07f5fb328d0b60c01b611953565b61057d677a17d6f07660914360c01b611953565b7f000000000000000000000000000000000000000000000000000000000000000073ffffffffffffffffffffffffffffffffffffffff1663a9059cbb6105c16119d4565b836040518363ffffffff1660e01b81526004016105df929190611f14565b6020604051808303816000875af11580156105fe573d6000803e3d6000fd5b505050506040513d601f19601f820116820180604052508101906106229190611f75565b506106376792edf9a96864349660c01b611953565b61064b67e1e6339d97cc44ec60c01b611953565b7fdef4f5c5c7516369cb5aaa162fdf3f2c750a1c81c0fe3dfd9a47a97393cdafcf8160065460405161067e929190611e46565b60405180910390a150565b61069c6686283b82ade0da60c01b611953565b6106a4611956565b6106b867f47b652bdfdc5e8c60c01b611953565b6106cc6715066ffcd7034e9460c01b611953565b6106e0673f5308b0fb1e001a60c01b611953565b80600660008282546106f29190611fa2565b9250508190555061070d67e1c9c72fc2f7788060c01b611953565b61072167c9ce10e5f213850660c01b611953565b7f000000000000000000000000000000000000000000000000000000000000000073ffffffffffffffffffffffffffffffffffffffff166323b872dd6107656119d4565b30846040518463ffffffff1660e01b815260040161078593929190611fd6565b6020604051808303816000875af11580156107a4573d6000803e3d6000fd5b505050506040513d601f19601f820116820180604052508101906107c89190611f75565b506107dd672e99b11b6bd9bb6860c01b611953565b6107f1676f626c1c1ea18f9860c01b611953565b7faf0e92ed9a06daf8b906385b588b940a355de1516517e37e03bcb3bacf9b966481600654604051610824929190611e46565b60405180910390a150565b61084367cf40fb3ee412366c60c01b611953565b85610858674e0d1ae2655af5f060c01b611953565b61086c678b29c836ed8b92eb60c01b611953565b610880672041afa7b5bbe70d60c01b611953565b600073ffffffffffffffffffffffffffffffffffffffff168173ffffffffffffffffffffffffffffffffffffffff160361090e576108c86731c3c663b496a0d060c01b611953565b6108dc67be3e95d0f98cf84960c01b611953565b6040517fd92e233d00000000000000000000000000000000000000000000000000000000815260040160405180910390fd5b61092267a6fa6201358982d460c01b611953565b6109366728dbe7f75b83a9a560c01b611953565b61094a67897248e8ea66ec6260c01b611953565b61095e674f51f0701166a23b60c01b611953565b61097267964c11e00ff53b9a60c01b611953565b61098667e0523154dd56e62a60c01b611953565b60006109c4876109946119d4565b88306040516020016109a99493929190612155565b604051602081830303815290604052805190602001206119dc565b90506109da677a548c1e8df4480d60c01b611953565b6109ee67ba3bce57f524bbf960c01b611953565b600260009054906101000a900473ffffffffffffffffffffffffffffffffffffffff1673ffffffffffffffffffffffffffffffffffffffff1660018287878760405160008152602001604052604051610a4a94939291906121cc565b6020604051602081039080840390855afa158015610a6c573d6000803e3d6000fd5b5050506020604051035173ffffffffffffffffffffffffffffffffffffffff1614610aeb57610aa5675da8290840423f4b60c01b611953565b610ab967d6ef44319481e49060c01b611953565b6040517fa7a059bc00000000000000000000000000000000000000000000000000000000815260040160405180910390fd5b610aff67ad6f3ceae42b0c8960c01b611953565b610b136779972ec682858c4860c01b611953565b610b276738a44cf9b626ba1a60c01b611953565b6003600082815260200190815260200160002060009054906101000a900460ff1615610ba757610b61676ce7d62bb28b579260c01b611953565b610b7567d0c9b18690c3fbdb60c01b611953565b6040517fcce9a82400000000000000000000000000000000000000000000000000000000815260040160405180910390fd5b610bbb677461c61c4ad0a85060c01b611953565b610bcf67905f74a8a113933f60c01b611953565b60016003600083815260200190815260200160002060006101000a81548160ff021916908315150217905550610c0f6796170f4e7595922260c01b611953565b610c2367e89a4254bce8069660c01b611953565b86610c2c61025e565b1015610c8c57610c46671c95dcf529eb0a9f60c01b611953565b610c5a6717d58ec77b573d5b60c01b611953565b6040517f3b4930bd00000000000000000000000000000000000000000000000000000000815260040160405180910390fd5b610ca067725a3e16029e804560c01b611953565b610cb46716561048dba2edf960c01b611953565b610cc86788a065cf914982c860c01b611953565b7f000000000000000000000000000000000000000000000000000000000000000073ffffffffffffffffffffffffffffffffffffffff1663a9059cbb89896040518363ffffffff1660e01b8152600401610d23929190611f14565b6020604051808303816000875af1158015610d42573d6000803e3d6000fd5b505050506040513d601f19601f82011682018060405250810190610d669190611f75565b50610d7b679c95ac088e583dc160c01b611953565b610d8f67be48a6dc839aaf1660c01b611953565b8773ffffffffffffffffffffffffffffffffffffffff167f62a9b3e6446ab559d6b82c4f02cc923cd3b4e47444ef86446dab81a4d781c5af8789604051610dd7929190612211565b60405180910390a25050505050505050565b610df1611956565b610dfb6000611a48565b565b610e11679bd9823a4cc92cfd60c01b611953565b610e19611956565b610e2d67df88cc99e7376b1560c01b611953565b610e41674dc83af2601ceabe60c01b611953565b610e556728c0b9da131d401360c01b611953565b610e6967e81a4427f153a82660c01b611953565b600082148015610e895750610e8867c28bf475f393098460c01b611a79565b5b80610eb05750818111158015610eaf5750610eae672eff0ba6c92560bd60c01b611a79565b5b5b15610f0f57610ec967d15d82d37cd56b0460c01b611953565b610edd674e6bfec448f7a56560c01b611953565b6040517f0eca686c00000000000000000000000000000000000000000000000000000000815260040160405180910390fd5b610f2367099614d41e8253a560c01b611953565b610f3767957ce1e7b041d5c760c01b611953565b81600481905550610f5267fe5f1b3b8fcc121b60c01b611953565b80600581905550610f6d67cd37d7a87b2bae4e60c01b611953565b610f8167de5b8df035e239e860c01b611953565b7f8485c7727cd53e56857497fd34c583b8a210322e0d093953b1ddb9f417db12cf8282604051610fb2929190611e46565b60405180910390a15050565b6000610fc86119d4565b90508073ffffffffffffffffffffffffffffffffffffffff16610fe961182f565b73ffffffffffffffffffffffffffffffffffffffff161461103f576040517f08c379a0000000000000000000000000000000000000000000000000000000008152600401611036906122bd565b60405180910390fd5b61104881611a48565b50565b60008060009054906101000a900473ffffffffffffffffffffffffffffffffffffffff16905090565b61108867f694cd9c17b9fa6d60c01b611953565b8461109d67beb65d4fe5f140d860c01b611953565b6110b1672716065b63b961b660c01b611953565b6110c5674350322be668cf6460c01b611953565b600454811080156110e657506110e5673fa8fb39c9f9ecdd60c01b611a79565b5b8061110e57506005548111801561110d575061110c67ab071cab6100f2a060c01b611a79565b5b5b1561116d57611127678563a6370bf28c6860c01b611953565b61113b67a41e696eee73413a60c01b611953565b6040517f17dfb4ac00000000000000000000000000000000000000000000000000000000815260040160405180910390fd5b611181676baebb29bf50ac4660c01b611953565b61119567debb73e10f7a416360c01b611953565b6111a967ec573c4f10a560f560c01b611953565b6111bd6703ee8e2a117f9d8860c01b611953565b6111d16734045640955dc11060c01b611953565b6111e5671adbfad42bb18ccd60c01b611953565b6000611223876111f36119d4565b88306040516020016112089493929190612329565b604051602081830303815290604052805190602001206119dc565b905061123967d596a0a16f3b232d60c01b611953565b61124d67383889ee63a36d5060c01b611953565b600260009054906101000a900473ffffffffffffffffffffffffffffffffffffffff1673ffffffffffffffffffffffffffffffffffffffff16600182878787604051600081526020016040526040516112a994939291906121cc565b6020604051602081039080840390855afa1580156112cb573d6000803e3d6000fd5b5050506020604051035173ffffffffffffffffffffffffffffffffffffffff161461134a5761130467a97016437fd20e3560c01b611953565b61131867dd201fb03df2792e60c01b611953565b6040517fa7a059bc00000000000000000000000000000000000000000000000000000000815260040160405180910390fd5b61135e674d8d8790f95efce660c01b611953565b611372677b5337b7da1fd58b60c01b611953565b611386670818c03a7ecaf9c660c01b611953565b6003600082815260200190815260200160002060009054906101000a900460ff1615611406576113c067c9b836ac2d7c002460c01b611953565b6113d4671826f7acb372a09360c01b611953565b6040517fcce9a82400000000000000000000000000000000000000000000000000000000815260040160405180910390fd5b61141a67d924a6984c3c3c5560c01b611953565b61142e67e88cc4db5df35e8160c01b611953565b60016003600083815260200190815260200160002060006101000a81548160ff02191690831515021790555061146e6742c0c18bc61d489260c01b611953565b61148267dc4edef93f954a0e60c01b611953565b7f000000000000000000000000000000000000000000000000000000000000000073ffffffffffffffffffffffffffffffffffffffff166323b872dd6114c66119d4565b308a6040518463ffffffff1660e01b81526004016114e693929190611fd6565b6020604051808303816000875af1158015611505573d6000803e3d6000fd5b505050506040513d601f19601f820116820180604052508101906115299190611f75565b5061153e67bcebc1b0fc4c77c160c01b611953565b6115526725e22a569e480d3960c01b611953565b61155a6119d4565b73ffffffffffffffffffffffffffffffffffffffff167fb999b06746a947f1958636b9b9377ae814fe578413dfffd4d3a7a96196fe02fc87896040516115a1929190612211565b60405180910390a250505050505050565b60006115c867b8855885b80e0f6160c01b611953565b6115dc673d6959c2af9db39460c01b611953565b6115f0674da53d9a173419c760c01b611953565b600260009054906101000a900473ffffffffffffffffffffffffffffffffffffffff16905090565b61162c67e382bcef254a5f6b60c01b611953565b80611641674e0d1ae2655af5f060c01b611953565b611655678b29c836ed8b92eb60c01b611953565b611669672041afa7b5bbe70d60c01b611953565b600073ffffffffffffffffffffffffffffffffffffffff168173ffffffffffffffffffffffffffffffffffffffff16036116f7576116b16731c3c663b496a0d060c01b611953565b6116c567be3e95d0f98cf84960c01b611953565b6040517fd92e233d00000000000000000000000000000000000000000000000000000000815260040160405180910390fd5b61170b67a6fa6201358982d460c01b611953565b61171f6728dbe7f75b83a9a560c01b611953565b61173367f1c686d898943bcf60c01b611953565b6117476766d004b2774c438a60c01b611953565b61174f611956565b611763671b09189a0d4bb9fd60c01b611953565b61177767030f2a254946942f60c01b611953565b61178b67aa30b104615a6eeb60c01b611953565b81600260006101000a81548173ffffffffffffffffffffffffffffffffffffffff021916908373ffffffffffffffffffffffffffffffffffffffff1602179055506117e0679cc52eb187e4b93060c01b611953565b6117f4679a1354d69bcaa21460c01b611953565b7f08f53e6a9fbc3949bc0b9266bbe1927f0b282a34d92876ccbe188c24d17c6cbb826040516118239190611d83565b60405180910390a15050565b6000600160009054906101000a900473ffffffffffffffffffffffffffffffffffffffff16905090565b611861611956565b80600160006101000a81548173ffffffffffffffffffffffffffffffffffffffff021916908373ffffffffffffffffffffffffffffffffffffffff1602179055508073ffffffffffffffffffffffffffffffffffffffff166118c161104b565b73ffffffffffffffffffffffffffffffffffffffff167f38d16b8cac22d99fc7c124b9cd0de2d3fa1faef420bfe791d8c362d765e2270060405160405180910390a350565b60008061191d67a605d4a1a860fcb860c01b611953565b61193167d0bc918c21c5854760c01b611953565b611945677ed5387fe48850ae60c01b611953565b600454600554915091509091565b50565b61195e6119d4565b73ffffffffffffffffffffffffffffffffffffffff1661197c61104b565b73ffffffffffffffffffffffffffffffffffffffff16146119d2576040517f08c379a00000000000000000000000000000000000000000000000000000000081526004016119c9906123ce565b60405180910390fd5b565b600033905090565b60006119f267c56f540cd146da0f60c01b611953565b611a06674087d2c01f5665cc60c01b611953565b611a1a675928fa1109fac6f760c01b611953565b81604051602001611a2b919061243a565b604051602081830303815290604052805190602001209050919050565b600160006101000a81549073ffffffffffffffffffffffffffffffffffffffff0219169055611a7681611a84565b50565b600060019050919050565b60008060009054906101000a900473ffffffffffffffffffffffffffffffffffffffff169050816000806101000a81548173ffffffffffffffffffffffffffffffffffffffff021916908373ffffffffffffffffffffffffffffffffffffffff1602179055508173ffffffffffffffffffffffffffffffffffffffff168173ffffffffffffffffffffffffffffffffffffffff167f8be0079c531659141344cd1fd0a4f28419497f9722a3daafe3b4186f6b6457e060405160405180910390a35050565b6000819050919050565b611b5b81611b48565b82525050565b6000602082019050611b766000830184611b52565b92915050565b600080fd5b611b8a81611b48565b8114611b9557600080fd5b50565b600081359050611ba781611b81565b92915050565b600060208284031215611bc357611bc2611b7c565b5b6000611bd184828501611b98565b91505092915050565b600073ffffffffffffffffffffffffffffffffffffffff82169050919050565b6000611c0582611bda565b9050919050565b611c1581611bfa565b8114611c2057600080fd5b50565b600081359050611c3281611c0c565b92915050565b6000819050919050565b611c4b81611c38565b8114611c5657600080fd5b50565b600081359050611c6881611c42565b92915050565b600060ff82169050919050565b611c8481611c6e565b8114611c8f57600080fd5b50565b600081359050611ca181611c7b565b92915050565b60008060008060008060c08789031215611cc457611cc3611b7c565b5b6000611cd289828a01611c23565b9650506020611ce389828a01611b98565b9550506040611cf489828a01611c59565b9450506060611d0589828a01611c92565b9350506080611d1689828a01611c59565b92505060a0611d2789828a01611c59565b9150509295509295509295565b60008060408385031215611d4b57611d4a611b7c565b5b6000611d5985828601611b98565b9250506020611d6a85828601611b98565b9150509250929050565b611d7d81611bfa565b82525050565b6000602082019050611d986000830184611d74565b92915050565b600080600080600060a08688031215611dba57611db9611b7c565b5b6000611dc888828901611b98565b9550506020611dd988828901611c59565b9450506040611dea88828901611c92565b9350506060611dfb88828901611c59565b9250506080611e0c88828901611c59565b9150509295509295909350565b600060208284031215611e2f57611e2e611b7c565b5b6000611e3d84828501611c23565b91505092915050565b6000604082019050611e5b6000830185611b52565b611e686020830184611b52565b9392505050565b600081519050611e7e81611b81565b92915050565b600060208284031215611e9a57611e99611b7c565b5b6000611ea884828501611e6f565b91505092915050565b7f4e487b7100000000000000000000000000000000000000000000000000000000600052601160045260246000fd5b6000611eeb82611b48565b9150611ef683611b48565b9250828203905081811115611f0e57611f0d611eb1565b5b92915050565b6000604082019050611f296000830185611d74565b611f366020830184611b52565b9392505050565b60008115159050919050565b611f5281611f3d565b8114611f5d57600080fd5b50565b600081519050611f6f81611f49565b92915050565b600060208284031215611f8b57611f8a611b7c565b5b6000611f9984828501611f60565b91505092915050565b6000611fad82611b48565b9150611fb883611b48565b9250828201905080821115611fd057611fcf611eb1565b5b92915050565b6000606082019050611feb6000830186611d74565b611ff86020830185611d74565b6120056040830184611b52565b949350505050565b600081905092915050565b7f5f5f636f6e76657273696f6e496e000000000000000000000000000000000000600082015250565b600061204e600e8361200d565b915061205982612018565b600e82019050919050565b6000819050919050565b61207f61207a82611b48565b612064565b82525050565b60008160601b9050919050565b600061209d82612085565b9050919050565b60006120af82612092565b9050919050565b6120c76120c282611bfa565b6120a4565b82525050565b6000819050919050565b6120e86120e382611c38565b6120cd565b82525050565b6000819050919050565b600061211361210e61210984611bda565b6120ee565b611bda565b9050919050565b6000612125826120f8565b9050919050565b60006121378261211a565b9050919050565b61214f61214a8261212c565b6120a4565b82525050565b600061216082612041565b915061216c828761206e565b60208201915061217c82866120b6565b60148201915061218c82856120d7565b60208201915061219c828461213e565b60148201915081905095945050505050565b6121b781611c38565b82525050565b6121c681611c6e565b82525050565b60006080820190506121e160008301876121ae565b6121ee60208301866121bd565b6121fb60408301856121ae565b61220860608301846121ae565b95945050505050565b600060408201905061222660008301856121ae565b6122336020830184611b52565b9392505050565b600082825260208201905092915050565b7f4f776e61626c6532537465703a2063616c6c6572206973206e6f74207468652060008201527f6e6577206f776e65720000000000000000000000000000000000000000000000602082015250565b60006122a760298361223a565b91506122b28261224b565b604082019050919050565b600060208201905081810360008301526122d68161229a565b9050919050565b7f5f5f636f6e76657273696f6e4f75740000000000000000000000000000000000600082015250565b6000612313600f8361200d565b915061231e826122dd565b600f82019050919050565b600061233482612306565b9150612340828761206e565b60208201915061235082866120b6565b60148201915061236082856120d7565b602082019150612370828461213e565b60148201915081905095945050505050565b7f4f776e61626c653a2063616c6c6572206973206e6f7420746865206f776e6572600082015250565b60006123b860208361223a565b91506123c382612382565b602082019050919050565b600060208201905081810360008301526123e7816123ab565b9050919050565b7f19457468657265756d205369676e6564204d6573736167653a0a333200000000600082015250565b6000612424601c8361200d565b915061242f826123ee565b601c82019050919050565b600061244582612417565b915061245182846120d7565b6020820191508190509291505056fea26469706673582212202de975a774a82480dee331fb3dab3a26abe6a0ec7f1fa4fda32a15ff4f7a8ae264736f6c634300081a0033","opcodes":"PUSH1 0xA0 PUSH1 0x40 MSTORE CALLVALUE DUP1 ISZERO PUSH2 0x10 JUMPI PUSH1 0x0 DUP1 REVERT JUMPDEST POP PUSH1 0x40 MLOAD PUSH2 0x2787 CODESIZE SUB DUP1 PUSH2 0x2787 DUP4 CODECOPY DUP2 DUP2 ADD PUSH1 0x40 MSTORE DUP2 ADD SWAP1 PUSH2 0x32 SWAP2 SWAP1 PUSH2 0x28D JUMP JUMPDEST PUSH2 0x4E PUSH2 0x43 PUSH2 0x124 PUSH1 0x20 SHL PUSH1 0x20 SHR JUMP JUMPDEST PUSH2 0x12C PUSH1 0x20 SHL PUSH1 0x20 SHR JUMP JUMPDEST PUSH2 0x68 PUSH8 0x2A6483D922E93932 PUSH1 0xC0 SHL PUSH2 0x163 PUSH1 0x20 SHL PUSH1 0x20 SHR JUMP JUMPDEST PUSH2 0x82 PUSH8 0x5DD3A4F3C4382AE8 PUSH1 0xC0 SHL PUSH2 0x163 PUSH1 0x20 SHL PUSH1 0x20 SHR JUMP JUMPDEST DUP1 PUSH20 0xFFFFFFFFFFFFFFFFFFFFFFFFFFFFFFFFFFFFFFFF AND PUSH1 0x80 DUP2 PUSH20 0xFFFFFFFFFFFFFFFFFFFFFFFFFFFFFFFFFFFFFFFF AND DUP2 MSTORE POP POP PUSH2 0xD0 PUSH8 0x9E87578A13450433 PUSH1 0xC0 SHL PUSH2 0x163 PUSH1 0x20 SHL PUSH1 0x20 SHR JUMP JUMPDEST PUSH2 0xDE PUSH2 0x124 PUSH1 0x20 SHL PUSH1 0x20 SHR JUMP JUMPDEST PUSH1 0x2 PUSH1 0x0 PUSH2 0x100 EXP DUP2 SLOAD DUP2 PUSH20 0xFFFFFFFFFFFFFFFFFFFFFFFFFFFFFFFFFFFFFFFF MUL NOT AND SWAP1 DUP4 PUSH20 0xFFFFFFFFFFFFFFFFFFFFFFFFFFFFFFFFFFFFFFFF AND MUL OR SWAP1 SSTORE POP POP PUSH2 0x2BA JUMP JUMPDEST PUSH1 0x0 CALLER SWAP1 POP SWAP1 JUMP JUMPDEST PUSH1 0x1 PUSH1 0x0 PUSH2 0x100 EXP DUP2 SLOAD SWAP1 PUSH20 0xFFFFFFFFFFFFFFFFFFFFFFFFFFFFFFFFFFFFFFFF MUL NOT AND SWAP1 SSTORE PUSH2 0x160 DUP2 PUSH2 0x166 PUSH1 0x20 SHL PUSH1 0x20 SHR JUMP JUMPDEST POP JUMP JUMPDEST POP JUMP JUMPDEST PUSH1 0x0 DUP1 PUSH1 0x0 SWAP1 SLOAD SWAP1 PUSH2 0x100 EXP SWAP1 DIV PUSH20 0xFFFFFFFFFFFFFFFFFFFFFFFFFFFFFFFFFFFFFFFF AND SWAP1 POP DUP2 PUSH1 0x0 DUP1 PUSH2 0x100 EXP DUP2 SLOAD DUP2 PUSH20 0xFFFFFFFFFFFFFFFFFFFFFFFFFFFFFFFFFFFFFFFF MUL NOT AND SWAP1 DUP4 PUSH20 0xFFFFFFFFFFFFFFFFFFFFFFFFFFFFFFFFFFFFFFFF AND MUL OR SWAP1 SSTORE POP DUP2 PUSH20 0xFFFFFFFFFFFFFFFFFFFFFFFFFFFFFFFFFFFFFFFF AND DUP2 PUSH20 0xFFFFFFFFFFFFFFFFFFFFFFFFFFFFFFFFFFFFFFFF AND PUSH32 0x8BE0079C531659141344CD1FD0A4F28419497F9722A3DAAFE3B4186F6B6457E0 PUSH1 0x40 MLOAD PUSH1 0x40 MLOAD DUP1 SWAP2 SUB SWAP1 LOG3 POP POP JUMP JUMPDEST PUSH1 0x0 DUP1 REVERT JUMPDEST PUSH1 0x0 PUSH20 0xFFFFFFFFFFFFFFFFFFFFFFFFFFFFFFFFFFFFFFFF DUP3 AND SWAP1 POP SWAP2 SWAP1 POP JUMP JUMPDEST PUSH1 0x0 PUSH2 0x25A DUP3 PUSH2 0x22F JUMP JUMPDEST SWAP1 POP SWAP2 SWAP1 POP JUMP JUMPDEST PUSH2 0x26A DUP2 PUSH2 0x24F JUMP JUMPDEST DUP2 EQ PUSH2 0x275 JUMPI PUSH1 0x0 DUP1 REVERT JUMPDEST POP JUMP JUMPDEST PUSH1 0x0 DUP2 MLOAD SWAP1 POP PUSH2 0x287 DUP2 PUSH2 0x261 JUMP JUMPDEST SWAP3 SWAP2 POP POP JUMP JUMPDEST PUSH1 0x0 PUSH1 0x20 DUP3 DUP5 SUB SLT ISZERO PUSH2 0x2A3 JUMPI PUSH2 0x2A2 PUSH2 0x22A JUMP JUMPDEST JUMPDEST PUSH1 0x0 PUSH2 0x2B1 DUP5 DUP3 DUP6 ADD PUSH2 0x278 JUMP JUMPDEST SWAP2 POP POP SWAP3 SWAP2 POP POP JUMP JUMPDEST PUSH1 0x80 MLOAD PUSH2 0x2496 PUSH2 0x2F1 PUSH1 0x0 CODECOPY PUSH1 0x0 DUP2 DUP2 PUSH2 0x29E ADD MSTORE DUP2 DUP2 PUSH2 0x57F ADD MSTORE DUP2 DUP2 PUSH2 0x723 ADD MSTORE DUP2 DUP2 PUSH2 0xCCA ADD MSTORE PUSH2 0x1484 ADD MSTORE PUSH2 0x2496 PUSH1 0x0 RETURN INVALID PUSH1 0x80 PUSH1 0x40 MSTORE CALLVALUE DUP1 ISZERO PUSH2 0x10 JUMPI PUSH1 0x0 DUP1 REVERT JUMPDEST POP PUSH1 0x4 CALLDATASIZE LT PUSH2 0xEA JUMPI PUSH1 0x0 CALLDATALOAD PUSH1 0xE0 SHR DUP1 PUSH4 0x8DA5CB5B GT PUSH2 0x8C JUMPI DUP1 PUSH4 0xE0A66578 GT PUSH2 0x66 JUMPI DUP1 PUSH4 0xE0A66578 EQ PUSH2 0x1E9 JUMPI DUP1 PUSH4 0xE30C3978 EQ PUSH2 0x205 JUMPI DUP1 PUSH4 0xF2FDE38B EQ PUSH2 0x223 JUMPI DUP1 PUSH4 0xFEEA1529 EQ PUSH2 0x23F JUMPI PUSH2 0xEA JUMP JUMPDEST DUP1 PUSH4 0x8DA5CB5B EQ PUSH2 0x191 JUMPI DUP1 PUSH4 0x9F23C9E2 EQ PUSH2 0x1AF JUMPI DUP1 PUSH4 0xC72304AC EQ PUSH2 0x1CB JUMPI PUSH2 0xEA JUMP JUMPDEST DUP1 PUSH4 0x6A02FCC4 GT PUSH2 0xC8 JUMPI DUP1 PUSH4 0x6A02FCC4 EQ PUSH2 0x145 JUMPI DUP1 PUSH4 0x715018A6 EQ PUSH2 0x161 JUMPI DUP1 PUSH4 0x76F0A62F EQ PUSH2 0x16B JUMPI DUP1 PUSH4 0x79BA5097 EQ PUSH2 0x187 JUMPI PUSH2 0xEA JUMP JUMPDEST DUP1 PUSH4 0x2A34E861 EQ PUSH2 0xEF JUMPI DUP1 PUSH4 0x4D9F2265 EQ PUSH2 0x10D JUMPI DUP1 PUSH4 0x637EAA4D EQ PUSH2 0x129 JUMPI JUMPDEST PUSH1 0x0 DUP1 REVERT JUMPDEST PUSH2 0xF7 PUSH2 0x25E JUMP JUMPDEST PUSH1 0x40 MLOAD PUSH2 0x104 SWAP2 SWAP1 PUSH2 0x1B61 JUMP JUMPDEST PUSH1 0x40 MLOAD DUP1 SWAP2 SUB SWAP1 RETURN JUMPDEST PUSH2 0x127 PUSH1 0x4 DUP1 CALLDATASIZE SUB DUP2 ADD SWAP1 PUSH2 0x122 SWAP2 SWAP1 PUSH2 0x1BAD JUMP JUMPDEST PUSH2 0x33B JUMP JUMPDEST STOP JUMPDEST PUSH2 0x143 PUSH1 0x4 DUP1 CALLDATASIZE SUB DUP2 ADD SWAP1 PUSH2 0x13E SWAP2 SWAP1 PUSH2 0x1BAD JUMP JUMPDEST PUSH2 0x689 JUMP JUMPDEST STOP JUMPDEST PUSH2 0x15F PUSH1 0x4 DUP1 CALLDATASIZE SUB DUP2 ADD SWAP1 PUSH2 0x15A SWAP2 SWAP1 PUSH2 0x1CA7 JUMP JUMPDEST PUSH2 0x82F JUMP JUMPDEST STOP JUMPDEST PUSH2 0x169 PUSH2 0xDE9 JUMP JUMPDEST STOP JUMPDEST PUSH2 0x185 PUSH1 0x4 DUP1 CALLDATASIZE SUB DUP2 ADD SWAP1 PUSH2 0x180 SWAP2 SWAP1 PUSH2 0x1D34 JUMP JUMPDEST PUSH2 0xDFD JUMP JUMPDEST STOP JUMPDEST PUSH2 0x18F PUSH2 0xFBE JUMP JUMPDEST STOP JUMPDEST PUSH2 0x199 PUSH2 0x104B JUMP JUMPDEST PUSH1 0x40 MLOAD PUSH2 0x1A6 SWAP2 SWAP1 PUSH2 0x1D83 JUMP JUMPDEST PUSH1 0x40 MLOAD DUP1 SWAP2 SUB SWAP1 RETURN JUMPDEST PUSH2 0x1C9 PUSH1 0x4 DUP1 CALLDATASIZE SUB DUP2 ADD SWAP1 PUSH2 0x1C4 SWAP2 SWAP1 PUSH2 0x1D9E JUMP JUMPDEST PUSH2 0x1074 JUMP JUMPDEST STOP JUMPDEST PUSH2 0x1D3 PUSH2 0x15B2 JUMP JUMPDEST PUSH1 0x40 MLOAD PUSH2 0x1E0 SWAP2 SWAP1 PUSH2 0x1D83 JUMP JUMPDEST PUSH1 0x40 MLOAD DUP1 SWAP2 SUB SWAP1 RETURN JUMPDEST PUSH2 0x203 PUSH1 0x4 DUP1 CALLDATASIZE SUB DUP2 ADD SWAP1 PUSH2 0x1FE SWAP2 SWAP1 PUSH2 0x1E19 JUMP JUMPDEST PUSH2 0x1618 JUMP JUMPDEST STOP JUMPDEST PUSH2 0x20D PUSH2 0x182F JUMP JUMPDEST PUSH1 0x40 MLOAD PUSH2 0x21A SWAP2 SWAP1 PUSH2 0x1D83 JUMP JUMPDEST PUSH1 0x40 MLOAD DUP1 SWAP2 SUB SWAP1 RETURN JUMPDEST PUSH2 0x23D PUSH1 0x4 DUP1 CALLDATASIZE SUB DUP2 ADD SWAP1 PUSH2 0x238 SWAP2 SWAP1 PUSH2 0x1E19 JUMP JUMPDEST PUSH2 0x1859 JUMP JUMPDEST STOP JUMPDEST PUSH2 0x247 PUSH2 0x1906 JUMP JUMPDEST PUSH1 0x40 MLOAD PUSH2 0x255 SWAP3 SWAP2 SWAP1 PUSH2 0x1E46 JUMP JUMPDEST PUSH1 0x40 MLOAD DUP1 SWAP2 SUB SWAP1 RETURN JUMPDEST PUSH1 0x0 PUSH2 0x274 PUSH8 0x387BDB4DCBD3101B PUSH1 0xC0 SHL PUSH2 0x1953 JUMP JUMPDEST PUSH2 0x288 PUSH8 0x56333ECAC371FBE0 PUSH1 0xC0 SHL PUSH2 0x1953 JUMP JUMPDEST PUSH2 0x29C PUSH8 0x84D56176B39E3FE5 PUSH1 0xC0 SHL PUSH2 0x1953 JUMP JUMPDEST PUSH32 0x0 PUSH20 0xFFFFFFFFFFFFFFFFFFFFFFFFFFFFFFFFFFFFFFFF AND PUSH4 0x70A08231 ADDRESS PUSH1 0x40 MLOAD DUP3 PUSH4 0xFFFFFFFF AND PUSH1 0xE0 SHL DUP2 MSTORE PUSH1 0x4 ADD PUSH2 0x2F5 SWAP2 SWAP1 PUSH2 0x1D83 JUMP JUMPDEST PUSH1 0x20 PUSH1 0x40 MLOAD DUP1 DUP4 SUB DUP2 DUP7 GAS STATICCALL ISZERO DUP1 ISZERO PUSH2 0x312 JUMPI RETURNDATASIZE PUSH1 0x0 DUP1 RETURNDATACOPY RETURNDATASIZE PUSH1 0x0 REVERT JUMPDEST POP POP POP POP PUSH1 0x40 MLOAD RETURNDATASIZE PUSH1 0x1F NOT PUSH1 0x1F DUP3 ADD AND DUP3 ADD DUP1 PUSH1 0x40 MSTORE POP DUP2 ADD SWAP1 PUSH2 0x336 SWAP2 SWAP1 PUSH2 0x1E84 JUMP JUMPDEST SWAP1 POP SWAP1 JUMP JUMPDEST PUSH2 0x34F PUSH8 0x667821B56693DBC1 PUSH1 0xC0 SHL PUSH2 0x1953 JUMP JUMPDEST PUSH2 0x357 PUSH2 0x1956 JUMP JUMPDEST PUSH2 0x36B PUSH8 0x8EE979CD8DB8DD95 PUSH1 0xC0 SHL PUSH2 0x1953 JUMP JUMPDEST PUSH2 0x37F PUSH8 0x9297EF4DA6E8701B PUSH1 0xC0 SHL PUSH2 0x1953 JUMP JUMPDEST PUSH2 0x393 PUSH8 0xC1358D3F4FC672FF PUSH1 0xC0 SHL PUSH2 0x1953 JUMP JUMPDEST PUSH2 0x3A7 PUSH8 0x56F6E19C02CE6D39 PUSH1 0xC0 SHL PUSH2 0x1953 JUMP JUMPDEST PUSH1 0x0 PUSH1 0x6 SLOAD SUB PUSH2 0x3F7 JUMPI PUSH2 0x3C5 PUSH8 0x76BDAE363555F518 PUSH1 0xC0 SHL PUSH2 0x1953 JUMP JUMPDEST PUSH1 0x40 MLOAD PUSH32 0x98E7913600000000000000000000000000000000000000000000000000000000 DUP2 MSTORE PUSH1 0x4 ADD PUSH1 0x40 MLOAD DUP1 SWAP2 SUB SWAP1 REVERT JUMPDEST PUSH2 0x40B PUSH8 0x8AE91EC2D5C946EC PUSH1 0xC0 SHL PUSH2 0x1953 JUMP JUMPDEST PUSH2 0x41F PUSH8 0x986A25875D264645 PUSH1 0xC0 SHL PUSH2 0x1953 JUMP JUMPDEST PUSH2 0x433 PUSH8 0x81D350D7746D0586 PUSH1 0xC0 SHL PUSH2 0x1953 JUMP JUMPDEST PUSH1 0x6 SLOAD DUP2 GT ISZERO PUSH2 0x483 JUMPI PUSH2 0x451 PUSH8 0x8AD0F8E512163663 PUSH1 0xC0 SHL PUSH2 0x1953 JUMP JUMPDEST PUSH1 0x40 MLOAD PUSH32 0x31A581EB00000000000000000000000000000000000000000000000000000000 DUP2 MSTORE PUSH1 0x4 ADD PUSH1 0x40 MLOAD DUP1 SWAP2 SUB SWAP1 REVERT JUMPDEST PUSH2 0x497 PUSH8 0x5A61E0A94B97513A PUSH1 0xC0 SHL PUSH2 0x1953 JUMP JUMPDEST PUSH2 0x4AB PUSH8 0xDAFEBD2C6DB3882A PUSH1 0xC0 SHL PUSH2 0x1953 JUMP JUMPDEST PUSH2 0x4BF PUSH8 0x22153F4A0730F7EE PUSH1 0xC0 SHL PUSH2 0x1953 JUMP JUMPDEST PUSH2 0x4C7 PUSH2 0x25E JUMP JUMPDEST DUP2 GT ISZERO PUSH2 0x514 JUMPI PUSH2 0x4E2 PUSH8 0x9F4F9CF63E4729A PUSH1 0xC0 SHL PUSH2 0x1953 JUMP JUMPDEST PUSH1 0x40 MLOAD PUSH32 0x3B4930BD00000000000000000000000000000000000000000000000000000000 DUP2 MSTORE PUSH1 0x4 ADD PUSH1 0x40 MLOAD DUP1 SWAP2 SUB SWAP1 REVERT JUMPDEST PUSH2 0x528 PUSH8 0x9FD00ED2C2E40E8E PUSH1 0xC0 SHL PUSH2 0x1953 JUMP JUMPDEST PUSH2 0x53C PUSH8 0x5E4F1329F73E027 PUSH1 0xC0 SHL PUSH2 0x1953 JUMP JUMPDEST DUP1 PUSH1 0x6 PUSH1 0x0 DUP3 DUP3 SLOAD PUSH2 0x54E SWAP2 SWAP1 PUSH2 0x1EE0 JUMP JUMPDEST SWAP3 POP POP DUP2 SWAP1 SSTORE POP PUSH2 0x569 PUSH8 0x7ACA07F5FB328D0B PUSH1 0xC0 SHL PUSH2 0x1953 JUMP JUMPDEST PUSH2 0x57D PUSH8 0x7A17D6F076609143 PUSH1 0xC0 SHL PUSH2 0x1953 JUMP JUMPDEST PUSH32 0x0 PUSH20 0xFFFFFFFFFFFFFFFFFFFFFFFFFFFFFFFFFFFFFFFF AND PUSH4 0xA9059CBB PUSH2 0x5C1 PUSH2 0x19D4 JUMP JUMPDEST DUP4 PUSH1 0x40 MLOAD DUP4 PUSH4 0xFFFFFFFF AND PUSH1 0xE0 SHL DUP2 MSTORE PUSH1 0x4 ADD PUSH2 0x5DF SWAP3 SWAP2 SWAP1 PUSH2 0x1F14 JUMP JUMPDEST PUSH1 0x20 PUSH1 0x40 MLOAD DUP1 DUP4 SUB DUP2 PUSH1 0x0 DUP8 GAS CALL ISZERO DUP1 ISZERO PUSH2 0x5FE JUMPI RETURNDATASIZE PUSH1 0x0 DUP1 RETURNDATACOPY RETURNDATASIZE PUSH1 0x0 REVERT JUMPDEST POP POP POP POP PUSH1 0x40 MLOAD RETURNDATASIZE PUSH1 0x1F NOT PUSH1 0x1F DUP3 ADD AND DUP3 ADD DUP1 PUSH1 0x40 MSTORE POP DUP2 ADD SWAP1 PUSH2 0x622 SWAP2 SWAP1 PUSH2 0x1F75 JUMP JUMPDEST POP PUSH2 0x637 PUSH8 0x92EDF9A968643496 PUSH1 0xC0 SHL PUSH2 0x1953 JUMP JUMPDEST PUSH2 0x64B PUSH8 0xE1E6339D97CC44EC PUSH1 0xC0 SHL PUSH2 0x1953 JUMP JUMPDEST PUSH32 0xDEF4F5C5C7516369CB5AAA162FDF3F2C750A1C81C0FE3DFD9A47A97393CDAFCF DUP2 PUSH1 0x6 SLOAD PUSH1 0x40 MLOAD PUSH2 0x67E SWAP3 SWAP2 SWAP1 PUSH2 0x1E46 JUMP JUMPDEST PUSH1 0x40 MLOAD DUP1 SWAP2 SUB SWAP1 LOG1 POP JUMP JUMPDEST PUSH2 0x69C PUSH7 0x86283B82ADE0DA PUSH1 0xC0 SHL PUSH2 0x1953 JUMP JUMPDEST PUSH2 0x6A4 PUSH2 0x1956 JUMP JUMPDEST PUSH2 0x6B8 PUSH8 0xF47B652BDFDC5E8C PUSH1 0xC0 SHL PUSH2 0x1953 JUMP JUMPDEST PUSH2 0x6CC PUSH8 0x15066FFCD7034E94 PUSH1 0xC0 SHL PUSH2 0x1953 JUMP JUMPDEST PUSH2 0x6E0 PUSH8 0x3F5308B0FB1E001A PUSH1 0xC0 SHL PUSH2 0x1953 JUMP JUMPDEST DUP1 PUSH1 0x6 PUSH1 0x0 DUP3 DUP3 SLOAD PUSH2 0x6F2 SWAP2 SWAP1 PUSH2 0x1FA2 JUMP JUMPDEST SWAP3 POP POP DUP2 SWAP1 SSTORE POP PUSH2 0x70D PUSH8 0xE1C9C72FC2F77880 PUSH1 0xC0 SHL PUSH2 0x1953 JUMP JUMPDEST PUSH2 0x721 PUSH8 0xC9CE10E5F2138506 PUSH1 0xC0 SHL PUSH2 0x1953 JUMP JUMPDEST PUSH32 0x0 PUSH20 0xFFFFFFFFFFFFFFFFFFFFFFFFFFFFFFFFFFFFFFFF AND PUSH4 0x23B872DD PUSH2 0x765 PUSH2 0x19D4 JUMP JUMPDEST ADDRESS DUP5 PUSH1 0x40 MLOAD DUP5 PUSH4 0xFFFFFFFF AND PUSH1 0xE0 SHL DUP2 MSTORE PUSH1 0x4 ADD PUSH2 0x785 SWAP4 SWAP3 SWAP2 SWAP1 PUSH2 0x1FD6 JUMP JUMPDEST PUSH1 0x20 PUSH1 0x40 MLOAD DUP1 DUP4 SUB DUP2 PUSH1 0x0 DUP8 GAS CALL ISZERO DUP1 ISZERO PUSH2 0x7A4 JUMPI RETURNDATASIZE PUSH1 0x0 DUP1 RETURNDATACOPY RETURNDATASIZE PUSH1 0x0 REVERT JUMPDEST POP POP POP POP PUSH1 0x40 MLOAD RETURNDATASIZE PUSH1 0x1F NOT PUSH1 0x1F DUP3 ADD AND DUP3 ADD DUP1 PUSH1 0x40 MSTORE POP DUP2 ADD SWAP1 PUSH2 0x7C8 SWAP2 SWAP1 PUSH2 0x1F75 JUMP JUMPDEST POP PUSH2 0x7DD PUSH8 0x2E99B11B6BD9BB68 PUSH1 0xC0 SHL PUSH2 0x1953 JUMP JUMPDEST PUSH2 0x7F1 PUSH8 0x6F626C1C1EA18F98 PUSH1 0xC0 SHL PUSH2 0x1953 JUMP JUMPDEST PUSH32 0xAF0E92ED9A06DAF8B906385B588B940A355DE1516517E37E03BCB3BACF9B9664 DUP2 PUSH1 0x6 SLOAD PUSH1 0x40 MLOAD PUSH2 0x824 SWAP3 SWAP2 SWAP1 PUSH2 0x1E46 JUMP JUMPDEST PUSH1 0x40 MLOAD DUP1 SWAP2 SUB SWAP1 LOG1 POP JUMP JUMPDEST PUSH2 0x843 PUSH8 0xCF40FB3EE412366C PUSH1 0xC0 SHL PUSH2 0x1953 JUMP JUMPDEST DUP6 PUSH2 0x858 PUSH8 0x4E0D1AE2655AF5F0 PUSH1 0xC0 SHL PUSH2 0x1953 JUMP JUMPDEST PUSH2 0x86C PUSH8 0x8B29C836ED8B92EB PUSH1 0xC0 SHL PUSH2 0x1953 JUMP JUMPDEST PUSH2 0x880 PUSH8 0x2041AFA7B5BBE70D PUSH1 0xC0 SHL PUSH2 0x1953 JUMP JUMPDEST PUSH1 0x0 PUSH20 0xFFFFFFFFFFFFFFFFFFFFFFFFFFFFFFFFFFFFFFFF AND DUP2 PUSH20 0xFFFFFFFFFFFFFFFFFFFFFFFFFFFFFFFFFFFFFFFF AND SUB PUSH2 0x90E JUMPI PUSH2 0x8C8 PUSH8 0x31C3C663B496A0D0 PUSH1 0xC0 SHL PUSH2 0x1953 JUMP JUMPDEST PUSH2 0x8DC PUSH8 0xBE3E95D0F98CF849 PUSH1 0xC0 SHL PUSH2 0x1953 JUMP JUMPDEST PUSH1 0x40 MLOAD PUSH32 0xD92E233D00000000000000000000000000000000000000000000000000000000 DUP2 MSTORE PUSH1 0x4 ADD PUSH1 0x40 MLOAD DUP1 SWAP2 SUB SWAP1 REVERT JUMPDEST PUSH2 0x922 PUSH8 0xA6FA6201358982D4 PUSH1 0xC0 SHL PUSH2 0x1953 JUMP JUMPDEST PUSH2 0x936 PUSH8 0x28DBE7F75B83A9A5 PUSH1 0xC0 SHL PUSH2 0x1953 JUMP JUMPDEST PUSH2 0x94A PUSH8 0x897248E8EA66EC62 PUSH1 0xC0 SHL PUSH2 0x1953 JUMP JUMPDEST PUSH2 0x95E PUSH8 0x4F51F0701166A23B PUSH1 0xC0 SHL PUSH2 0x1953 JUMP JUMPDEST PUSH2 0x972 PUSH8 0x964C11E00FF53B9A PUSH1 0xC0 SHL PUSH2 0x1953 JUMP JUMPDEST PUSH2 0x986 PUSH8 0xE0523154DD56E62A PUSH1 0xC0 SHL PUSH2 0x1953 JUMP JUMPDEST PUSH1 0x0 PUSH2 0x9C4 DUP8 PUSH2 0x994 PUSH2 0x19D4 JUMP JUMPDEST DUP9 ADDRESS PUSH1 0x40 MLOAD PUSH1 0x20 ADD PUSH2 0x9A9 SWAP5 SWAP4 SWAP3 SWAP2 SWAP1 PUSH2 0x2155 JUMP JUMPDEST PUSH1 0x40 MLOAD PUSH1 0x20 DUP2 DUP4 SUB SUB DUP2 MSTORE SWAP1 PUSH1 0x40 MSTORE DUP1 MLOAD SWAP1 PUSH1 0x20 ADD KECCAK256 PUSH2 0x19DC JUMP JUMPDEST SWAP1 POP PUSH2 0x9DA PUSH8 0x7A548C1E8DF4480D PUSH1 0xC0 SHL PUSH2 0x1953 JUMP JUMPDEST PUSH2 0x9EE PUSH8 0xBA3BCE57F524BBF9 PUSH1 0xC0 SHL PUSH2 0x1953 JUMP JUMPDEST PUSH1 0x2 PUSH1 0x0 SWAP1 SLOAD SWAP1 PUSH2 0x100 EXP SWAP1 DIV PUSH20 0xFFFFFFFFFFFFFFFFFFFFFFFFFFFFFFFFFFFFFFFF AND PUSH20 0xFFFFFFFFFFFFFFFFFFFFFFFFFFFFFFFFFFFFFFFF AND PUSH1 0x1 DUP3 DUP8 DUP8 DUP8 PUSH1 0x40 MLOAD PUSH1 0x0 DUP2 MSTORE PUSH1 0x20 ADD PUSH1 0x40 MSTORE PUSH1 0x40 MLOAD PUSH2 0xA4A SWAP5 SWAP4 SWAP3 SWAP2 SWAP1 PUSH2 0x21CC JUMP JUMPDEST PUSH1 0x20 PUSH1 0x40 MLOAD PUSH1 0x20 DUP2 SUB SWAP1 DUP1 DUP5 SUB SWAP1 DUP6 GAS STATICCALL ISZERO DUP1 ISZERO PUSH2 0xA6C JUMPI RETURNDATASIZE PUSH1 0x0 DUP1 RETURNDATACOPY RETURNDATASIZE PUSH1 0x0 REVERT JUMPDEST POP POP POP PUSH1 0x20 PUSH1 0x40 MLOAD SUB MLOAD PUSH20 0xFFFFFFFFFFFFFFFFFFFFFFFFFFFFFFFFFFFFFFFF AND EQ PUSH2 0xAEB JUMPI PUSH2 0xAA5 PUSH8 0x5DA8290840423F4B PUSH1 0xC0 SHL PUSH2 0x1953 JUMP JUMPDEST PUSH2 0xAB9 PUSH8 0xD6EF44319481E490 PUSH1 0xC0 SHL PUSH2 0x1953 JUMP JUMPDEST PUSH1 0x40 MLOAD PUSH32 0xA7A059BC00000000000000000000000000000000000000000000000000000000 DUP2 MSTORE PUSH1 0x4 ADD PUSH1 0x40 MLOAD DUP1 SWAP2 SUB SWAP1 REVERT JUMPDEST PUSH2 0xAFF PUSH8 0xAD6F3CEAE42B0C89 PUSH1 0xC0 SHL PUSH2 0x1953 JUMP JUMPDEST PUSH2 0xB13 PUSH8 0x79972EC682858C48 PUSH1 0xC0 SHL PUSH2 0x1953 JUMP JUMPDEST PUSH2 0xB27 PUSH8 0x38A44CF9B626BA1A PUSH1 0xC0 SHL PUSH2 0x1953 JUMP JUMPDEST PUSH1 0x3 PUSH1 0x0 DUP3 DUP2 MSTORE PUSH1 0x20 ADD SWAP1 DUP2 MSTORE PUSH1 0x20 ADD PUSH1 0x0 KECCAK256 PUSH1 0x0 SWAP1 SLOAD SWAP1 PUSH2 0x100 EXP SWAP1 DIV PUSH1 0xFF AND ISZERO PUSH2 0xBA7 JUMPI PUSH2 0xB61 PUSH8 0x6CE7D62BB28B5792 PUSH1 0xC0 SHL PUSH2 0x1953 JUMP JUMPDEST PUSH2 0xB75 PUSH8 0xD0C9B18690C3FBDB PUSH1 0xC0 SHL PUSH2 0x1953 JUMP JUMPDEST PUSH1 0x40 MLOAD PUSH32 0xCCE9A82400000000000000000000000000000000000000000000000000000000 DUP2 MSTORE PUSH1 0x4 ADD PUSH1 0x40 MLOAD DUP1 SWAP2 SUB SWAP1 REVERT JUMPDEST PUSH2 0xBBB PUSH8 0x7461C61C4AD0A850 PUSH1 0xC0 SHL PUSH2 0x1953 JUMP JUMPDEST PUSH2 0xBCF PUSH8 0x905F74A8A113933F PUSH1 0xC0 SHL PUSH2 0x1953 JUMP JUMPDEST PUSH1 0x1 PUSH1 0x3 PUSH1 0x0 DUP4 DUP2 MSTORE PUSH1 0x20 ADD SWAP1 DUP2 MSTORE PUSH1 0x20 ADD PUSH1 0x0 KECCAK256 PUSH1 0x0 PUSH2 0x100 EXP DUP2 SLOAD DUP2 PUSH1 0xFF MUL NOT AND SWAP1 DUP4 ISZERO ISZERO MUL OR SWAP1 SSTORE POP PUSH2 0xC0F PUSH8 0x96170F4E75959222 PUSH1 0xC0 SHL PUSH2 0x1953 JUMP JUMPDEST PUSH2 0xC23 PUSH8 0xE89A4254BCE80696 PUSH1 0xC0 SHL PUSH2 0x1953 JUMP JUMPDEST DUP7 PUSH2 0xC2C PUSH2 0x25E JUMP JUMPDEST LT ISZERO PUSH2 0xC8C JUMPI PUSH2 0xC46 PUSH8 0x1C95DCF529EB0A9F PUSH1 0xC0 SHL PUSH2 0x1953 JUMP JUMPDEST PUSH2 0xC5A PUSH8 0x17D58EC77B573D5B PUSH1 0xC0 SHL PUSH2 0x1953 JUMP JUMPDEST PUSH1 0x40 MLOAD PUSH32 0x3B4930BD00000000000000000000000000000000000000000000000000000000 DUP2 MSTORE PUSH1 0x4 ADD PUSH1 0x40 MLOAD DUP1 SWAP2 SUB SWAP1 REVERT JUMPDEST PUSH2 0xCA0 PUSH8 0x725A3E16029E8045 PUSH1 0xC0 SHL PUSH2 0x1953 JUMP JUMPDEST PUSH2 0xCB4 PUSH8 0x16561048DBA2EDF9 PUSH1 0xC0 SHL PUSH2 0x1953 JUMP JUMPDEST PUSH2 0xCC8 PUSH8 0x88A065CF914982C8 PUSH1 0xC0 SHL PUSH2 0x1953 JUMP JUMPDEST PUSH32 0x0 PUSH20 0xFFFFFFFFFFFFFFFFFFFFFFFFFFFFFFFFFFFFFFFF AND PUSH4 0xA9059CBB DUP10 DUP10 PUSH1 0x40 MLOAD DUP4 PUSH4 0xFFFFFFFF AND PUSH1 0xE0 SHL DUP2 MSTORE PUSH1 0x4 ADD PUSH2 0xD23 SWAP3 SWAP2 SWAP1 PUSH2 0x1F14 JUMP JUMPDEST PUSH1 0x20 PUSH1 0x40 MLOAD DUP1 DUP4 SUB DUP2 PUSH1 0x0 DUP8 GAS CALL ISZERO DUP1 ISZERO PUSH2 0xD42 JUMPI RETURNDATASIZE PUSH1 0x0 DUP1 RETURNDATACOPY RETURNDATASIZE PUSH1 0x0 REVERT JUMPDEST POP POP POP POP PUSH1 0x40 MLOAD RETURNDATASIZE PUSH1 0x1F NOT PUSH1 0x1F DUP3 ADD AND DUP3 ADD DUP1 PUSH1 0x40 MSTORE POP DUP2 ADD SWAP1 PUSH2 0xD66 SWAP2 SWAP1 PUSH2 0x1F75 JUMP JUMPDEST POP PUSH2 0xD7B PUSH8 0x9C95AC088E583DC1 PUSH1 0xC0 SHL PUSH2 0x1953 JUMP JUMPDEST PUSH2 0xD8F PUSH8 0xBE48A6DC839AAF16 PUSH1 0xC0 SHL PUSH2 0x1953 JUMP JUMPDEST DUP8 PUSH20 0xFFFFFFFFFFFFFFFFFFFFFFFFFFFFFFFFFFFFFFFF AND PUSH32 0x62A9B3E6446AB559D6B82C4F02CC923CD3B4E47444EF86446DAB81A4D781C5AF DUP8 DUP10 PUSH1 0x40 MLOAD PUSH2 0xDD7 SWAP3 SWAP2 SWAP1 PUSH2 0x2211 JUMP JUMPDEST PUSH1 0x40 MLOAD DUP1 SWAP2 SUB SWAP1 LOG2 POP POP POP POP POP POP POP POP JUMP JUMPDEST PUSH2 0xDF1 PUSH2 0x1956 JUMP JUMPDEST PUSH2 0xDFB PUSH1 0x0 PUSH2 0x1A48 JUMP JUMPDEST JUMP JUMPDEST PUSH2 0xE11 PUSH8 0x9BD9823A4CC92CFD PUSH1 0xC0 SHL PUSH2 0x1953 JUMP JUMPDEST PUSH2 0xE19 PUSH2 0x1956 JUMP JUMPDEST PUSH2 0xE2D PUSH8 0xDF88CC99E7376B15 PUSH1 0xC0 SHL PUSH2 0x1953 JUMP JUMPDEST PUSH2 0xE41 PUSH8 0x4DC83AF2601CEABE PUSH1 0xC0 SHL PUSH2 0x1953 JUMP JUMPDEST PUSH2 0xE55 PUSH8 0x28C0B9DA131D4013 PUSH1 0xC0 SHL PUSH2 0x1953 JUMP JUMPDEST PUSH2 0xE69 PUSH8 0xE81A4427F153A826 PUSH1 0xC0 SHL PUSH2 0x1953 JUMP JUMPDEST PUSH1 0x0 DUP3 EQ DUP1 ISZERO PUSH2 0xE89 JUMPI POP PUSH2 0xE88 PUSH8 0xC28BF475F3930984 PUSH1 0xC0 SHL PUSH2 0x1A79 JUMP JUMPDEST JUMPDEST DUP1 PUSH2 0xEB0 JUMPI POP DUP2 DUP2 GT ISZERO DUP1 ISZERO PUSH2 0xEAF JUMPI POP PUSH2 0xEAE PUSH8 0x2EFF0BA6C92560BD PUSH1 0xC0 SHL PUSH2 0x1A79 JUMP JUMPDEST JUMPDEST JUMPDEST ISZERO PUSH2 0xF0F JUMPI PUSH2 0xEC9 PUSH8 0xD15D82D37CD56B04 PUSH1 0xC0 SHL PUSH2 0x1953 JUMP JUMPDEST PUSH2 0xEDD PUSH8 0x4E6BFEC448F7A565 PUSH1 0xC0 SHL PUSH2 0x1953 JUMP JUMPDEST PUSH1 0x40 MLOAD PUSH32 0xECA686C00000000000000000000000000000000000000000000000000000000 DUP2 MSTORE PUSH1 0x4 ADD PUSH1 0x40 MLOAD DUP1 SWAP2 SUB SWAP1 REVERT JUMPDEST PUSH2 0xF23 PUSH8 0x99614D41E8253A5 PUSH1 0xC0 SHL PUSH2 0x1953 JUMP JUMPDEST PUSH2 0xF37 PUSH8 0x957CE1E7B041D5C7 PUSH1 0xC0 SHL PUSH2 0x1953 JUMP JUMPDEST DUP2 PUSH1 0x4 DUP2 SWAP1 SSTORE POP PUSH2 0xF52 PUSH8 0xFE5F1B3B8FCC121B PUSH1 0xC0 SHL PUSH2 0x1953 JUMP JUMPDEST DUP1 PUSH1 0x5 DUP2 SWAP1 SSTORE POP PUSH2 0xF6D PUSH8 0xCD37D7A87B2BAE4E PUSH1 0xC0 SHL PUSH2 0x1953 JUMP JUMPDEST PUSH2 0xF81 PUSH8 0xDE5B8DF035E239E8 PUSH1 0xC0 SHL PUSH2 0x1953 JUMP JUMPDEST PUSH32 0x8485C7727CD53E56857497FD34C583B8A210322E0D093953B1DDB9F417DB12CF DUP3 DUP3 PUSH1 0x40 MLOAD PUSH2 0xFB2 SWAP3 SWAP2 SWAP1 PUSH2 0x1E46 JUMP JUMPDEST PUSH1 0x40 MLOAD DUP1 SWAP2 SUB SWAP1 LOG1 POP POP JUMP JUMPDEST PUSH1 0x0 PUSH2 0xFC8 PUSH2 0x19D4 JUMP JUMPDEST SWAP1 POP DUP1 PUSH20 0xFFFFFFFFFFFFFFFFFFFFFFFFFFFFFFFFFFFFFFFF AND PUSH2 0xFE9 PUSH2 0x182F JUMP JUMPDEST PUSH20 0xFFFFFFFFFFFFFFFFFFFFFFFFFFFFFFFFFFFFFFFF AND EQ PUSH2 0x103F JUMPI PUSH1 0x40 MLOAD PUSH32 0x8C379A000000000000000000000000000000000000000000000000000000000 DUP2 MSTORE PUSH1 0x4 ADD PUSH2 0x1036 SWAP1 PUSH2 0x22BD JUMP JUMPDEST PUSH1 0x40 MLOAD DUP1 SWAP2 SUB SWAP1 REVERT JUMPDEST PUSH2 0x1048 DUP2 PUSH2 0x1A48 JUMP JUMPDEST POP JUMP JUMPDEST PUSH1 0x0 DUP1 PUSH1 0x0 SWAP1 SLOAD SWAP1 PUSH2 0x100 EXP SWAP1 DIV PUSH20 0xFFFFFFFFFFFFFFFFFFFFFFFFFFFFFFFFFFFFFFFF AND SWAP1 POP SWAP1 JUMP JUMPDEST PUSH2 0x1088 PUSH8 0xF694CD9C17B9FA6D PUSH1 0xC0 SHL PUSH2 0x1953 JUMP JUMPDEST DUP5 PUSH2 0x109D PUSH8 0xBEB65D4FE5F140D8 PUSH1 0xC0 SHL PUSH2 0x1953 JUMP JUMPDEST PUSH2 0x10B1 PUSH8 0x2716065B63B961B6 PUSH1 0xC0 SHL PUSH2 0x1953 JUMP JUMPDEST PUSH2 0x10C5 PUSH8 0x4350322BE668CF64 PUSH1 0xC0 SHL PUSH2 0x1953 JUMP JUMPDEST PUSH1 0x4 SLOAD DUP2 LT DUP1 ISZERO PUSH2 0x10E6 JUMPI POP PUSH2 0x10E5 PUSH8 0x3FA8FB39C9F9ECDD PUSH1 0xC0 SHL PUSH2 0x1A79 JUMP JUMPDEST JUMPDEST DUP1 PUSH2 0x110E JUMPI POP PUSH1 0x5 SLOAD DUP2 GT DUP1 ISZERO PUSH2 0x110D JUMPI POP PUSH2 0x110C PUSH8 0xAB071CAB6100F2A0 PUSH1 0xC0 SHL PUSH2 0x1A79 JUMP JUMPDEST JUMPDEST JUMPDEST ISZERO PUSH2 0x116D JUMPI PUSH2 0x1127 PUSH8 0x8563A6370BF28C68 PUSH1 0xC0 SHL PUSH2 0x1953 JUMP JUMPDEST PUSH2 0x113B PUSH8 0xA41E696EEE73413A PUSH1 0xC0 SHL PUSH2 0x1953 JUMP JUMPDEST PUSH1 0x40 MLOAD PUSH32 0x17DFB4AC00000000000000000000000000000000000000000000000000000000 DUP2 MSTORE PUSH1 0x4 ADD PUSH1 0x40 MLOAD DUP1 SWAP2 SUB SWAP1 REVERT JUMPDEST PUSH2 0x1181 PUSH8 0x6BAEBB29BF50AC46 PUSH1 0xC0 SHL PUSH2 0x1953 JUMP JUMPDEST PUSH2 0x1195 PUSH8 0xDEBB73E10F7A4163 PUSH1 0xC0 SHL PUSH2 0x1953 JUMP JUMPDEST PUSH2 0x11A9 PUSH8 0xEC573C4F10A560F5 PUSH1 0xC0 SHL PUSH2 0x1953 JUMP JUMPDEST PUSH2 0x11BD PUSH8 0x3EE8E2A117F9D88 PUSH1 0xC0 SHL PUSH2 0x1953 JUMP JUMPDEST PUSH2 0x11D1 PUSH8 0x34045640955DC110 PUSH1 0xC0 SHL PUSH2 0x1953 JUMP JUMPDEST PUSH2 0x11E5 PUSH8 0x1ADBFAD42BB18CCD PUSH1 0xC0 SHL PUSH2 0x1953 JUMP JUMPDEST PUSH1 0x0 PUSH2 0x1223 DUP8 PUSH2 0x11F3 PUSH2 0x19D4 JUMP JUMPDEST DUP9 ADDRESS PUSH1 0x40 MLOAD PUSH1 0x20 ADD PUSH2 0x1208 SWAP5 SWAP4 SWAP3 SWAP2 SWAP1 PUSH2 0x2329 JUMP JUMPDEST PUSH1 0x40 MLOAD PUSH1 0x20 DUP2 DUP4 SUB SUB DUP2 MSTORE SWAP1 PUSH1 0x40 MSTORE DUP1 MLOAD SWAP1 PUSH1 0x20 ADD KECCAK256 PUSH2 0x19DC JUMP JUMPDEST SWAP1 POP PUSH2 0x1239 PUSH8 0xD596A0A16F3B232D PUSH1 0xC0 SHL PUSH2 0x1953 JUMP JUMPDEST PUSH2 0x124D PUSH8 0x383889EE63A36D50 PUSH1 0xC0 SHL PUSH2 0x1953 JUMP JUMPDEST PUSH1 0x2 PUSH1 0x0 SWAP1 SLOAD SWAP1 PUSH2 0x100 EXP SWAP1 DIV PUSH20 0xFFFFFFFFFFFFFFFFFFFFFFFFFFFFFFFFFFFFFFFF AND PUSH20 0xFFFFFFFFFFFFFFFFFFFFFFFFFFFFFFFFFFFFFFFF AND PUSH1 0x1 DUP3 DUP8 DUP8 DUP8 PUSH1 0x40 MLOAD PUSH1 0x0 DUP2 MSTORE PUSH1 0x20 ADD PUSH1 0x40 MSTORE PUSH1 0x40 MLOAD PUSH2 0x12A9 SWAP5 SWAP4 SWAP3 SWAP2 SWAP1 PUSH2 0x21CC JUMP JUMPDEST PUSH1 0x20 PUSH1 0x40 MLOAD PUSH1 0x20 DUP2 SUB SWAP1 DUP1 DUP5 SUB SWAP1 DUP6 GAS STATICCALL ISZERO DUP1 ISZERO PUSH2 0x12CB JUMPI RETURNDATASIZE PUSH1 0x0 DUP1 RETURNDATACOPY RETURNDATASIZE PUSH1 0x0 REVERT JUMPDEST POP POP POP PUSH1 0x20 PUSH1 0x40 MLOAD SUB MLOAD PUSH20 0xFFFFFFFFFFFFFFFFFFFFFFFFFFFFFFFFFFFFFFFF AND EQ PUSH2 0x134A JUMPI PUSH2 0x1304 PUSH8 0xA97016437FD20E35 PUSH1 0xC0 SHL PUSH2 0x1953 JUMP JUMPDEST PUSH2 0x1318 PUSH8 0xDD201FB03DF2792E PUSH1 0xC0 SHL PUSH2 0x1953 JUMP JUMPDEST PUSH1 0x40 MLOAD PUSH32 0xA7A059BC00000000000000000000000000000000000000000000000000000000 DUP2 MSTORE PUSH1 0x4 ADD PUSH1 0x40 MLOAD DUP1 SWAP2 SUB SWAP1 REVERT JUMPDEST PUSH2 0x135E PUSH8 0x4D8D8790F95EFCE6 PUSH1 0xC0 SHL PUSH2 0x1953 JUMP JUMPDEST PUSH2 0x1372 PUSH8 0x7B5337B7DA1FD58B PUSH1 0xC0 SHL PUSH2 0x1953 JUMP JUMPDEST PUSH2 0x1386 PUSH8 0x818C03A7ECAF9C6 PUSH1 0xC0 SHL PUSH2 0x1953 JUMP JUMPDEST PUSH1 0x3 PUSH1 0x0 DUP3 DUP2 MSTORE PUSH1 0x20 ADD SWAP1 DUP2 MSTORE PUSH1 0x20 ADD PUSH1 0x0 KECCAK256 PUSH1 0x0 SWAP1 SLOAD SWAP1 PUSH2 0x100 EXP SWAP1 DIV PUSH1 0xFF AND ISZERO PUSH2 0x1406 JUMPI PUSH2 0x13C0 PUSH8 0xC9B836AC2D7C0024 PUSH1 0xC0 SHL PUSH2 0x1953 JUMP JUMPDEST PUSH2 0x13D4 PUSH8 0x1826F7ACB372A093 PUSH1 0xC0 SHL PUSH2 0x1953 JUMP JUMPDEST PUSH1 0x40 MLOAD PUSH32 0xCCE9A82400000000000000000000000000000000000000000000000000000000 DUP2 MSTORE PUSH1 0x4 ADD PUSH1 0x40 MLOAD DUP1 SWAP2 SUB SWAP1 REVERT JUMPDEST PUSH2 0x141A PUSH8 0xD924A6984C3C3C55 PUSH1 0xC0 SHL PUSH2 0x1953 JUMP JUMPDEST PUSH2 0x142E PUSH8 0xE88CC4DB5DF35E81 PUSH1 0xC0 SHL PUSH2 0x1953 JUMP JUMPDEST PUSH1 0x1 PUSH1 0x3 PUSH1 0x0 DUP4 DUP2 MSTORE PUSH1 0x20 ADD SWAP1 DUP2 MSTORE PUSH1 0x20 ADD PUSH1 0x0 KECCAK256 PUSH1 0x0 PUSH2 0x100 EXP DUP2 SLOAD DUP2 PUSH1 0xFF MUL NOT AND SWAP1 DUP4 ISZERO ISZERO MUL OR SWAP1 SSTORE POP PUSH2 0x146E PUSH8 0x42C0C18BC61D4892 PUSH1 0xC0 SHL PUSH2 0x1953 JUMP JUMPDEST PUSH2 0x1482 PUSH8 0xDC4EDEF93F954A0E PUSH1 0xC0 SHL PUSH2 0x1953 JUMP JUMPDEST PUSH32 0x0 PUSH20 0xFFFFFFFFFFFFFFFFFFFFFFFFFFFFFFFFFFFFFFFF AND PUSH4 0x23B872DD PUSH2 0x14C6 PUSH2 0x19D4 JUMP JUMPDEST ADDRESS DUP11 PUSH1 0x40 MLOAD DUP5 PUSH4 0xFFFFFFFF AND PUSH1 0xE0 SHL DUP2 MSTORE PUSH1 0x4 ADD PUSH2 0x14E6 SWAP4 SWAP3 SWAP2 SWAP1 PUSH2 0x1FD6 JUMP JUMPDEST PUSH1 0x20 PUSH1 0x40 MLOAD DUP1 DUP4 SUB DUP2 PUSH1 0x0 DUP8 GAS CALL ISZERO DUP1 ISZERO PUSH2 0x1505 JUMPI RETURNDATASIZE PUSH1 0x0 DUP1 RETURNDATACOPY RETURNDATASIZE PUSH1 0x0 REVERT JUMPDEST POP POP POP POP PUSH1 0x40 MLOAD RETURNDATASIZE PUSH1 0x1F NOT PUSH1 0x1F DUP3 ADD AND DUP3 ADD DUP1 PUSH1 0x40 MSTORE POP DUP2 ADD SWAP1 PUSH2 0x1529 SWAP2 SWAP1 PUSH2 0x1F75 JUMP JUMPDEST POP PUSH2 0x153E PUSH8 0xBCEBC1B0FC4C77C1 PUSH1 0xC0 SHL PUSH2 0x1953 JUMP JUMPDEST PUSH2 0x1552 PUSH8 0x25E22A569E480D39 PUSH1 0xC0 SHL PUSH2 0x1953 JUMP JUMPDEST PUSH2 0x155A PUSH2 0x19D4 JUMP JUMPDEST PUSH20 0xFFFFFFFFFFFFFFFFFFFFFFFFFFFFFFFFFFFFFFFF AND PUSH32 0xB999B06746A947F1958636B9B9377AE814FE578413DFFFD4D3A7A96196FE02FC DUP8 DUP10 PUSH1 0x40 MLOAD PUSH2 0x15A1 SWAP3 SWAP2 SWAP1 PUSH2 0x2211 JUMP JUMPDEST PUSH1 0x40 MLOAD DUP1 SWAP2 SUB SWAP1 LOG2 POP POP POP POP POP POP POP JUMP JUMPDEST PUSH1 0x0 PUSH2 0x15C8 PUSH8 0xB8855885B80E0F61 PUSH1 0xC0 SHL PUSH2 0x1953 JUMP JUMPDEST PUSH2 0x15DC PUSH8 0x3D6959C2AF9DB394 PUSH1 0xC0 SHL PUSH2 0x1953 JUMP JUMPDEST PUSH2 0x15F0 PUSH8 0x4DA53D9A173419C7 PUSH1 0xC0 SHL PUSH2 0x1953 JUMP JUMPDEST PUSH1 0x2 PUSH1 0x0 SWAP1 SLOAD SWAP1 PUSH2 0x100 EXP SWAP1 DIV PUSH20 0xFFFFFFFFFFFFFFFFFFFFFFFFFFFFFFFFFFFFFFFF AND SWAP1 POP SWAP1 JUMP JUMPDEST PUSH2 0x162C PUSH8 0xE382BCEF254A5F6B PUSH1 0xC0 SHL PUSH2 0x1953 JUMP JUMPDEST DUP1 PUSH2 0x1641 PUSH8 0x4E0D1AE2655AF5F0 PUSH1 0xC0 SHL PUSH2 0x1953 JUMP JUMPDEST PUSH2 0x1655 PUSH8 0x8B29C836ED8B92EB PUSH1 0xC0 SHL PUSH2 0x1953 JUMP JUMPDEST PUSH2 0x1669 PUSH8 0x2041AFA7B5BBE70D PUSH1 0xC0 SHL PUSH2 0x1953 JUMP JUMPDEST PUSH1 0x0 PUSH20 0xFFFFFFFFFFFFFFFFFFFFFFFFFFFFFFFFFFFFFFFF AND DUP2 PUSH20 0xFFFFFFFFFFFFFFFFFFFFFFFFFFFFFFFFFFFFFFFF AND SUB PUSH2 0x16F7 JUMPI PUSH2 0x16B1 PUSH8 0x31C3C663B496A0D0 PUSH1 0xC0 SHL PUSH2 0x1953 JUMP JUMPDEST PUSH2 0x16C5 PUSH8 0xBE3E95D0F98CF849 PUSH1 0xC0 SHL PUSH2 0x1953 JUMP JUMPDEST PUSH1 0x40 MLOAD PUSH32 0xD92E233D00000000000000000000000000000000000000000000000000000000 DUP2 MSTORE PUSH1 0x4 ADD PUSH1 0x40 MLOAD DUP1 SWAP2 SUB SWAP1 REVERT JUMPDEST PUSH2 0x170B PUSH8 0xA6FA6201358982D4 PUSH1 0xC0 SHL PUSH2 0x1953 JUMP JUMPDEST PUSH2 0x171F PUSH8 0x28DBE7F75B83A9A5 PUSH1 0xC0 SHL PUSH2 0x1953 JUMP JUMPDEST PUSH2 0x1733 PUSH8 0xF1C686D898943BCF PUSH1 0xC0 SHL PUSH2 0x1953 JUMP JUMPDEST PUSH2 0x1747 PUSH8 0x66D004B2774C438A PUSH1 0xC0 SHL PUSH2 0x1953 JUMP JUMPDEST PUSH2 0x174F PUSH2 0x1956 JUMP JUMPDEST PUSH2 0x1763 PUSH8 0x1B09189A0D4BB9FD PUSH1 0xC0 SHL PUSH2 0x1953 JUMP JUMPDEST PUSH2 0x1777 PUSH8 0x30F2A254946942F PUSH1 0xC0 SHL PUSH2 0x1953 JUMP JUMPDEST PUSH2 0x178B PUSH8 0xAA30B104615A6EEB PUSH1 0xC0 SHL PUSH2 0x1953 JUMP JUMPDEST DUP2 PUSH1 0x2 PUSH1 0x0 PUSH2 0x100 EXP DUP2 SLOAD DUP2 PUSH20 0xFFFFFFFFFFFFFFFFFFFFFFFFFFFFFFFFFFFFFFFF MUL NOT AND SWAP1 DUP4 PUSH20 0xFFFFFFFFFFFFFFFFFFFFFFFFFFFFFFFFFFFFFFFF AND MUL OR SWAP1 SSTORE POP PUSH2 0x17E0 PUSH8 0x9CC52EB187E4B930 PUSH1 0xC0 SHL PUSH2 0x1953 JUMP JUMPDEST PUSH2 0x17F4 PUSH8 0x9A1354D69BCAA214 PUSH1 0xC0 SHL PUSH2 0x1953 JUMP JUMPDEST PUSH32 0x8F53E6A9FBC3949BC0B9266BBE1927F0B282A34D92876CCBE188C24D17C6CBB DUP3 PUSH1 0x40 MLOAD PUSH2 0x1823 SWAP2 SWAP1 PUSH2 0x1D83 JUMP JUMPDEST PUSH1 0x40 MLOAD DUP1 SWAP2 SUB SWAP1 LOG1 POP POP JUMP JUMPDEST PUSH1 0x0 PUSH1 0x1 PUSH1 0x0 SWAP1 SLOAD SWAP1 PUSH2 0x100 EXP SWAP1 DIV PUSH20 0xFFFFFFFFFFFFFFFFFFFFFFFFFFFFFFFFFFFFFFFF AND SWAP1 POP SWAP1 JUMP JUMPDEST PUSH2 0x1861 PUSH2 0x1956 JUMP JUMPDEST DUP1 PUSH1 0x1 PUSH1 0x0 PUSH2 0x100 EXP DUP2 SLOAD DUP2 PUSH20 0xFFFFFFFFFFFFFFFFFFFFFFFFFFFFFFFFFFFFFFFF MUL NOT AND SWAP1 DUP4 PUSH20 0xFFFFFFFFFFFFFFFFFFFFFFFFFFFFFFFFFFFFFFFF AND MUL OR SWAP1 SSTORE POP DUP1 PUSH20 0xFFFFFFFFFFFFFFFFFFFFFFFFFFFFFFFFFFFFFFFF AND PUSH2 0x18C1 PUSH2 0x104B JUMP JUMPDEST PUSH20 0xFFFFFFFFFFFFFFFFFFFFFFFFFFFFFFFFFFFFFFFF AND PUSH32 0x38D16B8CAC22D99FC7C124B9CD0DE2D3FA1FAEF420BFE791D8C362D765E22700 PUSH1 0x40 MLOAD PUSH1 0x40 MLOAD DUP1 SWAP2 SUB SWAP1 LOG3 POP JUMP JUMPDEST PUSH1 0x0 DUP1 PUSH2 0x191D PUSH8 0xA605D4A1A860FCB8 PUSH1 0xC0 SHL PUSH2 0x1953 JUMP JUMPDEST PUSH2 0x1931 PUSH8 0xD0BC918C21C58547 PUSH1 0xC0 SHL PUSH2 0x1953 JUMP JUMPDEST PUSH2 0x1945 PUSH8 0x7ED5387FE48850AE PUSH1 0xC0 SHL PUSH2 0x1953 JUMP JUMPDEST PUSH1 0x4 SLOAD PUSH1 0x5 SLOAD SWAP2 POP SWAP2 POP SWAP1 SWAP2 JUMP JUMPDEST POP JUMP JUMPDEST PUSH2 0x195E PUSH2 0x19D4 JUMP JUMPDEST PUSH20 0xFFFFFFFFFFFFFFFFFFFFFFFFFFFFFFFFFFFFFFFF AND PUSH2 0x197C PUSH2 0x104B JUMP JUMPDEST PUSH20 0xFFFFFFFFFFFFFFFFFFFFFFFFFFFFFFFFFFFFFFFF AND EQ PUSH2 0x19D2 JUMPI PUSH1 0x40 MLOAD PUSH32 0x8C379A000000000000000000000000000000000000000000000000000000000 DUP2 MSTORE PUSH1 0x4 ADD PUSH2 0x19C9 SWAP1 PUSH2 0x23CE JUMP JUMPDEST PUSH1 0x40 MLOAD DUP1 SWAP2 SUB SWAP1 REVERT JUMPDEST JUMP JUMPDEST PUSH1 0x0 CALLER SWAP1 POP SWAP1 JUMP JUMPDEST PUSH1 0x0 PUSH2 0x19F2 PUSH8 0xC56F540CD146DA0F PUSH1 0xC0 SHL PUSH2 0x1953 JUMP JUMPDEST PUSH2 0x1A06 PUSH8 0x4087D2C01F5665CC PUSH1 0xC0 SHL PUSH2 0x1953 JUMP JUMPDEST PUSH2 0x1A1A PUSH8 0x5928FA1109FAC6F7 PUSH1 0xC0 SHL PUSH2 0x1953 JUMP JUMPDEST DUP2 PUSH1 0x40 MLOAD PUSH1 0x20 ADD PUSH2 0x1A2B SWAP2 SWAP1 PUSH2 0x243A JUMP JUMPDEST PUSH1 0x40 MLOAD PUSH1 0x20 DUP2 DUP4 SUB SUB DUP2 MSTORE SWAP1 PUSH1 0x40 MSTORE DUP1 MLOAD SWAP1 PUSH1 0x20 ADD KECCAK256 SWAP1 POP SWAP2 SWAP1 POP JUMP JUMPDEST PUSH1 0x1 PUSH1 0x0 PUSH2 0x100 EXP DUP2 SLOAD SWAP1 PUSH20 0xFFFFFFFFFFFFFFFFFFFFFFFFFFFFFFFFFFFFFFFF MUL NOT AND SWAP1 SSTORE PUSH2 0x1A76 DUP2 PUSH2 0x1A84 JUMP JUMPDEST POP JUMP JUMPDEST PUSH1 0x0 PUSH1 0x1 SWAP1 POP SWAP2 SWAP1 POP JUMP JUMPDEST PUSH1 0x0 DUP1 PUSH1 0x0 SWAP1 SLOAD SWAP1 PUSH2 0x100 EXP SWAP1 DIV PUSH20 0xFFFFFFFFFFFFFFFFFFFFFFFFFFFFFFFFFFFFFFFF AND SWAP1 POP DUP2 PUSH1 0x0 DUP1 PUSH2 0x100 EXP DUP2 SLOAD DUP2 PUSH20 0xFFFFFFFFFFFFFFFFFFFFFFFFFFFFFFFFFFFFFFFF MUL NOT AND SWAP1 DUP4 PUSH20 0xFFFFFFFFFFFFFFFFFFFFFFFFFFFFFFFFFFFFFFFF AND MUL OR SWAP1 SSTORE POP DUP2 PUSH20 0xFFFFFFFFFFFFFFFFFFFFFFFFFFFFFFFFFFFFFFFF AND DUP2 PUSH20 0xFFFFFFFFFFFFFFFFFFFFFFFFFFFFFFFFFFFFFFFF AND PUSH32 0x8BE0079C531659141344CD1FD0A4F28419497F9722A3DAAFE3B4186F6B6457E0 PUSH1 0x40 MLOAD PUSH1 0x40 MLOAD DUP1 SWAP2 SUB SWAP1 LOG3 POP POP JUMP JUMPDEST PUSH1 0x0 DUP2 SWAP1 POP SWAP2 SWAP1 POP JUMP JUMPDEST PUSH2 0x1B5B DUP2 PUSH2 0x1B48 JUMP JUMPDEST DUP3 MSTORE POP POP JUMP JUMPDEST PUSH1 0x0 PUSH1 0x20 DUP3 ADD SWAP1 POP PUSH2 0x1B76 PUSH1 0x0 DUP4 ADD DUP5 PUSH2 0x1B52 JUMP JUMPDEST SWAP3 SWAP2 POP POP JUMP JUMPDEST PUSH1 0x0 DUP1 REVERT JUMPDEST PUSH2 0x1B8A DUP2 PUSH2 0x1B48 JUMP JUMPDEST DUP2 EQ PUSH2 0x1B95 JUMPI PUSH1 0x0 DUP1 REVERT JUMPDEST POP JUMP JUMPDEST PUSH1 0x0 DUP2 CALLDATALOAD SWAP1 POP PUSH2 0x1BA7 DUP2 PUSH2 0x1B81 JUMP JUMPDEST SWAP3 SWAP2 POP POP JUMP JUMPDEST PUSH1 0x0 PUSH1 0x20 DUP3 DUP5 SUB SLT ISZERO PUSH2 0x1BC3 JUMPI PUSH2 0x1BC2 PUSH2 0x1B7C JUMP JUMPDEST JUMPDEST PUSH1 0x0 PUSH2 0x1BD1 DUP5 DUP3 DUP6 ADD PUSH2 0x1B98 JUMP JUMPDEST SWAP2 POP POP SWAP3 SWAP2 POP POP JUMP JUMPDEST PUSH1 0x0 PUSH20 0xFFFFFFFFFFFFFFFFFFFFFFFFFFFFFFFFFFFFFFFF DUP3 AND SWAP1 POP SWAP2 SWAP1 POP JUMP JUMPDEST PUSH1 0x0 PUSH2 0x1C05 DUP3 PUSH2 0x1BDA JUMP JUMPDEST SWAP1 POP SWAP2 SWAP1 POP JUMP JUMPDEST PUSH2 0x1C15 DUP2 PUSH2 0x1BFA JUMP JUMPDEST DUP2 EQ PUSH2 0x1C20 JUMPI PUSH1 0x0 DUP1 REVERT JUMPDEST POP JUMP JUMPDEST PUSH1 0x0 DUP2 CALLDATALOAD SWAP1 POP PUSH2 0x1C32 DUP2 PUSH2 0x1C0C JUMP JUMPDEST SWAP3 SWAP2 POP POP JUMP JUMPDEST PUSH1 0x0 DUP2 SWAP1 POP SWAP2 SWAP1 POP JUMP JUMPDEST PUSH2 0x1C4B DUP2 PUSH2 0x1C38 JUMP JUMPDEST DUP2 EQ PUSH2 0x1C56 JUMPI PUSH1 0x0 DUP1 REVERT JUMPDEST POP JUMP JUMPDEST PUSH1 0x0 DUP2 CALLDATALOAD SWAP1 POP PUSH2 0x1C68 DUP2 PUSH2 0x1C42 JUMP JUMPDEST SWAP3 SWAP2 POP POP JUMP JUMPDEST PUSH1 0x0 PUSH1 0xFF DUP3 AND SWAP1 POP SWAP2 SWAP1 POP JUMP JUMPDEST PUSH2 0x1C84 DUP2 PUSH2 0x1C6E JUMP JUMPDEST DUP2 EQ PUSH2 0x1C8F JUMPI PUSH1 0x0 DUP1 REVERT JUMPDEST POP JUMP JUMPDEST PUSH1 0x0 DUP2 CALLDATALOAD SWAP1 POP PUSH2 0x1CA1 DUP2 PUSH2 0x1C7B JUMP JUMPDEST SWAP3 SWAP2 POP POP JUMP JUMPDEST PUSH1 0x0 DUP1 PUSH1 0x0 DUP1 PUSH1 0x0 DUP1 PUSH1 0xC0 DUP8 DUP10 SUB SLT ISZERO PUSH2 0x1CC4 JUMPI PUSH2 0x1CC3 PUSH2 0x1B7C JUMP JUMPDEST JUMPDEST PUSH1 0x0 PUSH2 0x1CD2 DUP10 DUP3 DUP11 ADD PUSH2 0x1C23 JUMP JUMPDEST SWAP7 POP POP PUSH1 0x20 PUSH2 0x1CE3 DUP10 DUP3 DUP11 ADD PUSH2 0x1B98 JUMP JUMPDEST SWAP6 POP POP PUSH1 0x40 PUSH2 0x1CF4 DUP10 DUP3 DUP11 ADD PUSH2 0x1C59 JUMP JUMPDEST SWAP5 POP POP PUSH1 0x60 PUSH2 0x1D05 DUP10 DUP3 DUP11 ADD PUSH2 0x1C92 JUMP JUMPDEST SWAP4 POP POP PUSH1 0x80 PUSH2 0x1D16 DUP10 DUP3 DUP11 ADD PUSH2 0x1C59 JUMP JUMPDEST SWAP3 POP POP PUSH1 0xA0 PUSH2 0x1D27 DUP10 DUP3 DUP11 ADD PUSH2 0x1C59 JUMP JUMPDEST SWAP2 POP POP SWAP3 SWAP6 POP SWAP3 SWAP6 POP SWAP3 SWAP6 JUMP JUMPDEST PUSH1 0x0 DUP1 PUSH1 0x40 DUP4 DUP6 SUB SLT ISZERO PUSH2 0x1D4B JUMPI PUSH2 0x1D4A PUSH2 0x1B7C JUMP JUMPDEST JUMPDEST PUSH1 0x0 PUSH2 0x1D59 DUP6 DUP3 DUP7 ADD PUSH2 0x1B98 JUMP JUMPDEST SWAP3 POP POP PUSH1 0x20 PUSH2 0x1D6A DUP6 DUP3 DUP7 ADD PUSH2 0x1B98 JUMP JUMPDEST SWAP2 POP POP SWAP3 POP SWAP3 SWAP1 POP JUMP JUMPDEST PUSH2 0x1D7D DUP2 PUSH2 0x1BFA JUMP JUMPDEST DUP3 MSTORE POP POP JUMP JUMPDEST PUSH1 0x0 PUSH1 0x20 DUP3 ADD SWAP1 POP PUSH2 0x1D98 PUSH1 0x0 DUP4 ADD DUP5 PUSH2 0x1D74 JUMP JUMPDEST SWAP3 SWAP2 POP POP JUMP JUMPDEST PUSH1 0x0 DUP1 PUSH1 0x0 DUP1 PUSH1 0x0 PUSH1 0xA0 DUP7 DUP9 SUB SLT ISZERO PUSH2 0x1DBA JUMPI PUSH2 0x1DB9 PUSH2 0x1B7C JUMP JUMPDEST JUMPDEST PUSH1 0x0 PUSH2 0x1DC8 DUP9 DUP3 DUP10 ADD PUSH2 0x1B98 JUMP JUMPDEST SWAP6 POP POP PUSH1 0x20 PUSH2 0x1DD9 DUP9 DUP3 DUP10 ADD PUSH2 0x1C59 JUMP JUMPDEST SWAP5 POP POP PUSH1 0x40 PUSH2 0x1DEA DUP9 DUP3 DUP10 ADD PUSH2 0x1C92 JUMP JUMPDEST SWAP4 POP POP PUSH1 0x60 PUSH2 0x1DFB DUP9 DUP3 DUP10 ADD PUSH2 0x1C59 JUMP JUMPDEST SWAP3 POP POP PUSH1 0x80 PUSH2 0x1E0C DUP9 DUP3 DUP10 ADD PUSH2 0x1C59 JUMP JUMPDEST SWAP2 POP POP SWAP3 SWAP6 POP SWAP3 SWAP6 SWAP1 SWAP4 POP JUMP JUMPDEST PUSH1 0x0 PUSH1 0x20 DUP3 DUP5 SUB SLT ISZERO PUSH2 0x1E2F JUMPI PUSH2 0x1E2E PUSH2 0x1B7C JUMP JUMPDEST JUMPDEST PUSH1 0x0 PUSH2 0x1E3D DUP5 DUP3 DUP6 ADD PUSH2 0x1C23 JUMP JUMPDEST SWAP2 POP POP SWAP3 SWAP2 POP POP JUMP JUMPDEST PUSH1 0x0 PUSH1 0x40 DUP3 ADD SWAP1 POP PUSH2 0x1E5B PUSH1 0x0 DUP4 ADD DUP6 PUSH2 0x1B52 JUMP JUMPDEST PUSH2 0x1E68 PUSH1 0x20 DUP4 ADD DUP5 PUSH2 0x1B52 JUMP JUMPDEST SWAP4 SWAP3 POP POP POP JUMP JUMPDEST PUSH1 0x0 DUP2 MLOAD SWAP1 POP PUSH2 0x1E7E DUP2 PUSH2 0x1B81 JUMP JUMPDEST SWAP3 SWAP2 POP POP JUMP JUMPDEST PUSH1 0x0 PUSH1 0x20 DUP3 DUP5 SUB SLT ISZERO PUSH2 0x1E9A JUMPI PUSH2 0x1E99 PUSH2 0x1B7C JUMP JUMPDEST JUMPDEST PUSH1 0x0 PUSH2 0x1EA8 DUP5 DUP3 DUP6 ADD PUSH2 0x1E6F JUMP JUMPDEST SWAP2 POP POP SWAP3 SWAP2 POP POP JUMP JUMPDEST PUSH32 0x4E487B7100000000000000000000000000000000000000000000000000000000 PUSH1 0x0 MSTORE PUSH1 0x11 PUSH1 0x4 MSTORE PUSH1 0x24 PUSH1 0x0 REVERT JUMPDEST PUSH1 0x0 PUSH2 0x1EEB DUP3 PUSH2 0x1B48 JUMP JUMPDEST SWAP2 POP PUSH2 0x1EF6 DUP4 PUSH2 0x1B48 JUMP JUMPDEST SWAP3 POP DUP3 DUP3 SUB SWAP1 POP DUP2 DUP2 GT ISZERO PUSH2 0x1F0E JUMPI PUSH2 0x1F0D PUSH2 0x1EB1 JUMP JUMPDEST JUMPDEST SWAP3 SWAP2 POP POP JUMP JUMPDEST PUSH1 0x0 PUSH1 0x40 DUP3 ADD SWAP1 POP PUSH2 0x1F29 PUSH1 0x0 DUP4 ADD DUP6 PUSH2 0x1D74 JUMP JUMPDEST PUSH2 0x1F36 PUSH1 0x20 DUP4 ADD DUP5 PUSH2 0x1B52 JUMP JUMPDEST SWAP4 SWAP3 POP POP POP JUMP JUMPDEST PUSH1 0x0 DUP2 ISZERO ISZERO SWAP1 POP SWAP2 SWAP1 POP JUMP JUMPDEST PUSH2 0x1F52 DUP2 PUSH2 0x1F3D JUMP JUMPDEST DUP2 EQ PUSH2 0x1F5D JUMPI PUSH1 0x0 DUP1 REVERT JUMPDEST POP JUMP JUMPDEST PUSH1 0x0 DUP2 MLOAD SWAP1 POP PUSH2 0x1F6F DUP2 PUSH2 0x1F49 JUMP JUMPDEST SWAP3 SWAP2 POP POP JUMP JUMPDEST PUSH1 0x0 PUSH1 0x20 DUP3 DUP5 SUB SLT ISZERO PUSH2 0x1F8B JUMPI PUSH2 0x1F8A PUSH2 0x1B7C JUMP JUMPDEST JUMPDEST PUSH1 0x0 PUSH2 0x1F99 DUP5 DUP3 DUP6 ADD PUSH2 0x1F60 JUMP JUMPDEST SWAP2 POP POP SWAP3 SWAP2 POP POP JUMP JUMPDEST PUSH1 0x0 PUSH2 0x1FAD DUP3 PUSH2 0x1B48 JUMP JUMPDEST SWAP2 POP PUSH2 0x1FB8 DUP4 PUSH2 0x1B48 JUMP JUMPDEST SWAP3 POP DUP3 DUP3 ADD SWAP1 POP DUP1 DUP3 GT ISZERO PUSH2 0x1FD0 JUMPI PUSH2 0x1FCF PUSH2 0x1EB1 JUMP JUMPDEST JUMPDEST SWAP3 SWAP2 POP POP JUMP JUMPDEST PUSH1 0x0 PUSH1 0x60 DUP3 ADD SWAP1 POP PUSH2 0x1FEB PUSH1 0x0 DUP4 ADD DUP7 PUSH2 0x1D74 JUMP JUMPDEST PUSH2 0x1FF8 PUSH1 0x20 DUP4 ADD DUP6 PUSH2 0x1D74 JUMP JUMPDEST PUSH2 0x2005 PUSH1 0x40 DUP4 ADD DUP5 PUSH2 0x1B52 JUMP JUMPDEST SWAP5 SWAP4 POP POP POP POP JUMP JUMPDEST PUSH1 0x0 DUP2 SWAP1 POP SWAP3 SWAP2 POP POP JUMP JUMPDEST PUSH32 0x5F5F636F6E76657273696F6E496E000000000000000000000000000000000000 PUSH1 0x0 DUP3 ADD MSTORE POP JUMP JUMPDEST PUSH1 0x0 PUSH2 0x204E PUSH1 0xE DUP4 PUSH2 0x200D JUMP JUMPDEST SWAP2 POP PUSH2 0x2059 DUP3 PUSH2 0x2018 JUMP JUMPDEST PUSH1 0xE DUP3 ADD SWAP1 POP SWAP2 SWAP1 POP JUMP JUMPDEST PUSH1 0x0 DUP2 SWAP1 POP SWAP2 SWAP1 POP JUMP JUMPDEST PUSH2 0x207F PUSH2 0x207A DUP3 PUSH2 0x1B48 JUMP JUMPDEST PUSH2 0x2064 JUMP JUMPDEST DUP3 MSTORE POP POP JUMP JUMPDEST PUSH1 0x0 DUP2 PUSH1 0x60 SHL SWAP1 POP SWAP2 SWAP1 POP JUMP JUMPDEST PUSH1 0x0 PUSH2 0x209D DUP3 PUSH2 0x2085 JUMP JUMPDEST SWAP1 POP SWAP2 SWAP1 POP JUMP JUMPDEST PUSH1 0x0 PUSH2 0x20AF DUP3 PUSH2 0x2092 JUMP JUMPDEST SWAP1 POP SWAP2 SWAP1 POP JUMP JUMPDEST PUSH2 0x20C7 PUSH2 0x20C2 DUP3 PUSH2 0x1BFA JUMP JUMPDEST PUSH2 0x20A4 JUMP JUMPDEST DUP3 MSTORE POP POP JUMP JUMPDEST PUSH1 0x0 DUP2 SWAP1 POP SWAP2 SWAP1 POP JUMP JUMPDEST PUSH2 0x20E8 PUSH2 0x20E3 DUP3 PUSH2 0x1C38 JUMP JUMPDEST PUSH2 0x20CD JUMP JUMPDEST DUP3 MSTORE POP POP JUMP JUMPDEST PUSH1 0x0 DUP2 SWAP1 POP SWAP2 SWAP1 POP JUMP JUMPDEST PUSH1 0x0 PUSH2 0x2113 PUSH2 0x210E PUSH2 0x2109 DUP5 PUSH2 0x1BDA JUMP JUMPDEST PUSH2 0x20EE JUMP JUMPDEST PUSH2 0x1BDA JUMP JUMPDEST SWAP1 POP SWAP2 SWAP1 POP JUMP JUMPDEST PUSH1 0x0 PUSH2 0x2125 DUP3 PUSH2 0x20F8 JUMP JUMPDEST SWAP1 POP SWAP2 SWAP1 POP JUMP JUMPDEST PUSH1 0x0 PUSH2 0x2137 DUP3 PUSH2 0x211A JUMP JUMPDEST SWAP1 POP SWAP2 SWAP1 POP JUMP JUMPDEST PUSH2 0x214F PUSH2 0x214A DUP3 PUSH2 0x212C JUMP JUMPDEST PUSH2 0x20A4 JUMP JUMPDEST DUP3 MSTORE POP POP JUMP JUMPDEST PUSH1 0x0 PUSH2 0x2160 DUP3 PUSH2 0x2041 JUMP JUMPDEST SWAP2 POP PUSH2 0x216C DUP3 DUP8 PUSH2 0x206E JUMP JUMPDEST PUSH1 0x20 DUP3 ADD SWAP2 POP PUSH2 0x217C DUP3 DUP7 PUSH2 0x20B6 JUMP JUMPDEST PUSH1 0x14 DUP3 ADD SWAP2 POP PUSH2 0x218C DUP3 DUP6 PUSH2 0x20D7 JUMP JUMPDEST PUSH1 0x20 DUP3 ADD SWAP2 POP PUSH2 0x219C DUP3 DUP5 PUSH2 0x213E JUMP JUMPDEST PUSH1 0x14 DUP3 ADD SWAP2 POP DUP2 SWAP1 POP SWAP6 SWAP5 POP POP POP POP POP JUMP JUMPDEST PUSH2 0x21B7 DUP2 PUSH2 0x1C38 JUMP JUMPDEST DUP3 MSTORE POP POP JUMP JUMPDEST PUSH2 0x21C6 DUP2 PUSH2 0x1C6E JUMP JUMPDEST DUP3 MSTORE POP POP JUMP JUMPDEST PUSH1 0x0 PUSH1 0x80 DUP3 ADD SWAP1 POP PUSH2 0x21E1 PUSH1 0x0 DUP4 ADD DUP8 PUSH2 0x21AE JUMP JUMPDEST PUSH2 0x21EE PUSH1 0x20 DUP4 ADD DUP7 PUSH2 0x21BD JUMP JUMPDEST PUSH2 0x21FB PUSH1 0x40 DUP4 ADD DUP6 PUSH2 0x21AE JUMP JUMPDEST PUSH2 0x2208 PUSH1 0x60 DUP4 ADD DUP5 PUSH2 0x21AE JUMP JUMPDEST SWAP6 SWAP5 POP POP POP POP POP JUMP JUMPDEST PUSH1 0x0 PUSH1 0x40 DUP3 ADD SWAP1 POP PUSH2 0x2226 PUSH1 0x0 DUP4 ADD DUP6 PUSH2 0x21AE JUMP JUMPDEST PUSH2 0x2233 PUSH1 0x20 DUP4 ADD DUP5 PUSH2 0x1B52 JUMP JUMPDEST SWAP4 SWAP3 POP POP POP JUMP JUMPDEST PUSH1 0x0 DUP3 DUP3 MSTORE PUSH1 0x20 DUP3 ADD SWAP1 POP SWAP3 SWAP2 POP POP JUMP JUMPDEST PUSH32 0x4F776E61626C6532537465703A2063616C6C6572206973206E6F742074686520 PUSH1 0x0 DUP3 ADD MSTORE PUSH32 0x6E6577206F776E65720000000000000000000000000000000000000000000000 PUSH1 0x20 DUP3 ADD MSTORE POP JUMP JUMPDEST PUSH1 0x0 PUSH2 0x22A7 PUSH1 0x29 DUP4 PUSH2 0x223A JUMP JUMPDEST SWAP2 POP PUSH2 0x22B2 DUP3 PUSH2 0x224B JUMP JUMPDEST PUSH1 0x40 DUP3 ADD SWAP1 POP SWAP2 SWAP1 POP JUMP JUMPDEST PUSH1 0x0 PUSH1 0x20 DUP3 ADD SWAP1 POP DUP2 DUP2 SUB PUSH1 0x0 DUP4 ADD MSTORE PUSH2 0x22D6 DUP2 PUSH2 0x229A JUMP JUMPDEST SWAP1 POP SWAP2 SWAP1 POP JUMP JUMPDEST PUSH32 0x5F5F636F6E76657273696F6E4F75740000000000000000000000000000000000 PUSH1 0x0 DUP3 ADD MSTORE POP JUMP JUMPDEST PUSH1 0x0 PUSH2 0x2313 PUSH1 0xF DUP4 PUSH2 0x200D JUMP JUMPDEST SWAP2 POP PUSH2 0x231E DUP3 PUSH2 0x22DD JUMP JUMPDEST PUSH1 0xF DUP3 ADD SWAP1 POP SWAP2 SWAP1 POP JUMP JUMPDEST PUSH1 0x0 PUSH2 0x2334 DUP3 PUSH2 0x2306 JUMP JUMPDEST SWAP2 POP PUSH2 0x2340 DUP3 DUP8 PUSH2 0x206E JUMP JUMPDEST PUSH1 0x20 DUP3 ADD SWAP2 POP PUSH2 0x2350 DUP3 DUP7 PUSH2 0x20B6 JUMP JUMPDEST PUSH1 0x14 DUP3 ADD SWAP2 POP PUSH2 0x2360 DUP3 DUP6 PUSH2 0x20D7 JUMP JUMPDEST PUSH1 0x20 DUP3 ADD SWAP2 POP PUSH2 0x2370 DUP3 DUP5 PUSH2 0x213E JUMP JUMPDEST PUSH1 0x14 DUP3 ADD SWAP2 POP DUP2 SWAP1 POP SWAP6 SWAP5 POP POP POP POP POP JUMP JUMPDEST PUSH32 0x4F776E61626C653A2063616C6C6572206973206E6F7420746865206F776E6572 PUSH1 0x0 DUP3 ADD MSTORE POP JUMP JUMPDEST PUSH1 0x0 PUSH2 0x23B8 PUSH1 0x20 DUP4 PUSH2 0x223A JUMP JUMPDEST SWAP2 POP PUSH2 0x23C3 DUP3 PUSH2 0x2382 JUMP JUMPDEST PUSH1 0x20 DUP3 ADD SWAP1 POP SWAP2 SWAP1 POP JUMP JUMPDEST PUSH1 0x0 PUSH1 0x20 DUP3 ADD SWAP1 POP DUP2 DUP2 SUB PUSH1 0x0 DUP4 ADD MSTORE PUSH2 0x23E7 DUP2 PUSH2 0x23AB JUMP JUMPDEST SWAP1 POP SWAP2 SWAP1 POP JUMP JUMPDEST PUSH32 0x19457468657265756D205369676E6564204D6573736167653A0A333200000000 PUSH1 0x0 DUP3 ADD MSTORE POP JUMP JUMPDEST PUSH1 0x0 PUSH2 0x2424 PUSH1 0x1C DUP4 PUSH2 0x200D JUMP JUMPDEST SWAP2 POP PUSH2 0x242F DUP3 PUSH2 0x23EE JUMP JUMPDEST PUSH1 0x1C DUP3 ADD SWAP1 POP SWAP2 SWAP1 POP JUMP JUMPDEST PUSH1 0x0 PUSH2 0x2445 DUP3 PUSH2 0x2417 JUMP JUMPDEST SWAP2 POP PUSH2 0x2451 DUP3 DUP5 PUSH2 0x20D7 JUMP JUMPDEST PUSH1 0x20 DUP3 ADD SWAP2 POP DUP2 SWAP1 POP SWAP3 SWAP2 POP POP JUMP INVALID LOG2 PUSH5 0x6970667358 0x22 SLT KECCAK256 0x2D 0xE9 PUSH22 0xA774A82480DEE331FB3DAB3A26ABE6A0EC7F1FA4FDA3 0x2A ISZERO SELFDESTRUCT 0x4F PUSH27 0x8AE264736F6C634300081A00330000000000000000000000000000 "},"methodIdentifiers":{"acceptOwnership()":"79ba5097","conversionIn(address,uint256,bytes32,uint8,bytes32,bytes32)":"6a02fcc4","conversionOut(uint256,bytes32,uint8,bytes32,bytes32)":"9f23c9e2","decreaseConverterLiquidity(uint256)":"4d9f2265","getConversionAuthorizer()":"c72304ac","getConversionConfigurations()":"feea1529","getConverterBalance()":"2a34e861","increaseConverterLiquidity(uint256)":"637eaa4d","owner()":"8da5cb5b","pendingOwner()":"e30c3978","renounceOwnership()":"715018a6","transferOwnership(address)":"f2fde38b","updateAuthorizer(address)":"e0a66578","updateConfigurations(uint256,uint256)":"76f0a62f"}}}}}