{
  "_format": "hh-sol-artifact-1",
  "contractName": "TokenConversionManagerV3",
  "sourceName": "contracts/TokenConversionManagerV3.sol",
  "abi": [
    {
      "inputs": [
        {
          "internalType": "address",
          "name": "token",
          "type": "address"
        }
      ],
      "stateMutability": "nonpayable",
      "type": "constructor"
    },
    {
      "inputs": [],
      "name": "ConversionFailed",
      "type": "error"
    },
    {
      "inputs": [],
      "name": "DecreaseLiquidityFailed",
      "type": "error"
    },
    {
      "inputs": [],
      "name": "IncreaseLiquidityFailed",
      "type": "error"
    },
    {
      "inputs": [],
      "name": "InsufficientConverterBalance",
      "type": "error"
    },
    {
      "inputs": [],
      "name": "InsufficientLiquidityBalance",
      "type": "error"
    },
    {
      "inputs": [],
      "name": "InvalidRequestOrSignature",
      "type": "error"
    },
    {
      "inputs": [],
      "name": "InvalidUpdateConfigurations",
      "type": "error"
    },
    {
      "inputs": [],
      "name": "UsedSignature",
      "type": "error"
    },
    {
      "inputs": [],
      "name": "ViolationOfTxAmountLimits",
      "type": "error"
    },
    {
      "inputs": [],
      "name": "WithdrawExceedsDeposit",
      "type": "error"
    },
    {
      "inputs": [],
      "name": "ZeroAddress",
      "type": "error"
    },
    {
      "anonymous": false,
      "inputs": [
        {
          "indexed": true,
          "internalType": "address",
          "name": "tokenHolder",
          "type": "address"
        },
        {
          "indexed": false,
          "internalType": "bytes32",
          "name": "conversionId",
          "type": "bytes32"
        },
        {
          "indexed": false,
          "internalType": "uint256",
          "name": "amount",
          "type": "uint256"
        }
      ],
      "name": "ConversionIn",
      "type": "event"
    },
    {
      "anonymous": false,
      "inputs": [
        {
          "indexed": true,
          "internalType": "address",
          "name": "tokenHolder",
          "type": "address"
        },
        {
          "indexed": false,
          "internalType": "bytes32",
          "name": "conversionId",
          "type": "bytes32"
        },
        {
          "indexed": false,
          "internalType": "uint256",
          "name": "amount",
          "type": "uint256"
        }
      ],
      "name": "ConversionOut",
      "type": "event"
    },
    {
      "anonymous": false,
      "inputs": [
        {
          "indexed": false,
          "internalType": "uint256",
          "name": "removed",
          "type": "uint256"
        },
        {
          "indexed": false,
          "internalType": "uint256",
          "name": "totalLiquidity",
          "type": "uint256"
        }
      ],
      "name": "DecreaseLiquidity",
      "type": "event"
    },
    {
      "anonymous": false,
      "inputs": [
        {
          "indexed": false,
          "internalType": "uint256",
          "name": "added",
          "type": "uint256"
        },
        {
          "indexed": false,
          "internalType": "uint256",
          "name": "totalLiquidity",
          "type": "uint256"
        }
      ],
      "name": "IncreaseLiquidity",
      "type": "event"
    },
    {
      "anonymous": false,
      "inputs": [
        {
          "indexed": false,
          "internalType": "address",
          "name": "conversionAuthorizer",
          "type": "address"
        }
      ],
      "name": "NewAuthorizer",
      "type": "event"
    },
    {
      "anonymous": false,
      "inputs": [
        {
          "indexed": true,
          "internalType": "address",
          "name": "previousOwner",
          "type": "address"
        },
        {
          "indexed": true,
          "internalType": "address",
          "name": "newOwner",
          "type": "address"
        }
      ],
      "name": "OwnershipTransferStarted",
      "type": "event"
    },
    {
      "anonymous": false,
      "inputs": [
        {
          "indexed": true,
          "internalType": "address",
          "name": "previousOwner",
          "type": "address"
        },
        {
          "indexed": true,
          "internalType": "address",
          "name": "newOwner",
          "type": "address"
        }
      ],
      "name": "OwnershipTransferred",
      "type": "event"
    },
    {
      "anonymous": false,
      "inputs": [
        {
          "indexed": false,
          "internalType": "uint256",
          "name": "perTxnMinAmount",
          "type": "uint256"
        },
        {
          "indexed": false,
          "internalType": "uint256",
          "name": "perTxnMaxAmount",
          "type": "uint256"
        },
        {
          "indexed": false,
          "internalType": "uint256",
          "name": "maxSupply",
          "type": "uint256"
        }
      ],
      "name": "UpdateConfiguration",
      "type": "event"
    },
    {
      "inputs": [],
      "name": "acceptOwnership",
      "outputs": [],
      "stateMutability": "nonpayable",
      "type": "function"
    },
    {
      "inputs": [
        {
          "internalType": "address",
          "name": "to",
          "type": "address"
        },
        {
          "internalType": "uint256",
          "name": "amount",
          "type": "uint256"
        },
        {
          "internalType": "bytes32",
          "name": "conversionId",
          "type": "bytes32"
        },
        {
          "internalType": "uint8",
          "name": "v",
          "type": "uint8"
        },
        {
          "internalType": "bytes32",
          "name": "r",
          "type": "bytes32"
        },
        {
          "internalType": "bytes32",
          "name": "s",
          "type": "bytes32"
        }
      ],
      "name": "conversionIn",
      "outputs": [],
      "stateMutability": "payable",
      "type": "function"
    },
    {
      "inputs": [
        {
          "internalType": "uint256",
          "name": "amount",
          "type": "uint256"
        },
        {
          "internalType": "bytes32",
          "name": "conversionId",
          "type": "bytes32"
        },
        {
          "internalType": "uint8",
          "name": "v",
          "type": "uint8"
        },
        {
          "internalType": "bytes32",
          "name": "r",
          "type": "bytes32"
        },
        {
          "internalType": "bytes32",
          "name": "s",
          "type": "bytes32"
        }
      ],
      "name": "conversionOut",
      "outputs": [],
      "stateMutability": "payable",
      "type": "function"
    },
    {
      "inputs": [
        {
          "internalType": "uint256",
          "name": "amount",
          "type": "uint256"
        }
      ],
      "name": "decreaseConverterLiquidity",
      "outputs": [],
      "stateMutability": "nonpayable",
      "type": "function"
    },
    {
      "inputs": [],
      "name": "getConversionAuthorizer",
      "outputs": [
        {
          "internalType": "address",
          "name": "",
          "type": "address"
        }
      ],
      "stateMutability": "view",
      "type": "function"
    },
    {
      "inputs": [],
      "name": "getConversionConfigurations",
      "outputs": [
        {
          "internalType": "uint256",
          "name": "",
          "type": "uint256"
        },
        {
          "internalType": "uint256",
          "name": "",
          "type": "uint256"
        },
        {
          "internalType": "uint256",
          "name": "",
          "type": "uint256"
        }
      ],
      "stateMutability": "view",
      "type": "function"
    },
    {
      "inputs": [],
      "name": "getConverterBalance",
      "outputs": [
        {
          "internalType": "uint256",
          "name": "",
          "type": "uint256"
        }
      ],
      "stateMutability": "view",
      "type": "function"
    },
    {
      "inputs": [
        {
          "internalType": "uint256",
          "name": "amount",
          "type": "uint256"
        }
      ],
      "name": "increaseConverterLiquidity",
      "outputs": [],
      "stateMutability": "nonpayable",
      "type": "function"
    },
    {
      "inputs": [],
      "name": "owner",
      "outputs": [
        {
          "internalType": "address",
          "name": "",
          "type": "address"
        }
      ],
      "stateMutability": "view",
      "type": "function"
    },
    {
      "inputs": [],
      "name": "pendingOwner",
      "outputs": [
        {
          "internalType": "address",
          "name": "",
          "type": "address"
        }
      ],
      "stateMutability": "view",
      "type": "function"
    },
    {
      "inputs": [],
      "name": "renounceOwnership",
      "outputs": [],
      "stateMutability": "nonpayable",
      "type": "function"
    },
    {
      "inputs": [
        {
          "internalType": "address",
          "name": "newOwner",
          "type": "address"
        }
      ],
      "name": "transferOwnership",
      "outputs": [],
      "stateMutability": "nonpayable",
      "type": "function"
    },
    {
      "inputs": [
        {
          "internalType": "address",
          "name": "newAuthorizer",
          "type": "address"
        }
      ],
      "name": "updateAuthorizer",
      "outputs": [],
      "stateMutability": "nonpayable",
      "type": "function"
    },
    {
      "inputs": [
        {
          "internalType": "uint256",
          "name": "perTxnMinAmount",
          "type": "uint256"
        },
        {
          "internalType": "uint256",
          "name": "perTxnMaxAmount",
          "type": "uint256"
        },
        {
          "internalType": "uint256",
          "name": "maxSupply",
          "type": "uint256"
        }
      ],
      "name": "updateConfigurations",
      "outputs": [],
      "stateMutability": "nonpayable",
      "type": "function"
    }
  ],
  "bytecode": "0x60a060405234801561001057600080fd5b506040516121a43803806121a483398181016040528101906100329190610244565b61004e6100436100de60201b60201c565b6100e660201b60201c565b60016002819055508073ffffffffffffffffffffffffffffffffffffffff1660808173ffffffffffffffffffffffffffffffffffffffff16815250506100986100de60201b60201c565b600360006101000a81548173ffffffffffffffffffffffffffffffffffffffff021916908373ffffffffffffffffffffffffffffffffffffffff16021790555050610271565b600033905090565b600160006101000a81549073ffffffffffffffffffffffffffffffffffffffff021916905561011a8161011d60201b60201c565b50565b60008060009054906101000a900473ffffffffffffffffffffffffffffffffffffffff169050816000806101000a81548173ffffffffffffffffffffffffffffffffffffffff021916908373ffffffffffffffffffffffffffffffffffffffff1602179055508173ffffffffffffffffffffffffffffffffffffffff168173ffffffffffffffffffffffffffffffffffffffff167f8be0079c531659141344cd1fd0a4f28419497f9722a3daafe3b4186f6b6457e060405160405180910390a35050565b600080fd5b600073ffffffffffffffffffffffffffffffffffffffff82169050919050565b6000610211826101e6565b9050919050565b61022181610206565b811461022c57600080fd5b50565b60008151905061023e81610218565b92915050565b60006020828403121561025a576102596101e1565b5b60006102688482850161022f565b91505092915050565b608051611efc6102a8600039600081816102f20152818161046d015281816106bd01528181610ad20152610f250152611efc6000f3fe6080604052600436106100dd5760003560e01c80638da5cb5b1161007f578063e0a6657811610059578063e0a6657814610244578063e30c39781461026d578063f2fde38b14610298578063feea1529146102c1576100dd565b80638da5cb5b146101d25780639f23c9e2146101fd578063c72304ac14610219576100dd565b8063637eaa4d116100bb578063637eaa4d1461015f5780636a02fcc414610188578063715018a6146101a457806379ba5097146101bb576100dd565b80632a34e861146100e25780634d9f22651461010d578063529c097014610136575b600080fd5b3480156100ee57600080fd5b506100f76102ee565b60405161010491906114ee565b60405180910390f35b34801561011957600080fd5b50610134600480360381019061012f919061153a565b61038f565b005b34801561014257600080fd5b5061015d60048036038101906101589190611567565b6105ea565b005b34801561016b57600080fd5b506101866004803603810190610181919061153a565b610698565b005b6101a2600480360381019061019d9190611687565b61083c565b005b3480156101b057600080fd5b506101b9610c6d565b005b3480156101c757600080fd5b506101d0610c81565b005b3480156101de57600080fd5b506101e7610d0e565b6040516101f49190611723565b60405180910390f35b6102176004803603810190610212919061173e565b610d37565b005b34801561022557600080fd5b5061022e6110ce565b60405161023b9190611723565b60405180910390f35b34801561025057600080fd5b5061026b600480360381019061026691906117b9565b6110f8565b005b34801561027957600080fd5b506102826111e3565b60405161028f9190611723565b60405180910390f35b3480156102a457600080fd5b506102bf60048036038101906102ba91906117b9565b61120d565b005b3480156102cd57600080fd5b506102d66112ba565b6040516102e5939291906117e6565b60405180910390f35b60007f000000000000000000000000000000000000000000000000000000000000000073ffffffffffffffffffffffffffffffffffffffff166370a08231306040518263ffffffff1660e01b81526004016103499190611723565b602060405180830381865afa158015610366573d6000803e3d6000fd5b505050506040513d601f19601f8201168201806040525081019061038a9190611832565b905090565b6103976112d3565b6000600854036103d3576040517f98e7913600000000000000000000000000000000000000000000000000000000815260040160405180910390fd5b60085481111561040f576040517f31a581eb00000000000000000000000000000000000000000000000000000000815260040160405180910390fd5b806104186102ee565b1015610450576040517f3b4930bd00000000000000000000000000000000000000000000000000000000815260040160405180910390fd5b8060086000828254610462919061188e565b9250508190555060007f000000000000000000000000000000000000000000000000000000000000000073ffffffffffffffffffffffffffffffffffffffff1663a9059cbb60e01b6104b2611351565b846040516024016104c49291906118c2565b604051602081830303815290604052907bffffffffffffffffffffffffffffffffffffffffffffffffffffffff19166020820180517bffffffffffffffffffffffffffffffffffffffffffffffffffffffff838183161783525050505060405161052e919061195c565b6000604051808303816000865af19150503d806000811461056b576040519150601f19603f3d011682016040523d82523d6000602084013e610570565b606091505b50509050806105ab576040517fa5bc7c4700000000000000000000000000000000000000000000000000000000815260040160405180910390fd5b7fdef4f5c5c7516369cb5aaa162fdf3f2c750a1c81c0fe3dfd9a47a97393cdafcf826008546040516105de929190611973565b60405180910390a15050565b6105f26112d3565b60008314806106015750828211155b8061060c5750600081145b15610643576040517f0eca686c00000000000000000000000000000000000000000000000000000000815260040160405180910390fd5b8260058190555081600681905550806007819055507fb2efb0aa6e279553a1e5567ebb495d322192aa43c5fc3073cba4601d52009ab483838360405161068b939291906117e6565b60405180910390a1505050565b6106a06112d3565b80600860008282546106b2919061199c565b9250508190555060007f000000000000000000000000000000000000000000000000000000000000000073ffffffffffffffffffffffffffffffffffffffff166323b872dd60e01b610702611351565b3085604051602401610716939291906119d0565b604051602081830303815290604052907bffffffffffffffffffffffffffffffffffffffffffffffffffffffff19166020820180517bffffffffffffffffffffffffffffffffffffffffffffffffffffffff8381831617835250505050604051610780919061195c565b6000604051808303816000865af19150503d80600081146107bd576040519150601f19603f3d011682016040523d82523d6000602084013e6107c2565b606091505b50509050806107fd576040517f8ffe12fd00000000000000000000000000000000000000000000000000000000815260040160405180910390fd5b7faf0e92ed9a06daf8b906385b588b940a355de1516517e37e03bcb3bacf9b966482600854604051610830929190611973565b60405180910390a15050565b8460055481108061084e575060065481115b15610885576040517f17dfb4ac00000000000000000000000000000000000000000000000000000000815260040160405180910390fd5b61088d611359565b86600073ffffffffffffffffffffffffffffffffffffffff168173ffffffffffffffffffffffffffffffffffffffff16036108f4576040517fd92e233d00000000000000000000000000000000000000000000000000000000815260040160405180910390fd5b600061093288610902611351565b89306040516020016109179493929190611b4f565b604051602081830303815290604052805190602001206113a6565b9050600360009054906101000a900473ffffffffffffffffffffffffffffffffffffffff1673ffffffffffffffffffffffffffffffffffffffff16600182888888604051600081526020016040526040516109909493929190611bc6565b6020604051602081039080840390855afa1580156109b2573d6000803e3d6000fd5b5050506020604051035173ffffffffffffffffffffffffffffffffffffffff1614610a09576040517fa7a059bc00000000000000000000000000000000000000000000000000000000815260040160405180910390fd5b6004600082815260200190815260200160002060009054906101000a900460ff1615610a61576040517fcce9a82400000000000000000000000000000000000000000000000000000000815260040160405180910390fd5b60016004600083815260200190815260200160002060006101000a81548160ff02191690831515021790555087610a966102ee565b1015610ace576040517f3b4930bd00000000000000000000000000000000000000000000000000000000815260040160405180910390fd5b60007f000000000000000000000000000000000000000000000000000000000000000073ffffffffffffffffffffffffffffffffffffffff1663a9059cbb60e01b8b8b604051602401610b229291906118c2565b604051602081830303815290604052907bffffffffffffffffffffffffffffffffffffffffffffffffffffffff19166020820180517bffffffffffffffffffffffffffffffffffffffffffffffffffffffff8381831617835250505050604051610b8c919061195c565b6000604051808303816000865af19150503d8060008114610bc9576040519150601f19603f3d011682016040523d82523d6000602084013e610bce565b606091505b5050905080610c09576040517f384ec20400000000000000000000000000000000000000000000000000000000815260040160405180910390fd5b8973ffffffffffffffffffffffffffffffffffffffff167f62a9b3e6446ab559d6b82c4f02cc923cd3b4e47444ef86446dab81a4d781c5af898b604051610c51929190611c0b565b60405180910390a2505050610c646113d6565b50505050505050565b610c756112d3565b610c7f60006113e0565b565b6000610c8b611351565b90508073ffffffffffffffffffffffffffffffffffffffff16610cac6111e3565b73ffffffffffffffffffffffffffffffffffffffff1614610d02576040517f08c379a0000000000000000000000000000000000000000000000000000000008152600401610cf990611cb7565b60405180910390fd5b610d0b816113e0565b50565b60008060009054906101000a900473ffffffffffffffffffffffffffffffffffffffff16905090565b84600554811080610d49575060065481115b15610d80576040517f17dfb4ac00000000000000000000000000000000000000000000000000000000815260040160405180910390fd5b610d88611359565b6000610dc687610d96611351565b8830604051602001610dab9493929190611d23565b604051602081830303815290604052805190602001206113a6565b9050600360009054906101000a900473ffffffffffffffffffffffffffffffffffffffff1673ffffffffffffffffffffffffffffffffffffffff1660018287878760405160008152602001604052604051610e249493929190611bc6565b6020604051602081039080840390855afa158015610e46573d6000803e3d6000fd5b5050506020604051035173ffffffffffffffffffffffffffffffffffffffff1614610e9d576040517fa7a059bc00000000000000000000000000000000000000000000000000000000815260040160405180910390fd5b6004600082815260200190815260200160002060009054906101000a900460ff1615610ef5576040517fcce9a82400000000000000000000000000000000000000000000000000000000815260040160405180910390fd5b60016004600083815260200190815260200160002060006101000a81548160ff02191690831515021790555060007f000000000000000000000000000000000000000000000000000000000000000073ffffffffffffffffffffffffffffffffffffffff166323b872dd60e01b610f6a611351565b308b604051602401610f7e939291906119d0565b604051602081830303815290604052907bffffffffffffffffffffffffffffffffffffffffffffffffffffffff19166020820180517bffffffffffffffffffffffffffffffffffffffffffffffffffffffff8381831617835250505050604051610fe8919061195c565b6000604051808303816000865af19150503d8060008114611025576040519150601f19603f3d011682016040523d82523d6000602084013e61102a565b606091505b5050905080611065576040517f384ec20400000000000000000000000000000000000000000000000000000000815260040160405180910390fd5b61106d611351565b73ffffffffffffffffffffffffffffffffffffffff167fb999b06746a947f1958636b9b9377ae814fe578413dfffd4d3a7a96196fe02fc888a6040516110b4929190611c0b565b60405180910390a250506110c66113d6565b505050505050565b6000600360009054906101000a900473ffffffffffffffffffffffffffffffffffffffff16905090565b80600073ffffffffffffffffffffffffffffffffffffffff168173ffffffffffffffffffffffffffffffffffffffff160361115f576040517fd92e233d00000000000000000000000000000000000000000000000000000000815260040160405180910390fd5b6111676112d3565b81600360006101000a81548173ffffffffffffffffffffffffffffffffffffffff021916908373ffffffffffffffffffffffffffffffffffffffff1602179055507f08f53e6a9fbc3949bc0b9266bbe1927f0b282a34d92876ccbe188c24d17c6cbb826040516111d79190611723565b60405180910390a15050565b6000600160009054906101000a900473ffffffffffffffffffffffffffffffffffffffff16905090565b6112156112d3565b80600160006101000a81548173ffffffffffffffffffffffffffffffffffffffff021916908373ffffffffffffffffffffffffffffffffffffffff1602179055508073ffffffffffffffffffffffffffffffffffffffff16611275610d0e565b73ffffffffffffffffffffffffffffffffffffffff167f38d16b8cac22d99fc7c124b9cd0de2d3fa1faef420bfe791d8c362d765e2270060405160405180910390a350565b6000806000600554600654600754925092509250909192565b6112db611351565b73ffffffffffffffffffffffffffffffffffffffff166112f9610d0e565b73ffffffffffffffffffffffffffffffffffffffff161461134f576040517f08c379a000000000000000000000000000000000000000000000000000000000815260040161134690611dc8565b60405180910390fd5b565b600033905090565b600280540361139d576040517f08c379a000000000000000000000000000000000000000000000000000000000815260040161139490611e34565b60405180910390fd5b60028081905550565b6000816040516020016113b99190611ea0565b604051602081830303815290604052805190602001209050919050565b6001600281905550565b600160006101000a81549073ffffffffffffffffffffffffffffffffffffffff021916905561140e81611411565b50565b60008060009054906101000a900473ffffffffffffffffffffffffffffffffffffffff169050816000806101000a81548173ffffffffffffffffffffffffffffffffffffffff021916908373ffffffffffffffffffffffffffffffffffffffff1602179055508173ffffffffffffffffffffffffffffffffffffffff168173ffffffffffffffffffffffffffffffffffffffff167f8be0079c531659141344cd1fd0a4f28419497f9722a3daafe3b4186f6b6457e060405160405180910390a35050565b6000819050919050565b6114e8816114d5565b82525050565b600060208201905061150360008301846114df565b92915050565b600080fd5b611517816114d5565b811461152257600080fd5b50565b6000813590506115348161150e565b92915050565b6000602082840312156115505761154f611509565b5b600061155e84828501611525565b91505092915050565b6000806000606084860312156115805761157f611509565b5b600061158e86828701611525565b935050602061159f86828701611525565b92505060406115b086828701611525565b9150509250925092565b600073ffffffffffffffffffffffffffffffffffffffff82169050919050565b60006115e5826115ba565b9050919050565b6115f5816115da565b811461160057600080fd5b50565b600081359050611612816115ec565b92915050565b6000819050919050565b61162b81611618565b811461163657600080fd5b50565b60008135905061164881611622565b92915050565b600060ff82169050919050565b6116648161164e565b811461166f57600080fd5b50565b6000813590506116818161165b565b92915050565b60008060008060008060c087890312156116a4576116a3611509565b5b60006116b289828a01611603565b96505060206116c389828a01611525565b95505060406116d489828a01611639565b94505060606116e589828a01611672565b93505060806116f689828a01611639565b92505060a061170789828a01611639565b9150509295509295509295565b61171d816115da565b82525050565b60006020820190506117386000830184611714565b92915050565b600080600080600060a0868803121561175a57611759611509565b5b600061176888828901611525565b955050602061177988828901611639565b945050604061178a88828901611672565b935050606061179b88828901611639565b92505060806117ac88828901611639565b9150509295509295909350565b6000602082840312156117cf576117ce611509565b5b60006117dd84828501611603565b91505092915050565b60006060820190506117fb60008301866114df565b61180860208301856114df565b61181560408301846114df565b949350505050565b60008151905061182c8161150e565b92915050565b60006020828403121561184857611847611509565b5b60006118568482850161181d565b91505092915050565b7f4e487b7100000000000000000000000000000000000000000000000000000000600052601160045260246000fd5b6000611899826114d5565b91506118a4836114d5565b92508282039050818111156118bc576118bb61185f565b5b92915050565b60006040820190506118d76000830185611714565b6118e460208301846114df565b9392505050565b600081519050919050565b600081905092915050565b60005b8381101561191f578082015181840152602081019050611904565b60008484015250505050565b6000611936826118eb565b61194081856118f6565b9350611950818560208601611901565b80840191505092915050565b6000611968828461192b565b915081905092915050565b600060408201905061198860008301856114df565b61199560208301846114df565b9392505050565b60006119a7826114d5565b91506119b2836114d5565b92508282019050808211156119ca576119c961185f565b5b92915050565b60006060820190506119e56000830186611714565b6119f26020830185611714565b6119ff60408301846114df565b949350505050565b600081905092915050565b7f5f5f636f6e76657273696f6e496e000000000000000000000000000000000000600082015250565b6000611a48600e83611a07565b9150611a5382611a12565b600e82019050919050565b6000819050919050565b611a79611a74826114d5565b611a5e565b82525050565b60008160601b9050919050565b6000611a9782611a7f565b9050919050565b6000611aa982611a8c565b9050919050565b611ac1611abc826115da565b611a9e565b82525050565b6000819050919050565b611ae2611add82611618565b611ac7565b82525050565b6000819050919050565b6000611b0d611b08611b03846115ba565b611ae8565b6115ba565b9050919050565b6000611b1f82611af2565b9050919050565b6000611b3182611b14565b9050919050565b611b49611b4482611b26565b611a9e565b82525050565b6000611b5a82611a3b565b9150611b668287611a68565b602082019150611b768286611ab0565b601482019150611b868285611ad1565b602082019150611b968284611b38565b60148201915081905095945050505050565b611bb181611618565b82525050565b611bc08161164e565b82525050565b6000608082019050611bdb6000830187611ba8565b611be86020830186611bb7565b611bf56040830185611ba8565b611c026060830184611ba8565b95945050505050565b6000604082019050611c206000830185611ba8565b611c2d60208301846114df565b9392505050565b600082825260208201905092915050565b7f4f776e61626c6532537465703a2063616c6c6572206973206e6f74207468652060008201527f6e6577206f776e65720000000000000000000000000000000000000000000000602082015250565b6000611ca1602983611c34565b9150611cac82611c45565b604082019050919050565b60006020820190508181036000830152611cd081611c94565b9050919050565b7f5f5f636f6e76657273696f6e4f75740000000000000000000000000000000000600082015250565b6000611d0d600f83611a07565b9150611d1882611cd7565b600f82019050919050565b6000611d2e82611d00565b9150611d3a8287611a68565b602082019150611d4a8286611ab0565b601482019150611d5a8285611ad1565b602082019150611d6a8284611b38565b60148201915081905095945050505050565b7f4f776e61626c653a2063616c6c6572206973206e6f7420746865206f776e6572600082015250565b6000611db2602083611c34565b9150611dbd82611d7c565b602082019050919050565b60006020820190508181036000830152611de181611da5565b9050919050565b7f5265656e7472616e637947756172643a207265656e7472616e742063616c6c00600082015250565b6000611e1e601f83611c34565b9150611e2982611de8565b602082019050919050565b60006020820190508181036000830152611e4d81611e11565b9050919050565b7f19457468657265756d205369676e6564204d6573736167653a0a333200000000600082015250565b6000611e8a601c83611a07565b9150611e9582611e54565b601c82019050919050565b6000611eab82611e7d565b9150611eb78284611ad1565b6020820191508190509291505056fea264697066735822122064aa29e186bbc63f2f8f8256a97c2069789d27520b2308edc45ee933df83a21664736f6c634300081a0033",
  "linkReferences": {},
  "deployedLinkReferences": {}
}