{
  "_format": "hh-sol-artifact-1",
  "contractName": "TokenConversionManagerV3",
  "sourceName": "contracts/TokenConversionManagerV3.sol",
  "abi": [
    {
      "inputs": [
        {
          "internalType": "address",
          "name": "token",
          "type": "address"
        }
      ],
      "stateMutability": "nonpayable",
      "type": "constructor"
    },
    {
      "inputs": [],
      "name": "InsufficientConverterBalance",
      "type": "error"
    },
    {
      "inputs": [],
      "name": "InsufficientLiquidityBalance",
      "type": "error"
    },
    {
      "inputs": [],
      "name": "InvalidRequestOrSignature",
      "type": "error"
    },
    {
      "inputs": [],
      "name": "InvalidUpdateConfigurations",
      "type": "error"
    },
    {
      "inputs": [],
      "name": "UsedSignature",
      "type": "error"
    },
    {
      "inputs": [],
      "name": "ViolationOfTxAmountLimits",
      "type": "error"
    },
    {
      "inputs": [],
      "name": "WithdrawExceedsDeposit",
      "type": "error"
    },
    {
      "inputs": [],
      "name": "ZeroAddress",
      "type": "error"
    },
    {
      "anonymous": false,
      "inputs": [
        {
          "indexed": true,
          "internalType": "address",
          "name": "tokenHolder",
          "type": "address"
        },
        {
          "indexed": false,
          "internalType": "bytes32",
          "name": "conversionId",
          "type": "bytes32"
        },
        {
          "indexed": false,
          "internalType": "uint256",
          "name": "amount",
          "type": "uint256"
        }
      ],
      "name": "ConversionIn",
      "type": "event"
    },
    {
      "anonymous": false,
      "inputs": [
        {
          "indexed": true,
          "internalType": "address",
          "name": "tokenHolder",
          "type": "address"
        },
        {
          "indexed": false,
          "internalType": "bytes32",
          "name": "conversionId",
          "type": "bytes32"
        },
        {
          "indexed": false,
          "internalType": "uint256",
          "name": "amount",
          "type": "uint256"
        }
      ],
      "name": "ConversionOut",
      "type": "event"
    },
    {
      "anonymous": false,
      "inputs": [
        {
          "indexed": false,
          "internalType": "uint256",
          "name": "removed",
          "type": "uint256"
        },
        {
          "indexed": false,
          "internalType": "uint256",
          "name": "totalLiquidity",
          "type": "uint256"
        }
      ],
      "name": "DecreaseLiquidity",
      "type": "event"
    },
    {
      "anonymous": false,
      "inputs": [
        {
          "indexed": false,
          "internalType": "uint256",
          "name": "added",
          "type": "uint256"
        },
        {
          "indexed": false,
          "internalType": "uint256",
          "name": "totalLiquidity",
          "type": "uint256"
        }
      ],
      "name": "IncreaseLiquidity",
      "type": "event"
    },
    {
      "anonymous": false,
      "inputs": [
        {
          "indexed": false,
          "internalType": "address",
          "name": "conversionAuthorizer",
          "type": "address"
        }
      ],
      "name": "NewAuthorizer",
      "type": "event"
    },
    {
      "anonymous": false,
      "inputs": [
        {
          "indexed": true,
          "internalType": "address",
          "name": "previousOwner",
          "type": "address"
        },
        {
          "indexed": true,
          "internalType": "address",
          "name": "newOwner",
          "type": "address"
        }
      ],
      "name": "OwnershipTransferStarted",
      "type": "event"
    },
    {
      "anonymous": false,
      "inputs": [
        {
          "indexed": true,
          "internalType": "address",
          "name": "previousOwner",
          "type": "address"
        },
        {
          "indexed": true,
          "internalType": "address",
          "name": "newOwner",
          "type": "address"
        }
      ],
      "name": "OwnershipTransferred",
      "type": "event"
    },
    {
      "anonymous": false,
      "inputs": [
        {
          "indexed": false,
          "internalType": "uint256",
          "name": "perTxnMinAmount",
          "type": "uint256"
        },
        {
          "indexed": false,
          "internalType": "uint256",
          "name": "perTxnMaxAmount",
          "type": "uint256"
        }
      ],
      "name": "UpdateConfiguration",
      "type": "event"
    },
    {
      "inputs": [],
      "name": "acceptOwnership",
      "outputs": [],
      "stateMutability": "nonpayable",
      "type": "function"
    },
    {
      "inputs": [
        {
          "internalType": "address",
          "name": "to",
          "type": "address"
        },
        {
          "internalType": "uint256",
          "name": "amount",
          "type": "uint256"
        },
        {
          "internalType": "bytes32",
          "name": "conversionId",
          "type": "bytes32"
        },
        {
          "internalType": "uint8",
          "name": "v",
          "type": "uint8"
        },
        {
          "internalType": "bytes32",
          "name": "r",
          "type": "bytes32"
        },
        {
          "internalType": "bytes32",
          "name": "s",
          "type": "bytes32"
        }
      ],
      "name": "conversionIn",
      "outputs": [],
      "stateMutability": "nonpayable",
      "type": "function"
    },
    {
      "inputs": [
        {
          "internalType": "uint256",
          "name": "amount",
          "type": "uint256"
        },
        {
          "internalType": "bytes32",
          "name": "conversionId",
          "type": "bytes32"
        },
        {
          "internalType": "uint8",
          "name": "v",
          "type": "uint8"
        },
        {
          "internalType": "bytes32",
          "name": "r",
          "type": "bytes32"
        },
        {
          "internalType": "bytes32",
          "name": "s",
          "type": "bytes32"
        }
      ],
      "name": "conversionOut",
      "outputs": [],
      "stateMutability": "nonpayable",
      "type": "function"
    },
    {
      "inputs": [
        {
          "internalType": "uint256",
          "name": "amount",
          "type": "uint256"
        }
      ],
      "name": "decreaseConverterLiquidity",
      "outputs": [],
      "stateMutability": "nonpayable",
      "type": "function"
    },
    {
      "inputs": [],
      "name": "getConversionAuthorizer",
      "outputs": [
        {
          "internalType": "address",
          "name": "",
          "type": "address"
        }
      ],
      "stateMutability": "view",
      "type": "function"
    },
    {
      "inputs": [],
      "name": "getConversionConfigurations",
      "outputs": [
        {
          "internalType": "uint256",
          "name": "",
          "type": "uint256"
        },
        {
          "internalType": "uint256",
          "name": "",
          "type": "uint256"
        }
      ],
      "stateMutability": "view",
      "type": "function"
    },
    {
      "inputs": [],
      "name": "getConverterBalance",
      "outputs": [
        {
          "internalType": "uint256",
          "name": "",
          "type": "uint256"
        }
      ],
      "stateMutability": "view",
      "type": "function"
    },
    {
      "inputs": [
        {
          "internalType": "uint256",
          "name": "amount",
          "type": "uint256"
        }
      ],
      "name": "increaseConverterLiquidity",
      "outputs": [],
      "stateMutability": "nonpayable",
      "type": "function"
    },
    {
      "inputs": [],
      "name": "owner",
      "outputs": [
        {
          "internalType": "address",
          "name": "",
          "type": "address"
        }
      ],
      "stateMutability": "view",
      "type": "function"
    },
    {
      "inputs": [],
      "name": "pendingOwner",
      "outputs": [
        {
          "internalType": "address",
          "name": "",
          "type": "address"
        }
      ],
      "stateMutability": "view",
      "type": "function"
    },
    {
      "inputs": [],
      "name": "renounceOwnership",
      "outputs": [],
      "stateMutability": "nonpayable",
      "type": "function"
    },
    {
      "inputs": [
        {
          "internalType": "address",
          "name": "newOwner",
          "type": "address"
        }
      ],
      "name": "transferOwnership",
      "outputs": [],
      "stateMutability": "nonpayable",
      "type": "function"
    },
    {
      "inputs": [
        {
          "internalType": "address",
          "name": "newAuthorizer",
          "type": "address"
        }
      ],
      "name": "updateAuthorizer",
      "outputs": [],
      "stateMutability": "nonpayable",
      "type": "function"
    },
    {
      "inputs": [
        {
          "internalType": "uint256",
          "name": "perTxnMinAmount",
          "type": "uint256"
        },
        {
          "internalType": "uint256",
          "name": "perTxnMaxAmount",
          "type": "uint256"
        }
      ],
      "name": "updateConfigurations",
      "outputs": [],
      "stateMutability": "nonpayable",
      "type": "function"
    }
  ],
  "bytecode": "0x60a060405234801561001057600080fd5b506040516127873803806127878339818101604052810190610032919061028d565b61004e61004361012460201b60201c565b61012c60201b60201c565b610068672a6483d922e9393260c01b61016360201b60201c565b610082675dd3a4f3c4382ae860c01b61016360201b60201c565b8073ffffffffffffffffffffffffffffffffffffffff1660808173ffffffffffffffffffffffffffffffffffffffff16815250506100d0679e87578a1345043360c01b61016360201b60201c565b6100de61012460201b60201c565b600260006101000a81548173ffffffffffffffffffffffffffffffffffffffff021916908373ffffffffffffffffffffffffffffffffffffffff160217905550506102ba565b600033905090565b600160006101000a81549073ffffffffffffffffffffffffffffffffffffffff02191690556101608161016660201b60201c565b50565b50565b60008060009054906101000a900473ffffffffffffffffffffffffffffffffffffffff169050816000806101000a81548173ffffffffffffffffffffffffffffffffffffffff021916908373ffffffffffffffffffffffffffffffffffffffff1602179055508173ffffffffffffffffffffffffffffffffffffffff168173ffffffffffffffffffffffffffffffffffffffff167f8be0079c531659141344cd1fd0a4f28419497f9722a3daafe3b4186f6b6457e060405160405180910390a35050565b600080fd5b600073ffffffffffffffffffffffffffffffffffffffff82169050919050565b600061025a8261022f565b9050919050565b61026a8161024f565b811461027557600080fd5b50565b60008151905061028781610261565b92915050565b6000602082840312156102a3576102a261022a565b5b60006102b184828501610278565b91505092915050565b6080516124966102f16000396000818161029e0152818161057f0152818161072301528181610cca015261148401526124966000f3fe608060405234801561001057600080fd5b50600436106100ea5760003560e01c80638da5cb5b1161008c578063e0a6657811610066578063e0a66578146101e9578063e30c397814610205578063f2fde38b14610223578063feea15291461023f576100ea565b80638da5cb5b146101915780639f23c9e2146101af578063c72304ac146101cb576100ea565b80636a02fcc4116100c85780636a02fcc414610145578063715018a61461016157806376f0a62f1461016b57806379ba509714610187576100ea565b80632a34e861146100ef5780634d9f22651461010d578063637eaa4d14610129575b600080fd5b6100f761025e565b6040516101049190611b61565b60405180910390f35b61012760048036038101906101229190611bad565b61033b565b005b610143600480360381019061013e9190611bad565b610689565b005b61015f600480360381019061015a9190611ca7565b61082f565b005b610169610de9565b005b61018560048036038101906101809190611d34565b610dfd565b005b61018f610fbe565b005b61019961104b565b6040516101a69190611d83565b60405180910390f35b6101c960048036038101906101c49190611d9e565b611074565b005b6101d36115b2565b6040516101e09190611d83565b60405180910390f35b61020360048036038101906101fe9190611e19565b611618565b005b61020d61182f565b60405161021a9190611d83565b60405180910390f35b61023d60048036038101906102389190611e19565b611859565b005b610247611906565b604051610255929190611e46565b60405180910390f35b600061027467387bdb4dcbd3101b60c01b611953565b6102886756333ecac371fbe060c01b611953565b61029c6784d56176b39e3fe560c01b611953565b7f000000000000000000000000000000000000000000000000000000000000000073ffffffffffffffffffffffffffffffffffffffff166370a08231306040518263ffffffff1660e01b81526004016102f59190611d83565b602060405180830381865afa158015610312573d6000803e3d6000fd5b505050506040513d601f19601f820116820180604052508101906103369190611e84565b905090565b61034f67667821b56693dbc160c01b611953565b610357611956565b61036b678ee979cd8db8dd9560c01b611953565b61037f679297ef4da6e8701b60c01b611953565b61039367c1358d3f4fc672ff60c01b611953565b6103a76756f6e19c02ce6d3960c01b611953565b6000600654036103f7576103c56776bdae363555f51860c01b611953565b6040517f98e7913600000000000000000000000000000000000000000000000000000000815260040160405180910390fd5b61040b678ae91ec2d5c946ec60c01b611953565b61041f67986a25875d26464560c01b611953565b6104336781d350d7746d058660c01b611953565b60065481111561048357610451678ad0f8e51216366360c01b611953565b6040517f31a581eb00000000000000000000000000000000000000000000000000000000815260040160405180910390fd5b610497675a61e0a94b97513a60c01b611953565b6104ab67dafebd2c6db3882a60c01b611953565b6104bf6722153f4a0730f7ee60c01b611953565b6104c761025e565b811115610514576104e26709f4f9cf63e4729a60c01b611953565b6040517f3b4930bd00000000000000000000000000000000000000000000000000000000815260040160405180910390fd5b610528679fd00ed2c2e40e8e60c01b611953565b61053c6705e4f1329f73e02760c01b611953565b806006600082825461054e9190611ee0565b92505081905550610569677aca07f5fb328d0b60c01b611953565b61057d677a17d6f07660914360c01b611953565b7f000000000000000000000000000000000000000000000000000000000000000073ffffffffffffffffffffffffffffffffffffffff1663a9059cbb6105c16119d4565b836040518363ffffffff1660e01b81526004016105df929190611f14565b6020604051808303816000875af11580156105fe573d6000803e3d6000fd5b505050506040513d601f19601f820116820180604052508101906106229190611f75565b506106376792edf9a96864349660c01b611953565b61064b67e1e6339d97cc44ec60c01b611953565b7fdef4f5c5c7516369cb5aaa162fdf3f2c750a1c81c0fe3dfd9a47a97393cdafcf8160065460405161067e929190611e46565b60405180910390a150565b61069c6686283b82ade0da60c01b611953565b6106a4611956565b6106b867f47b652bdfdc5e8c60c01b611953565b6106cc6715066ffcd7034e9460c01b611953565b6106e0673f5308b0fb1e001a60c01b611953565b80600660008282546106f29190611fa2565b9250508190555061070d67e1c9c72fc2f7788060c01b611953565b61072167c9ce10e5f213850660c01b611953565b7f000000000000000000000000000000000000000000000000000000000000000073ffffffffffffffffffffffffffffffffffffffff166323b872dd6107656119d4565b30846040518463ffffffff1660e01b815260040161078593929190611fd6565b6020604051808303816000875af11580156107a4573d6000803e3d6000fd5b505050506040513d601f19601f820116820180604052508101906107c89190611f75565b506107dd672e99b11b6bd9bb6860c01b611953565b6107f1676f626c1c1ea18f9860c01b611953565b7faf0e92ed9a06daf8b906385b588b940a355de1516517e37e03bcb3bacf9b966481600654604051610824929190611e46565b60405180910390a150565b61084367cf40fb3ee412366c60c01b611953565b85610858674e0d1ae2655af5f060c01b611953565b61086c678b29c836ed8b92eb60c01b611953565b610880672041afa7b5bbe70d60c01b611953565b600073ffffffffffffffffffffffffffffffffffffffff168173ffffffffffffffffffffffffffffffffffffffff160361090e576108c86731c3c663b496a0d060c01b611953565b6108dc67be3e95d0f98cf84960c01b611953565b6040517fd92e233d00000000000000000000000000000000000000000000000000000000815260040160405180910390fd5b61092267a6fa6201358982d460c01b611953565b6109366728dbe7f75b83a9a560c01b611953565b61094a67897248e8ea66ec6260c01b611953565b61095e674f51f0701166a23b60c01b611953565b61097267964c11e00ff53b9a60c01b611953565b61098667e0523154dd56e62a60c01b611953565b60006109c4876109946119d4565b88306040516020016109a99493929190612155565b604051602081830303815290604052805190602001206119dc565b90506109da677a548c1e8df4480d60c01b611953565b6109ee67ba3bce57f524bbf960c01b611953565b600260009054906101000a900473ffffffffffffffffffffffffffffffffffffffff1673ffffffffffffffffffffffffffffffffffffffff1660018287878760405160008152602001604052604051610a4a94939291906121cc565b6020604051602081039080840390855afa158015610a6c573d6000803e3d6000fd5b5050506020604051035173ffffffffffffffffffffffffffffffffffffffff1614610aeb57610aa5675da8290840423f4b60c01b611953565b610ab967d6ef44319481e49060c01b611953565b6040517fa7a059bc00000000000000000000000000000000000000000000000000000000815260040160405180910390fd5b610aff67ad6f3ceae42b0c8960c01b611953565b610b136779972ec682858c4860c01b611953565b610b276738a44cf9b626ba1a60c01b611953565b6003600082815260200190815260200160002060009054906101000a900460ff1615610ba757610b61676ce7d62bb28b579260c01b611953565b610b7567d0c9b18690c3fbdb60c01b611953565b6040517fcce9a82400000000000000000000000000000000000000000000000000000000815260040160405180910390fd5b610bbb677461c61c4ad0a85060c01b611953565b610bcf67905f74a8a113933f60c01b611953565b60016003600083815260200190815260200160002060006101000a81548160ff021916908315150217905550610c0f6796170f4e7595922260c01b611953565b610c2367e89a4254bce8069660c01b611953565b86610c2c61025e565b1015610c8c57610c46671c95dcf529eb0a9f60c01b611953565b610c5a6717d58ec77b573d5b60c01b611953565b6040517f3b4930bd00000000000000000000000000000000000000000000000000000000815260040160405180910390fd5b610ca067725a3e16029e804560c01b611953565b610cb46716561048dba2edf960c01b611953565b610cc86788a065cf914982c860c01b611953565b7f000000000000000000000000000000000000000000000000000000000000000073ffffffffffffffffffffffffffffffffffffffff1663a9059cbb89896040518363ffffffff1660e01b8152600401610d23929190611f14565b6020604051808303816000875af1158015610d42573d6000803e3d6000fd5b505050506040513d601f19601f82011682018060405250810190610d669190611f75565b50610d7b679c95ac088e583dc160c01b611953565b610d8f67be48a6dc839aaf1660c01b611953565b8773ffffffffffffffffffffffffffffffffffffffff167f62a9b3e6446ab559d6b82c4f02cc923cd3b4e47444ef86446dab81a4d781c5af8789604051610dd7929190612211565b60405180910390a25050505050505050565b610df1611956565b610dfb6000611a48565b565b610e11679bd9823a4cc92cfd60c01b611953565b610e19611956565b610e2d67df88cc99e7376b1560c01b611953565b610e41674dc83af2601ceabe60c01b611953565b610e556728c0b9da131d401360c01b611953565b610e6967e81a4427f153a82660c01b611953565b600082148015610e895750610e8867c28bf475f393098460c01b611a79565b5b80610eb05750818111158015610eaf5750610eae672eff0ba6c92560bd60c01b611a79565b5b5b15610f0f57610ec967d15d82d37cd56b0460c01b611953565b610edd674e6bfec448f7a56560c01b611953565b6040517f0eca686c00000000000000000000000000000000000000000000000000000000815260040160405180910390fd5b610f2367099614d41e8253a560c01b611953565b610f3767957ce1e7b041d5c760c01b611953565b81600481905550610f5267fe5f1b3b8fcc121b60c01b611953565b80600581905550610f6d67cd37d7a87b2bae4e60c01b611953565b610f8167de5b8df035e239e860c01b611953565b7f8485c7727cd53e56857497fd34c583b8a210322e0d093953b1ddb9f417db12cf8282604051610fb2929190611e46565b60405180910390a15050565b6000610fc86119d4565b90508073ffffffffffffffffffffffffffffffffffffffff16610fe961182f565b73ffffffffffffffffffffffffffffffffffffffff161461103f576040517f08c379a0000000000000000000000000000000000000000000000000000000008152600401611036906122bd565b60405180910390fd5b61104881611a48565b50565b60008060009054906101000a900473ffffffffffffffffffffffffffffffffffffffff16905090565b61108867f694cd9c17b9fa6d60c01b611953565b8461109d67beb65d4fe5f140d860c01b611953565b6110b1672716065b63b961b660c01b611953565b6110c5674350322be668cf6460c01b611953565b600454811080156110e657506110e5673fa8fb39c9f9ecdd60c01b611a79565b5b8061110e57506005548111801561110d575061110c67ab071cab6100f2a060c01b611a79565b5b5b1561116d57611127678563a6370bf28c6860c01b611953565b61113b67a41e696eee73413a60c01b611953565b6040517f17dfb4ac00000000000000000000000000000000000000000000000000000000815260040160405180910390fd5b611181676baebb29bf50ac4660c01b611953565b61119567debb73e10f7a416360c01b611953565b6111a967ec573c4f10a560f560c01b611953565b6111bd6703ee8e2a117f9d8860c01b611953565b6111d16734045640955dc11060c01b611953565b6111e5671adbfad42bb18ccd60c01b611953565b6000611223876111f36119d4565b88306040516020016112089493929190612329565b604051602081830303815290604052805190602001206119dc565b905061123967d596a0a16f3b232d60c01b611953565b61124d67383889ee63a36d5060c01b611953565b600260009054906101000a900473ffffffffffffffffffffffffffffffffffffffff1673ffffffffffffffffffffffffffffffffffffffff16600182878787604051600081526020016040526040516112a994939291906121cc565b6020604051602081039080840390855afa1580156112cb573d6000803e3d6000fd5b5050506020604051035173ffffffffffffffffffffffffffffffffffffffff161461134a5761130467a97016437fd20e3560c01b611953565b61131867dd201fb03df2792e60c01b611953565b6040517fa7a059bc00000000000000000000000000000000000000000000000000000000815260040160405180910390fd5b61135e674d8d8790f95efce660c01b611953565b611372677b5337b7da1fd58b60c01b611953565b611386670818c03a7ecaf9c660c01b611953565b6003600082815260200190815260200160002060009054906101000a900460ff1615611406576113c067c9b836ac2d7c002460c01b611953565b6113d4671826f7acb372a09360c01b611953565b6040517fcce9a82400000000000000000000000000000000000000000000000000000000815260040160405180910390fd5b61141a67d924a6984c3c3c5560c01b611953565b61142e67e88cc4db5df35e8160c01b611953565b60016003600083815260200190815260200160002060006101000a81548160ff02191690831515021790555061146e6742c0c18bc61d489260c01b611953565b61148267dc4edef93f954a0e60c01b611953565b7f000000000000000000000000000000000000000000000000000000000000000073ffffffffffffffffffffffffffffffffffffffff166323b872dd6114c66119d4565b308a6040518463ffffffff1660e01b81526004016114e693929190611fd6565b6020604051808303816000875af1158015611505573d6000803e3d6000fd5b505050506040513d601f19601f820116820180604052508101906115299190611f75565b5061153e67bcebc1b0fc4c77c160c01b611953565b6115526725e22a569e480d3960c01b611953565b61155a6119d4565b73ffffffffffffffffffffffffffffffffffffffff167fb999b06746a947f1958636b9b9377ae814fe578413dfffd4d3a7a96196fe02fc87896040516115a1929190612211565b60405180910390a250505050505050565b60006115c867b8855885b80e0f6160c01b611953565b6115dc673d6959c2af9db39460c01b611953565b6115f0674da53d9a173419c760c01b611953565b600260009054906101000a900473ffffffffffffffffffffffffffffffffffffffff16905090565b61162c67e382bcef254a5f6b60c01b611953565b80611641674e0d1ae2655af5f060c01b611953565b611655678b29c836ed8b92eb60c01b611953565b611669672041afa7b5bbe70d60c01b611953565b600073ffffffffffffffffffffffffffffffffffffffff168173ffffffffffffffffffffffffffffffffffffffff16036116f7576116b16731c3c663b496a0d060c01b611953565b6116c567be3e95d0f98cf84960c01b611953565b6040517fd92e233d00000000000000000000000000000000000000000000000000000000815260040160405180910390fd5b61170b67a6fa6201358982d460c01b611953565b61171f6728dbe7f75b83a9a560c01b611953565b61173367f1c686d898943bcf60c01b611953565b6117476766d004b2774c438a60c01b611953565b61174f611956565b611763671b09189a0d4bb9fd60c01b611953565b61177767030f2a254946942f60c01b611953565b61178b67aa30b104615a6eeb60c01b611953565b81600260006101000a81548173ffffffffffffffffffffffffffffffffffffffff021916908373ffffffffffffffffffffffffffffffffffffffff1602179055506117e0679cc52eb187e4b93060c01b611953565b6117f4679a1354d69bcaa21460c01b611953565b7f08f53e6a9fbc3949bc0b9266bbe1927f0b282a34d92876ccbe188c24d17c6cbb826040516118239190611d83565b60405180910390a15050565b6000600160009054906101000a900473ffffffffffffffffffffffffffffffffffffffff16905090565b611861611956565b80600160006101000a81548173ffffffffffffffffffffffffffffffffffffffff021916908373ffffffffffffffffffffffffffffffffffffffff1602179055508073ffffffffffffffffffffffffffffffffffffffff166118c161104b565b73ffffffffffffffffffffffffffffffffffffffff167f38d16b8cac22d99fc7c124b9cd0de2d3fa1faef420bfe791d8c362d765e2270060405160405180910390a350565b60008061191d67a605d4a1a860fcb860c01b611953565b61193167d0bc918c21c5854760c01b611953565b611945677ed5387fe48850ae60c01b611953565b600454600554915091509091565b50565b61195e6119d4565b73ffffffffffffffffffffffffffffffffffffffff1661197c61104b565b73ffffffffffffffffffffffffffffffffffffffff16146119d2576040517f08c379a00000000000000000000000000000000000000000000000000000000081526004016119c9906123ce565b60405180910390fd5b565b600033905090565b60006119f267c56f540cd146da0f60c01b611953565b611a06674087d2c01f5665cc60c01b611953565b611a1a675928fa1109fac6f760c01b611953565b81604051602001611a2b919061243a565b604051602081830303815290604052805190602001209050919050565b600160006101000a81549073ffffffffffffffffffffffffffffffffffffffff0219169055611a7681611a84565b50565b600060019050919050565b60008060009054906101000a900473ffffffffffffffffffffffffffffffffffffffff169050816000806101000a81548173ffffffffffffffffffffffffffffffffffffffff021916908373ffffffffffffffffffffffffffffffffffffffff1602179055508173ffffffffffffffffffffffffffffffffffffffff168173ffffffffffffffffffffffffffffffffffffffff167f8be0079c531659141344cd1fd0a4f28419497f9722a3daafe3b4186f6b6457e060405160405180910390a35050565b6000819050919050565b611b5b81611b48565b82525050565b6000602082019050611b766000830184611b52565b92915050565b600080fd5b611b8a81611b48565b8114611b9557600080fd5b50565b600081359050611ba781611b81565b92915050565b600060208284031215611bc357611bc2611b7c565b5b6000611bd184828501611b98565b91505092915050565b600073ffffffffffffffffffffffffffffffffffffffff82169050919050565b6000611c0582611bda565b9050919050565b611c1581611bfa565b8114611c2057600080fd5b50565b600081359050611c3281611c0c565b92915050565b6000819050919050565b611c4b81611c38565b8114611c5657600080fd5b50565b600081359050611c6881611c42565b92915050565b600060ff82169050919050565b611c8481611c6e565b8114611c8f57600080fd5b50565b600081359050611ca181611c7b565b92915050565b60008060008060008060c08789031215611cc457611cc3611b7c565b5b6000611cd289828a01611c23565b9650506020611ce389828a01611b98565b9550506040611cf489828a01611c59565b9450506060611d0589828a01611c92565b9350506080611d1689828a01611c59565b92505060a0611d2789828a01611c59565b9150509295509295509295565b60008060408385031215611d4b57611d4a611b7c565b5b6000611d5985828601611b98565b9250506020611d6a85828601611b98565b9150509250929050565b611d7d81611bfa565b82525050565b6000602082019050611d986000830184611d74565b92915050565b600080600080600060a08688031215611dba57611db9611b7c565b5b6000611dc888828901611b98565b9550506020611dd988828901611c59565b9450506040611dea88828901611c92565b9350506060611dfb88828901611c59565b9250506080611e0c88828901611c59565b9150509295509295909350565b600060208284031215611e2f57611e2e611b7c565b5b6000611e3d84828501611c23565b91505092915050565b6000604082019050611e5b6000830185611b52565b611e686020830184611b52565b9392505050565b600081519050611e7e81611b81565b92915050565b600060208284031215611e9a57611e99611b7c565b5b6000611ea884828501611e6f565b91505092915050565b7f4e487b7100000000000000000000000000000000000000000000000000000000600052601160045260246000fd5b6000611eeb82611b48565b9150611ef683611b48565b9250828203905081811115611f0e57611f0d611eb1565b5b92915050565b6000604082019050611f296000830185611d74565b611f366020830184611b52565b9392505050565b60008115159050919050565b611f5281611f3d565b8114611f5d57600080fd5b50565b600081519050611f6f81611f49565b92915050565b600060208284031215611f8b57611f8a611b7c565b5b6000611f9984828501611f60565b91505092915050565b6000611fad82611b48565b9150611fb883611b48565b9250828201905080821115611fd057611fcf611eb1565b5b92915050565b6000606082019050611feb6000830186611d74565b611ff86020830185611d74565b6120056040830184611b52565b949350505050565b600081905092915050565b7f5f5f636f6e76657273696f6e496e000000000000000000000000000000000000600082015250565b600061204e600e8361200d565b915061205982612018565b600e82019050919050565b6000819050919050565b61207f61207a82611b48565b612064565b82525050565b60008160601b9050919050565b600061209d82612085565b9050919050565b60006120af82612092565b9050919050565b6120c76120c282611bfa565b6120a4565b82525050565b6000819050919050565b6120e86120e382611c38565b6120cd565b82525050565b6000819050919050565b600061211361210e61210984611bda565b6120ee565b611bda565b9050919050565b6000612125826120f8565b9050919050565b60006121378261211a565b9050919050565b61214f61214a8261212c565b6120a4565b82525050565b600061216082612041565b915061216c828761206e565b60208201915061217c82866120b6565b60148201915061218c82856120d7565b60208201915061219c828461213e565b60148201915081905095945050505050565b6121b781611c38565b82525050565b6121c681611c6e565b82525050565b60006080820190506121e160008301876121ae565b6121ee60208301866121bd565b6121fb60408301856121ae565b61220860608301846121ae565b95945050505050565b600060408201905061222660008301856121ae565b6122336020830184611b52565b9392505050565b600082825260208201905092915050565b7f4f776e61626c6532537465703a2063616c6c6572206973206e6f74207468652060008201527f6e6577206f776e65720000000000000000000000000000000000000000000000602082015250565b60006122a760298361223a565b91506122b28261224b565b604082019050919050565b600060208201905081810360008301526122d68161229a565b9050919050565b7f5f5f636f6e76657273696f6e4f75740000000000000000000000000000000000600082015250565b6000612313600f8361200d565b915061231e826122dd565b600f82019050919050565b600061233482612306565b9150612340828761206e565b60208201915061235082866120b6565b60148201915061236082856120d7565b602082019150612370828461213e565b60148201915081905095945050505050565b7f4f776e61626c653a2063616c6c6572206973206e6f7420746865206f776e6572600082015250565b60006123b860208361223a565b91506123c382612382565b602082019050919050565b600060208201905081810360008301526123e7816123ab565b9050919050565b7f19457468657265756d205369676e6564204d6573736167653a0a333200000000600082015250565b6000612424601c8361200d565b915061242f826123ee565b601c82019050919050565b600061244582612417565b915061245182846120d7565b6020820191508190509291505056fea26469706673582212202de975a774a82480dee331fb3dab3a26abe6a0ec7f1fa4fda32a15ff4f7a8ae264736f6c634300081a0033",
  "linkReferences": {},
  "deployedLinkReferences": {}
}