{
  "_format": "hh-sol-artifact-1",
  "contractName": "TokenConversionManagerV3",
  "sourceName": "contracts/TokenConversionManagerV3.sol",
  "abi": [
    {
      "inputs": [
        {
          "internalType": "address",
          "name": "token",
          "type": "address"
        }
      ],
      "stateMutability": "nonpayable",
      "type": "constructor"
    },
    {
      "inputs": [],
      "name": "InsufficientConverterBalance",
      "type": "error"
    },
    {
      "inputs": [],
      "name": "InsufficientLiquidityBalance",
      "type": "error"
    },
    {
      "inputs": [],
      "name": "InvalidRequestOrSignature",
      "type": "error"
    },
    {
      "inputs": [],
      "name": "InvalidUpdateConfigurations",
      "type": "error"
    },
    {
      "inputs": [],
      "name": "UsedSignature",
      "type": "error"
    },
    {
      "inputs": [],
      "name": "ViolationOfTxAmountLimits",
      "type": "error"
    },
    {
      "inputs": [],
      "name": "WithdrawExceedsDeposit",
      "type": "error"
    },
    {
      "inputs": [],
      "name": "ZeroAddress",
      "type": "error"
    },
    {
      "anonymous": false,
      "inputs": [
        {
          "indexed": true,
          "internalType": "address",
          "name": "tokenHolder",
          "type": "address"
        },
        {
          "indexed": false,
          "internalType": "bytes32",
          "name": "conversionId",
          "type": "bytes32"
        },
        {
          "indexed": false,
          "internalType": "uint256",
          "name": "amount",
          "type": "uint256"
        }
      ],
      "name": "ConversionIn",
      "type": "event"
    },
    {
      "anonymous": false,
      "inputs": [
        {
          "indexed": true,
          "internalType": "address",
          "name": "tokenHolder",
          "type": "address"
        },
        {
          "indexed": false,
          "internalType": "bytes32",
          "name": "conversionId",
          "type": "bytes32"
        },
        {
          "indexed": false,
          "internalType": "uint256",
          "name": "amount",
          "type": "uint256"
        }
      ],
      "name": "ConversionOut",
      "type": "event"
    },
    {
      "anonymous": false,
      "inputs": [
        {
          "indexed": false,
          "internalType": "uint256",
          "name": "removed",
          "type": "uint256"
        },
        {
          "indexed": false,
          "internalType": "uint256",
          "name": "totalLiquidity",
          "type": "uint256"
        }
      ],
      "name": "DecreaseLiquidity",
      "type": "event"
    },
    {
      "anonymous": false,
      "inputs": [
        {
          "indexed": false,
          "internalType": "uint256",
          "name": "added",
          "type": "uint256"
        },
        {
          "indexed": false,
          "internalType": "uint256",
          "name": "totalLiquidity",
          "type": "uint256"
        }
      ],
      "name": "IncreaseLiquidity",
      "type": "event"
    },
    {
      "anonymous": false,
      "inputs": [
        {
          "indexed": false,
          "internalType": "address",
          "name": "conversionAuthorizer",
          "type": "address"
        }
      ],
      "name": "NewAuthorizer",
      "type": "event"
    },
    {
      "anonymous": false,
      "inputs": [
        {
          "indexed": true,
          "internalType": "address",
          "name": "previousOwner",
          "type": "address"
        },
        {
          "indexed": true,
          "internalType": "address",
          "name": "newOwner",
          "type": "address"
        }
      ],
      "name": "OwnershipTransferStarted",
      "type": "event"
    },
    {
      "anonymous": false,
      "inputs": [
        {
          "indexed": true,
          "internalType": "address",
          "name": "previousOwner",
          "type": "address"
        },
        {
          "indexed": true,
          "internalType": "address",
          "name": "newOwner",
          "type": "address"
        }
      ],
      "name": "OwnershipTransferred",
      "type": "event"
    },
    {
      "anonymous": false,
      "inputs": [
        {
          "indexed": false,
          "internalType": "uint256",
          "name": "perTxnMinAmount",
          "type": "uint256"
        },
        {
          "indexed": false,
          "internalType": "uint256",
          "name": "perTxnMaxAmount",
          "type": "uint256"
        },
        {
          "indexed": false,
          "internalType": "uint256",
          "name": "maxSupply",
          "type": "uint256"
        }
      ],
      "name": "UpdateConfiguration",
      "type": "event"
    },
    {
      "inputs": [],
      "name": "acceptOwnership",
      "outputs": [],
      "stateMutability": "nonpayable",
      "type": "function"
    },
    {
      "inputs": [
        {
          "internalType": "address",
          "name": "to",
          "type": "address"
        },
        {
          "internalType": "uint256",
          "name": "amount",
          "type": "uint256"
        },
        {
          "internalType": "bytes32",
          "name": "conversionId",
          "type": "bytes32"
        },
        {
          "internalType": "uint8",
          "name": "v",
          "type": "uint8"
        },
        {
          "internalType": "bytes32",
          "name": "r",
          "type": "bytes32"
        },
        {
          "internalType": "bytes32",
          "name": "s",
          "type": "bytes32"
        }
      ],
      "name": "conversionIn",
      "outputs": [],
      "stateMutability": "payable",
      "type": "function"
    },
    {
      "inputs": [
        {
          "internalType": "uint256",
          "name": "amount",
          "type": "uint256"
        },
        {
          "internalType": "bytes32",
          "name": "conversionId",
          "type": "bytes32"
        },
        {
          "internalType": "uint8",
          "name": "v",
          "type": "uint8"
        },
        {
          "internalType": "bytes32",
          "name": "r",
          "type": "bytes32"
        },
        {
          "internalType": "bytes32",
          "name": "s",
          "type": "bytes32"
        }
      ],
      "name": "conversionOut",
      "outputs": [],
      "stateMutability": "payable",
      "type": "function"
    },
    {
      "inputs": [
        {
          "internalType": "uint256",
          "name": "amount",
          "type": "uint256"
        }
      ],
      "name": "decreaseConverterLiquidity",
      "outputs": [],
      "stateMutability": "nonpayable",
      "type": "function"
    },
    {
      "inputs": [],
      "name": "getConversionAuthorizer",
      "outputs": [
        {
          "internalType": "address",
          "name": "",
          "type": "address"
        }
      ],
      "stateMutability": "view",
      "type": "function"
    },
    {
      "inputs": [],
      "name": "getConversionConfigurations",
      "outputs": [
        {
          "internalType": "uint256",
          "name": "",
          "type": "uint256"
        },
        {
          "internalType": "uint256",
          "name": "",
          "type": "uint256"
        },
        {
          "internalType": "uint256",
          "name": "",
          "type": "uint256"
        }
      ],
      "stateMutability": "view",
      "type": "function"
    },
    {
      "inputs": [],
      "name": "getConverterBalance",
      "outputs": [
        {
          "internalType": "uint256",
          "name": "",
          "type": "uint256"
        }
      ],
      "stateMutability": "view",
      "type": "function"
    },
    {
      "inputs": [
        {
          "internalType": "uint256",
          "name": "amount",
          "type": "uint256"
        }
      ],
      "name": "increaseConverterLiquidity",
      "outputs": [],
      "stateMutability": "nonpayable",
      "type": "function"
    },
    {
      "inputs": [],
      "name": "owner",
      "outputs": [
        {
          "internalType": "address",
          "name": "",
          "type": "address"
        }
      ],
      "stateMutability": "view",
      "type": "function"
    },
    {
      "inputs": [],
      "name": "pendingOwner",
      "outputs": [
        {
          "internalType": "address",
          "name": "",
          "type": "address"
        }
      ],
      "stateMutability": "view",
      "type": "function"
    },
    {
      "inputs": [],
      "name": "renounceOwnership",
      "outputs": [],
      "stateMutability": "nonpayable",
      "type": "function"
    },
    {
      "inputs": [
        {
          "internalType": "address",
          "name": "newOwner",
          "type": "address"
        }
      ],
      "name": "transferOwnership",
      "outputs": [],
      "stateMutability": "nonpayable",
      "type": "function"
    },
    {
      "inputs": [
        {
          "internalType": "address",
          "name": "newAuthorizer",
          "type": "address"
        }
      ],
      "name": "updateAuthorizer",
      "outputs": [],
      "stateMutability": "nonpayable",
      "type": "function"
    },
    {
      "inputs": [
        {
          "internalType": "uint256",
          "name": "perTxnMinAmount",
          "type": "uint256"
        },
        {
          "internalType": "uint256",
          "name": "perTxnMaxAmount",
          "type": "uint256"
        },
        {
          "internalType": "uint256",
          "name": "maxSupply",
          "type": "uint256"
        }
      ],
      "name": "updateConfigurations",
      "outputs": [],
      "stateMutability": "nonpayable",
      "type": "function"
    }
  ],
  "bytecode": "0x60a060405234801561001057600080fd5b50604051612b3c380380612b3c83398181016040528101906100329190610295565b61004e61004361012c60201b60201c565b61013460201b60201c565b600160028190555061007067cbe73da9d81dfb4560c01b61016b60201b60201c565b61008a6792c5588f30bfade460c01b61016b60201b60201c565b8073ffffffffffffffffffffffffffffffffffffffff1660808173ffffffffffffffffffffffffffffffffffffffff16815250506100d867019a784bb580d3dd60c01b61016b60201b60201c565b6100e661012c60201b60201c565b600360006101000a81548173ffffffffffffffffffffffffffffffffffffffff021916908373ffffffffffffffffffffffffffffffffffffffff160217905550506102c2565b600033905090565b600160006101000a81549073ffffffffffffffffffffffffffffffffffffffff02191690556101688161016e60201b60201c565b50565b50565b60008060009054906101000a900473ffffffffffffffffffffffffffffffffffffffff169050816000806101000a81548173ffffffffffffffffffffffffffffffffffffffff021916908373ffffffffffffffffffffffffffffffffffffffff1602179055508173ffffffffffffffffffffffffffffffffffffffff168173ffffffffffffffffffffffffffffffffffffffff167f8be0079c531659141344cd1fd0a4f28419497f9722a3daafe3b4186f6b6457e060405160405180910390a35050565b600080fd5b600073ffffffffffffffffffffffffffffffffffffffff82169050919050565b600061026282610237565b9050919050565b61027281610257565b811461027d57600080fd5b50565b60008151905061028f81610269565b92915050565b6000602082840312156102ab576102aa610232565b5b60006102b984828501610280565b91505092915050565b6080516128436102f96000396000818161032e0152818161060f015281816109d6015281816110e2015261171401526128436000f3fe6080604052600436106100dd5760003560e01c80638da5cb5b1161007f578063e0a6657811610059578063e0a6657814610244578063e30c39781461026d578063f2fde38b14610298578063feea1529146102c1576100dd565b80638da5cb5b146101d25780639f23c9e2146101fd578063c72304ac14610219576100dd565b8063637eaa4d116100bb578063637eaa4d1461015f5780636a02fcc414610188578063715018a6146101a457806379ba5097146101bb576100dd565b80632a34e861146100e25780634d9f22651461010d578063529c097014610136575b600080fd5b3480156100ee57600080fd5b506100f76102ee565b6040516101049190611e58565b60405180910390f35b34801561011957600080fd5b50610134600480360381019061012f9190611ea4565b6103cb565b005b34801561014257600080fd5b5061015d60048036038101906101589190611ed1565b610719565b005b34801561016b57600080fd5b5061018660048036038101906101819190611ea4565b61093b565b005b6101a2600480360381019061019d9190611ff1565b610ae2565b005b3480156101b057600080fd5b506101b961120a565b005b3480156101c757600080fd5b506101d061121e565b005b3480156101de57600080fd5b506101e76112ab565b6040516101f4919061208d565b60405180910390f35b610217600480360381019061021291906120a8565b6112d4565b005b34801561022557600080fd5b5061022e61184a565b60405161023b919061208d565b60405180910390f35b34801561025057600080fd5b5061026b60048036038101906102669190612123565b6118b0565b005b34801561027957600080fd5b50610282611ac7565b60405161028f919061208d565b60405180910390f35b3480156102a457600080fd5b506102bf60048036038101906102ba9190612123565b611af1565b005b3480156102cd57600080fd5b506102d6611b9e565b6040516102e593929190612150565b60405180910390f35b600061030467879ef82e6623efd460c01b611bf3565b61031867a856256b4e5c8f2c60c01b611bf3565b61032c67d47f98278e04e6bf60c01b611bf3565b7f000000000000000000000000000000000000000000000000000000000000000073ffffffffffffffffffffffffffffffffffffffff166370a08231306040518263ffffffff1660e01b8152600401610385919061208d565b602060405180830381865afa1580156103a2573d6000803e3d6000fd5b505050506040513d601f19601f820116820180604052508101906103c6919061219c565b905090565b6103df6716d15743e44280eb60c01b611bf3565b6103e7611bf6565b6103fb677619c9dee272356860c01b611bf3565b61040f67b2b647f5db35ae1460c01b611bf3565b6104236733dbce3bba67373c60c01b611bf3565b6104376756482b4a76c4064b60c01b611bf3565b600060085403610487576104556709d0fbac16afac7a60c01b611bf3565b6040517f98e7913600000000000000000000000000000000000000000000000000000000815260040160405180910390fd5b61049b671857427bce26f40760c01b611bf3565b6104af6775aaf7ece7a0c94760c01b611bf3565b6104c36703388fabeea3065460c01b611bf3565b600854811115610513576104e167b857a614184e1ffb60c01b611bf3565b6040517f31a581eb00000000000000000000000000000000000000000000000000000000815260040160405180910390fd5b61052767b57525c104c82ab260c01b611bf3565b61053b676dd960a14d6882cf60c01b611bf3565b61054f674463fc1cba69614060c01b611bf3565b6105576102ee565b8111156105a45761057267ee4a7d7ec341372b60c01b611bf3565b6040517f3b4930bd00000000000000000000000000000000000000000000000000000000815260040160405180910390fd5b6105b8672c78632a1b343c2b60c01b611bf3565b6105cc6773a55467976bf55b60c01b611bf3565b80600860008282546105de91906121f8565b925050819055506105f967f6898e85e1d7ec9160c01b611bf3565b61060d67f14474333db25bbc60c01b611bf3565b7f000000000000000000000000000000000000000000000000000000000000000073ffffffffffffffffffffffffffffffffffffffff1663a9059cbb610651611c74565b836040518363ffffffff1660e01b815260040161066f92919061222c565b6020604051808303816000875af115801561068e573d6000803e3d6000fd5b505050506040513d601f19601f820116820180604052508101906106b2919061228d565b506106c76799af81869fd5958660c01b611bf3565b6106db67038bdd862364315560c01b611bf3565b7fdef4f5c5c7516369cb5aaa162fdf3f2c750a1c81c0fe3dfd9a47a97393cdafcf8160085460405161070e9291906122ba565b60405180910390a150565b61072d670dfcec0fa66ee2c360c01b611bf3565b610735611bf6565b6107496742d7352b5676384660c01b611bf3565b61075d67941973dcd0d1055060c01b611bf3565b61077167aa728fe232c5d83260c01b611bf3565b610785672b5a1175e6a2f13460c01b611bf3565b6000831480156107a557506107a467071c4d9e4b387cbd60c01b611c7c565b5b806107e857508282111580156107cb57506107ca67d3f3b183e1e382a960c01b611c7c565b5b80156107e757506107e66734f3428acd7ff4b560c01b611c7c565b5b5b8061080f575060008114801561080e575061080d67780a49291a296fa860c01b611c7c565b5b5b1561086e57610828672996f9a5eab5f7c260c01b611bf3565b61083c6740d9831c5fb7bbd660c01b611bf3565b6040517f0eca686c00000000000000000000000000000000000000000000000000000000815260040160405180910390fd5b61088267a0b507cdb06a9b7360c01b611bf3565b610896677ee227776ad8ec3d60c01b611bf3565b826005819055506108b16702e2bc32ff97734e60c01b611bf3565b816006819055506108cc674b89e7605331075960c01b611bf3565b806007819055506108e767db737fc131ace76860c01b611bf3565b6108fb67a9edc6909479552560c01b611bf3565b7fb2efb0aa6e279553a1e5567ebb495d322192aa43c5fc3073cba4601d52009ab483838360405161092e93929190612150565b60405180910390a1505050565b61094f67f48586446e7a8ddd60c01b611bf3565b610957611bf6565b61096b67216cf8fde59c40b560c01b611bf3565b61097f6757974d36044b487c60c01b611bf3565b610993678b680c05aae14d0560c01b611bf3565b80600860008282546109a591906122e3565b925050819055506109c067116d793393ed71e660c01b611bf3565b6109d4673db2e173b18dc33a60c01b611bf3565b7f000000000000000000000000000000000000000000000000000000000000000073ffffffffffffffffffffffffffffffffffffffff166323b872dd610a18611c74565b30846040518463ffffffff1660e01b8152600401610a3893929190612317565b6020604051808303816000875af1158015610a57573d6000803e3d6000fd5b505050506040513d601f19601f82011682018060405250810190610a7b919061228d565b50610a9067c246a071d3969baa60c01b611bf3565b610aa467770336d98c9c935260c01b611bf3565b7faf0e92ed9a06daf8b906385b588b940a355de1516517e37e03bcb3bacf9b966481600854604051610ad79291906122ba565b60405180910390a150565b610af667f1bb0a557003c01660c01b611bf3565b84610b0b67926754f1be6ed9a060c01b611bf3565b610b1f67eee796dd9d91dfae60c01b611bf3565b610b3367766e4fa2e4d02bf860c01b611bf3565b60055481108015610b545750610b5367b3269582add7f1f560c01b611c7c565b5b80610b7c575060065481118015610b7b5750610b7a67a28c6a9acde7284760c01b611c7c565b5b5b15610bdb57610b9567dcd7698afb82bf1b60c01b611bf3565b610ba967efa4a6c2b624e81760c01b611bf3565b6040517f17dfb4ac00000000000000000000000000000000000000000000000000000000815260040160405180910390fd5b610bef671814a2f066df63b660c01b611bf3565b610c0367d15010841beb0b6c60c01b611bf3565b610c1767a3675027ffd4afe160c01b611bf3565b610c2b67102c48eec19bfb0a60c01b611bf3565b610c33611c87565b610c4767fd8d1d04b829fe6260c01b611bf3565b610c5b674b5187a19aa0941c60c01b611bf3565b86610c706720308f24fb5625f360c01b611bf3565b610c84674cfa2c045a36b5dc60c01b611bf3565b610c9867a612c69e3bffa58e60c01b611bf3565b600073ffffffffffffffffffffffffffffffffffffffff168173ffffffffffffffffffffffffffffffffffffffff1603610d2657610ce067e9a88d3ffbff7ba660c01b611bf3565b610cf467714eead27b26e42160c01b611bf3565b6040517fd92e233d00000000000000000000000000000000000000000000000000000000815260040160405180910390fd5b610d3a673307c6329d43afc360c01b611bf3565b610d4e67ba28eb22e0d76afa60c01b611bf3565b610d6267035ff07676b73b4060c01b611bf3565b610d766731ea12e1b3d880e660c01b611bf3565b610d8a67f8bbef7226d80b7160c01b611bf3565b610d9e678001f7433bc271ab60c01b611bf3565b6000610ddc88610dac611c74565b8930604051602001610dc19493929190612496565b60405160208183030381529060405280519060200120611cd4565b9050610df2679bb08710f1508c5960c01b611bf3565b610e0667db97e00c222f5dbf60c01b611bf3565b600360009054906101000a900473ffffffffffffffffffffffffffffffffffffffff1673ffffffffffffffffffffffffffffffffffffffff1660018288888860405160008152602001604052604051610e62949392919061250d565b6020604051602081039080840390855afa158015610e84573d6000803e3d6000fd5b5050506020604051035173ffffffffffffffffffffffffffffffffffffffff1614610f0357610ebd67a361d7659f65ce8a60c01b611bf3565b610ed167f642c06139d0340860c01b611bf3565b6040517fa7a059bc00000000000000000000000000000000000000000000000000000000815260040160405180910390fd5b610f1767461e2b29a4c0d9ea60c01b611bf3565b610f2b67e7fee7253f76a3fe60c01b611bf3565b610f3f676fb0580abe4c6a2860c01b611bf3565b6004600082815260200190815260200160002060009054906101000a900460ff1615610fbf57610f7967116b48704bd197bb60c01b611bf3565b610f8d670e839da6ed76ec6960c01b611bf3565b6040517fcce9a82400000000000000000000000000000000000000000000000000000000815260040160405180910390fd5b610fd3674c491ec0b4941d6260c01b611bf3565b610fe767e822ee17420cef6e60c01b611bf3565b60016004600083815260200190815260200160002060006101000a81548160ff0219169083151502179055506110276785fcbe342895491060c01b611bf3565b61103b67e11a31819220ffa560c01b611bf3565b876110446102ee565b10156110a45761105e67fde2b37d41ffb64560c01b611bf3565b611072675c422095daa7f4ed60c01b611bf3565b6040517f3b4930bd00000000000000000000000000000000000000000000000000000000815260040160405180910390fd5b6110b8674529cb224d76d8e660c01b611bf3565b6110cc67b49b623bd379bb6860c01b611bf3565b6110e067cc70fd01756f1d2260c01b611bf3565b7f000000000000000000000000000000000000000000000000000000000000000073ffffffffffffffffffffffffffffffffffffffff1663a9059cbb8a8a6040518363ffffffff1660e01b815260040161113b92919061222c565b6020604051808303816000875af115801561115a573d6000803e3d6000fd5b505050506040513d601f19601f8201168201806040525081019061117e919061228d565b506111936713b524c21120063c60c01b611bf3565b6111a7673db6474f8d3d4fc960c01b611bf3565b8873ffffffffffffffffffffffffffffffffffffffff167f62a9b3e6446ab559d6b82c4f02cc923cd3b4e47444ef86446dab81a4d781c5af888a6040516111ef929190612552565b60405180910390a25050611201611d40565b50505050505050565b611212611bf6565b61121c6000611d4a565b565b6000611228611c74565b90508073ffffffffffffffffffffffffffffffffffffffff16611249611ac7565b73ffffffffffffffffffffffffffffffffffffffff161461129f576040517f08c379a0000000000000000000000000000000000000000000000000000000008152600401611296906125fe565b60405180910390fd5b6112a881611d4a565b50565b60008060009054906101000a900473ffffffffffffffffffffffffffffffffffffffff16905090565b6112e8672d7a692ee3552f0960c01b611bf3565b846112fd67926754f1be6ed9a060c01b611bf3565b61131167eee796dd9d91dfae60c01b611bf3565b61132567766e4fa2e4d02bf860c01b611bf3565b60055481108015611346575061134567b3269582add7f1f560c01b611c7c565b5b8061136e57506006548111801561136d575061136c67a28c6a9acde7284760c01b611c7c565b5b5b156113cd5761138767dcd7698afb82bf1b60c01b611bf3565b61139b67efa4a6c2b624e81760c01b611bf3565b6040517f17dfb4ac00000000000000000000000000000000000000000000000000000000815260040160405180910390fd5b6113e1671814a2f066df63b660c01b611bf3565b6113f567d15010841beb0b6c60c01b611bf3565b61140967fd92ba3d705a6f0460c01b611bf3565b61141d673fdcd201603df77960c01b611bf3565b611425611c87565b6114396716e21e69588ac8e860c01b611bf3565b61144d67dc8087200e432d3e60c01b611bf3565b611461676ec5062834af54b660c01b611bf3565b611475678f9133a34cdd633260c01b611bf3565b60006114b387611483611c74565b8830604051602001611498949392919061266a565b60405160208183030381529060405280519060200120611cd4565b90506114c967d326bb399345394760c01b611bf3565b6114dd67246bc442871360f760c01b611bf3565b600360009054906101000a900473ffffffffffffffffffffffffffffffffffffffff1673ffffffffffffffffffffffffffffffffffffffff1660018287878760405160008152602001604052604051611539949392919061250d565b6020604051602081039080840390855afa15801561155b573d6000803e3d6000fd5b5050506020604051035173ffffffffffffffffffffffffffffffffffffffff16146115da5761159467b8345dcaeb95d24b60c01b611bf3565b6115a867b824c935dfcc3cd360c01b611bf3565b6040517fa7a059bc00000000000000000000000000000000000000000000000000000000815260040160405180910390fd5b6115ee671e0978d476641cf360c01b611bf3565b61160267fccf13de060e065960c01b611bf3565b61161667886ea1d7eace49e060c01b611bf3565b6004600082815260200190815260200160002060009054906101000a900460ff16156116965761165067d6939d42ce14d2ae60c01b611bf3565b611664670af79098fce4633860c01b611bf3565b6040517fcce9a82400000000000000000000000000000000000000000000000000000000815260040160405180910390fd5b6116aa67407988507d55c35f60c01b611bf3565b6116be67b8dae3378c7b2a0360c01b611bf3565b60016004600083815260200190815260200160002060006101000a81548160ff0219169083151502179055506116fe6771997ff803a3dd7c60c01b611bf3565b61171267a54fc4e3e44e591c60c01b611bf3565b7f000000000000000000000000000000000000000000000000000000000000000073ffffffffffffffffffffffffffffffffffffffff166323b872dd611756611c74565b308a6040518463ffffffff1660e01b815260040161177693929190612317565b6020604051808303816000875af1158015611795573d6000803e3d6000fd5b505050506040513d601f19601f820116820180604052508101906117b9919061228d565b506117ce67fe3ac47befed819160c01b611bf3565b6117e267f7ac0541e70ed83160c01b611bf3565b6117ea611c74565b73ffffffffffffffffffffffffffffffffffffffff167fb999b06746a947f1958636b9b9377ae814fe578413dfffd4d3a7a96196fe02fc8789604051611831929190612552565b60405180910390a250611842611d40565b505050505050565b600061186067953635740a0b08ec60c01b611bf3565b61187467572c89665a41a0ac60c01b611bf3565b611888673046d86316fcf5f260c01b611bf3565b600360009054906101000a900473ffffffffffffffffffffffffffffffffffffffff16905090565b6118c4675077310bb5ea3a4060c01b611bf3565b806118d96720308f24fb5625f360c01b611bf3565b6118ed674cfa2c045a36b5dc60c01b611bf3565b61190167a612c69e3bffa58e60c01b611bf3565b600073ffffffffffffffffffffffffffffffffffffffff168173ffffffffffffffffffffffffffffffffffffffff160361198f5761194967e9a88d3ffbff7ba660c01b611bf3565b61195d67714eead27b26e42160c01b611bf3565b6040517fd92e233d00000000000000000000000000000000000000000000000000000000815260040160405180910390fd5b6119a3673307c6329d43afc360c01b611bf3565b6119b767ba28eb22e0d76afa60c01b611bf3565b6119cb675101c810e1a57a8f60c01b611bf3565b6119df67bd77c84c9c071fb560c01b611bf3565b6119e7611bf6565b6119fb67bc22978f93e16a8a60c01b611bf3565b611a0f673eff8acdf81156b360c01b611bf3565b611a23673066d00256fe602360c01b611bf3565b81600360006101000a81548173ffffffffffffffffffffffffffffffffffffffff021916908373ffffffffffffffffffffffffffffffffffffffff160217905550611a78675127e2e4e3e4cb3860c01b611bf3565b611a8c672a245f1a2498a53560c01b611bf3565b7f08f53e6a9fbc3949bc0b9266bbe1927f0b282a34d92876ccbe188c24d17c6cbb82604051611abb919061208d565b60405180910390a15050565b6000600160009054906101000a900473ffffffffffffffffffffffffffffffffffffffff16905090565b611af9611bf6565b80600160006101000a81548173ffffffffffffffffffffffffffffffffffffffff021916908373ffffffffffffffffffffffffffffffffffffffff1602179055508073ffffffffffffffffffffffffffffffffffffffff16611b596112ab565b73ffffffffffffffffffffffffffffffffffffffff167f38d16b8cac22d99fc7c124b9cd0de2d3fa1faef420bfe791d8c362d765e2270060405160405180910390a350565b6000806000611bb767aa738fc6fbf9fdf060c01b611bf3565b611bcb67334df6de82979a4b60c01b611bf3565b611bdf67b809d28eee6c76de60c01b611bf3565b600554600654600754925092509250909192565b50565b611bfe611c74565b73ffffffffffffffffffffffffffffffffffffffff16611c1c6112ab565b73ffffffffffffffffffffffffffffffffffffffff1614611c72576040517f08c379a0000000000000000000000000000000000000000000000000000000008152600401611c699061270f565b60405180910390fd5b565b600033905090565b600060019050919050565b6002805403611ccb576040517f08c379a0000000000000000000000000000000000000000000000000000000008152600401611cc29061277b565b60405180910390fd5b60028081905550565b6000611cea6706ef79cd31afef6a60c01b611bf3565b611cfe67b5aed6ae87f8fa1a60c01b611bf3565b611d1267f46768a1a82bfd9260c01b611bf3565b81604051602001611d2391906127e7565b604051602081830303815290604052805190602001209050919050565b6001600281905550565b600160006101000a81549073ffffffffffffffffffffffffffffffffffffffff0219169055611d7881611d7b565b50565b60008060009054906101000a900473ffffffffffffffffffffffffffffffffffffffff169050816000806101000a81548173ffffffffffffffffffffffffffffffffffffffff021916908373ffffffffffffffffffffffffffffffffffffffff1602179055508173ffffffffffffffffffffffffffffffffffffffff168173ffffffffffffffffffffffffffffffffffffffff167f8be0079c531659141344cd1fd0a4f28419497f9722a3daafe3b4186f6b6457e060405160405180910390a35050565b6000819050919050565b611e5281611e3f565b82525050565b6000602082019050611e6d6000830184611e49565b92915050565b600080fd5b611e8181611e3f565b8114611e8c57600080fd5b50565b600081359050611e9e81611e78565b92915050565b600060208284031215611eba57611eb9611e73565b5b6000611ec884828501611e8f565b91505092915050565b600080600060608486031215611eea57611ee9611e73565b5b6000611ef886828701611e8f565b9350506020611f0986828701611e8f565b9250506040611f1a86828701611e8f565b9150509250925092565b600073ffffffffffffffffffffffffffffffffffffffff82169050919050565b6000611f4f82611f24565b9050919050565b611f5f81611f44565b8114611f6a57600080fd5b50565b600081359050611f7c81611f56565b92915050565b6000819050919050565b611f9581611f82565b8114611fa057600080fd5b50565b600081359050611fb281611f8c565b92915050565b600060ff82169050919050565b611fce81611fb8565b8114611fd957600080fd5b50565b600081359050611feb81611fc5565b92915050565b60008060008060008060c0878903121561200e5761200d611e73565b5b600061201c89828a01611f6d565b965050602061202d89828a01611e8f565b955050604061203e89828a01611fa3565b945050606061204f89828a01611fdc565b935050608061206089828a01611fa3565b92505060a061207189828a01611fa3565b9150509295509295509295565b61208781611f44565b82525050565b60006020820190506120a2600083018461207e565b92915050565b600080600080600060a086880312156120c4576120c3611e73565b5b60006120d288828901611e8f565b95505060206120e388828901611fa3565b94505060406120f488828901611fdc565b935050606061210588828901611fa3565b925050608061211688828901611fa3565b9150509295509295909350565b60006020828403121561213957612138611e73565b5b600061214784828501611f6d565b91505092915050565b60006060820190506121656000830186611e49565b6121726020830185611e49565b61217f6040830184611e49565b949350505050565b60008151905061219681611e78565b92915050565b6000602082840312156121b2576121b1611e73565b5b60006121c084828501612187565b91505092915050565b7f4e487b7100000000000000000000000000000000000000000000000000000000600052601160045260246000fd5b600061220382611e3f565b915061220e83611e3f565b9250828203905081811115612226576122256121c9565b5b92915050565b6000604082019050612241600083018561207e565b61224e6020830184611e49565b9392505050565b60008115159050919050565b61226a81612255565b811461227557600080fd5b50565b60008151905061228781612261565b92915050565b6000602082840312156122a3576122a2611e73565b5b60006122b184828501612278565b91505092915050565b60006040820190506122cf6000830185611e49565b6122dc6020830184611e49565b9392505050565b60006122ee82611e3f565b91506122f983611e3f565b9250828201905080821115612311576123106121c9565b5b92915050565b600060608201905061232c600083018661207e565b612339602083018561207e565b6123466040830184611e49565b949350505050565b600081905092915050565b7f5f5f636f6e76657273696f6e496e000000000000000000000000000000000000600082015250565b600061238f600e8361234e565b915061239a82612359565b600e82019050919050565b6000819050919050565b6123c06123bb82611e3f565b6123a5565b82525050565b60008160601b9050919050565b60006123de826123c6565b9050919050565b60006123f0826123d3565b9050919050565b61240861240382611f44565b6123e5565b82525050565b6000819050919050565b61242961242482611f82565b61240e565b82525050565b6000819050919050565b600061245461244f61244a84611f24565b61242f565b611f24565b9050919050565b600061246682612439565b9050919050565b60006124788261245b565b9050919050565b61249061248b8261246d565b6123e5565b82525050565b60006124a182612382565b91506124ad82876123af565b6020820191506124bd82866123f7565b6014820191506124cd8285612418565b6020820191506124dd828461247f565b60148201915081905095945050505050565b6124f881611f82565b82525050565b61250781611fb8565b82525050565b600060808201905061252260008301876124ef565b61252f60208301866124fe565b61253c60408301856124ef565b61254960608301846124ef565b95945050505050565b600060408201905061256760008301856124ef565b6125746020830184611e49565b9392505050565b600082825260208201905092915050565b7f4f776e61626c6532537465703a2063616c6c6572206973206e6f74207468652060008201527f6e6577206f776e65720000000000000000000000000000000000000000000000602082015250565b60006125e860298361257b565b91506125f38261258c565b604082019050919050565b60006020820190508181036000830152612617816125db565b9050919050565b7f5f5f636f6e76657273696f6e4f75740000000000000000000000000000000000600082015250565b6000612654600f8361234e565b915061265f8261261e565b600f82019050919050565b600061267582612647565b915061268182876123af565b60208201915061269182866123f7565b6014820191506126a18285612418565b6020820191506126b1828461247f565b60148201915081905095945050505050565b7f4f776e61626c653a2063616c6c6572206973206e6f7420746865206f776e6572600082015250565b60006126f960208361257b565b9150612704826126c3565b602082019050919050565b60006020820190508181036000830152612728816126ec565b9050919050565b7f5265656e7472616e637947756172643a207265656e7472616e742063616c6c00600082015250565b6000612765601f8361257b565b91506127708261272f565b602082019050919050565b6000602082019050818103600083015261279481612758565b9050919050565b7f19457468657265756d205369676e6564204d6573736167653a0a333200000000600082015250565b60006127d1601c8361234e565b91506127dc8261279b565b601c82019050919050565b60006127f2826127c4565b91506127fe8284612418565b6020820191508190509291505056fea26469706673582212207f955d665d39290ee82192e65d21d952f082894411bcf28e8bdaf5f7d71c716d64736f6c634300081a0033",
  "linkReferences": {},
  "deployedLinkReferences": {}
}