{
  "_format": "hh-sol-artifact-1",
  "contractName": "TokenConversionManagerV3",
  "sourceName": "contracts/TokenConversionManagerV3.sol",
  "abi": [
    {
      "inputs": [
        {
          "internalType": "address",
          "name": "token",
          "type": "address"
        }
      ],
      "stateMutability": "nonpayable",
      "type": "constructor"
    },
    {
      "inputs": [],
      "name": "InsufficientConverterBalance",
      "type": "error"
    },
    {
      "inputs": [],
      "name": "InsufficientLiquidityBalance",
      "type": "error"
    },
    {
      "inputs": [],
      "name": "InvalidRequestOrSignature",
      "type": "error"
    },
    {
      "inputs": [],
      "name": "InvalidUpdateConfigurations",
      "type": "error"
    },
    {
      "inputs": [],
      "name": "UsedSignature",
      "type": "error"
    },
    {
      "inputs": [],
      "name": "ViolationOfTxAmountLimits",
      "type": "error"
    },
    {
      "inputs": [],
      "name": "WithdrawExceedsDeposit",
      "type": "error"
    },
    {
      "inputs": [],
      "name": "ZeroAddress",
      "type": "error"
    },
    {
      "anonymous": false,
      "inputs": [
        {
          "indexed": true,
          "internalType": "address",
          "name": "tokenHolder",
          "type": "address"
        },
        {
          "indexed": false,
          "internalType": "bytes32",
          "name": "conversionId",
          "type": "bytes32"
        },
        {
          "indexed": false,
          "internalType": "uint256",
          "name": "amount",
          "type": "uint256"
        }
      ],
      "name": "ConversionIn",
      "type": "event"
    },
    {
      "anonymous": false,
      "inputs": [
        {
          "indexed": true,
          "internalType": "address",
          "name": "tokenHolder",
          "type": "address"
        },
        {
          "indexed": false,
          "internalType": "bytes32",
          "name": "conversionId",
          "type": "bytes32"
        },
        {
          "indexed": false,
          "internalType": "uint256",
          "name": "amount",
          "type": "uint256"
        }
      ],
      "name": "ConversionOut",
      "type": "event"
    },
    {
      "anonymous": false,
      "inputs": [
        {
          "indexed": false,
          "internalType": "uint256",
          "name": "removed",
          "type": "uint256"
        },
        {
          "indexed": false,
          "internalType": "uint256",
          "name": "totalLiquidity",
          "type": "uint256"
        }
      ],
      "name": "DecreaseLiquidity",
      "type": "event"
    },
    {
      "anonymous": false,
      "inputs": [
        {
          "indexed": false,
          "internalType": "uint256",
          "name": "added",
          "type": "uint256"
        },
        {
          "indexed": false,
          "internalType": "uint256",
          "name": "totalLiquidity",
          "type": "uint256"
        }
      ],
      "name": "IncreaseLiquidity",
      "type": "event"
    },
    {
      "anonymous": false,
      "inputs": [
        {
          "indexed": false,
          "internalType": "address",
          "name": "conversionAuthorizer",
          "type": "address"
        }
      ],
      "name": "NewAuthorizer",
      "type": "event"
    },
    {
      "anonymous": false,
      "inputs": [
        {
          "indexed": true,
          "internalType": "address",
          "name": "previousOwner",
          "type": "address"
        },
        {
          "indexed": true,
          "internalType": "address",
          "name": "newOwner",
          "type": "address"
        }
      ],
      "name": "OwnershipTransferStarted",
      "type": "event"
    },
    {
      "anonymous": false,
      "inputs": [
        {
          "indexed": true,
          "internalType": "address",
          "name": "previousOwner",
          "type": "address"
        },
        {
          "indexed": true,
          "internalType": "address",
          "name": "newOwner",
          "type": "address"
        }
      ],
      "name": "OwnershipTransferred",
      "type": "event"
    },
    {
      "anonymous": false,
      "inputs": [
        {
          "indexed": false,
          "internalType": "uint256",
          "name": "perTxnMinAmount",
          "type": "uint256"
        },
        {
          "indexed": false,
          "internalType": "uint256",
          "name": "perTxnMaxAmount",
          "type": "uint256"
        }
      ],
      "name": "UpdateConfiguration",
      "type": "event"
    },
    {
      "inputs": [],
      "name": "acceptOwnership",
      "outputs": [],
      "stateMutability": "nonpayable",
      "type": "function"
    },
    {
      "inputs": [
        {
          "internalType": "address",
          "name": "to",
          "type": "address"
        },
        {
          "internalType": "uint256",
          "name": "amount",
          "type": "uint256"
        },
        {
          "internalType": "bytes32",
          "name": "conversionId",
          "type": "bytes32"
        },
        {
          "internalType": "uint8",
          "name": "v",
          "type": "uint8"
        },
        {
          "internalType": "bytes32",
          "name": "r",
          "type": "bytes32"
        },
        {
          "internalType": "bytes32",
          "name": "s",
          "type": "bytes32"
        }
      ],
      "name": "conversionIn",
      "outputs": [],
      "stateMutability": "payable",
      "type": "function"
    },
    {
      "inputs": [
        {
          "internalType": "uint256",
          "name": "amount",
          "type": "uint256"
        },
        {
          "internalType": "bytes32",
          "name": "conversionId",
          "type": "bytes32"
        },
        {
          "internalType": "uint8",
          "name": "v",
          "type": "uint8"
        },
        {
          "internalType": "bytes32",
          "name": "r",
          "type": "bytes32"
        },
        {
          "internalType": "bytes32",
          "name": "s",
          "type": "bytes32"
        }
      ],
      "name": "conversionOut",
      "outputs": [],
      "stateMutability": "payable",
      "type": "function"
    },
    {
      "inputs": [
        {
          "internalType": "uint256",
          "name": "amount",
          "type": "uint256"
        }
      ],
      "name": "decreaseConverterLiquidity",
      "outputs": [],
      "stateMutability": "nonpayable",
      "type": "function"
    },
    {
      "inputs": [],
      "name": "getConversionAuthorizer",
      "outputs": [
        {
          "internalType": "address",
          "name": "",
          "type": "address"
        }
      ],
      "stateMutability": "view",
      "type": "function"
    },
    {
      "inputs": [],
      "name": "getConversionConfigurations",
      "outputs": [
        {
          "internalType": "uint256",
          "name": "",
          "type": "uint256"
        },
        {
          "internalType": "uint256",
          "name": "",
          "type": "uint256"
        }
      ],
      "stateMutability": "view",
      "type": "function"
    },
    {
      "inputs": [],
      "name": "getConverterBalance",
      "outputs": [
        {
          "internalType": "uint256",
          "name": "",
          "type": "uint256"
        }
      ],
      "stateMutability": "view",
      "type": "function"
    },
    {
      "inputs": [
        {
          "internalType": "uint256",
          "name": "amount",
          "type": "uint256"
        }
      ],
      "name": "increaseConverterLiquidity",
      "outputs": [],
      "stateMutability": "nonpayable",
      "type": "function"
    },
    {
      "inputs": [],
      "name": "owner",
      "outputs": [
        {
          "internalType": "address",
          "name": "",
          "type": "address"
        }
      ],
      "stateMutability": "view",
      "type": "function"
    },
    {
      "inputs": [],
      "name": "pendingOwner",
      "outputs": [
        {
          "internalType": "address",
          "name": "",
          "type": "address"
        }
      ],
      "stateMutability": "view",
      "type": "function"
    },
    {
      "inputs": [],
      "name": "renounceOwnership",
      "outputs": [],
      "stateMutability": "nonpayable",
      "type": "function"
    },
    {
      "inputs": [
        {
          "internalType": "address",
          "name": "newOwner",
          "type": "address"
        }
      ],
      "name": "transferOwnership",
      "outputs": [],
      "stateMutability": "nonpayable",
      "type": "function"
    },
    {
      "inputs": [
        {
          "internalType": "address",
          "name": "newAuthorizer",
          "type": "address"
        }
      ],
      "name": "updateAuthorizer",
      "outputs": [],
      "stateMutability": "nonpayable",
      "type": "function"
    },
    {
      "inputs": [
        {
          "internalType": "uint256",
          "name": "perTxnMinAmount",
          "type": "uint256"
        },
        {
          "internalType": "uint256",
          "name": "perTxnMaxAmount",
          "type": "uint256"
        }
      ],
      "name": "updateConfigurations",
      "outputs": [],
      "stateMutability": "nonpayable",
      "type": "function"
    }
  ],
  "bytecode": "0x60a060405234801561001057600080fd5b50604051612a87380380612a8783398181016040528101906100329190610295565b61004e61004361012c60201b60201c565b61013460201b60201c565b6001600281905550610070678b29c836ed8b92eb60c01b61016b60201b60201c565b61008a672041afa7b5bbe70d60c01b61016b60201b60201c565b8073ffffffffffffffffffffffffffffffffffffffff1660808173ffffffffffffffffffffffffffffffffffffffff16815250506100d86731c3c663b496a0d060c01b61016b60201b60201c565b6100e661012c60201b60201c565b600360006101000a81548173ffffffffffffffffffffffffffffffffffffffff021916908373ffffffffffffffffffffffffffffffffffffffff160217905550506102c2565b600033905090565b600160006101000a81549073ffffffffffffffffffffffffffffffffffffffff02191690556101688161016e60201b60201c565b50565b50565b60008060009054906101000a900473ffffffffffffffffffffffffffffffffffffffff169050816000806101000a81548173ffffffffffffffffffffffffffffffffffffffff021916908373ffffffffffffffffffffffffffffffffffffffff1602179055508173ffffffffffffffffffffffffffffffffffffffff168173ffffffffffffffffffffffffffffffffffffffff167f8be0079c531659141344cd1fd0a4f28419497f9722a3daafe3b4186f6b6457e060405160405180910390a35050565b600080fd5b600073ffffffffffffffffffffffffffffffffffffffff82169050919050565b600061026282610237565b9050919050565b61027281610257565b811461027d57600080fd5b50565b60008151905061028f81610269565b92915050565b6000602082840312156102ab576102aa610232565b5b60006102b984828501610280565b91505092915050565b60805161278e6102f96000396000818161032d0152818161060e015281816107b301528181610ebf01526116b1015261278e6000f3fe6080604052600436106100dd5760003560e01c80638da5cb5b1161007f578063e0a6657811610059578063e0a6657814610244578063e30c39781461026d578063f2fde38b14610298578063feea1529146102c1576100dd565b80638da5cb5b146101d25780639f23c9e2146101fd578063c72304ac14610219576100dd565b80636a02fcc4116100bb5780636a02fcc41461015f578063715018a61461017b57806376f0a62f1461019257806379ba5097146101bb576100dd565b80632a34e861146100e25780634d9f22651461010d578063637eaa4d14610136575b600080fd5b3480156100ee57600080fd5b506100f76102ed565b6040516101049190611ded565b60405180910390f35b34801561011957600080fd5b50610134600480360381019061012f9190611e39565b6103ca565b005b34801561014257600080fd5b5061015d60048036038101906101589190611e39565b610718565b005b61017960048036038101906101749190611f33565b6108bf565b005b34801561018757600080fd5b50610190610fe7565b005b34801561019e57600080fd5b506101b960048036038101906101b49190611fc0565b610ffb565b005b3480156101c757600080fd5b506101d06111bc565b005b3480156101de57600080fd5b506101e7611249565b6040516101f4919061200f565b60405180910390f35b6102176004803603810190610212919061202a565b611272565b005b34801561022557600080fd5b5061022e6117e7565b60405161023b919061200f565b60405180910390f35b34801561025057600080fd5b5061026b600480360381019061026691906120a5565b61184d565b005b34801561027957600080fd5b50610282611a64565b60405161028f919061200f565b60405180910390f35b3480156102a457600080fd5b506102bf60048036038101906102ba91906120a5565b611a8e565b005b3480156102cd57600080fd5b506102d6611b3b565b6040516102e49291906120d2565b60405180910390f35b600061030367387bdb4dcbd3101b60c01b611b88565b6103176756333ecac371fbe060c01b611b88565b61032b6784d56176b39e3fe560c01b611b88565b7f000000000000000000000000000000000000000000000000000000000000000073ffffffffffffffffffffffffffffffffffffffff166370a08231306040518263ffffffff1660e01b8152600401610384919061200f565b602060405180830381865afa1580156103a1573d6000803e3d6000fd5b505050506040513d601f19601f820116820180604052508101906103c59190612110565b905090565b6103de67f8f80933642b76e160c01b611b88565b6103e6611b8b565b6103fa6732cd6641bdfd7feb60c01b611b88565b61040e679297ef4da6e8701b60c01b611b88565b61042267c1358d3f4fc672ff60c01b611b88565b6104366756f6e19c02ce6d3960c01b611b88565b600060075403610486576104546776bdae363555f51860c01b611b88565b6040517f98e7913600000000000000000000000000000000000000000000000000000000815260040160405180910390fd5b61049a678ae91ec2d5c946ec60c01b611b88565b6104ae67986a25875d26464560c01b611b88565b6104c26781d350d7746d058660c01b611b88565b600754811115610512576104e0678ad0f8e51216366360c01b611b88565b6040517f31a581eb00000000000000000000000000000000000000000000000000000000815260040160405180910390fd5b610526675a61e0a94b97513a60c01b611b88565b61053a67dafebd2c6db3882a60c01b611b88565b61054e6722153f4a0730f7ee60c01b611b88565b6105566102ed565b8111156105a3576105716709f4f9cf63e4729a60c01b611b88565b6040517f3b4930bd00000000000000000000000000000000000000000000000000000000815260040160405180910390fd5b6105b7679fd00ed2c2e40e8e60c01b611b88565b6105cb6705e4f1329f73e02760c01b611b88565b80600760008282546105dd919061216c565b925050819055506105f8677aca07f5fb328d0b60c01b611b88565b61060c677a17d6f07660914360c01b611b88565b7f000000000000000000000000000000000000000000000000000000000000000073ffffffffffffffffffffffffffffffffffffffff1663a9059cbb610650611c09565b836040518363ffffffff1660e01b815260040161066e9291906121a0565b6020604051808303816000875af115801561068d573d6000803e3d6000fd5b505050506040513d601f19601f820116820180604052508101906106b19190612201565b506106c66792edf9a96864349660c01b611b88565b6106da67e1e6339d97cc44ec60c01b611b88565b7fdef4f5c5c7516369cb5aaa162fdf3f2c750a1c81c0fe3dfd9a47a97393cdafcf8160075460405161070d9291906120d2565b60405180910390a150565b61072c67dcc1d16dd86ebe1a60c01b611b88565b610734611b8b565b61074867a365bf572174baea60c01b611b88565b61075c6715066ffcd7034e9460c01b611b88565b610770673f5308b0fb1e001a60c01b611b88565b8060076000828254610782919061222e565b9250508190555061079d67e1c9c72fc2f7788060c01b611b88565b6107b167c9ce10e5f213850660c01b611b88565b7f000000000000000000000000000000000000000000000000000000000000000073ffffffffffffffffffffffffffffffffffffffff166323b872dd6107f5611c09565b30846040518463ffffffff1660e01b815260040161081593929190612262565b6020604051808303816000875af1158015610834573d6000803e3d6000fd5b505050506040513d601f19601f820116820180604052508101906108589190612201565b5061086d672e99b11b6bd9bb6860c01b611b88565b610881676f626c1c1ea18f9860c01b611b88565b7faf0e92ed9a06daf8b906385b588b940a355de1516517e37e03bcb3bacf9b9664816007546040516108b49291906120d2565b60405180910390a150565b6108d367342f281411b81b1660c01b611b88565b846108e8678d8c5f4f37193b1160c01b611b88565b6108fc676ef58d53a293cbf060c01b611b88565b610910677ac20ea05957c73f60c01b611b88565b60055481108015610931575061093067d95e5dc7531ebe1660c01b611c11565b5b80610959575060065481118015610958575061095767c6dc04666329084060c01b611c11565b5b5b156109b8576109726729a7bc0df4137d7e60c01b611b88565b61098667beb65d4fe5f140d860c01b611b88565b6040517f17dfb4ac00000000000000000000000000000000000000000000000000000000815260040160405180910390fd5b6109cc672716065b63b961b660c01b611b88565b6109e0674350322be668cf6460c01b611b88565b6109f467904ff7823275eba660c01b611b88565b610a08675c267929e4ff849660c01b611b88565b610a10611c1c565b610a24671d68075058ae921160c01b611b88565b610a3867fa944a308b214d3b60c01b611b88565b86610a4d673fa8fb39c9f9ecdd60c01b611b88565b610a6167ab071cab6100f2a060c01b611b88565b610a75678563a6370bf28c6860c01b611b88565b600073ffffffffffffffffffffffffffffffffffffffff168173ffffffffffffffffffffffffffffffffffffffff1603610b0357610abd67a41e696eee73413a60c01b611b88565b610ad1676baebb29bf50ac4660c01b611b88565b6040517fd92e233d00000000000000000000000000000000000000000000000000000000815260040160405180910390fd5b610b1767debb73e10f7a416360c01b611b88565b610b2b674e0d1ae2655af5f060c01b611b88565b610b3f6742c0709a020e000c60c01b611b88565b610b53674f51f0701166a23b60c01b611b88565b610b6767964c11e00ff53b9a60c01b611b88565b610b7b67e0523154dd56e62a60c01b611b88565b6000610bb988610b89611c09565b8930604051602001610b9e94939291906123e1565b60405160208183030381529060405280519060200120611c69565b9050610bcf677a548c1e8df4480d60c01b611b88565b610be367ba3bce57f524bbf960c01b611b88565b600360009054906101000a900473ffffffffffffffffffffffffffffffffffffffff1673ffffffffffffffffffffffffffffffffffffffff1660018288888860405160008152602001604052604051610c3f9493929190612458565b6020604051602081039080840390855afa158015610c61573d6000803e3d6000fd5b5050506020604051035173ffffffffffffffffffffffffffffffffffffffff1614610ce057610c9a675da8290840423f4b60c01b611b88565b610cae67d6ef44319481e49060c01b611b88565b6040517fa7a059bc00000000000000000000000000000000000000000000000000000000815260040160405180910390fd5b610cf467ad6f3ceae42b0c8960c01b611b88565b610d086779972ec682858c4860c01b611b88565b610d1c6738a44cf9b626ba1a60c01b611b88565b6004600082815260200190815260200160002060009054906101000a900460ff1615610d9c57610d56676ce7d62bb28b579260c01b611b88565b610d6a67d0c9b18690c3fbdb60c01b611b88565b6040517fcce9a82400000000000000000000000000000000000000000000000000000000815260040160405180910390fd5b610db0677461c61c4ad0a85060c01b611b88565b610dc467905f74a8a113933f60c01b611b88565b60016004600083815260200190815260200160002060006101000a81548160ff021916908315150217905550610e046796170f4e7595922260c01b611b88565b610e1867e89a4254bce8069660c01b611b88565b87610e216102ed565b1015610e8157610e3b671c95dcf529eb0a9f60c01b611b88565b610e4f6717d58ec77b573d5b60c01b611b88565b6040517f3b4930bd00000000000000000000000000000000000000000000000000000000815260040160405180910390fd5b610e9567725a3e16029e804560c01b611b88565b610ea96716561048dba2edf960c01b611b88565b610ebd6788a065cf914982c860c01b611b88565b7f000000000000000000000000000000000000000000000000000000000000000073ffffffffffffffffffffffffffffffffffffffff1663a9059cbb8a8a6040518363ffffffff1660e01b8152600401610f189291906121a0565b6020604051808303816000875af1158015610f37573d6000803e3d6000fd5b505050506040513d601f19601f82011682018060405250810190610f5b9190612201565b50610f70679c95ac088e583dc160c01b611b88565b610f8467be48a6dc839aaf1660c01b611b88565b8873ffffffffffffffffffffffffffffffffffffffff167f62a9b3e6446ab559d6b82c4f02cc923cd3b4e47444ef86446dab81a4d781c5af888a604051610fcc92919061249d565b60405180910390a25050610fde611cd5565b50505050505050565b610fef611b8b565b610ff96000611cdf565b565b61100f67533c01d2caa8b90c60c01b611b88565b611017611b8b565b61102b67733a4c1fe5607eb660c01b611b88565b61103f67030f2a254946942f60c01b611b88565b61105367aa30b104615a6eeb60c01b611b88565b611067679cc52eb187e4b93060c01b611b88565b6000821480156110875750611086679a1354d69bcaa21460c01b611c11565b5b806110ae57508181111580156110ad57506110ac670829e47cec8945a860c01b611c11565b5b5b1561110d576110c767689740d3fe35990e60c01b611b88565b6110db674dc83af2601ceabe60c01b611b88565b6040517f0eca686c00000000000000000000000000000000000000000000000000000000815260040160405180910390fd5b6111216728c0b9da131d401360c01b611b88565b61113567e81a4427f153a82660c01b611b88565b8160058190555061115067c28bf475f393098460c01b611b88565b8060068190555061116b672eff0ba6c92560bd60c01b611b88565b61117f67d15d82d37cd56b0460c01b611b88565b7f8485c7727cd53e56857497fd34c583b8a210322e0d093953b1ddb9f417db12cf82826040516111b09291906120d2565b60405180910390a15050565b60006111c6611c09565b90508073ffffffffffffffffffffffffffffffffffffffff166111e7611a64565b73ffffffffffffffffffffffffffffffffffffffff161461123d576040517f08c379a000000000000000000000000000000000000000000000000000000000815260040161123490612549565b60405180910390fd5b61124681611cdf565b50565b60008060009054906101000a900473ffffffffffffffffffffffffffffffffffffffff16905090565b61128667c1fa85c3dc3143f760c01b611b88565b8461129b678d8c5f4f37193b1160c01b611b88565b6112af676ef58d53a293cbf060c01b611b88565b6112c3677ac20ea05957c73f60c01b611b88565b600554811080156112e457506112e367d95e5dc7531ebe1660c01b611c11565b5b8061130c57506006548111801561130b575061130a67c6dc04666329084060c01b611c11565b5b5b1561136b576113256729a7bc0df4137d7e60c01b611b88565b61133967beb65d4fe5f140d860c01b611b88565b6040517f17dfb4ac00000000000000000000000000000000000000000000000000000000815260040160405180910390fd5b61137f672716065b63b961b660c01b611b88565b611393674350322be668cf6460c01b611b88565b6113a666fb53ce27111d5160c01b611b88565b6113ba67d5eda63a93eb620060c01b611b88565b6113c2611c1c565b6113d667b6c3e93a3aa17f0960c01b611b88565b6113ea67cd37d7a87b2bae4e60c01b611b88565b6113fe67de5b8df035e239e860c01b611b88565b611412673c22eeea3036a35d60c01b611b88565b600061145087611420611c09565b883060405160200161143594939291906125b5565b60405160208183030381529060405280519060200120611c69565b905061146667c25e4a2e6496a7f060c01b611b88565b61147a6703ee8e2a117f9d8860c01b611b88565b600360009054906101000a900473ffffffffffffffffffffffffffffffffffffffff1673ffffffffffffffffffffffffffffffffffffffff16600182878787604051600081526020016040526040516114d69493929190612458565b6020604051602081039080840390855afa1580156114f8573d6000803e3d6000fd5b5050506020604051035173ffffffffffffffffffffffffffffffffffffffff1614611577576115316734045640955dc11060c01b611b88565b611545671adbfad42bb18ccd60c01b611b88565b6040517fa7a059bc00000000000000000000000000000000000000000000000000000000815260040160405180910390fd5b61158b67d596a0a16f3b232d60c01b611b88565b61159f67383889ee63a36d5060c01b611b88565b6115b367a97016437fd20e3560c01b611b88565b6004600082815260200190815260200160002060009054906101000a900460ff1615611633576115ed67dd201fb03df2792e60c01b611b88565b611601674d8d8790f95efce660c01b611b88565b6040517fcce9a82400000000000000000000000000000000000000000000000000000000815260040160405180910390fd5b611647677b5337b7da1fd58b60c01b611b88565b61165b670818c03a7ecaf9c660c01b611b88565b60016004600083815260200190815260200160002060006101000a81548160ff02191690831515021790555061169b67c9b836ac2d7c002460c01b611b88565b6116af671826f7acb372a09360c01b611b88565b7f000000000000000000000000000000000000000000000000000000000000000073ffffffffffffffffffffffffffffffffffffffff166323b872dd6116f3611c09565b308a6040518463ffffffff1660e01b815260040161171393929190612262565b6020604051808303816000875af1158015611732573d6000803e3d6000fd5b505050506040513d601f19601f820116820180604052508101906117569190612201565b5061176b67d924a6984c3c3c5560c01b611b88565b61177f67e88cc4db5df35e8160c01b611b88565b611787611c09565b73ffffffffffffffffffffffffffffffffffffffff167fb999b06746a947f1958636b9b9377ae814fe578413dfffd4d3a7a96196fe02fc87896040516117ce92919061249d565b60405180910390a2506117df611cd5565b505050505050565b60006117fd67b8855885b80e0f6160c01b611b88565b611811673d6959c2af9db39460c01b611b88565b611825674da53d9a173419c760c01b611b88565b600360009054906101000a900473ffffffffffffffffffffffffffffffffffffffff16905090565b6118616757d66f17f460f14460c01b611b88565b80611876673fa8fb39c9f9ecdd60c01b611b88565b61188a67ab071cab6100f2a060c01b611b88565b61189e678563a6370bf28c6860c01b611b88565b600073ffffffffffffffffffffffffffffffffffffffff168173ffffffffffffffffffffffffffffffffffffffff160361192c576118e667a41e696eee73413a60c01b611b88565b6118fa676baebb29bf50ac4660c01b611b88565b6040517fd92e233d00000000000000000000000000000000000000000000000000000000815260040160405180910390fd5b61194067debb73e10f7a416360c01b611b88565b611954674e0d1ae2655af5f060c01b611b88565b61196867801f41bdb044acbe60c01b611b88565b61197c67dfb6977ab99fdcdb60c01b611b88565b611984611b8b565b61199867aed3158488ef2edb60c01b611b88565b6119ac675dd3a4f3c4382ae860c01b611b88565b6119c0679e87578a1345043360c01b611b88565b81600360006101000a81548173ffffffffffffffffffffffffffffffffffffffff021916908373ffffffffffffffffffffffffffffffffffffffff160217905550611a156759a44e567c1896a260c01b611b88565b611a296781f87000a57a226560c01b611b88565b7f08f53e6a9fbc3949bc0b9266bbe1927f0b282a34d92876ccbe188c24d17c6cbb82604051611a58919061200f565b60405180910390a15050565b6000600160009054906101000a900473ffffffffffffffffffffffffffffffffffffffff16905090565b611a96611b8b565b80600160006101000a81548173ffffffffffffffffffffffffffffffffffffffff021916908373ffffffffffffffffffffffffffffffffffffffff1602179055508073ffffffffffffffffffffffffffffffffffffffff16611af6611249565b73ffffffffffffffffffffffffffffffffffffffff167f38d16b8cac22d99fc7c124b9cd0de2d3fa1faef420bfe791d8c362d765e2270060405160405180910390a350565b600080611b5267a605d4a1a860fcb860c01b611b88565b611b6667d0bc918c21c5854760c01b611b88565b611b7a677ed5387fe48850ae60c01b611b88565b600554600654915091509091565b50565b611b93611c09565b73ffffffffffffffffffffffffffffffffffffffff16611bb1611249565b73ffffffffffffffffffffffffffffffffffffffff1614611c07576040517f08c379a0000000000000000000000000000000000000000000000000000000008152600401611bfe9061265a565b60405180910390fd5b565b600033905090565b600060019050919050565b6002805403611c60576040517f08c379a0000000000000000000000000000000000000000000000000000000008152600401611c57906126c6565b60405180910390fd5b60028081905550565b6000611c7f67c56f540cd146da0f60c01b611b88565b611c93674087d2c01f5665cc60c01b611b88565b611ca7675928fa1109fac6f760c01b611b88565b81604051602001611cb89190612732565b604051602081830303815290604052805190602001209050919050565b6001600281905550565b600160006101000a81549073ffffffffffffffffffffffffffffffffffffffff0219169055611d0d81611d10565b50565b60008060009054906101000a900473ffffffffffffffffffffffffffffffffffffffff169050816000806101000a81548173ffffffffffffffffffffffffffffffffffffffff021916908373ffffffffffffffffffffffffffffffffffffffff1602179055508173ffffffffffffffffffffffffffffffffffffffff168173ffffffffffffffffffffffffffffffffffffffff167f8be0079c531659141344cd1fd0a4f28419497f9722a3daafe3b4186f6b6457e060405160405180910390a35050565b6000819050919050565b611de781611dd4565b82525050565b6000602082019050611e026000830184611dde565b92915050565b600080fd5b611e1681611dd4565b8114611e2157600080fd5b50565b600081359050611e3381611e0d565b92915050565b600060208284031215611e4f57611e4e611e08565b5b6000611e5d84828501611e24565b91505092915050565b600073ffffffffffffffffffffffffffffffffffffffff82169050919050565b6000611e9182611e66565b9050919050565b611ea181611e86565b8114611eac57600080fd5b50565b600081359050611ebe81611e98565b92915050565b6000819050919050565b611ed781611ec4565b8114611ee257600080fd5b50565b600081359050611ef481611ece565b92915050565b600060ff82169050919050565b611f1081611efa565b8114611f1b57600080fd5b50565b600081359050611f2d81611f07565b92915050565b60008060008060008060c08789031215611f5057611f4f611e08565b5b6000611f5e89828a01611eaf565b9650506020611f6f89828a01611e24565b9550506040611f8089828a01611ee5565b9450506060611f9189828a01611f1e565b9350506080611fa289828a01611ee5565b92505060a0611fb389828a01611ee5565b9150509295509295509295565b60008060408385031215611fd757611fd6611e08565b5b6000611fe585828601611e24565b9250506020611ff685828601611e24565b9150509250929050565b61200981611e86565b82525050565b60006020820190506120246000830184612000565b92915050565b600080600080600060a0868803121561204657612045611e08565b5b600061205488828901611e24565b955050602061206588828901611ee5565b945050604061207688828901611f1e565b935050606061208788828901611ee5565b925050608061209888828901611ee5565b9150509295509295909350565b6000602082840312156120bb576120ba611e08565b5b60006120c984828501611eaf565b91505092915050565b60006040820190506120e76000830185611dde565b6120f46020830184611dde565b9392505050565b60008151905061210a81611e0d565b92915050565b60006020828403121561212657612125611e08565b5b6000612134848285016120fb565b91505092915050565b7f4e487b7100000000000000000000000000000000000000000000000000000000600052601160045260246000fd5b600061217782611dd4565b915061218283611dd4565b925082820390508181111561219a5761219961213d565b5b92915050565b60006040820190506121b56000830185612000565b6121c26020830184611dde565b9392505050565b60008115159050919050565b6121de816121c9565b81146121e957600080fd5b50565b6000815190506121fb816121d5565b92915050565b60006020828403121561221757612216611e08565b5b6000612225848285016121ec565b91505092915050565b600061223982611dd4565b915061224483611dd4565b925082820190508082111561225c5761225b61213d565b5b92915050565b60006060820190506122776000830186612000565b6122846020830185612000565b6122916040830184611dde565b949350505050565b600081905092915050565b7f5f5f636f6e76657273696f6e496e000000000000000000000000000000000000600082015250565b60006122da600e83612299565b91506122e5826122a4565b600e82019050919050565b6000819050919050565b61230b61230682611dd4565b6122f0565b82525050565b60008160601b9050919050565b600061232982612311565b9050919050565b600061233b8261231e565b9050919050565b61235361234e82611e86565b612330565b82525050565b6000819050919050565b61237461236f82611ec4565b612359565b82525050565b6000819050919050565b600061239f61239a61239584611e66565b61237a565b611e66565b9050919050565b60006123b182612384565b9050919050565b60006123c3826123a6565b9050919050565b6123db6123d6826123b8565b612330565b82525050565b60006123ec826122cd565b91506123f882876122fa565b6020820191506124088286612342565b6014820191506124188285612363565b60208201915061242882846123ca565b60148201915081905095945050505050565b61244381611ec4565b82525050565b61245281611efa565b82525050565b600060808201905061246d600083018761243a565b61247a6020830186612449565b612487604083018561243a565b612494606083018461243a565b95945050505050565b60006040820190506124b2600083018561243a565b6124bf6020830184611dde565b9392505050565b600082825260208201905092915050565b7f4f776e61626c6532537465703a2063616c6c6572206973206e6f74207468652060008201527f6e6577206f776e65720000000000000000000000000000000000000000000000602082015250565b60006125336029836124c6565b915061253e826124d7565b604082019050919050565b6000602082019050818103600083015261256281612526565b9050919050565b7f5f5f636f6e76657273696f6e4f75740000000000000000000000000000000000600082015250565b600061259f600f83612299565b91506125aa82612569565b600f82019050919050565b60006125c082612592565b91506125cc82876122fa565b6020820191506125dc8286612342565b6014820191506125ec8285612363565b6020820191506125fc82846123ca565b60148201915081905095945050505050565b7f4f776e61626c653a2063616c6c6572206973206e6f7420746865206f776e6572600082015250565b60006126446020836124c6565b915061264f8261260e565b602082019050919050565b6000602082019050818103600083015261267381612637565b9050919050565b7f5265656e7472616e637947756172643a207265656e7472616e742063616c6c00600082015250565b60006126b0601f836124c6565b91506126bb8261267a565b602082019050919050565b600060208201905081810360008301526126df816126a3565b9050919050565b7f19457468657265756d205369676e6564204d6573736167653a0a333200000000600082015250565b600061271c601c83612299565b9150612727826126e6565b601c82019050919050565b600061273d8261270f565b91506127498284612363565b6020820191508190509291505056fea264697066735822122016b3f78a68ba238d49a7effdcce6ba1986825e706cc1c1ac3621383c36ac56e264736f6c634300081a0033",
  "linkReferences": {},
  "deployedLinkReferences": {}
}